:0400000059EF00F0C4
:060008005182B1ED1FF072
:100018005180D8CF88F0E8CF89F0E0CF8AF0E1CFDF
:100028008BF0E2CF8CF0D9CF8DF0DACF8EF0F6CF0F
:100038008FF0F7CF90F0F8CF91F0F5CF92F0F0B6BF
:10004800F0A01BD06F0E0001846F7F0E856F6BECE4
:1000580027F0660E0001876F760E866FC10EE82EB8
:10006800FED7862FFCD7872FFAD7A30E0001846FFF
:100078007F0E856F6BEC27F0F09092C0F5FF91C072
:10008800F8FF90C0F7FF8FC0F6FF8EC0DAFF8DC073
:10009800D9FF8CC0E2FF8BC0E1FF8AC0E0FF89C0B6
:1000A800E8FF88C0D8FF51901000F3EF23F0B4EFB9
:1000B80004F0010EB4EC27F0000193250101326F22
:1000C800000E000194210101336F000E00019521FB
:1000D8000101346F000E000196210101356FE0C166
:1000E800D9FFE1C1DAFF5F0EDE6E000EDD6EB4EC03
:1000F80027F0010132510001935D010133510001E4
:1001080094590101345100019559010135510001FB
:100118009659D8A0120098EF04F0020100A1C9D79F
:10012800490E0001976F020E986F000E9A6F000E2D
:10013800996F000E9C6F280E9B6F52EC1AF0000E00
:100148000201716F4891010E71D102017151D8B449
:100158003BD0B4EC27F0020172510001935D01011C
:10016800E26F02017351000194590101E36F02012A
:100178007451000195590101E46F020175510001A4
:1001880096590101E56FE551E41106E1E90EE25DDA
:10019800030EE359D8A018D0000E0201716F4891E0
:1001A800490E0001976F020E986F000E9A6F000EAD
:1001B800996F000E9C6F280E9B6F52EC1AF0000E80
:1001C8000101706F000E6F6F020148A172D7010123
:1001D8006F4B702B705104E1050E6F5DD8A069D785
:1001E80002014891000E0101706F000E6F6F460EFC
:1001F8000001976F010E986F000E9A6F000E996FAD
:10020800000E9C6F280E9B6F52EC1AF0000E010135
:10021800E66F000EE76F1CD0490EE725D96EDA6A43
:10022800020EDA22DF50D8B412D0270EE6610FD0C2
:10023800490EE725D96EDA6A020EDA22460EE6255D
:10024800E16EE26A010EE222DFCFE7FFE62BE72B41
:10025800020171510101E75DD8B003D0260EE765B0
:10026800DBD7490E0001976F020E986F000E9A6F48
:10027800000E996F000E9C6F280E9B6F52EC1AF0BF
:10028800000E0201716F020ED1D0460E00019E6F62
:10029800010E9F6FED0EA06F7F0EA16FE8EC22F0AC
:1002A8009E519F11D8B44FD7030EC1D0460E0001FE
:1002B8009E6F010E9F6FFB0EA06F7F0EA16FE8EC83
:1002C80022F09E519F11D8B403D0020176813BD70A
:1002D800460E9E6F010E9F6FFD0EA06F7F0EA16FE1
:1002E800E8EC22F09E519F11D8B45FD0460EA46F5F
:1002F800010EA56F730EA66F010EA76FFD0EA86FF6
:100308007F0EA96FEF0EAA6F7F0EAB6F3CEC1DF04E
:10031800730E0001A46F010EA56F7D0EA66F010E6E
:10032800A76F7E0EA86F010EA96F23EC20F0460E72
:100338000001A46F010EA56F730EA66F010EA76FC3
:10034800F50EA86F7F0EA96FF10EAA6F7F0EAB6F27
:100358003CEC1DF0730E0001A46F010EA56F7F0E1B
:10036800A66F010EA76F800EA86F010EA96F810EF0
:10037800AA6F010EAB6F820EAC6F010EAD6FBEECB3
:1003880015F07EC199F0000E00019A6F7FC19BF0B5
:1003980080C19CF081C19DF082C19EF001017D5118
:1003A80032EC23F002017683CED6460E9E6F010E04
:1003B8009F6FF30EA06F7F0EA16FE8EC22F09E51A5
:1003C8009F11D8B4C0D6460EA46F010EA56FF30EC8
:1003D800A66F7F0EA76FEF0EA86F7F0EA96F4FEC69
:1003E8001EF00101716F460E00019E6F010E9F6F96
:1003F800F70EA06F7F0EA16FE8EC22F09E519F11BF
:10040800D8B4A1D6460EA46F010EA56FF70EA66F3D
:100418007F0EA76FEF0EA86F7F0EA96F4FEC1EF02F
:100428000101726F7251D8A404D0040E0001B96F93
:1004380040D6460E0001A46F010EA56F730EA66F7D
:10044800010EA76FF90EA86F7F0EA96FEF0EAA6FA6
:100458007F0EAB6F3CEC1DF0730E0001A46F010E14
:10046800A56F830EA66F010EA76F840EA86F010EED
:10047800A96F23EC20F0460E0001A46F010EA56FB2
:10048800730EA66F010EA76FDE0EA86F7F0EA96F01
:10049800EF0EAA6F7F0EAB6F3CEC1DF0730E0001E0
:1004A800A46F010EA56F850EA66F010EA76F860EAD
:1004B800A86F010EA96F23EC20F0460E0001A46F6F
:1004C800010EA56F730EA66F010EA76FE50EA86F3C
:1004D8007F0EA96FEF0EAA6F7F0EAB6F3CEC1DF07D
:1004E800730E00019A6F010E9B6FC6EC1DF09AC047
:1004F80087F19BC088F10101000E88BFFF0E896F4C
:100508008A6F93D77251D8A44BD07105D8A40BD059
:10051800B591000E0001946F010E936F000E956F58
:1005280024EC27F0FED1020E7119D8A40BD0A791A4
:10053800000E0001946F080E936F000E956F24EC67
:1005480027F0EFD1030E7119D8A40BD09991000EA2
:100558000001946F0F0E936F000E956F24EC27F037
:10056800E0D1040E7119D8A40BD08B91000E0001B4
:10057800946F160E936F000E956F24EC27F0D1D16F
:10058800050E7119D8A4CDD102019791000E000172
:10059800946F1D0E936F000E956F24EC27F0C1D158
:1005A8007105D8A456D08A518911881104E1080E22
:1005B800875DD8A0B6D18A518911881103E10B0E45
:1005C800875DD8B0AED1B58183C1BFF184C1C0F118
:1005D80085C1C1F186C1C2F1B59387C1B6F1000EDC
:1005E8000001946F010E936F010E956F24EC27F0B4
:1005F800000E946F020E936F000E956F24EC27F097
:10060800000E946F030E936F87C195F024EC27F0CA
:10061800000E946F040E936F83C195F024EC27F0BD
:10062800000E946F050E936F84C195F024EC27F0AB
:10063800000E946F060E936F85C195F024EC27F099
:10064800000E946F070E936F86C195F024EC27F087
:1006580068D1020E7119D8A456D08A51891188110F
:1006680004E1080E875DD8A05CD18A5189118811F0
:1006780003E10B0E875DD8B054D1A78183C1B1F1D6
:1006880084C1B2F185C1B3F186C1B4F1A79387C122
:10069800A8F1000E0001946F080E936F010E956F7C
:1006A80024EC27F0000E946F090E936F000E956FDF
:1006B80024EC27F0000E946F0A0E936F87C195F013
:1006C80024EC27F0000E946F0B0E936F83C195F006
:1006D80024EC27F0000E946F0C0E936F84C195F0F4
:1006E80024EC27F0000E946F0D0E936F85C195F0E2
:1006F80024EC27F0000E946F0E0E936F86C195F0D0
:1007080024EC27F00ED1030E7119D8A456D08A51C3
:100718008911881104E1080E875DD8A002D18A5199
:100728008911881103E10B0E875DD8B0FAD0998141
:1007380083C1A3F184C1A4F185C1A5F186C1A6F145
:10074800999387C19AF1000E0001946F0F0E936F71
:10075800010E956F24EC27F0000E946F100E936F26
:10076800000E956F24EC27F0000E946F110E936F16
:1007780087C195F024EC27F0000E946F120E936F4A
:1007880083C195F024EC27F0000E946F130E936F3D
:1007980084C195F024EC27F0000E946F140E936F2B
:1007A80085C195F024EC27F0000E946F150E936F19
:1007B80086C195F024EC27F0B4D0040E7119D8A4A2
:1007C80056D08A518911881104E1080E875DD8A096
:1007D800A8D08A518911881103E10B0E875DD8B022
:1007E800A0D08B8183C195F184C196F185C197F121
:1007F80086C198F18B9387C18CF1000E0001946F2C
:10080800160E936F010E956F24EC27F0000E946F6F
:10081800170E936F000E956F24EC27F0000E946F5F
:10082800180E936F87C195F024EC27F0000E946F93
:10083800190E936F83C195F024EC27F0000E946F86
:100848001A0E936F84C195F024EC27F0000E946F74
:100858001B0E936F85C195F024EC27F0000E946F62
:100868001C0E936F86C195F024EC27F05AD0050E24
:100878007119D8A456D08A518911881104E1080E3B
:10088800875DD8A04ED08A51891188114AE10B0E94
:10089800875DD8B046D00201978183C1A1F284C197
:1008A800A2F285C1A3F286C1A4F2979387C198F2F8
:1008B800000E0001946F1D0E936F010E956F24ECCE
:1008C80027F0000E946F1E0E936F000E956F24ECA8
:1008D80027F0000E946F1F0E936F87C195F024ECDC
:1008E80027F0000E946F200E936F83C195F024ECCF
:1008F80027F0000E946F210E936F84C195F024ECBD
:1009080027F0000E946F220E936F85C195F024ECAA
:1009180027F0000E946F230E936F86C195F024EC98
:1009280027F0020176850FD4B9510101E26FE36B1C
:10093800E351000AD8A45DEF00F0E251000AD8B4F0
:1009480091EF00F0010AD8B400D4030AD8B49DD4BA
:10095800010AD8B4ABD4070AD8B4D4D55DEF00F0F7
:10096800E0C1D9FFE1C1DAFFDECFE2F1DDCFE3F18B
:10097800E351000AD8A409D0E251000AD8B45DEFC7
:1009880000F05F0AD8B47BEF00F0E0C1D9FFE1C105
:10099800DAFF000EDE6E000EDD6E120075D20A0E52
:1009A800B4EC27F00001932501013E6F000E000111
:1009B800942101013F6F000E000195210101406F54
:1009C800000E000196210101416FE7C2D9FFE8C27C
:1009D800DAFF3F0EDE6E000EDD6EB4EC27F001018B
:1009E8003E510001935D01013F51000194590101FD
:1009F8004051000195590101415100019659D8A073
:100A0800120026D20201034B042BF40E035D010EE3
:100A18000459D8A0C4D70081030E0001936F020EB9
:100A2800946FABEC27F0EDEC27F0000E946F030EFB
:100A3800936F1FEC28F0B3D7000E0001946F030EDC
:100A4800936F37EC27F00009D8B408D0030E0001E3
:100A5800936F020E946FABEC27F0A1D7034B042BD6
:100A6800045104E1C80E035DD8A099D7000E000117
:100A7800946F000E936FF4EC27F00101006F060EDF
:100A88000019D8B42AD1000E0001946F000E936F9C
:100A9800060E956F24EC27F0EDEC27F0000E946F0E
:100AA800010E936F000E956F24EC27F0000E946FE3
:100AB800020E936F000E956F24EC27F0000E946FD2
:100AC800030E936F080E956F24EC27F0000E946FB9
:100AD800040E936F000E956F24EC27F0000E946FB0
:100AE800050E936F000E956F24EC27F0000E946F9F
:100AF800060E936F000E956F24EC27F0000E946F8E
:100B0800070E936F000E956F24EC27F0000E946F7C
:100B1800080E936F000E956F24EC27F0000E946F6B
:100B2800090E936F000E956F24EC27F0000E946F5A
:100B38000A0E936F080E956F24EC27F0000E946F41
:100B48000B0E936F000E956F24EC27F0000E946F38
:100B58000C0E936F000E956F24EC27F0000E946F27
:100B68000D0E936F000E956F24EC27F0000E946F16
:100B78000E0E936F000E956F24EC27F0000E946F05
:100B88000F0E936F000E956F24EC27F0000E946FF4
:100B9800100E936F000E956F24EC27F0000E946FE3
:100BA800110E936F080E956F24EC27F0000E946FCA
:100BB800120E936F000E956F24EC27F0000E946FC1
:100BC800130E936F000E956F24EC27F0000E946FB0
:100BD800140E936F000E956F24EC27F0000E946F9F
:100BE800150E936F000E956F24EC27F0000E946F8E
:100BF800160E936F000E956F24EC27F0000E946F7D
:100C0800170E936F000E956F24EC27F0000E946F6B
:100C1800180E936F080E956F24EC27F0000E946F52
:100C2800190E936F000E956F24EC27F0000E946F49
:100C38001A0E936F000E956F24EC27F0000E946F38
:100C48001B0E936F000E956F24EC27F0000E946F27
:100C58001C0E936F000E956F24EC27F0000E946F16
:100C68001D0E936F000E956F24EC27F0000E946F05
:100C78001E0E936F000E956F24EC27F0000E946FF4
:100C88001F0E936F080E956F24EC27F0000E946FDB
:100C9800200E936F000E956F24EC27F0000E946FD2
:100CA800210E936F000E956F24EC27F0000E946FC1
:100CB800220E936F000E956F24EC27F0000E946FB0
:100CC800230E936F000E956F24EC27F0000E946F9F
:100CD800030E936F1FEC28F062D61AEC0FF02981EF
:100CE8008A0E0001936F7F0E946F22EC24F0170E8A
:100CF8000201416F700E406F110E436F940E426FE8
:100D0800000E0001946F010E936F1FEC28F047D678
:100D1800000E0001946F010E936F37EC27F0000965
:100D2800D8A494D676A106D0769119EC28F0DEECFA
:100D38000AF035D676A304D0769319EC28F02FD68E
:100D480076A507D076951AEC0FF0298119EC28F0D2
:100D580026D6404B412B700E405D170E4159D8A046
:100D68000CD0000E416F000E406F000E0001946F12
:100D7800040E936F1FEC28F012D608A102D0010EC2
:100D880001D0000E01012C6F0AD6000E0001946FED
:100D9800040E936F37EC27F00009D8B4B1D7010ED1
:100DA8003BEC26F093C0E9F294C0EAF2E9C293F072
:100DB800EAC294F0956B966B2C0E976F010E986FA4
:100DC800000E996F000E9A6FAFEC24F00B0E05D051
:100DD800D8909633953394339333E82EF9D7030E8E
:100DE80093250201446F000E000194210201456F12
:100DF800D6D5000E0001946F050E936F37EC27F0DF
:100E08000009D8B47DD7030E3BEC26F093C0EBF273
:100E180094C0ECF2EBC293F0ECC294F0956B966B35
:100E2800880E976F130E986F000E996F000E9A6FC9
:100E3800AFEC24F00B0E05D0D8909633953394334D
:100E48009333E82EF9D793C046F294C047F2A7D55A
:100E5800C2510101F76FF86BF851000AD8A49FD569
:100E6800F751000AD8B4CED5010AD8B451D7030A2D
:100E7800D8B495D5010AD8B4DFD5070AD8B485D730
:100E8800010AD8B4B6D78BD5E7C2D9FFE8C2DAFFD2
:100E9800DECFF7F1DDCFF8F10101F851000AD8A44F
:100EA80007D0F751000AD8B47AD53F0AD8B495D5F7
:100EB800E7C2D9FFE8C2DAFF000EDE6E000EDD6E73
:100EC8001200A451800B0101CD6F0001A451A4258B
:100ED8000101CF6F0001A3AF02D00101CF81010151
:100EE800CF51D8B40FD0CF29D8A409D0000E000113
:100EF800A16F000EA26F000EA36F000EA46F000179
:100F0800A38F09D0000E0001A16F000EA26F000E82
:100F1800A36F000EA46FA851800B0101CD1B000127
:100F2800A851A8250101CE6F0001A7AF02D0010189
:100F3800CE810101CE51D8B40FD0CE29D8A409D082
:100F4800000E0001A56F000EA66F000EA76F000E21
:100F5800A86F0001A78F09D0000E0001A56F000E31
:100F6800A66F000EA76F000EA86F0101CE51D8B46E
:100F780003D0CF51D8A40AD0000E0001A16F000EF3
:100F8800A26F000EA36F000EA46F12000001A751FC
:100F9800A103F3CFD8F1F4CFD9F10101D851D06F23
:100FA800D16BD26BD36BD951D46FD56BD66BD76B52
:100FB8000001A651A203F3CFD8F1F4CFD9F1010172
:100FC800D851D027000ED123D223D323D951D427E7
:100FD800000ED523D623D7230001A551A303F3CFB1
:100FE800D8F1F4CFD9F10101D851D027000ED1237F
:100FF800D223D323D951D427000ED523D623D723E0
:10100800D2C1D3F1D1C1D2F1D0C1D1F1D06B00019D
:10101800A551A203F3CFD8F1F4CFD9F10101D851EA
:10102800D027D951D123000ED223000ED32300019B
:10103800A651A103F3CFD8F1F4CFD9F10101D851CA
:10104800D027D951D123000ED223000ED323D2C1E9
:10105800D3F1D1C1D2F1D0C1D1F1D06B0001A551EA
:10106800A103F3CFD8F1F4CFD9F10101D851D0279A
:10107800D951D123000ED223000ED3230001A7514A
:10108800A203F3CFD8F1F4CFD9F10101D851D42775
:10109800D951D523000ED623000ED7230001A6511F
:1010A800A303F3CFD8F1F4CFD9F10101D851D42754
:1010B800D951D523000ED623000ED7230001A751FE
:1010C800A303F3CFD8F1F4CFD9F10101D85100012E
:1010D800A96F0101D9510001AA6FAB6BAC6BABC012
:1010E800ACF0AAC0ABF0A9C0AAF0A96BA951010144
:1010F800D4270001AA510101D5230001AB510101F8
:10110800D6230001AC510101D723D351D427000EB7
:10111800D523D623D723D2C1D3F1D1C1D2F1D0C19F
:10112800D1F1D06BCE51CFC1A9F00001AA6BA9278C
:10113800000EAA23820EA9250101D86FFF0E000117
:10114800AA210101D96F0FD0D890D437D537D63717
:10115800D737D3BFD481D890D037D137D237D33708
:10116800D807D8A0D907D6AFEFD7000ECE6FD3AF28
:1011780020D0FF0ED0150001A96FFF0E0101D11577
:101188000001AA6FFF0E0101D2150001AB6F7F0E9F
:101198000101D3150001AC6FA951AA11AB11AC1113
:1011A800D8B404D0010E0101CE6F03D00101D4B12F
:1011B800F9D7CE51D8B421D0010ED427000ED523AB
:1011C800D623D723D7A119D0D4C1A9F0D5C1AAF065
:1011D800D6C1ABF0D7C1ACF00001AC35AC33AB3302
:1011E800AA33A933A9C0D4F1AAC0D5F1ABC0D6F1AE
:1011F800ACC0D7F10101D84BD92BD9BF0DD0D951EB
:1012080003E1D829D8A008D0000ED46F000ED56FFE
:10121800800ED66F7F0E20D0D9BF05D0D9510EE1F0
:10122800D805D8B00BD0000ED46F000ED56F000EC5
:10123800D66F000ED76F000ECD6F0FD0D8C1CFF18B
:10124800FF0ED417FF0ED5177F0ED617000ED7172F
:10125800CFB1D68FD890CF31D76FCD51D713D4C156
:10126800A1F0D5C1A2F0D6C1A3F0D7C1A4F0120055
:101278000201A851800BAD6FA851A825AF6FA7BF79
:10128800AF81AF51D8B40DD0AF29D8A408D0000E83
:10129800A56F000EA66F000EA76F000EA86FA78F90
:1012A80006D0000EA56F000EA66F000EA76F000EE9
:1012B800A86FAC51800BAE6FAD51AE19D8A4AD8DEF
:1012C800AC51AC25AE6FABBFAE81AE51D8B40DD02A
:1012D800AE29D8A408D0000EA96F000EAA6F000E80
:1012E800AB6F000EAC6FAB8F06D0000EA96F000E6F
:1012F800AA6F000EAB6F000EAC6FAF51AE5DD8B0E9
:1013080022D0ADAD02D0800EAD1BAFC2B0F2AEC2DE
:10131800AFF2B0C2AEF2A5C2B0F2A9C2A5F2B0C295
:10132800A9F2A6C2B0F2AAC2A6F2B0C2AAF2A7C295
:10133800B0F2ABC2A7F2B0C2ABF2A8C2B0F2ACC274
:10134800A8F2B0C2ACF2000EB06FAF51AEC2F3F16A
:101358000101F46BF35F000EF45BF4BF2DD0F45180
:1013680004E11A0EF35DD8A027D00201A551A611F9
:10137800A711A811D8B402D0010E01D0000EB06F89
:10138800000EA56F000EA66F000EA76F000EA86FC7
:10139800AEC2AFF216D0B0A105D0D890B0310109D5
:1013A800B06F02D0D890B033A5B1B08FA835A833AC
:1013B800A733A633A533AF2B0201AE51AF5DD8A03A
:1013C800EAD7ADBD28D0AF51D8A409D0000EA56F7B
:1013D800000EA66F000EA76F000EA86F1200A9518D
:1013E800A527AA51A623AB51A723AC51A823A8A18E
:1013F80084D0B0A105D0D890B0310109B06F02D027
:10140800D890B033A5B1B08FA835A833A733A63389
:10141800A533AF2B72D0A951A55DAA51A659AB51DE
:10142800A759A851800A0101F36F0201AC51800A43
:101438000101F359D8B034D00201A551A95D0101C9
:10144800F36F0201A651AA590101F46F0201A751D5
:10145800AB590101F56F0201A851AC590101F66FB2
:10146800FF0EF3250201A56FFF0E0101F421020111
:10147800A66FFF0E0101F5210201A76FFF0E010102
:10148800F6210201A86F800EAD1BB06DB051D8A433
:1014980010D0010EA527000EA623A723A82309D044
:1014A8000201A951A55FAA51A65BAB51A75BAC513C
:1014B800A85BA551A611A711A811D8A41CD0B0519A
:1014C800D8A419D0000EA56F000EA66F000EA76F46
:1014D800000EA86F1200D890A537A637A737A837EF
:1014E800B0BFA581B0A102D0D88001D0D890B037C4
:1014F800AF51D8A4AF07A7AFEED7000EAE6FB0AF0D
:101508000ED0B0C2F3F17F0E0101F317D8B404D0A6
:10151800010E0201AE6F03D00201A5B1F9D7AE5199
:10152800D8B422D0010EA527000EA623A723A823EE
:10153800A8A11AD0A5C2F3F1A6C2F4F1A7C2F5F189
:10154800A8C2F6F10101F635F633F533F433F33377
:10155800F3C1A5F2F4C1A6F2F5C1A7F2F6C1A8F24B
:101568000201AF29D8A4AF2BAF29D8B403D0AF510B
:10157800D8A40DD0000EA56F000EA66F000EA76FA1
:10158800000EA86FAF51D8A402D0000EAD6FAFA166
:1015980002D0A78F01D0A79FD890AF31A86FADBF59
:1015A800A88FA5C2A5F2A6C2A6F2A7C2A7F2A8C292
:1015B800A8F21200090EA36F020EA46FFEEC26F02B
:1015C800090E0201BD6F020EBE6FCD0EBF6F7F0EFA
:1015D800C06FC6C0C1F2C26BC5C0C3F2C46BC4C081
:1015E800C5F2C66B03EC25F0090E0001936F020EDD
:1015F800946F22EC24F0090E0001A36F020EA46F71
:10160800FEEC26F0090E0201BD6F020EBE6FBB0E86
:10161800BF6F7F0EC06FC7C0C1F2C26BC8C0C3F234
:10162800C46BC9C0C5F2C66BCAC0C7F2C86B03ECAD
:1016380025F0090E0001936F020E946F22EC24F03E
:10164800090E0001A36F020EA46FFEEC26F0090E2E
:101658000201BD6F020EBE6F8E0EBF6F7E0EC06F91
:1016680003EC25F0090E0001936F020E946F22EC33
:1016780024F0E20E0201DA6F020EDB6F01C1DCF228
:1016880051EC24F0DD0EDA6F020EDB6F03C1DCF2E1
:1016980079EC23F0090E0001A36F020EA46FFEEC93
:1016A80026F0090E0201BD6F020EBE6FDF0EBF6F7E
:1016B8007E0EC06F04C1C1F2C26B05C1C3F2C46B18
:1016C80006C1C5F2C66B07C1C7F2C86BE20EC96F87
:1016D800020ECA6FDD0ECB6F020ECC6F03EC25F045
:1016E800090E0001936F020E946F22EC24F0E20EB3
:1016F8000201DA6F020EDB6F08C1DCF251EC24F054
:10170800DD0EDA6F020EDB6F0AC1DCF279EC23F032
:10171800090E0001A36F020EA46FFEEC26F0090E5D
:101728000201BD6F020EBE6F030EBF6F7F0EC06F4A
:101738000BC1C1F2C26B0CC1C3F2C46B0DC1C5F2BF
:10174800C66B0EC1C7F2C86BE20EC96F020ECA6F34
:10175800DD0ECB6F020ECC6F03EC25F0090E0001F5
:10176800936F020E946F22EC24F0E20E0201DA6FFE
:10177800020EDB6F0FC1DCF251EC24F0DD0EDA6FE4
:10178800020EDB6F11C1DCF279EC23F0090E0001C7
:10179800A36F020EA46FFEEC26F0090E0201BD6FC6
:1017A800020EBE6F270EBF6F7F0EC06F12C1C1F24F
:1017B800C26B13C1C3F2C46B14C1C5F2C66B15C1A9
:1017C800C7F2C86BE20EC96F020ECA6FDD0ECB6F8F
:1017D800020ECC6F03EC25F0090E0001936F020E88
:1017E800946F22EC24F0E20E0201DA6F020EDB6F36
:1017F80016C1DCF251EC24F0DD0EDA6F020EDB6F5D
:1018080018C1DCF279EC23F0090E0001A36F020E77
:10181800A46FFEEC26F0090E0201BD6F020EBE6F2A
:101828004B0EBF6F7F0EC06F19C1C1F2C26B1AC1D8
:10183800C3F2C46B1BC1C5F2C66B1CC1C7F2C86B2F
:10184800E20EC96F020ECA6FDD0ECB6F020ECC6FAF
:1018580003EC25F0090E0001936F020E946F22EC41
:1018680024F0E20E0201DA6F020EDB6F1DC1DCF21A
:1018780051EC24F0DD0EDA6F020EDB6F1FC1DCF2D3
:1018880079EC23F0090E0001A36F020EA46FFEECA1
:1018980026F0090E0201BD6F020EBE6FB90EBF6FB2
:1018A8007E0EC06F20C1C1F2C26B21C1C3F2C46BEE
:1018B80022C1C5F2C66B23C1C7F2C86BE20EC96F5D
:1018C800020ECA6FDD0ECB6F020ECC6F03EC25F053
:1018D800090E0001936F020E946F22EC24F012009F
:1018E80047D10A0EB4EC27F00001932501013A6FA5
:1018F800000E0001942101013B6F000E00019521AB
:1019080001013C6F000E0001962101013D6FCD5190
:10191800D96EDA6A550EDE6E000EDD6EB4EC27F075
:1019280001013A510001935D01013B5100019459B5
:1019380001013C510001955901013D5100019659A1
:10194800D8A01200F9D0020100A1CBD7C60E000121
:10195800996FC50E9A6FC40E9B6FC70E9C6FC80E09
:101968009D6FC90E9E6FCA0E9F6FA9EC21F0020EE3
:1019780080D001B102D0B59102D00101B58102B188
:1019880002D0B59302D00101B58303C1B6F104C1F9
:10199800BFF105C1C0F106C1C1F107C1C2F108B16B
:1019A80002D0A79102D00101A78109B102D0A79363
:1019B80002D00101A7830AC1A8F10BC1B1F10CC182
:1019C800B2F10DC1B3F10EC1B4F10FB102D09991CA
:1019D80002D00101998110B102D0999302D001017E
:1019E800998311C19AF112C1A3F113C1A4F114C1D1
:1019F800A5F115C1A6F116B102D08B9102D0010153
:101A08008B8117B102D08B9302D001018B8318C14F
:101A18008CF119C195F11AC196F11BC197F11CC13E
:101A280098F11DB103D00201979102D0020197816C
:101A380001011EB103D00201979302D002019783DE
:101A48001FC198F220C1A1F221C1A2F222C1A3F2C2
:101A580023C1A4F27BD7244B252B255104E1320E58
:101A6800245DD8A008D0000E256F000E246F050E47
:101A78005BD0C36F36D7264B272B275104E1140EB2
:101A8800265DD8A006D0000E276F000E266F030E25
:101A98004BD029A126D72991010E46D0010ED06F2F
:101AA800B50E0001936F010E946FC40E956FFCEC98
:101AB80014F00009D8A42FD0A70E936F010E946FCD
:101AC800C40E956FFCEC14F00009D8A424D0990E2C
:101AD800936F010E946FC40E956FFCEC14F000091F
:101AE800D8A419D08B0E936F010E946FC40E956F06
:101AF800FCEC14F00009D8A40ED0970E936F020ED8
:101B0800946FC40E956FFCEC14F00009D8A403D0B0
:101B1800000E0101D06F0101D0B103D0020108917C
:101B280002D002010881020E0001A3D7C40E0001F1
:101B3800996FA1EC26F01BD7C3510101CE6FCF6B73
:101B4800CF51000AD8A4CDD6CE51000AD8B4FBD6BE
:101B5800010AD8B40ED7030AD8B47DD7010AD8B47D
:101B68009DD7070AD8B4E2D7010AD8B4EFD6B9D6B8
:101B7800CD51D96EDA6ADECFCEF1DDCFCFF1CF51BC
:101B8800000AD8A407D0CE51000AD8B4AAD6550A5C
:101B9800D8B4C4D6CD51D96EDA6A000EDE6E000E06
:101BA800DD6E1200DD51800BEA6FDD51DD25F16F2E
:101BB800DCBFF181F151D8B40DD0F129D8A408D0F7
:101BC800000EDA6F000EDB6F000EDC6F000EDD6FAB
:101BD800DC8F06D0000EDA6F000EDB6F000EDC6FB4
:101BE800000EDD6FE151800BEA1BE151E125F26F38
:101BF800E0BFF281F251D8B40DD0F229D8A408D0B0
:101C0800000EDE6F000EDF6F000EE06F000EE16F5A
:101C1800E08F06D0000EDE6F000EDF6F000EE06F63
:101C2800000EE16FDE51DF11E011E111D8A417D0E9
:101C3800000EDA6F000EDB6F000EDC6F000EDD6F3A
:101C4800800EDC137F0EDD13EA51DD13DAC1DAF101
:101C5800DBC1DBF1DCC1DCF1DDC1DDF11200F151EA
:101C6800D8A409D0000EDA6F000EDB6F000EDC6F0F
:101C7800000EDD6F1200F251F1C1E2F1E36BE25F99
:101C8800000EE35B7F0EE225EB6F000EE321EC6FA5
:101C9800DAC1E6F1DBC1E7F1DCC1E8F1DDC1E9F168
:101CA800000EDA6F000EDB6F000EDC6F000EDD6FCA
:101CB800000EED6F000EEE6F000EEF6F000EF06F6E
:101CC800000EF26F28D0F251D8B411D0D890E63770
:101CD800E737E837E937D890DA37DB37DC37DD37ED
:101CE800F0BFDA81D890ED37EE37EF37F037DE51B5
:101CF800E65DDF51E759E051E859E151E959D8A0CB
:101D080009D0F08DDE51E65FDF51E75BE051E85B1B
:101D1800E151E95BF22B190EF265D5D7E651E711CF
:101D2800E811E911D8B411D0ED810FD0D890DA3785
:101D3800DB37DC37DD37F0BFDA81D890ED37EE37A7
:101D4800EF37F037EB07D8A0EC07DCAFEFD7000E82
:101D5800F26FF0AF17D0FF0EED15E26FFF0EEE1524
:101D6800E36FFF0EEF15E46F7F0EF015E56FE2519C
:101D7800E311E411E511D8B403D0010EF26F02D0DB
:101D8800DAB1FBD7F251D8B41FD0010EDA27000E12
:101D9800DB23DC23DD23DDA117D0DAC1E2F1DBC1CF
:101DA800E3F1DCC1E4F1DDC1E5F1E535E533E43328
:101DB800E333E233E2C1DAF1E3C1DBF1E4C1DCF1A0
:101DC800E5C1DDF1EB4BEC2BECBF10D0EC5103E19E
:101DD800EB29D8A00BD0000EEC6FEB69000EDA6F80
:101DE800000EDB6F000EDC6F000EDD6FECBF05D060
:101DF800EC5111E1EB05D8B00ED0000EEC6F000EDF
:101E0800EB6F000EDA6F000EDB6F000EDC6F000E5A
:101E1800DD6F000EEA6FEBC1F1F1F1A102D0DC8FAA
:101E280001D0DC9FD890F131DD6F0ED7000E000194
:101E3800946F010E936FF4EC27F00101016F000E0F
:101E48000001946F020E936FF4EC27F00101026F0A
:101E5800000E0001946F030E936FF4EC27F001015C
:101E6800036F000E0001946F040E936FF4EC27F0DB
:101E78000101046F000E0001946F050E936FF4ECDE
:101E880027F00101056F000E0001946F060E936F95
:101E9800F4EC27F00101066F000E0001946F070EA5
:101EA800936FF4EC27F00101076F000E0001946FA7
:101EB800080E936FF4EC27F00101086F000E000183
:101EC800946F090E936FF4EC27F00101096F000E6F
:101ED8000001946F0A0E936FF4EC27F001010A6F6A
:101EE800000E0001946F0B0E936FF4EC27F00101C4
:101EF8000B6F000E0001946F0C0E936FF4EC27F03B
:101F080001010C6F000E0001946F0D0E936FF4EC3D
:101F180027F001010D6F000E0001946F0E0E936FF4
:101F2800F4EC27F001010E6F000E0001946F0F0E04
:101F3800936FF4EC27F001010F6F000E0001946F0E
:101F4800100E936FF4EC27F00101106F000E0001E2
:101F5800946F110E936FF4EC27F00101116F000ECE
:101F68000001946F120E936FF4EC27F00101126FC9
:101F7800000E0001946F130E936FF4EC27F001012B
:101F8800136F000E0001946F140E936FF4EC27F09A
:101F98000101146F000E0001946F150E936FF4EC9D
:101FA80027F00101156F000E0001946F160E936F54
:101FB800F4EC27F00101166F000E0001946F170E64
:101FC800936FF4EC27F00101176F000E0001946F76
:101FD800180E936FF4EC27F00101186F000E000142
:101FE800946F190E936FF4EC27F00101196F000E2E
:101FF8000001946F1A0E936FF4EC27F001011A6F29
:10200800000E0001946F1B0E936FF4EC27F0010192
:102018001B6F000E0001946F1C0E936FF4EC27F0F9
:1020280001011C6F000E0001946F1D0E936FF4ECFC
:1020380027F001011D6F000E0001946F1E0E936FB3
:10204800F4EC27F001011E6F000E0001946F1F0EC3
:10205800936FF4EC27F001011F6F000E0001946FDD
:10206800200E936FF4EC27F00101206F000E0001A1
:10207800946F210E936FF4EC27F00101216F000E8D
:102088000001946F220E936FF4EC27F00101226F88
:10209800000E0001946F230E936FF4EC27F00101FA
:1020A800236F1200D3C1EBF1D4C1ECF1D5C1EDF12E
:1020B800D6C1EEF1D7C1EFF1D8C1F0F1D9C1F1F134
:1020C800DAC1F2F10101F2AF02D0010E01D0000E27
:1020D800E96FEA6BE951EA11D8B410D0F21FF11F89
:1020E800F01FEF1FEE1FED1FEC1FEB6D000EEC2332
:1020F800ED23EE23EF23F023F123F2230001B4AF05
:10210800B593B4BF05D0B45109E1B305D8B006D032
:10211800000E0101E66F010EE56F04D0B3C0E5F1D2
:10212800B4C0E6F1B1C0E7F1B2C0E8F10101E9518C
:10213800EA11D8A403D00001B5A504D00101E7072E
:10214800D8A0E807000E0101F46F1F0EF36F000E10
:102158000201966F80D00101F307D8A0F407770E2B
:10216800F325D96E020EF421DA6EEBC193F0ECC1BF
:1021780094F0EDC195F0EEC196F0EFC197F0F0C183
:1021880098F0F1C199F0F2C19AF00A0E00019B6F24
:10219800000E9C6F000E9D6F000E9E6F000E9F6FCD
:1021A800000EA06F000EA16F000EA26F18EC1CF0BD
:1021B80093C0DBF194C0DCF195C0DDF196C0DEF18F
:1021C80097C0DFF198C0E0F199C0E1F19AC0E2F15F
:1021D800DBC1A5F0DDC1A6F06FEC26F0A551300FEC
:1021E800DF6E0101E507D8A0E607E707D8A0E807F2
:1021F800EBC193F0ECC194F0EDC195F0EEC196F00F
:10220800EFC197F0F0C198F0F1C199F0F2C19AF0DE
:102218000A0E00019B6F000E9C6F000E9D6F000E52
:102228009E6F000E9F6F000EA06F000EA16F000E34
:10223800A26FCEEC17F093C0EBF194C0ECF195C00F
:10224800EDF196C0EEF197C0EFF198C0F0F199C0AA
:10225800F1F19AC0F2F10101F4BF20D0F45103E189
:10226800F305D8A01BD0EB51EC11ED11EE11EF11D5
:10227800F011F111F211D8A46ED7E6BF05D0E651DE
:1022880002E1E505D8B067D7E8BF08D0E85103E117
:10229800E705D8A003D00001B5B35DD70101E95126
:1022A800EA11D8A403D00001B5A518D00101F3079D
:1022B800D8A0F407E951EA11D8A404D0000EE46FBD
:1022C8002B0E03D0000EE46F2D0EE36F770EF3256F
:1022D800D96E020EF421DA6EE3C1DFFFD1C1A5F099
:1022E800D2C1A6F0770E0101F3250001A76F020EF7
:1022F8000101F4210001A86FE7C1A9F0E8C1AAF023
:1023080054EC21F0A5C0D1F1A6C0D2F11200A7C2A9
:10231800D9FFA8C2DAFFDECFF6FFDDCFF7FF08004E
:10232800F550250AD8A402D1A7C2D9FFA8C2DAFF5E
:10233800DE2A000EDD22000E0001B26F000EB16F22
:10234800B1C0B5F0B2C0B6F0B369B469A7C2D9FFDD
:10235800A8C2DAFFDECFF6FFDDCFF7FF0800F550A1
:10236800640AD8B40DD0A7C2D9FFA8C2DAFFDECF5D
:10237800F6FFDDCFF7FF0800F550690AD8A440D072
:10238800A7C2D9FFA8C2DAFFDE2A000EDD22A9C241
:10239800D9FFAAC2DAFFDFCFADF0020EDE26DFCF0B
:1023A800AEF0000EDD22ADC0D9FFAEC0DAFFDECF41
:1023B800ABF2DDCFACF20201000EACBFFF0EAD6F89
:1023C800AE6FAF6FB06FB16FB26FA5C2D1F1A6C2D9
:1023D800D2F1ABC2D3F1ACC2D4F1ADC2D5F1AEC229
:1023E800D6F1AFC2D7F1B0C2D8F1B1C2D9F1B2C2F9
:1023F800DAF156EC10F0D1C1A5F2D2C1A6F2120062
:10240800A7C2D9FFA8C2DAFFDECFF6FFDDCFF7FFFC
:102418000800F550730AD8B416D0A7C2D9FFA8C2CD
:10242800DAFFDECF93F0DDCF94F0D80E956F7F0EF4
:10243800966F000E986F030E976FC8EC1EF09351BD
:102448009411D8A442D0A7C2D9FFA8C2DAFFDECF20
:10245800F6FFDDCFF7FF0800F550730AD8B405D0B2
:10246800000E0201B66F030E04D0000E0201B66F13
:10247800010EB56FA7C2D9FFA8C2DAFFB551DE2693
:10248800B651DD22A9C2D9FFAAC2DAFFDFCFADF06B
:10249800020EDE26DFCFAEF0000EDD22ADC0D9FF82
:1024A800AEC0DAFFDECFB3F2DDCFB4F2A5C29EF044
:1024B800A6C29FF0B3C2A0F0B4C2A1F025EC17F0F9
:1024C8009EC0A5F29FC0A6F21200A7C2D9FFA8C25B
:1024D800DAFFDECFF6FFDDCFF7FF0800F550250A5B
:1024E800D8A417D0A7C2D9FFA8C2DAFFDE2A000EE7
:1024F800DD22000E966F250E956FA5C297F0A6C235
:1025080098F0FCEC21F0000E0201A66F010EA56FF9
:102518001200A7C2D9FFA8C2DAFFDE2A000EDD2208
:10252800000E0201A66F000EA56F1200A7C2D9FF08
:10253800A8C2DAFFDECFF6FFDDCFF7FF0800F550BF
:102548000001956F966BA5C297F0A6C298F0FCECB7
:1025580021F0A7C2D9FFA8C2DAFFDE2A000EDD22C9
:10256800D2D73CC0D9FF3DC0DAFFDECFF6FFDDCFC2
:10257800F7FF0800F550250AD8A4FED03CC0D9FFC3
:102588003DC0DAFFDE2A000EDD22000EB26F000E1B
:10259800B16FB1C0B5F0B2C0B6F0B369B4693CC0B0
:1025A800D9FF3DC0DAFFDECFF6FFDDCFF7FF080029
:1025B800F550640AD8B40DD03CC0D9FF3DC0DAFF4D
:1025C800DECFF6FFDDCFF7FF0800F550690AD8A483
:1025D8003FD03CC0D9FF3DC0DAFFDE2A000EDD2225
:1025E8003EC0D9FF3FC0DAFFDFCF40F0020EDE2643
:1025F800DFCF41F0000EDD2240C0D9FF41C0DAFF35
:10260800DECF72F0DDCF73F0000E73BFFF0E746F74
:10261800756F766F776F786F796F3AC028F03BC027
:1026280029F072C02AF073C02BF074C02CF075C06A
:102638002DF076C02EF077C02FF078C030F079C03A
:1026480031F0DAEC13F028C03AF029C03BF0120060
:102658003CC0D9FF3DC0DAFFDECFF6FFDDCFF7FF84
:102668000800F550730AD8B416D03CC0D9FF3DC055
:10267800DAFFDECF0BF0DDCF0CF0D80E0D6E7F0E3B
:102688000E6E000E106E030E0F6E3EEC1FF00B5018
:102698000C10D8A442D03CC0D9FF3DC0DAFFDECF31
:1026A800F6FFDDCFF7FF0800F550730AD8B405D060
:1026B800000E00017D6F030E04D0000E00017D6F37
:1026C800010E7C6F3CC0D9FF3DC0DAFF7C51DE268D
:1026D8007D51DD223EC0D9FF3FC0DAFFDFCF40F099
:1026E800020EDE26DFCF41F0000EDD2240C0D9FF0A
:1026F80041C0DAFFDECF7AF0DDCF7BF03AC016F0CA
:102708003BC017F07AC018F07BC019F083EC1BF0BF
:1027180016C03AF017C03BF012003CC0D9FF3DC0CC
:10272800DAFFDECFF6FFDDCFF7FF0800F550250A08
:10273800D8A416D03CC0D9FF3DC0DAFFDE2A000E6F
:10274800DD22000E0E6E250E0D6E3AC00FF03BC056
:1027580010F04CEC22F0000E3B6E010E3A6E1200A7
:102768003CC0D9FF3DC0DAFFDE2A000EDD22000E94
:102778003B6E000E3A6E12003CC0D9FF3DC0DAFF36
:10278800DECFF6FFDDCFF7FF0800F5500D6E0E6ABD
:102798003AC00FF03BC010F04CEC22F03CC0D9FF1F
:1027A8003DC0DAFFDE2A000EDD22D5D72AC068F048
:1027B8002BC069F02CC06AF02DC06BF02EC06CF0F5
:1027C8002FC06DF030C06EF031C06FF06FAF02D027
:1027D800010E01D0000E666F676B66516711D8B4A1
:1027E80010D06F1F6E1F6D1F6C1F6B1F6A1F691F34
:1027F800686D000E69236A236B236C236D236E2397
:102808006F23B4AFB593B4BF05D0B45108E1B30595
:10281800D8B005D0000E636F010E626F04D0B3C04C
:1028280062F0B4C063F0B1C064F0B2C065F0665144
:102838006711D8A402D0B5A503D06407D8A065074E
:10284800000E716F1F0E706F000E0201966F7CD024
:102858007007D8A07107770E7025D96E020E712106
:10286800DA6E68C00BF069C00CF06AC00DF06BC07E
:102878000EF06CC00FF06DC010F06EC011F06FC09C
:1028880012F00A0E136E000E146E000E156E000E76
:10289800166E000E176E000E186E000E196E000EE2
:1028A8001A6EAAEC1CF00BC032F00CC033F00DC04D
:1028B80034F00EC035F00FC036F010C037F011C03C
:1028C80038F012C039F032C01DF034C01EF0BAEC36
:1028D80026F01D50300FDF6E6207D8A0630764072B
:1028E800D8A0650768C00BF069C00CF06AC00DF08D
:1028F8006BC00EF06CC00FF06DC010F06EC011F020
:102908006FC012F00A0E136E000E146E000E156ED4
:10291800000E166E000E176E000E186E000E196E61
:10292800000E1A6E72EC18F00BC068F00CC069F05B
:102938000DC06AF00EC06BF00FC06CF010C06DF0E7
:1029480011C06EF012C06FF0000171BF1FD071513D
:1029580003E17005D8A01AD0685169116A116B118A
:102968006C116D116E116F11D8A472D763BF05D0A9
:10297800635102E16205D8B06BD765BF07D06551D6
:1029880003E16405D8A002D0B5B362D766516711D8
:10299800D8A402D0B5A517D07007D8A07107665182
:1029A8006711D8A404D0000E616F2B0E03D0000E5F
:1029B800616F2D0E606F770E7025D96E020E712132
:1029C800DA6E60C0DFFF28C01DF029C01EF0770E48
:1029D80070251F6E020E7121206E64C021F065C043
:1029E80022F09CEC22F01DC028F01EC029F0120035
:1029F80093C0D9FF94C0DAFFDFB002D0000E1200F6
:102A080020EE01F09351D9269451DA22080EDE18EF
:102A1800D8B437D020EE01F09351D9269451DA2258
:102A2800090EDE18D8A411D09551D96EDA6A060EAF
:102A3800D926DF50D8B4E2D79551D96EDA6A060E96
:102A4800D926050EDF641DD0D9D720EE01F09351A9
:102A5800D9269451DA220A0EDE18D8A4CFD7955178
:102A6800D96EDA6A060ED926060EDE18D8B409D051
:102A78009551D96EDA6A060ED926070EDE18D8A443
:102A8800BDD79551D96EDA6A010ED926DF50966FF7
:102A98009551D96EDA6A020ED926DF50976F975191
:102AA8003C0DF3CF98F0F4CF99F0965198259A6F92
:102AB800000E99219B6F20EE0BF09351D92694516B
:102AC800DA22DF50966F20EE0AF09351D9269451FE
:102AD800DA22DF50976F97513C0DF3CF98F0F4CF7F
:102AE80099F0965198259C6F000E99219D6F20EEC4
:102AF8000DF09351D9269451DA22DF50966F20EECB
:102B08000CF09351D9269451DA22DF50976F9751E0
:102B18003C0DF3CF98F0F4CF99F0965198259E6F1D
:102B2800000E99219F6F9E519C5D9F519D59D8B071
:102B38000ED09C519A5D9D519B59D8A05FD79E514C
:102B48009A5D9F519B59D8B059D7010E12009C51DC
:102B58009E5D9D519F59D8B051D79C519A5D9D510A
:102B68009B59D8B0F2D79E519A5D9F519B59D8A0D6
:102B7800ECD744D7000E0101CE6F000ECF6F000EC8
:102B8800D06F0001A451A511D8B41200A651A71105
:102B9800D8B41200A851A911D8B41200AA51AB1187
:102BA800D8B41200AC51AD11D8B41200A4C093F03F
:102BB800A5C094F02BEC25F0945104E1080E935D28
:102BC800D8A01200D10E976F010E986F000E9A6F61
:102BD800000E996F000E9C6F040E9B6F52EC1AF05A
:102BE800A4C0D9FFA5C0DAFFDF500101D16F0001F1
:102BF800A44BA52BA4C0D9FFA5C0DAFFDF50010163
:102C0800D26F0001A44BA52BD10E9A6F010E9B6FBA
:102C1800C6EC1DF09A510101CD6FA4C0D9FFA5C023
:102C2800DAFFDF50D16F0001A44BA52BA4C0D9FF58
:102C3800A5C0DAFFDF500101D26F0001A44BA52B1C
:102C4800D10E9A6F010E9B6FC6EC1DF09A510101CF
:102C5800CE6FA4C0D9FFA5C0DAFFDF50D16F000145
:102C6800A44BA52BA4C0D9FFA5C0DAFFDF500101F2
:102C7800D26F0001A44BA52BD10E9A6F010E9B6F4A
:102C8800C6EC1DF09A510101CF6F0001A44BA52B92
:102C9800A4C0D9FFA5C0DAFFDF500101D16F000E33
:102CA800D26FD10E00019A6F010E9B6FC6EC1DF01A
:102CB8009A510101D06FA6C0D9FFA7C0DAFFCDC1D4
:102CC800DFFFA8C0D9FFA9C0DAFFCEC1DFFFAAC0C5
:102CD800D9FFABC0DAFFCFC1DFFFACC0D9FFADC0B1
:102CE800DAFFD0C1DFFF120090D00A0EB4EC27F053
:102CF800000193250101366F000E000194210101A6
:102D0800376F000E000195210101386F000E000198
:102D180096210101396F97C0D9FF98C0DAFF190EC3
:102D2800DE6E000EDD6EB4EC27F0010136510001B5
:102D3800935D010137510001945901013851000197
:102D480095590101395100019659D8A0120045D072
:102D5800C005D8A403D08B82010E1ED0020EC01964
:102D6800D8A404D0BE078B82020E16D0030EC01959
:102D7800D8A403D08B82030E0FD0000EC06F000EB4
:102D8800BF6F000EBD6F8B92B0D7BF2B040EBF650F
:102D9800ACD7000EBF6F0BD0C16FA7D7BF2B040EE7
:102DA800BF65A3D7000EBF6FBE51D8A40CD08B92BD
:102DB800000EC06F10D0040EEFD7BF2B040EBF65F6
:102DC80094D7000EBF6F8B92F6D7BF2B040EBF654A
:102DD8008CD7000EBF6F000EDFD7C151996F9A6B69
:102DE8009A51000AD8A481D79951000AD8B4B0D70B
:102DF800010AD8B4CAD7030AD8B4D0D7010AD8B4BC
:102E0800DCD7070AD8B4E1D770D797C0D9FF98C0E4
:102E1800DAFFDECF99F0DDCF9AF09A51000AD8A4F4
:102E280007D09951000AD8B460D7190AD8B47BD70B
:102E380097C0D9FF98C0DAFF000EDE6E000EDD6E77
:102E4800120021EEF9F011EECDF0060EDBCFE3FF14
:102E5800E806FCE2A0C0D8F1A1C0D9F10101D8511F
:102E6800D911D8A404D0CD0ED86F010ED96FD8C10E
:102E780093F0D9C194F02BEC25F093C0DCF194C009
:102E8800DDF1B3C0DAF1B4C0DBF10101DBBF11D071
:102E9800DC51DA5DDB51800A0001A26F0101DD51CE
:102EA800800A0001A259D8B004D0DAC1DCF1DBC134
:102EB800DDF1DCC1DAF1DDC1DBF1B1C0D6F1B2C0C0
:102EC800D7F10001B5A10ED01BD0000E966F200ED1
:102ED800956F9EC097F09FC098F0FCEC21F001011F
:102EE800DC4BDD2B0101D651DC5DDD51800A000190
:102EF800A26F0101D751800A0001A259D8A0E5D7D5
:102F0800000E0101D56F000ED46F14D0D8C1D9FFBF
:102F1800D9C1DAFFDF50A26FA251956F966B9EC0A0
:102F280097F09FC098F0FCEC21F00101D84BD92B09
:102F3800D44BD52BDA51D45DD551800A0001A26F4C
:102F48000101DB51800A0001A259D8A0DFD7B5B131
:102F58000ED01BD0000E966F200E956F9EC097F076
:102F68009FC098F0FCEC21F00101DC4BDD2B010146
:102F7800D651DC5DDD51800A0001A26F0101D751F5
:102F8800800A0001A259D8A0E5D7DCC19EF0DDC1B6
:102F98009FF01200000EA46FA2AF12D0A21FA11FB3
:102FA800A01F9F1F9E1F9D1F9C1F9B6D000E9C2393
:102FB8009D239E239F23A023A123A223010EA46F58
:102FC8009AAF12D09A1F991F981F971F961F951F87
:102FD800941F936D000E942395239623972398238B
:102FE80099239A23010EA41B20EEA5F0070EDE6A92
:102FF800E806FDE29B519C119D119E119F11A011A5
:10300800A111A211D8B446D0010EA36F0AD0D8904E
:103018009B379C379D379E379F37A037A137A237FC
:10302800A32BA2AFF4D7D890A537A637A737A837D0
:10303800A937AA37AB37AC379B51935D9C5194594C
:103048009D5195599E5196599F519759A0519859FC
:10305800A1519959A2519A59D8A011D09B51935F67
:103068009C51945B9D51955B9E51965B9F51975BDC
:10307800A051985BA151995BA2519A5BA581D89008
:10308800A233A133A0339F339E339D339C339B33AC
:10309800A32FC9D7A451D8B410D0AC1FAB1FAA1FF7
:1030A800A91FA81FA71FA61FA56D000EA623A7234B
:1030B800A823A923AA23AB23AC23A5C093F0A6C0B9
:1030C80094F0A7C095F0A8C096F0A9C097F0AAC040
:1030D80098F0ABC099F0ACC09AF01200000E1C6ECC
:1030E8001AAE12D01A1E191E181E171E161E151EED
:1030F800141E136C000E14221522162217221822F1
:1031080019221A22010E1C6E12AE12D0121E111EA6
:10311800101E0F1E0E1E0D1E0C1E0B6C000E0C2218
:103128000D220E220F22102211221222010E1C1A29
:1031380020EE1DF0070EDE6AE806FDE213501410BB
:10314800151016101710181019101A10D8B446D0E8
:10315800010E1B6E0AD0D890133614361536163663
:103168001736183619361A361B2A1AAEF4D7D890DD
:103178001D361E361F362036213622362336243693
:1031880013500B5C14500C5815500D5816500E580F
:1031980017500F5818501058195011581A501258E3
:1031A800D8A011D013500B5E14500C5A15500D5A5C
:1031B80016500E5A17500F5A1850105A1950115AC3
:1031C8001A50125A1D80D8901A32193218321732F2
:1031D80016321532143213321B2EC9D71C50D8B4EC
:1031E80010D0241E231E221E211E201E1F1E1E1E3E
:1031F8001D6C000E1E221F222022212222222322A1
:1032080024221DC00BF01EC00CF01FC00DF020C002
:103218000EF021C00FF022C010F023C011F024C01E
:1032280012F012009B6F00019B51D8A496AF1AD0E0
:1032380093C097F094C098F095C099F096C09AF012
:10324800971F981F991F9A1F972B000E9823992351
:103258009A2397C09DF098C09EF099C09FF09AC09D
:10326800A0F008D093C09DF094C09EF095C09FF048
:1032780096C0A0F09351941195119611D8A409D035
:10328800000E936F000E946F000E956F000E966FF0
:103298001200960E9C6F06D09C2BD890A0339F33BB
:1032A8009E339D33000E9D15976F000E9E15986FE7
:1032B800000E9F15996FFE0EA0159A6F97519811E1
:1032C80099119A11D8B40DD0E7D79C2B010E9D27E0
:1032D800000E9E239F23A023D890A0339F339E33B4
:1032E8009D33000E9D15976F000E9E15986F000E6A
:1032F8009F15996FFF0EA0159A6F97519811991104
:103308009A11D8B407D0E1D79C07D8909D379E373B
:103318009F37A0379FBF03D0020E9C61F5D79CA1B1
:103328009F9FD8909C339CC097F0986B996B9A6B31
:1033380097C09AF0996B986B976B97519D1398511A
:103348009E1399519F139A51A0139B51D8A496AFDD
:1033580001D0A08F9DC093F09EC094F09FC095F0BF
:10336800A0C096F012007ED00A0EB4EC27F000013F
:10337800932501012E6F000E0001942101012F6F8A
:10338800000E000195210101306F000E0001962109
:103398000101316F97C0D9FF98C0DAFF210EDE6EA8
:1033A800000EDD6EB4EC27F001012E510001935D93
:1033B80001012F5100019459010130510001955923
:1033C8000101315100019659D8A0120036D00201EE
:1033D80000A1CAD7010E2ED001012C51D8B406D0B5
:1033E8008B84000E2B6F000E2A6F23D08B94BCD7D2
:1033F80001012A4B2B2B2B5104E1320E2A5DD8A058
:10340800B3D7000E2B6F000E2A6F8B94030E12D0C9
:1034180001012A4B2B2B2B5104E1320E2A5DD8A037
:10342800A3D7000E2B6F000E2A6F2C51D8B4D2D719
:103438008B84020E0001BC6F97D7BC51996F9A6BB1
:103448009A51000AD8A490D79951000AD8B4BFD786
:10345800010AD8B4C1D7030AD8B4CAD7010AD8B464
:10346800D7D782D797C0D9FF98C0DAFFDECF99F0B7
:10347800DDCF9AF09A51000AD8A407D09951000AD2
:10348800D8B472D7210AD8B48DD797C0D9FF98C0BD
:10349800DAFF000EDE6E000EDD6E120097C0A1F09E
:1034A80098C0A2F09B519C11D8B41200A1C0D9FFBA
:1034B800A2C0DAFF99C0DFFF9B51A1259D6F9C51E7
:1034C800A2219E6FFF0E9D25D96EFF0E9E21DA6EFA
:1034D80099C0DFFF9C5104E1030E9B5DD8A0120048
:1034E80020EE01F0A151D926A251DA2299C0DFFFBE
:1034F80020EE02F0A151D926A251DA2299C0DFFFAD
:103508009B51A1259D6F9C51A2219E6FFE0E9D256A
:10351800D96EFF0E9E21DA6E99C0DFFF9B51A1255F
:103528009D6F9C51A2219E6FFD0E9D25D96EFF0EA9
:103538009E21DA6E99C0DFFF9C5104E1070E9B5D66
:10354800D8A0120020EE03F0A151D926A251DA2208
:1035580099C0DFFF9B51A1259D6F9C51A2219E6FB1
:10356800FC0E9D25D96EFF0E9E21DA6E99C0DFFFF5
:103578009C5104E1090E9B5DD8A01200A1C09DF0EA
:10358800A2C09EF09D1F9E1F9D4B9E2B030E9D1556
:103598009F6FA06B9F51A127A051A2239F519B5FB2
:1035A800A0519C5BFC0E9B17FF0E9C170BD0A1C073
:1035B800D9FFA2C0DAFF99C0DFFF9B07D8A09C07FC
:1035C800A14BA22B9B519C11D8B41200F0D77BD0F1
:1035D8000A0EB4EC27F0000193250101426F000E9A
:1035E800000194210101436F000E000195210101A2
:1035F800446F000E000196210101456F97C0D9FF65
:1036080098C0DAFF290EDE6E000EDD6EB4EC27F0EE
:10361800010142510001935D010143510001945998
:103628000101445100019559010145510001965984
:10363800D8A0120036D08990020100A1C9D7010E86
:1036480000012DD0BA51D8A404D0010EBA6F8990C8
:10365800BFD7B74BB82BB85104E1050EB75DD8A05A
:10366800B7D7000EB86F000EB76F000EBA6F020E14
:1036780016D0BA51D8A404D0010EBA6F8980A8D741
:10368800B74BB82BB85104E1C30EB75DD8A0A0D78B
:10369800000EB86F000EB76F000EBA6F010EBB6F49
:1036A80097D7BB51996F9A6B9A51000AD8A490D7B3
:1036B8009951000AD8B4BFD7010AD8B4C3D7030AAE
:1036C800D8B4D7D785D797C0D9FF98C0DAFFDECF4F
:1036D80099F0DDCF9AF09A51000AD8A407D09951F1
:1036E800000AD8B475D7290AD8B490D797C0D9FF9B
:1036F80098C0DAFF000EDE6E000EDD6E120021EEBD
:10370800F9F010EE1BF0060EDBCFE3FFE806FCE253
:1037180018C026F019C027F026502710D8A403D0C7
:103728001B0E266E276A26C00BF027C00CF04EEC45
:1037380025F00BC02AF00CC02BF0B3C028F0B4C0A1
:1037480029F029BE0ED02A50285C2950800A1A6E0A
:103758002B50800A1A58D8B004D028C02AF029C0A3
:103768002BF02AC028F02BC029F0B1C024F0B2C039
:1037780025F00001B5A10DD016D0000E0E6E200E5A
:103788000D6E16C00FF017C010F04CEC22F02A4A4C
:103798002B2A24502A5C2B50800A1A6E2550800A46
:1037A8001A58D8A0EAD7000E236E000E226E13D046
:1037B80026C0D9FF27C0DAFFDF501A6E1A500D6EE7
:1037C8000E6A16C00FF017C010F04CEC22F0264A13
:1037D800272A224A232A2850225C2350800A1A6E5C
:1037E8002950800A1A58D8A0E3D70001B5B10DD0E6
:1037F80016D0000E0E6E200E0D6E16C00FF017C0FC
:1038080010F04CEC22F02A4A2B2A24502A5C2B5028
:10381800800A1A6E2550800A1A58D8A0EAD72AC0FA
:1038280016F02BC017F01200000EA46F9AAF12D03A
:103838009A1F991F981F971F961F951F941F936D86
:10384800000E9423952396239723982399239A234C
:10385800010EA46FA2AF10D0A21FA11FA01F9F1F0F
:103868009E1F9D1F9C1F9B6D000E9C239D239E23C6
:103878009F23A023A123A2239B519C119D119E113C
:103888009F11A011A111A211D8B43CD0010EA36FB1
:103898000AD0D8909B379C379D379E379F37A037E3
:1038A800A137A237A32BA2AFF4D79B51935D9C51AC
:1038B80094599D5195599E5196599F519759A05188
:1038C8009859A1519959A2519A59D8A010D09B51F1
:1038D800935F9C51945B9D51955B9E51965B9F5164
:1038E800975BA051985BA151995BA2519A5BD890C4
:1038F800A233A133A0339F339E339D339C339B3334
:10390800A32FD3D7A451D8B410D09A1F991F981FAA
:10391800971F961F951F941F936D000E9423952350
:1039280096239723982399239A2393C093F094C0BE
:1039380094F095C095F096C096F097C097F098C00F
:1039480098F099C099F09AC09AF01200000E1C6E77
:1039580012AE12D0121E111E101E0F1E0E1E0D1EAC
:103968000C1E0B6C000E0C220D220E220F221022B0
:1039780011221222010E1C6E1AAE10D01A1E191E28
:10398800181E171E161E151E141E136C000E142268
:10399800152216221722182219221A22135014103F
:1039A800151016101710181019101A10D8B43CD08A
:1039B800010E1B6E0AD0D8901336143615361636FB
:1039C8001736183619361A361B2A1AAEF4D713507A
:1039D8000B5C14500C5815500D5816500E581750B3
:1039E8000F5818501058195011581A501258D8A07A
:1039F80010D013500B5E14500C5A15500D5A165017
:103A08000E5A17500F5A1850105A1950115A1A5066
:103A1800125AD8901A321932183217321632153211
:103A2800143213321B2ED3D71C50D8B410D0121E08
:103A3800111E101E0F1E0E1E0D1E0C1E0B6C000EEE
:103A48000C220D220E220F221022112212220BC04C
:103A58000BF00CC00CF00DC00DF00EC00EF00FC036
:103A68000FF010C010F011C011F012C012F01200C7
:103A7800000E0101DD6F0001A651A711D8B4120094
:103A8800A6C0D9FFA7C0DAFF000EDF6EA451A511AA
:103A9800D8B41200A851A911D8B41200AA51AB1178
:103AA800D8B41200CD0E976F010E986F000E9A6F62
:103AB800000E996F000E9C6F100E9B6F52EC1AF05F
:103AC800A4C09EF0A5C09FF0A8C0A0F0A9C0A1F016
:103AD800E8EC22F09EC0DEF19FC0DFF10101DE516B
:103AE800DF11D8B41200A8C093F0A9C094F02BEC51
:103AF80025F093510101DE25DE6F0001945101018B
:103B0800DF21DF6F0FD0DEC1D9FFDFC1DAFFCD0EB5
:103B1800DD25E16EE26A010EE222DFCFE7FFDE4B30
:103B2800DF2BDD2BDEC1D9FFDFC1DAFFDF50D8B4D0
:103B380014D0DEC1D9FFDFC1DAFFDF500001AC6F5E
:103B4800AAC0F6FFABC0F7FF0800F550AC19D8B40F
:103B580004D00E0E0101DD65D6D7CD0E0101DD259D
:103B6800D96EDA6A010EDA22000EDF6EA6C093F073
:103B7800A7C094F0CD0E0001956F010E966F55EC1D
:103B880026F01200000EA36F000EA26F000EA16FA8
:103B9800000EA06F02D09A4B9B2B9AC0D9FF9BC0F6
:103BA800DAFF200EDE18D8B4F6D7F70E9C6FFF0E9A
:103BB8009D6F9AC0D9FF9BC0DAFFDF509E6F9F6B45
:103BC8009C519E279D519F239F510CE1050E9E5DA0
:103BD800D8B008D0E0D7000EA16F010EA06F9A4BA5
:103BE8009B2B2ED09AC0D9FF9BC0DAFFDF509C6F69
:103BF8009D6B9D51000AD8A423D09C512B0AD8B4A0
:103C0800EED7060AD8B4E7D71BD0A2C093F0A3C05A
:103C180094F0000E966F0A0E956F11EC27F09AC07B
:103C2800D9FF9BC0DAFFDF509C6F9C51935F000E59
:103C3800945B300E9325A26F000E9421A36FCFD70B
:103C4800D00E9C6FFF0E9D6F9AC0D9FF9BC0DAFF04
:103C5800DF509E6F9F6B9C519E279D519F239F51C4
:103C680004E10A0E9E5DD8A0D0D7A051A111D8A416
:103C78000DD0A2C09CF0A3C09DF09C1F9D1F9C4B23
:103C88009D2B9CC09AF09DC09BF01200A2C09AF098
:103C9800A3C09BF01200000E0101D86F0001A451CF
:103CA800A511D8B408D0A651A711D8B404D0A851EA
:103CB800A911D8A402D0000E1200CD0E976F010EE4
:103CC800986F000E9A6F000E996F000E9C6F0A0E87
:103CD8009B6F52EC1AF0A4C09EF0A5C09FF0A6C03E
:103CE800A0F0A7C0A1F0E8EC22F09EC0D9F19FC0D7
:103CF800DAF10101D951DA11D8B4DDD7A6C093F0B1
:103D0800A7C094F02BEC25F093510101D925D96F68
:103D1800000194510101DA21DA6F0FD0D9C1D9FF1E
:103D2800DAC1DAFFCD0ED825E16EE26A010EE22291
:103D3800DFCFE7FFD94BDA2BD82BD9C1D9FFDAC1AE
:103D4800DAFFDF50D8B414D0D9C1D9FFDAC1DAFF0D
:103D5800DF500001AA6FA8C0F6FFA9C0F7FF08004E
:103D6800F550AA19D8B404D0080E0101D865D6D7E1
:103D7800CD0E00019A6F010E9B6FC6EC1DF09A5193
:103D88000101D76FD751120093C09AF094C09BF0ED
:103D980095C09CF096C09DF09707D8A098079729E2
:103DA80010E19829D8A40DD0000E946F000E936FDF
:103DB800120000019A4B9B2B9C4B9D2B9707D8A078
:103DC80098079AC0F6FF9BC0F7FFF86A070EF764DA
:103DD80003D00800F55005D0F6CFE1FFF7CFE2FF9A
:103DE800E7500009D8B428D09CC0F6FF9DC0F7FF63
:103DF8000800F5500009D8B41FD000019751981158
:103E0800D8B41AD09CC0F6FF9DC0F7FF0800F5CFC4
:103E180099F09AC0F6FF9BC0F7FFF86A070EF7649F
:103E280003D00800F55005D0F6CFE1FFF7CFE2FF49
:103E3800E7509919D8B4BDD79AC0F6FF9BC0F7FFD1
:103E4800F86A070EF76403D00800F55005D0F6CFDE
:103E5800E1FFF7CFE2FFE7500001996F9CC0F6FF42
:103E68009DC0F7FF0800F550995D936F946BD8A03B
:103E7800940712000BC012F00CC013F00DC014F020
:103E88000EC015F00F06D8A010060F280FE1102855
:103E9800D8A40CD0000E0C6E000E0B6E1200124A45
:103EA800132A144A152A0F06D8A0100612C0F6FFC6
:103EB80013C0F7FFF86A070EF76403D00800F5503F
:103EC80005D0F6CFE1FFF7CFE2FFE7500009D8B4FD
:103ED80027D014C0F6FF15C0F7FF0800F5500009F9
:103EE800D8B41ED00F501010D8B41AD014C0F6FF92
:103EF80015C0F7FF0800F5CF11F012C0F6FF13C088
:103F0800F7FFF86A070EF76403D00800F55005D0EC
:103F1800F6CFE1FFF7CFE2FFE7501118D8B4BFD7CB
:103F280012C0F6FF13C0F7FFF86A070EF76403D054
:103F38000800F55005D0F6CFE1FFF7CFE2FFE750D4
:103F4800116E14C0F6FF15C0F7FF0800F550115C9C
:103F58000B6E0C6AD8A00C0612000600E1CF06F022
:103F6800E2CF07F0D9CF08F0DACF09F0F2A44DD0AC
:103F7800FF0ED76EEC0ED66EF294010E4626000E9A
:103F88004722482249224950481006E1600E465C03
:103F9800EA0E4758D8A039D0000E466E000E476E7C
:103FA800000E486E000E496E000E0101426F000EB1
:103FB800436F000E446F000E456F000E3E6F000EFB
:103FC8003F6F000E406F000E416F000E3A6F000EFB
:103FD8003B6F000E3C6F000E3D6F000E366F000EFB
:103FE800376F000E386F000E396F000E326F000EFB
:103FF800336F000E346F000E356F000E2E6F000EFB
:104008002F6F000E306F000E316F9EAA0ED0A0ECFD
:1040180027F00A6E0A0E056EADEC25F00201488104
:10402800000E0101706F000E6F6F09C0DAFF08C043
:10403800D9FF07C0E2FF06C0E1FF51921100000E50
:104048000101CE6F0001A451A511D8B41200A651E8
:10405800A711D8B41200A851A911D8B41200A4C04D
:1040680093F0A5C094F02BEC25F0945104E1040ED4
:10407800935DD8A01200CF0E976F010E986F000EB7
:104088009A6F000E996F000E9C6F040E9B6F52EC96
:104098001AF0A4C0D9FFA5C0DAFFDF500101CF6F25
:1040A8000001A44BA52BA4C0D9FFA5C0DAFFDF509F
:1040B8000101D06F0001A44BA52BCF0E9A6F010E02
:1040C8009B6FC6EC1DF09A510101CD6FA4C0D9FFBA
:1040D800A5C0DAFFDF50CF6F0001A44BA52BA4C009
:1040E800D9FFA5C0DAFFDF500101D06FCF0E000164
:1040F8009A6F010E9B6FC6EC1DF09A510101CE6FAD
:10410800A6C0D9FFA7C0DAFFCDC1DFFFA8C0D9FF7D
:10411800A9C0DAFFCEC1DFFF1200B335B435000104
:10412800AE6FAE51D8A40AD0000E0201B16F000ED6
:10413800B26F000EB36F000EB46F1200B1C2B5F2C9
:10414800B2C2B6F2B3C2B7F2B4C2B8F2200E06D009
:104158000201D890B833B733B633B533E82EF8D761
:10416800B5510001AD6F0201B38FFF0EB117FF0EFD
:10417800B217FF0EB317000EB417960E0001AE5F0C
:10418800AEAF0FD0AE51800A970FD8A0CDD702019D
:10419800D890B433B333B233B1330001AE3FF7D75D
:1041A8000FD01F0EAE6509D0BFD70201D890B13726
:1041B800B237B337B4370001AE07AE51D8A4F5D73C
:1041C800AD51D8B409D00201B41FB31FB21FB16DED
:1041D800000EB223B323B423B1C2B1F2B2C2B2F219
:1041E800B3C2B3F2B4C2B4F2120093809382C78E02
:1041F800C68AC650F00B0809C66E000EA96F000EDD
:10420800AA6F800EAB6FBF0EAC6F000E0001A56FDA
:10421800000EA66F800EA76F400EA86FB9C293F06C
:10422800BAC294F0BBC295F0BCC296F0000E16EC70
:1042380019F093C0A1F094C0A2F095C0A3F096C065
:10424800A4F065EC07F0A1C0DEF1A2C0DFF1A3C0C5
:10425800E0F1A4C0E1F1800E0101DA6F960EDB6F88
:10426800980EDC6F4B0EDD6FD6EC0DF0DAC1A5F2BF
:10427800DBC1A6F2DCC1A7F2DDC1A8F23CEC09F073
:10428800A5C2B1F2A6C2B2F2A7C2B3F2A8C2B4F2F2
:1042980091EC20F00201B151C86E000EC56E1200FB
:1042A800B5A10AD0A7C09EF0A8C09FF0A5C0A0F0F5
:1042B800A6C0A1F0CBEC25F0AABF05D0A9C0CFF1CC
:1042C800AAC0D0F105D0000E0101D06F000ECF6F4B
:1042D800000E0101CE6F000ECD6F0DD0000E966F4F
:1042E800200E956FA5C097F0A6C098F0FCEC21F0C1
:1042F8000101CD4BCE2BCF51CD5DCE51800A0001AF
:10430800AB6F0101D051800A0001AB59D8A0E6D7A4
:10431800B5B10AD0A7C09EF0A8C09FF0A5C0A0F074
:10432800A6C0A1F0CBEC25F0A7C093F0A8C094F0EC
:104338002BEC25F00101CF5100019325A56F010158
:10434800D05100019421A66F1200870EF66E7E0EE2
:10435800F76E20EEA0F0060E0900F5CFDEFFE806A6
:10436800FBE2000EAE6F53EC28F0D00E2BEC28F0D9
:10437800AE51A00FD96EDA6ADF502BEC28F057EC5B
:1043880028F0D10E2BEC28F0AE51A70FD96EDA6ABF
:10439800000EE8EC25F07CEC27F0DF6E4FEC28F0FF
:1043A800AE2B060EAE65DFD79951D96EDA6AA9C071
:1043B800DFFF9A51D96EDA6AA8C0DFFF9B51D96E28
:1043C800DA6AA7C0DFFF9C51D96EDA6AAAC0DFFF9C
:1043D8009D51D96EDA6AABC0DFFF9E51D96EDA6A99
:1043E800ACC0DFFF9F51D96EDA6AADC0DFFF1200A3
:1043F80097519811D8B404D097519811D8A404D0E3
:1044080095510DEC28F0120020EE09F09751D926AD
:104418009851DA22DE50DE10D8B416D020EE09F01A
:104428009751D9269851DA2210EE03F09751E126D8
:104438009851E222DE50E65CE650800A9D6FDE501D
:10444800800A9D59D8B0120020EE03F09751D92662
:104458009851DA22DECF99F0DDCF9AF097C0D9FFD4
:1044680098C0DAFFDECF9BF0DDCF9CF099519B25F9
:10447800D96E9A519C21DA6E95C0DFFF20EE03F0C9
:104488009751D9269851DA22DE2A000EDD22120031
:104498000F501010D8B404D00F501010D8A404D066
:1044A8000D5046EC28F0120020EE09F00F50D926E6
:1044B8001050DA22DE50DE10D8B416D020EE09F003
:1044C8000F50D9261050DA2210EE03F00F50E126D3
:1044D8001050E222DE50E65CE650800A156EDE508F
:1044E800800A1558D8B0120020EE03F00F50D926D4
:1044F8001050DA22DECF11F0DDCF12F00FC0D9FF55
:1045080010C0DAFFDECF13F0DDCF14F01150132402
:10451800D96E12501420DA6E0DC0DFFF20EE03F0C2
:104528000F50D9261050DA22DE2A000EDD221200A2
:10453800B5A10AD01FC016F020C017F01DC018F092
:104548001EC019F004EC26F022BE05D021C026F0CA
:1045580022C027F004D0000E276E000E266E000E33
:10456800256E000E246E0CD0000E0E6E200E0D6E01
:104578001DC00FF01EC010F04CEC22F0244A252A72
:104588002650245C2550800A236E2750800A235821
:10459800D8A0EAD70001B5B10AD01FC016F020C0D4
:1045A80017F01DC018F01EC019F004EC26F01FC04B
:1045B8000BF020C00CF04EEC25F026500B241D6E9D
:1045C80027500C201E6E1200A051A111D8B441D062
:1045D800A0C093F0A1C094F02BEC25F093C0A2F0FA
:1045E80094C0A3F02BD09EC093F09FC094F0A0C0BD
:1045F80095F0A1C096F0A2C097F0A3C098F0C8ECBF
:104608001EF093519411D8A405D09EC09EF09FC06F
:104618009FF01200010E9E25936F000E9F21946F4C
:10462800A0C0F6FFA1C0F7FF0800F550956F966B84
:1046380020EC26F093C09EF094C09FF09E519F11ED
:10464800D8B407D09EC0D9FF9FC0DAFFDF50D8A4E6
:10465800CAD7000E9E6F000E9F6F12000001A66F52
:10466800800EF66E7E0EF76E20EE9FF0060E0900A5
:10467800F5CFDEFFE806FBE2790EF66E7E0EF76EEA
:1046880020EEA7F0060E0900F5CFDEFFE806FBE2F4
:10469800A6C0A7F099C0A8F09AC0A9F09BC0AAF03C
:1046A8009CC0ABF09DC0ACF09EC0ADF0000E000108
:1046B800AE6F53EC28F0D00E2BEC28F0AE519F0FC4
:1046C800D96EDA6ADF502BEC28F0AE51A70FD96EFD
:1046D800DA6ADF5049EC27F02BEC28F04FEC28F091
:1046E800AE2B060EAE65E5D71200DAC297F0DBC234
:1046F80098F0000E00019A6F000E996FDAC293F0DD
:10470800DBC294F02BEC25F093C09BF094C09CF096
:1047180052EC1AF0080E0201DC19D8A40BD0DAC248
:10472800BDF2DBC2BEF2E00EBF6F7F0EC06F03ECBE
:1047380025F01200090EDC19D8A40BD0DAC2BDF29C
:10474800DBC2BEF2EA0EBF6F7F0EC06F03EC25F02E
:104758001200DAC2BDF2DBC2BEF2E40EBF6F7F0EFA
:10476800C06F03EC25F012000F0EC16E94EC27F019
:10477800800E0001936F250E946F000E956F000E4A
:10478800966F88EC27F05AEC27F04BEC28F0A00E37
:104798000201B96F860EBA6F010EBB6F000EBC6FB7
:1047A800F9EC20F05FEC28F062EC28F0FBEC27F045
:1047B80041EC28F03CEC28F007EC28F001EC28F05C
:1047C80037EC28F0C6EC27F0DEEC27F0D6EC27F023
:1047D80025EC28F0CEEC27F0E6EC27F0F3D7B60E60
:1047E800F66E500EF76E000EF86E01EEF9F010EE50
:1047F80007F00900F5CFEEFFE550E150FAE102EECF
:1048080000F0A50EEE6AE806FDE101EE00F0CD0E1F
:10481800EE6AE806FDE100EEAFF01E0EEE6AE8066D
:10482800FDE100EE46F00B0EEE6AE806FDE1519060
:104838005192000EF86E0001B8EF23F093519411D5
:10484800D8B4120016D093C0F6FF94C0F7FFF86AE8
:10485800070EF76403D00800F55005D0F6CFE1FF46
:10486800F7CFE2FFE750AD6E0001934B942BACA25B
:10487800FED793C0F6FF94C0F7FFF86A070EF764F7
:1048880003D00800F55005D0F6CFE1FFF7CFE2FFDF
:10489800E7500009D8B41200D6D7DAC297F0DBC2C5
:1048A80098F0000E00019A6F000E996FDAC293F02B
:1048B800DBC294F02BEC25F093C09BF094C09CF0E5
:1048C80052EC1AF00201DC51D8B40BD0DAC2BDF2B6
:1048D800DBC2BEF2E70EBF6F7F0EC06F03EC25F0A0
:1048E8001200DAC2BDF2DBC2BEF2DC0EBF6F7F0E71
:1048F800C06F03EC25F01200B9C2F5F1BAC2F6F1A7
:10490800000E0001B06F000EAF6F17D0B7C2A5F24E
:10491800B8C2A6F2F50E0201A76F010EA86FBBC2BE
:10492800A9F2BCC2AAF28BEC11F00201A551000158
:10493800AF270201A6510001B023F5C1F6FFF6C169
:10494800F7FF0800F5500009D8A4E0D7AFC0B7F2C8
:10495800B0C0B8F21200000E9B6F000E9C6F000EE4
:104968009D6F000E9E6F93A108D097519B27985179
:104978009C2399519D239A519E23D8909737983715
:1049880099379A37D8909633953394339333935114
:10499800941195119611D8A4E6D79BC093F09CC0AA
:1049A80094F09DC095F09EC096F0120080C042F031
:1049B80081C043F0000EB06F000EAF6F12D07EC002
:1049C8003AF07FC03BF0420E3C6E3D6A82C03EF03A
:1049D80083C03FF0B5EC12F03A500001AF273B50CE
:1049E800B02342C0F6FF43C0F7FF0800F5500009A6
:1049F800D8A4E5D7AFC07EF0B0C07FF01200C10EDA
:104A0800CD6F020ECE6FBDC2CFF2BEC2D0F2000E85
:104A1800D36F000ED26F000ED96F000ED86FCF0E75
:104A2800B76F020EB86FBFC2B9F2C0C2BAF2CD0EEC
:104A3800BB6F020EBC6F80EC24F00201D251BD2581
:104A4800D96ED351BE21DA6E000EDF6E120093C00C
:104A580095F094C096F003D00001934B942B93C02B
:104A6800F6FF94C0F7FFF86A070EF76403D0080052
:104A7800F55005D0F6CFE1FFF7CFE2FFE750000988
:104A8800D8A4EAD700019551935D936F9651945934
:104A9800946F12000BC00DF00CC00EF002D00B4A40
:104AA8000C2A0BC0F6FF0CC0F7FFF86A070EF76474
:104AB80003D00800F55005D0F6CFE1FFF7CFE2FFAD
:104AC800E7500009D8A4EBD70D500B5C0B6E0E50C5
:104AD8000C580C6E1200010E0001996F200E9319EC
:104AE8009411D8B414D0F70E956FFF0E966F93C03B
:104AF80097F094C098F0955197279651982398511C
:104B080004E1050E975DD8A002D0000E996F99C0F8
:104B180093F0946B1200946F000E0001966F9351FE
:104B2800D8B415D0010E956F03D0D8909337952B34
:104B380093AFFBD7D89096379351945DD8A003D004
:104B48009351945F9681D8909333952FF3D79651CC
:104B580012000550D8B41200270E0201716112002C
:104B68000550D96EDA6A490E7125E16EE26A020EC5
:104B7800E222DFCFE7FF712BBDEC27F001C072F214
:104B880002C073F203C074F204C075F21200000E82
:104B9800A46F000EA36F0CD0A2C095F0966BA0C0B6
:104BA80097F0A1C098F0FCEC21F00001A34BA42BD6
:104BB800A3519E25D96EA4519F21DA6EDF50A26FB2
:104BC800A251D8B41200E8D7976FE9EC26F0C58651
:104BD800E9EC26F0C9CF98F0E9EC26F09751D8A473
:104BE80003D0966B962B02D00001966B963B9647A6
:104BF800C5509619DF0B9619C56EC58898511200D5
:104C0800000E1C6E000E1B6E0BD01AC00DF00E6A43
:104C180018C00FF019C010F04CEC22F01B4A1C2AE7
:104C28001B501624D96E1C501720DA6EDF501A6EEE
:104C38001A50D8B41200E9D793C0D9FF94C0DAFF4C
:104C48009551DE18D8A405D093C093F094C094F081
:104C5800120093C0D9FF94C0DAFF934B942BDF5016
:104C6800D8A4EAD7000E936F000E946F12000001CB
:104C7800976F97C095F0000195479547C2509519D1
:104C8800C30B9519C26EC282C2B2FED7C4500001CE
:104C9800966F956BC3509525936F000E9621946F70
:104CA800120095C097F096C098F093C099F094C000
:104CB8009AF097C0D9FF98C0DAFF974B982B99C004
:104CC800E1FF9AC0E2FF994B9A2BDFCFE7FFE7504D
:104CD800D8B41200EED7A6BF05D0A65110E1A5059D
:104CE800D8B00DD0A5C0A7F0A6C0A8F0A71FA81FD0
:104CF800A74BA82BA7C0A5F0A8C0A6F01200A5C076
:104D0800A5F0A6C0A6F01200D00E0001956FFF0E08
:104D1800966F93C097F094C098F095519727965145
:104D28009823985106E10A0E975DD8B002D0010E7B
:104D380001D0000E936F946B120053EC28F0D00E44
:104D48002BEC28F0000E2BEC28F057EC28F0D10EB5
:104D58002BEC28F09951D96EDA6A000EE8EC25F0B0
:104D68007CEC27F0DF6E4FEC28F012001EBE05D059
:104D78001E5010E11D04D8B00DD01DC01FF01EC07C
:104D880020F01F1E201E1F4A202A1FC01DF020C011
:104D98001EF012001DC01DF01EC01EF01200946F00
:104DA800080E0001956F000E966FD89094359635D1
:104DB800966FD89094379351965DD8A002D09351AE
:104DC800965F952FF2D796511200130E0001956F3A
:104DD800880E946FC5CF93F01F0E9317D8A402D0F6
:104DE800C7A412009407D8A0950794519511D8B478
:104DF8001200F0D7A351A411D8B41200A3C097F0A1
:104E0800A4C098F0000E9A6F000E996F000E9C6F68
:104E18002D0E9B6F52EC1AF0120093519503F3CFAD
:104E280097F0F4CF98F093519603F3509827945144
:104E38009503F350982797C093F098C094F0120008
:104E480093C0A9FF95C0A8FFA69EA69CA684F29E23
:104E5800550EA76EAA0EA76EA682F28EA1A8FED73F
:104E6800A198A694120093510201011906E10001CC
:104E7800945102010219D8B406D093C001F294C02B
:104E880002F2010E1200000E1200986F0A0E0001C5
:104E9800936F9851D3EC26F0976F0A0E936F985141
:104EA8008FEC25F0100DF35097251200CF0EC11688
:104EB800C150F00B0B09C16EC050C70B1009C06E72
:104EC800C050F80B0409C06EC08EC2801200860E56
:104ED800446E456A000E7E6F000E7F6F84C080F0BE
:104EE80085C081F0440E826F836BDAEC24F01200E7
:104EF800946F94C093F00F0E0001931794390F0B21
:104F08000A0DF35093251200AC94948E949CAC989F
:104F1800AC9C200EAF6EAB8EAC8AAB889D8A12001B
:104F2800D08EF28EF28CF28AF28EFF0ED76EEC0ED5
:104F3800D66E870ED56E12009EAA07D0ABA203D0FC
:104F4800AB9800F0AB88AE501200000E120093C070
:104F5800D9FF94C0DAFF000EDE6E000EDD6E12007F
:104F680046C093F047C094F048C095F049C096F009
:104F7800120046C001F047C002F048C003F049C023
:104F880004F01200C50E0001976F010E986FEBEC4C
:104F98001AF01200C90E0001976F010E986F78EC95
:104FA80016F01200CB0E0201E76F010EE86FD2EC8B
:104FB80004F01200C30E0101E06F010EE16F5BEC1B
:104FC80000F01200C70E976F010E986FB7EC19F03A
:104FD8001200020EC06F020EBE6F010EBD6F1200EE
:104FE80093C0A9FFA69EA69CA680A8501200000EFA
:104FF8000101C66F000EC56F1200000E0101CA6FD5
:10500800000EC96F1200000E0001CC6F000ECB6FAE
:105018001200946F0001945113EC28F01200936F62
:1050280093C0ADFFACB21200FDD7010E0001C06FF6
:10503800010EBD6F120002010169026993C0C2F03E
:105048001200CB0E0101CD6F74EC0CF01200966FBC
:10505800E9EC26F096C0C9FF12000B6E0BC0ADFF3D
:10506800ACB21200FDD7000EC86F000EC76F120059
:10507800000ECC6F000ECB6F1200000EC46F000E36
:10508800C36F12000C6E0C5031EC28F01200929095
:10509800898089901200E9EC26F0C5841200E9ECB9
:1050A80026F0C5801200E9EC26F0C5821200286EB1
:0550B800756C6C29007D
:0A50BE009492948012009494120062
:107E780000000000000000000201000405060300E5
:107E88000102040506034E6F202D20202020496E94
:107E980069202020202D20202046696E20202020C7
:107EA8002D204F6E202D2044696173200A0D0A0D84
:107EB8000020352020202D2025643A25642020200C
:107EC8002D2025643A256420202D202573202D207F
:107ED80025730A0D0A0D0020312020202D2025644D
:107EE8003A25642020202D2025643A256420202D61
:107EF800202573202D2025730A0D002032202020F4
:107F08002D2025643A25642020202D2025643A253B
:107F18006420202D202573202D2025730A0D002094
:107F2800332020202D2025643A25642020202D2070
:107F380025643A256420202D202573202D202573C3
:107F48000A0D0020342020202D2025643A256420A5
:107F580020202D2025643A256420202D20257320FB
:107F68002D2025730A0D00494E4943494F20494E9B
:107F780054455252555043494F4E20494E54310DA5
:107F88000A000A0D42414C495A4120414C41524D88
:107F9800412056312E300A0D0A0D0046494E20491F
:107FA8004E54455252555043494F4E20494E543134
:107FB8000D0A0025642F25642F25642D25640A0DDC
:107FC8000A0D0A0D0025643A25643A25640A0D0055
:107FD8006C6C73004F464600446961005344004F7F
:107FE8004E004C5600BF002C003F004100430045A6
:087FF8000049004C005200009A
:020000040030CA
:0E000000000C181EFF8381FF0FC00FE00F40A1
:00000001FF
