:0400000015EF00F008
:060008005482FBED18F02C
:100018005480E0CF0BF0F0B0F0900BC0E0FF5490AC
:100028001000D1EF1CF031EF04F0010E1EEC20F0AF
:100038000C240101046F000E0D20056F000E0E2028
:10004800066F000E0F20076F3950D96EDA6A5F0EFF
:10005800DE6E000EDD6E1EEC20F0010104510C5C1A
:1000680005510D5806510E5807510F58D8A01200C7
:10007800DAD314A1DAD7010E106E020E116E000E3B
:10008800136E000E126E000E156E280E146EC8EC5C
:1000980014F0000E0201296F0091010E59D10201DE
:1000A8002951D8B42ED01EEC20F002012A510C5C44
:1000B8003A6E2B510D583B6E2C510E583C6E2D51FB
:1000C8000F583D6E3D503C1006E1E90E3A5C030EB8
:1000D8003B58D8A016D0000E296F0091010E106E63
:1000E800020E116E000E136E000E126E000E156ECB
:1000F800280E146EC8EC14F0000E0101866F000E75
:10010800856F020100A191D70101854B862B86518D
:1001180004E1050E855DD8A088D702010091000E84
:100128000101866F000E856F5C0E106E010E116E58
:10013800000E136E000E126E000E156E280E146E51
:10014800C8EC14F0000E3E6E000E3F6E1CD0010E7F
:100158003F24D96EDA6A020EDA22DF50D8B412D000
:10016800270E3E600FD0010E3F24D96EDA6A020EC8
:10017800DA225C0E3E24E16EE26A010EE222DFCF53
:10018800E7FF3E2A3F2A020129513F5CD8B003D03D
:10019800260E3F64DCD7010E106E020E116E000EA3
:1001A800136E000E126E000E156E280E146EC8EC3B
:1001B80014F0000E0201296F020ECAD05C0E176EF1
:1001C800010E186EED0E196E7F0E1A6E41EC1BF0C3
:1001D80017501810D8B461D7030EBAD05C0E176E3A
:1001E800010E186EFB0E196E7F0E1A6E41EC1BF095
:1001F80017501810D8B403D002012E814ED75C0EC8
:10020800176E010E186EFD0E196E7F0E1A6E41ECF8
:100218001BF017501810D8B45BD05C0E1D6E010E81
:100228001E6E890E1F6E010E206EFD0E216E7F0E52
:10023800226EEF0E236E7F0E246E0FEC18F0890EDF
:100248001D6E010E1E6E930E1F6E010E206E940E13
:10025800216E010E226ED9EC19F05C0E1D6E010E96
:100268001E6E890E1F6E010E206EF50E216E7F0E1A
:10027800226EF10E236E7F0E246E0FEC18F0890E9D
:100288001D6E010E1E6E950E1F6E010E206E960ECF
:10029800216E010E226E970E236E010E246E980EAB
:1002A800256E010E266EE9EC12F094C112F0000ED4
:1002B800136E95C114F096C115F097C116F098C148
:1002C80017F00101935118EC1CF002012E83E5D6BA
:1002D8005C0E176E010E186EF30E196E7F0E1A6EF5
:1002E80041EC1BF017501810D8B4D7D65C0E1D6E11
:1002F800010E1E6EF30E1F6E7F0E206EEF0E216E26
:100308007F0E226E6EEC19F00101876F5C0E176E7E
:10031800010E186EF70E196E7F0E1A6E41EC1BF067
:1003280017501810D8B4B9D65C0E1D6E010E1E6E8B
:10033800F70E1F6E7F0E206EEF0E216E7F0E226E5F
:100348006EEC19F00101886F8851D8A403D0040E0F
:100358004B6E6BD65C0E1D6E010E1E6E890E1F6EE7
:10036800010E206EF90E216E7F0E226EEF0E236EA7
:100378007F0E246E0FEC18F0890E1D6E010E1E6E96
:10038800990E1F6E010E206E9A0E216E010E226EBE
:10039800D9EC19F05C0E1D6E010E1E6E890E1F6ED3
:1003A800010E206EDE0E216E7F0E226EEF0E236E82
:1003B8007F0E246E0FEC18F0890E1D6E010E1E6E56
:1003C8009B0E1F6E010E206E9C0E216E010E226E7A
:1003D800D9EC19F05C0E1D6E010E1E6E890E1F6E93
:1003E800010E206EE50E216E7F0E226EEF0E236E3B
:1003F8007F0E246E0FEC18F0890E136E010E146E2A
:10040800F3EC15F013C09DF114C09EF10101000E2C
:100418009EBFFF0E9F6FA06F9AD78851D8A445D072
:100428008705D8A40AD0D991000E0D6E010E0C6E66
:10043800000E0E6EA3EC1FF0F3D1020E8719D8A49C
:100448000AD0CB91000E0D6E080E0C6E000E0E6ECB
:10045800A3EC1FF0E5D1030E8719D8A40AD0BD91EB
:10046800000E0D6E0F0E0C6E000E0E6EA3EC1FF03C
:10047800D7D1040E8719D8A40AD0AF91000E0D6EFB
:10048800160E0C6E000E0E6EA3EC1FF0C9D1050EF1
:100498008719D8A4C5D1A191000E0D6E1D0E0C6E42
:1004A800000E0E6EA3EC1FF0BBD18705D8A455D063
:1004B800A0519F119E1104E1080E9D5DD8A0B0D1F6
:1004C800A0519F119E1103E10B0E9D5DD8B0A8D1DC
:1004D800D98199C1E3F19AC1E4F19BC1E5F19CC1CD
:1004E800E6F1D9939DC1DAF1000E0D6E010E0C6E86
:1004F800010E0E6EA3EC1FF0000E0D6E020E0C6EB8
:10050800000E0E6EA3EC1FF0000E0D6E030E0C6EA7
:100518009DC10EF0A3EC1FF0000E0D6E040E0C6EC4
:1005280099C10EF0A3EC1FF0000E0D6E050E0C6EB7
:100538009AC10EF0A3EC1FF0000E0D6E060E0C6EA5
:100548009BC10EF0A3EC1FF0000E0D6E070E0C6E93
:100558009CC10EF0A3EC1FF063D1020E8719D8A43A
:1005680055D0A0519F119E1104E1080E9D5DD8A0A1
:1005780057D1A0519F119E1103E10B0E9D5DD8B07C
:100588004FD1CB8199C1D5F19AC1D6F19BC1D7F191
:100598009CC1D8F1CB939DC1CCF1000E0D6E080E15
:1005A8000C6E010E0E6EA3EC1FF0000E0D6E090E00
:1005B8000C6E000E0E6EA3EC1FF0000E0D6E0A0EF0
:1005C8000C6E9DC10EF0A3EC1FF0000E0D6E0B0E0D
:1005D8000C6E99C10EF0A3EC1FF0000E0D6E0C0E00
:1005E8000C6E9AC10EF0A3EC1FF0000E0D6E0D0EEE
:1005F8000C6E9BC10EF0A3EC1FF0000E0D6E0E0EDC
:100608000C6E9CC10EF0A3EC1FF00AD1030E8719E3
:10061800D8A455D0A0519F119E1104E1080E9D5DEC
:10062800D8A0FED0A0519F119E1103E10B0E9D5D35
:10063800D8B0F6D0BD8199C1C7F19AC1C8F19BC1A4
:10064800C9F19CC1CAF1BD939DC1BEF1000E0D6EEA
:100658000F0E0C6E010E0E6EA3EC1FF0000E0D6E49
:10066800100E0C6E000E0E6EA3EC1FF0000E0D6E39
:10067800110E0C6E9DC10EF0A3EC1FF0000E0D6E56
:10068800120E0C6E99C10EF0A3EC1FF0000E0D6E49
:10069800130E0C6E9AC10EF0A3EC1FF0000E0D6E37
:1006A800140E0C6E9BC10EF0A3EC1FF0000E0D6E25
:1006B800150E0C6E9CC10EF0A3EC1FF0B1D0040E09
:1006C8008719D8A455D0A0519F119E1104E1080E96
:1006D8009D5DD8A0A5D0A0519F119E1103E10B0EDE
:1006E8009D5DD8B09DD0AF8199C1B9F19AC1BAF1D9
:1006F8009BC1BBF19CC1BCF1AF939DC1B0F1000E91
:100708000D6E160E0C6E010E0E6EA3EC1FF0000E91
:100718000D6E170E0C6E000E0E6EA3EC1FF0000E81
:100728000D6E180E0C6E9DC10EF0A3EC1FF0000E9E
:100738000D6E190E0C6E99C10EF0A3EC1FF0000E91
:100748000D6E1A0E0C6E9AC10EF0A3EC1FF0000E7F
:100758000D6E1B0E0C6E9BC10EF0A3EC1FF0000E6D
:100768000D6E1C0E0C6E9CC10EF0A3EC1FF058D041
:10077800050E8719D8A454D0A0519F119E1104E1E9
:10078800080E9D5DD8A04CD0A0519F119E1148E144
:100798000B0E9D5DD8B044D0A18199C1ABF19AC12F
:1007A800ACF19BC1ADF19CC1AEF1A1939DC1A2F189
:1007B800000E0D6E1D0E0C6E010E0E6EA3EC1FF0DA
:1007C800000E0D6E1E0E0C6E000E0E6EA3EC1FF0CA
:1007D800000E0D6E1F0E0C6E9DC10EF0A3EC1FF0E7
:1007E800000E0D6E200E0C6E99C10EF0A3EC1FF0DA
:1007F800000E0D6E210E0C6E9AC10EF0A3EC1FF0C8
:10080800000E0D6E220E0C6E9BC10EF0A3EC1FF0B5
:10081800000E0D6E230E0C6E9CC10EF0A3EC1FF0A3
:1008280002012E853AD44B503A6E3B6A3B50000A7F
:10083800D8A419EF00F03A50000AD8B41AD4010A23
:10084800D8B42DD4030AD8B4B9D4010AD8B4C6D4BC
:10085800070AD8B4E2D519EF00F03950D96EDA6A30
:10086800DECF3AF0DDCF3BF03B50000AD8A409D0E8
:100878003A50000AD8B419EF00F05F0AD8B42FEF45
:1008880000F03950D96EDA6A000EDE6E000EDD6EA9
:1008980012005CD20A0E1EEC20F00C240101106F2D
:1008A800000E0D20116F000E0E20126F000E0F208B
:1008B800136F0001FD51D96EDA6A3F0EDE6E000E2D
:1008C800DD6E1EEC20F0010110510C5C11510D5829
:1008D80012510E5813510F58D8A012001BD2010103
:1008E800174B182BF40E175D010E1859D8A0D2D744
:1008F8001481170E0C6E010E0D6E15EC20F030EC05
:1009080020F0000E0D6E030E0C6E51EC20F0C2D7D5
:10091800000E0D6E030E0C6EC7EC1FF00009D8B464
:1009280007D0170E0C6E010E0D6E15EC20F0B2D725
:10093800174B182B185104E1C80E175DD8A0AAD779
:10094800000E0D6E000E0C6E38EC20F00001606F8A
:10095800060E6019D8B429D1000E0D6E000E0C6E6B
:10096800060E0E6EA3EC1FF030EC20F0000E0D6E9C
:10097800010E0C6E000E0E6EA3EC1FF0000E0D6E35
:10098800020E0C6E000E0E6EA3EC1FF0000E0D6E24
:10099800030E0C6E080E0E6EA3EC1FF0000E0D6E0B
:1009A800040E0C6E000E0E6EA3EC1FF0000E0D6E02
:1009B800050E0C6E000E0E6EA3EC1FF0000E0D6EF1
:1009C800060E0C6E000E0E6EA3EC1FF0000E0D6EE0
:1009D800070E0C6E000E0E6EA3EC1FF0000E0D6ECF
:1009E800080E0C6E000E0E6EA3EC1FF0000E0D6EBE
:1009F800090E0C6E000E0E6EA3EC1FF0000E0D6EAD
:100A08000A0E0C6E080E0E6EA3EC1FF0000E0D6E93
:100A18000B0E0C6E000E0E6EA3EC1FF0000E0D6E8A
:100A28000C0E0C6E000E0E6EA3EC1FF0000E0D6E79
:100A38000D0E0C6E000E0E6EA3EC1FF0000E0D6E68
:100A48000E0E0C6E000E0E6EA3EC1FF0000E0D6E57
:100A58000F0E0C6E000E0E6EA3EC1FF0000E0D6E46
:100A6800100E0C6E000E0E6EA3EC1FF0000E0D6E35
:100A7800110E0C6E080E0E6EA3EC1FF0000E0D6E1C
:100A8800120E0C6E000E0E6EA3EC1FF0000E0D6E13
:100A9800130E0C6E000E0E6EA3EC1FF0000E0D6E02
:100AA800140E0C6E000E0E6EA3EC1FF0000E0D6EF1
:100AB800150E0C6E000E0E6EA3EC1FF0000E0D6EE0
:100AC800160E0C6E000E0E6EA3EC1FF0000E0D6ECF
:100AD800170E0C6E000E0E6EA3EC1FF0000E0D6EBE
:100AE800180E0C6E080E0E6EA3EC1FF0000E0D6EA5
:100AF800190E0C6E000E0E6EA3EC1FF0000E0D6E9C
:100B08001A0E0C6E000E0E6EA3EC1FF0000E0D6E8A
:100B18001B0E0C6E000E0E6EA3EC1FF0000E0D6E79
:100B28001C0E0C6E000E0E6EA3EC1FF0000E0D6E68
:100B38001D0E0C6E000E0E6EA3EC1FF0000E0D6E57
:100B48001E0E0C6E000E0E6EA3EC1FF0000E0D6E46
:100B58001F0E0C6E080E0E6EA3EC1FF0000E0D6E2D
:100B6800200E0C6E000E0E6EA3EC1FF0000E0D6E24
:100B7800210E0C6E000E0E6EA3EC1FF0000E0D6E13
:100B8800220E0C6E000E0E6EA3EC1FF0000E0D6E02
:100B9800230E0C6E000E0E6EA3EC1FF0000E0D6EF1
:100BA800030E0C6E51EC20F075D672EC0FF08981B3
:100BB800A60E0C6E7F0E0D6E00EC1DF0170E0101D7
:100BC800556F700E546F110E576F940E566F000EBE
:100BD8000D6E010E0C6E51EC20F05CD6000E0D6E01
:100BE800010E0C6EC7EC1FF00009D8A49AD60201BA
:100BF8002EA106D02E914BEC20F0C4EC06F04AD67C
:100C08002EA304D02E934BEC20F044D62EA507D06B
:100C18002E9572EC0FF089814BEC20F03BD6010148
:100C2800544B552B700E545D170E5559D8A00BD048
:100C3800000E556F000E546F000E0D6E040E0C6EF4
:100C480051EC20F027D61CA102D0010E01D0000ED5
:100C580000018C6F1FD6000E0D6E040E0C6EC7ECD3
:100C68001FF00009D8B4B3D7010E27EC1FF00CC051
:100C7800EEF10DC0EFF1EEC10CF0EFC10DF00E6A10
:100C88000F6A2C0E106E010E116E000E126E000E01
:100C9800136E2EEC1DF00B0E05D0D8900F320E32CD
:100CA8000D320C32E82EF9D7030E0C240101586FCF
:100CB800000E0D20596FEED5000E0D6E050E0C6E50
:100CC800C7EC1FF00009D8B482D7030E27EC1FF039
:100CD8000CC0F0F10DC0F1F1F0C10CF0F1C10DF054
:100CE8000E6A0F6A880E106E130E116E000E126EC9
:100CF800000E136E2EEC1DF00B0E05D0D8900F329F
:100D08000E320D320C32E82EF9D70CC05AF10DC054
:100D18005BF1C0D50001A451FE6FFF6BFF51000AC3
:100D2800D8A4B8D5FE51000AD8B4D9D5010AD8B488
:100D380055D7030AD8B4AED5010AD8B4E9D5070AFD
:100D4800D8B489D7010AD8B4B7D7A4D5FD51D96E7C
:100D5800DA6ADECFFEF0DDCFFFF0FF51000AD8A43B
:100D680007D0FE51000AD8B495D53F0AD8B4A9D502
:100D7800FD51D96EDA6A000EDE6E000EDD6E1200CD
:100D88001D0E1C6E010E1D6E7DEC1FF01D0E000168
:100D9800CE6F010ECF6FCD0ED06F7F0ED16FA7C073
:100DA800D2F0D36BA6C0D4F0D56BA5C0D6F0D76B64
:100DB800D0EC1DF01D0E0C6E010E0D6E00EC1DF03A
:100DC8001D0E1C6E010E1D6E7DEC1FF01D0E000128
:100DD800CE6F010ECF6FBF0ED06F7F0ED16FA8C040
:100DE800D2F0D36BA9C0D4F0D56BAAC0D6F0D76B1C
:100DF800ABC0D8F0D96BD0EC1DF01D0E0C6E010EF7
:100E08000D6E00EC1DF0010E27EC1FF00CC0EDF08C
:100E18000DC0EEF0EDC00CF0EEC00DF00E6A0F6ADA
:100E28002C0E106E010E116E000E126E000E136E57
:100E38002EEC1DF00B0E05D0D8900F320E320D326D
:100E48000C32E82EF9D7030E0C240001F16F000EC6
:100E58000D20F26F000E0D6E370E0C6E38EC20F080
:100E68000001EA6F000E0D6E360E0C6E38EC20F0A5
:100E78000001EB6FEA51EF6FEBC0F0F01D0E1C6E36
:100E8800010E1D6E7DEC1FF01D0E0001CE6F010ED0
:100E9800CF6F890ED06F7F0ED16FF1C00CF0F2C00A
:100EA8000DF0000E0F6E0A0E0E6E83EC1DF00CC0D6
:100EB800D2F00DC0D3F0F1C00CF0F2C00DF0000E6E
:100EC8000F6E0A0E0E6EF1EC1DF00CC0D4F00DC0C2
:100ED800D5F0EFC0D6F0F0C0D7F0D0EC1DF01D0E65
:100EE8000C6E010E0D6E00EC1DF01D0E1C6E010E39
:100EF8001D6E7DEC1FF01D0E0001CE6F010ECF6F31
:100F0800A80ED06F7E0ED16FD0EC1DF01D0E0C6EAA
:100F1800010E0D6E00EC1DF0F80E0001E86F61C0C7
:100F2800E9F059EC1DF0F30EE86F63C0E9F098ECB6
:100F38001CF01D0E1C6E010E1D6E7DEC1FF01D0EAB
:100F48000001CE6F010ECF6FF90ED06F7E0ED16FFC
:100F580064C0D2F0D36B65C0D4F0D56B66C0D6F050
:100F6800D76B67C0D8F0D96BF80EDA6FF30EDB6F6A
:100F7800D0EC1DF01D0E0C6E010E0D6E00EC1DF078
:100F8800F80E0001E86F68C0E9F059EC1DF0F30EA7
:100F9800E86F6AC0E9F098EC1CF01D0E1C6E010E9B
:100FA8001D6E7DEC1FF01D0E0001CE6F010ECF6F80
:100FB8001D0ED06F7F0ED16F6BC0D2F0D36B6CC09B
:100FC800D4F0D56B6DC0D6F0D76B6EC0D8F0D96BA6
:100FD800F80EDA6FF30EDB6FD0EC1DF01D0E0C6E01
:100FE800010E0D6E00EC1DF0F80E0001E86F6FC0E9
:100FF800E9F059EC1DF0F30EE86F71C0E9F098ECD8
:101008001CF01D0E1C6E010E1D6E7DEC1FF01D0EDA
:101018000001CE6F010ECF6F410ED06F7F0ED16FE2
:1010280072C0D2F0D36B73C0D4F0D56B74C0D6F055
:10103800D76B75C0D8F0D96BF80EDA6FF30EDB6F8B
:10104800D0EC1DF01D0E0C6E010E0D6E00EC1DF0A7
:10105800F80E0001E86F76C0E9F059EC1DF0F30EC8
:10106800E86F78C0E9F098EC1CF01D0E1C6E010EBC
:101078001D6E7DEC1FF01D0E0001CE6F010ECF6FAF
:10108800650ED06F7F0ED16F79C0D2F0D36B7AC066
:10109800D4F0D56B7BC0D6F0D76B7CC0D8F0D96BB9
:1010A800F80EDA6FF30EDB6FD0EC1DF01D0E0C6E30
:1010B800010E0D6E00EC1DF0F80E0001E86F7DC00A
:1010C800E9F059EC1DF0F30EE86F7FC0E9F098ECF9
:1010D8001CF01D0E1C6E010E1D6E7DEC1FF01D0E0A
:1010E8000001CE6F010ECF6FD30ED06F7E0ED16F81
:1010F80080C0D2F0D36B81C0D4F0D56B82C0D6F05B
:10110800D76B83C0D8F0D96BF80EDA6FF30EDB6FAC
:10111800D0EC1DF01D0E0C6E010E0D6E00EC1DF0D6
:1011280012001D50800B266E1D501D242C6E1CBEF7
:101138002C802C50D8B40DD02C28D8A408D0000E60
:101148001A6E000E1B6E000E1C6E000E1D6E1C8E9D
:1011580008D0000E1A6E000E1B6E000E1C6E000EDC
:101168001D6E2150800B261A21502124276E20BE87
:1011780027802750D8B40DD02728D8A408D0000E2F
:101188001E6E000E1F6E000E206E000E216E208E49
:1011980008D0000E1E6E000E1F6E000E206E000E90
:1011A800216E2750D8B403D02C50D8A409D0000EF3
:1011B8001A6E000E1B6E000E1C6E000E1D6E1200C5
:1011C80020501A02F3CF31F0F4CF32F03150286EAC
:1011D800296A2A6A2B6A32502D6E2E6A2F6A306A63
:1011E8001F501B02F3CF31F0F4CF32F031502826D4
:1011F800000E29222A222B2232502D26000E2E22C2
:101208002F2230221E501C02F3CF31F0F4CF32F0DF
:1012180031502826000E29222A222B2232502D2630
:10122800000E2E222F2230222AC02BF029C02AF0AD
:1012380028C029F0286A1E501B02F3CF31F0F4CFE2
:1012480032F03150282632502922000E2A22000E70
:101258002B221F501A02F3CF31F0F4CF32F0315065
:10126800282632502922000E2A22000E2B222AC0BC
:101278002BF029C02AF028C029F0286A1E501A022B
:10128800F3CF31F0F4CF32F03150282632502922F2
:10129800000E2A22000E2B2220501B02F3CF31F021
:1012A800F4CF32F031502D2632502E22000E2F224C
:1012B800000E30221F501C02F3CF31F0F4CF32F071
:1012C80031502D2632502E22000E2F22000E3022B1
:1012D80020501C02F3CF31F0F4CF32F03150226E9F
:1012E8003250236E246A256A24C025F023C024F0D6
:1012F80022C023F0226A22502D2623502E22245069
:101308002F22255030222B502D26000E2E222F2240
:1013180030222AC02BF029C02AF028C029F0286AD8
:1013280027502CC022F0236A2226000E2322820E88
:101338002224316EFF0E2320326E0FD0D8902D3626
:101348002E362F3630362BBE2D80D89028362936AB
:101358002A362B363106D8A032062FAEEFD7000E2C
:10136800276E2BAE17D0FF0E2814226EFF0E2914FD
:10137800236EFF0E2A14246E7F0E2B14256E225026
:10138800231024102510D8B403D0010E276E02D0E4
:101398002DB0FBD72750D8B41FD0010E2D26000E34
:1013A8002E222F22302230A017D02DC022F02EC09E
:1013B80023F02FC024F030C025F025342532243204
:1013C8002332223222C02DF023C02EF024C02FF069
:1013D80025C030F0314A322A32BE0DD0325003E1F6
:1013E8003128D8A008D0000E2D6E000E2E6E800E6B
:1013F8002F6E7F0E20D032BE05D032500EE1310460
:10140800D8B00BD0000E2D6E000E2E6E000E2F6E73
:10141800000E306E000E266E0FD031C02CF0FF0E7D
:101428002D16FF0E2E167F0E2F16000E30162CB01E
:101438002F8ED8902C30306E265030122DC01AF0D6
:101448002EC01BF02FC01CF030C01DF01200C85178
:10145800800B436EC851C825456EC7BF45804550AF
:10146800D8B40DD04528D8A408D0000EC56F000EFA
:10147800C66F000EC76F000EC86FC78F06D0000E6C
:10148800C56F000EC66F000EC76F000EC86FCC5137
:10149800800B446E43504418D8A4438CCC51CC25BF
:1014A800446ECBBF44804450D8B40DD04428D8A44F
:1014B80008D0000EC96F000ECA6F000ECB6F000E69
:1014C800CC6FCB8F06D0000EC96F000ECA6F000E0E
:1014D800CB6F000ECC6F4550445CD8B022D043ACE3
:1014E80002D0800E431A45C046F044C045F046C0BD
:1014F80044F0C5C046F0C9C0C5F046C0C9F0C6C072
:1015080046F0CAC0C6F046C0CAF0C7C046F0CBC055
:10151800C7F046C0CBF0C8C046F0CCC0C8F046C043
:10152800CCF0000E466E455044C03FF0406A3F5E26
:10153800000E405A40BE2CD0405004E11A0E3F5CC9
:10154800D8A026D0C551C611C711C811D8B402D029
:10155800010E01D0000E466E000EC56F000EC66F5C
:10156800000EC76F000EC86F44C045F015D046A0E6
:1015780005D0D89046300109466E02D0D890463240
:10158800C5B1468EC835C833C733C633C533452AB7
:101598004450455CD8A0EBD743BC28D04550D8A4CC
:1015A80009D0000EC56F000EC66F000EC76F000E83
:1015B800C86F1200C951C527CA51C623CB51C723CA
:1015C800CC51C823C8A171D046A005D0D8904630C8
:1015D8000109466E02D0D8904632C5B1468EC8354C
:1015E800C833C733C633C533452A5FD0C951C55D33
:1015F800CA51C659CB51C759C851800A3F6ECC5100
:10160800800A3F58D8B025D0C551C95D3F6EC65134
:10161800CA59406EC751CB59416EC851CC59426E18
:10162800FF0E3F24C56FFF0E4020C66FFF0E4120FE
:10163800C76FFF0E4220C86F800E431A466C465093
:10164800D8A40FD0010EC527000EC623C723C82370
:1016580008D0C951C55FCA51C65BCB51C75BCC51D5
:10166800C85BC551C611C711C811D8A41CD04650B3
:10167800D8A419D0000EC56F000EC66F000EC76F34
:10168800000EC86F1200D890C537C637C737C8379D
:1016980046BEC58146A002D0D88001D0D890463633
:1016A8004550D8A44506C7AFEED7000E446E46AEE7
:1016B8000BD046C03FF07F0E3F16D8B403D0010EC2
:1016C800446E02D0C5B1FBD74450D8B420D0010E27
:1016D800C527000EC623C723C823C8A118D0C5C074
:1016E8003FF0C6C040F0C7C041F0C8C042F0423425
:1016F8004232413240323F323FC0C5F040C0C6F0AE
:1017080041C0C7F042C0C8F04528D8A4452A45289A
:10171800D8B403D04550D8A40DD0000EC56F000E24
:10172800C66F000EC76F000EC86F4550D8A402D010
:10173800000E436E45A002D0C78F01D0C79FD89036
:101748004530C86F43BEC88FC5C0C5F0C6C0C6F017
:10175800C7C0C7F0C8C0C8F0120041D10A0E1EECBD
:1017680020F00C2401010C6F000E0D200D6F000EEF
:101778000E200E6F000E0F200F6F2850D96EDA6AF8
:10178800550EDE6E000EDD6E1EEC20F001010C51D0
:101798000C5C0D510D580E510E580F510F58D8A012
:1017A800120002D114A1DAD7A70E126EA60E136E7C
:1017B800A50E146EA80E156EA90E166EAA0E176E3B
:1017C800AB0E186EEEEC1AF0E7D0000161B103D051
:1017D8000101D99102D00101D981000162B103D080
:1017E8000101D99302D00101D98363C0DAF164C041
:1017F800E3F165C0E4F166C0E5F167C0E6F1000118
:1018080068B103D00101CB9102D00101CB81000165
:1018180069B103D00101CB9302D00101CB836AC027
:10182800CCF16BC0D5F16CC0D6F16DC0D7F16EC0EC
:10183800D8F100016FB103D00101BD9102D00101BF
:10184800BD81000170B103D00101BD9302D0010137
:10185800BD8371C0BEF172C0C7F173C0C8F174C056
:10186800C9F175C0CAF1000176B103D00101AF9189
:1018780002D00101AF81000177B103D00101AF931C
:1018880002D00101AF8378C0B0F179C0B9F17AC054
:10189800BAF17BC0BBF17CC0BCF100017DB103D0C3
:1018A8000101A19102D00101A18100017EB103D003
:1018B8000101A19302D00101A1837FC0A2F180C0E0
:1018C800ABF181C0ACF182C0ADF183C0AEF16CD791
:1018D8000001844B852B855104E1320E845DD8A02C
:1018E80006D0000E856F000E846F050E56D0864B0D
:1018F800872B875104E1140E865DD8A006D0000E10
:10190800876F000E866F030E48D089A127D789916B
:10191800010E43D0010E2B6ED90E0C6E010E0D6E0A
:10192800A50E0E6E83EC11F00009D8A42ED0CB0EB4
:101938000C6E010E0D6EA50E0E6E83EC11F00009F3
:10194800D8A423D0BD0E0C6E010E0D6EA50E0E6E22
:1019580083EC11F00009D8A418D0AF0E0C6E010E5C
:101968000D6EA50E0E6E83EC11F00009D8A40DD0F3
:10197800A10E0C6E010E0D6EA50E0E6E83EC11F00D
:101988000009D8A402D0000E2B6E2BB003D00101A1
:101998001C9102D001011C81020E536EDFD6A50EE8
:1019A800126EF6EC1EF0F8D75350296E2A6A2A50A8
:1019B800000AD8A4D3D62950000AD8B4F3D6010A0D
:1019C800D8B403D7030AD8B483D7010AD8B4A2D7A6
:1019D800070AD8B4E4D7010AD8B4E6D6BFD6285047
:1019E800D96EDA6ADECF29F0DDCF2AF02A50000A54
:1019F800D8A407D02950000AD8B4B0D6550AD8B40C
:101A0800C3D62850D96EDA6A000EDE6E000EDD6E7F
:101A180012003650800B0001BC6F36503624C36F5D
:101A280035BEC381C351D8B40DD0C329D8A408D0BA
:101A3800000E336E000E346E000E356E000E366EDC
:101A4800358E06D0000E336E000E346E000E356EE5
:101A5800000E366E3A50800BBC1B3A503A24C46FC5
:101A680039BEC481C451D8B40DD0C429D8A408D073
:101A7800000E376E000E386E000E396E000E3A6E8C
:101A8800398E06D0000E376E000E386E000E396E95
:101A9800000E3A6E3750381039103A10D8A417D0C3
:101AA800000E336E000E346E000E356E000E366E6C
:101AB800800E35127F0E3612BC51361233C033F009
:101AC80034C034F035C035F036C036F01200C3519A
:101AD800D8A409D0000E336E000E346E000E356E99
:101AE800000E366E1200C451C3C03BF03C6A3B5E28
:101AF800000E3C5A7F0E3B24BD6F000E3C20BE6F8B
:101B080033C0B8F034C0B9F035C0BAF036C0BBF055
:101B1800000E336E000E346E000E356E000E366EFB
:101B2800000EBF6F000EC06F000EC16F000EC26FB7
:101B3800000EC46F28D0C451D8B411D0D890B8378B
:101B4800B937BA37BB37D8903336343635363636A8
:101B5800C2BF3380D890BF37C037C137C23737507C
:101B6800B85D3850B9593950BA593A50BB59D8A00C
:101B780009D0C28D3750B85F3850B95B3950BA5B5D
:101B88003A50BB5BC42B190EC465D5D7B851B911EF
:101B9800BA11BB11D8B411D0BF810FD0D890333649
:101BA800343635363636C2BF3380D890BF37C03763
:101BB800C137C237BD07D8A0BE0735AEEFD7000E74
:101BC800C46FC2AF17D0FF0EBF153B6EFF0EC01516
:101BD8003C6EFF0EC1153D6E7F0EC2153E6E3B502A
:101BE8003C103D103E10D8B403D0010EC46F02D093
:101BF80033B0FBD7C451D8B41FD0010E3326000E22
:101C080034223522362236A017D033C03BF034C0F8
:101C18003CF035C03DF036C03EF03E343E323D32F9
:101C28003C323B323BC033F03CC034F03DC035F071
:101C38003EC036F0BD4BBE2BBEBF10D0BE5103E137
:101C4800BD29D8A00BD0000EBE6FBD69000E336E43
:101C5800000E346E000E356E000E366EBEBF05D017
:101C6800BE5111E1BD05D8B00ED0000EBE6F000EFA
:101C7800BD6F000E336E000E346E000E356E000E12
:101C8800366E000EBC6FBDC0C3F0C3A102D0358E46
:101C980001D0359ED890C331366E0ED727C0C0F01C
:101CA80028C0C1F029C0C2F02AC0C3F02BC0C4F0BC
:101CB8002CC0C5F02DC0C6F02EC0C7F0C7AF02D0EB
:101CC800010E01D0000EBE6FBF6BBE51BF11D8B45C
:101CD80010D0C71FC61FC51FC41FC31FC21FC11FE7
:101CE800C06D000EC123C223C323C423C523C6234A
:101CF800C72348AE499248BE05D0485008E147047A
:101D0800D8B005D0000EBB6F010EBA6F04D047C023
:101D1800BAF048C0BBF098C0BCF099C0BDF0BE5145
:101D2800BF11D8A402D049A403D0BC07D8A0BD07CE
:101D3800000EC96F1F0EC86F000E02014E6F7CD0D7
:101D4800C807D8A0C9072F0EC825D96E020EC92109
:101D5800DA6EC0C00CF0C1C00DF0C2C00EF0C3C036
:101D68000FF0C4C010F0C5C011F0C6C012F0C7C053
:101D780013F00A0E146E000E156E000E166E000E8D
:101D8800176E000E186E000E196E000E1A6E000EF9
:101D98001B6E61EC15F00CC02FF00DC030F00EC0BA
:101DA80031F00FC032F010C033F011C034F012C05F
:101DB80035F013C036F02FC01EF031C01FF0DDEC37
:101DC8001EF01E50300FDF6EBA07D8A0BB07BC0745
:101DD800D8A0BD07C0C00CF0C1C00DF0C2C00EF045
:101DE800C3C00FF0C4C010F0C5C011F0C6C012F0D7
:101DF800C7C013F00A0E146E000E156E000E166E94
:101E0800000E176E000E186E000E196E000E1A6E78
:101E1800000E1B6E45EC12F00CC0C0F00DC0C1F0F6
:101E28000EC0C2F00FC0C3F010C0C4F011C0C5F09E
:101E380012C0C6F013C0C7F00001C9BF1FD0C951F6
:101E480003E1C805D8A01AD0C051C111C211C311ED
:101E5800C411C511C611C711D8A472D7BBBF05D00C
:101E6800BB5102E1BA05D8B06BD7BDBF07D0BD5191
:101E780003E1BC05D8A002D049B262D7BE51BF1158
:101E8800D8A402D049A417D0C807D8A0C907BE5102
:101E9800BF11D8A404D0000EB96F2B0E03D0000ECA
:101EA800B96F2D0EB86F2F0EC825D96E020EC92135
:101EB800DA6EB8C0DFFF26C01CF02F0EC8251D6ED5
:101EC800020EC9211E6EBCC01FF0BDC020F0D3ECAD
:101ED8001BF01CC026F01DC027F01200000E0D6E6E
:101EE800010E0C6E38EC20F00001616F000E0D6ED3
:101EF800020E0C6E38EC20F00001626F000E0D6EC1
:101F0800030E0C6E38EC20F00001636F000E0D6EAE
:101F1800040E0C6E38EC20F00001646F000E0D6E9C
:101F2800050E0C6E38EC20F00001656F000E0D6E8A
:101F3800060E0C6E38EC20F00001666F000E0D6E78
:101F4800070E0C6E38EC20F00001676F000E0D6E66
:101F5800080E0C6E38EC20F00001686F000E0D6E54
:101F6800090E0C6E38EC20F00001696F000E0D6E42
:101F78000A0E0C6E38EC20F000016A6F000E0D6E30
:101F88000B0E0C6E38EC20F000016B6F000E0D6E1E
:101F98000C0E0C6E38EC20F000016C6F000E0D6E0C
:101FA8000D0E0C6E38EC20F000016D6F000E0D6EFA
:101FB8000E0E0C6E38EC20F000016E6F000E0D6EE8
:101FC8000F0E0C6E38EC20F000016F6F000E0D6ED6
:101FD800100E0C6E38EC20F00001706F000E0D6EC4
:101FE800110E0C6E38EC20F00001716F000E0D6EB2
:101FF800120E0C6E38EC20F00001726F000E0D6EA0
:10200800130E0C6E38EC20F00001736F000E0D6E8D
:10201800140E0C6E38EC20F00001746F000E0D6E7B
:10202800150E0C6E38EC20F00001756F000E0D6E69
:10203800160E0C6E38EC20F00001766F000E0D6E57
:10204800170E0C6E38EC20F00001776F000E0D6E45
:10205800180E0C6E38EC20F00001786F000E0D6E33
:10206800190E0C6E38EC20F00001796F000E0D6E21
:102078001A0E0C6E38EC20F000017A6F000E0D6E0F
:102088001B0E0C6E38EC20F000017B6F000E0D6EFD
:102098001C0E0C6E38EC20F000017C6F000E0D6EEB
:1020A8001D0E0C6E38EC20F000017D6F000E0D6ED9
:1020B8001E0E0C6E38EC20F000017E6F000E0D6EC7
:1020C8001F0E0C6E38EC20F000017F6F000E0D6EB5
:1020D800200E0C6E38EC20F00001806F000E0D6EA3
:1020E800210E0C6E38EC20F00001816F000E0D6E91
:1020F800220E0C6E38EC20F00001826F000E0D6E7F
:10210800230E0C6E38EC20F00001836F120038505B
:10211800D96EDA6ADECFF6FFDDCFF7FF0800F5509B
:10212800250AD8A4D6D03850D96EDA6ADE2A000E2D
:10213800DD22000E996F000E986F98C049F099C083
:102148004AF0476848683850D96EDA6ADECFF6FF39
:10215800DDCFF7FF0800F550640AD8B40CD038502A
:10216800D96EDA6ADECFF6FFDDCFF7FF0800F5504B
:10217800690AD8A434D03850D96EDA6ADE2A000E3B
:10218800DD223950D96EDA6ADF50DF2ADF2AD96EAC
:10219800DA6ADECF3AF0DDCF3BF0000E3BBEFF0E31
:1021A8003C6E3D6E3E6E3F6E406E416E37C026F00F
:1021B8003AC027F03BC028F03CC029F03DC02AF0C7
:1021C8003EC02BF03FC02CF040C02DF041C02EF097
:1021D80052EC0EF026C037F027C038F01200385005
:1021E800D96EDA6ADECFF6FFDDCFF7FF0800F550CB
:1021F800730AD8B415D03850D96EDA6ADECF0CF02D
:10220800DDCF0DF0D80E0E6E7F0E0F6E000E116E24
:10221800030E106E88EC18F00C500D10D8A42FD0B7
:102228003850D96EDA6ADECFF6FFDDCFF7FF080047
:10223800F550730AD8B404D0000E446E030E03D0D0
:10224800000E446E010E436E3850D96EDA6A435060
:10225800DE264450DD223950D96EDA6ADF2ADF04DF
:10226800D96EDA6ADECF42F037C016F042C017F0F6
:1022780004EC17F016C037F017C038F012003850C9
:10228800D96EDA6ADECFF6FFDDCFF7FF0800F5502A
:10229800250AD8A413D03850D96EDA6ADE2A000E7F
:1022A800DD22000E0F6E250E0E6E37C010F08BEC7F
:1022B8001BF0000E386E010E376E12003850D96EC2
:1022C800DA6ADE2A000EDD22000E386E000E376E46
:1022D80012003850D96EDA6ADECFF6FFDDCFF7FF8D
:1022E8000800F5500E6E0F6A37C010F08BEC1BF02B
:1022F8003850D96EDA6ADE2A000EDD22DAD70CC031
:10230800D9FF0DC0DAFFDFB002D0000E120020EEB8
:1023180001F00C50D9260D50DA22080EDE18D8B478
:1023280037D020EE01F00C50D9260D50DA22090ED4
:10233800DE18D8A411D00E50D96EDA6A060ED92646
:10234800DF50D8B4E2D70E50D96EDA6A060ED92615
:10235800050EDF641DD0D9D720EE01F00C50D92628
:102368000D50DA220A0EDE18D8A4CFD70E50D96E37
:10237800DA6A060ED926060EDE18D8B409D00E5031
:10238800D96EDA6A060ED926070EDE18D8A4BDD78C
:102398000E50D96EDA6A010ED926DF500F6E0E5034
:1023A800D96EDA6A020ED926DF50106E10503C0D35
:1023B800F3CF11F0F4CF12F00F501124136E000E6A
:1023C8001220146E20EE0BF00C50D9260D50DA2294
:1023D800DF500F6E20EE0AF00C50D9260D50DA228D
:1023E800DF50106E10503C0DF3CF11F0F4CF12F007
:1023F8000F501124156E000E1220166E20EE0DF0EF
:102408000C50D9260D50DA22DF500F6E20EE0CF05A
:102418000C50D9260D50DA22DF50106E10503C0DAA
:10242800F3CF11F0F4CF12F00F501124176E000EF5
:102438001220186E1750155C18501658D8B00ED0C8
:102448001550135C16501458D8A05FD71750135C5A
:1024580018501458D8B059D7010E12001550175CEF
:1024680016501858D8B051D71550135C1650145838
:10247800D8B0F2D71750135C18501458D8A0ECD71E
:1024880044D7000E1D6E1BAE12D01B1E1A1E191E3D
:10249800181E171E161E151E146C000E1522162265
:1024A8001722182219221A221B22010E1D6E13AEA2
:1024B80012D0131E121E111E101E0F1E0E1E0D1EF0
:1024C8000C6C000E0D220E220F2210221122122255
:1024D8001322010E1D1A20EE1EF0070EDE6AE80612
:1024E800FDE21450151016101710181019101A10B4
:1024F8001B10D8B446D0010E1C6E0AD0D8901436E2
:10250800153616361736183619361A361B361C2A5B
:102518001BAEF4D7D8901E361F3620362136223609
:1025280023362436253614500C5C15500D58165099
:102538000E5817500F5818501058195011581A5053
:1025480012581B501358D8A011D014500C5E1550B7
:102558000D5A16500E5A17500F5A1850105A195033
:10256800115A1A50125A1B50135A1E80D8901B32F7
:102578001A321932183217321632153214321C2E0A
:10258800C9D71D50D8B410D0251E241E231E221EC4
:10259800211E201E1F1E1E6C000E1F22202221221B
:1025A80022222322242225221EC00CF01FC00DF057
:1025B80020C00EF021C00FF022C010F023C011F08F
:1025C80024C012F025C013F01200000E286E000E71
:1025D800296E000E2A6E1D501E10D8B412001F500E
:1025E8002010D8B4120021502210D8B41200235061
:1025F8002410D8B4120025502610D8B412001DC0DB
:102608000CF01EC00DF012EC1EF00D5004E1080E87
:102618000C5CD8A012002B0E106E116A000E136EFF
:10262800000E126E000E156E040E146EC8EC14F037
:102638001DC0D9FF1EC0DAFFDF502B6E1D4A1E2AAF
:102648001DC0D9FF1EC0DAFFDF502C6E1D4A1E2A9E
:102658002B0E136E146AF3EC15F01350276E1DC081
:10266800D9FF1EC0DAFFDF502B6E1D4A1E2A1DC07F
:10267800D9FF1EC0DAFFDF502C6E1D4A1E2A2B0E12
:10268800136E146AF3EC15F01350286E1DC0D9FFB1
:102698001EC0DAFFDF502B6E1D4A1E2A1DC0D9FF4F
:1026A8001EC0DAFFDF502C6E1D4A1E2A2B0E136E39
:1026B800146AF3EC15F01350296E1D4A1E2A1DC02A
:1026C800D9FF1EC0DAFFDF502B6E000E2C6E2B0ECA
:1026D800136E146AF3EC15F013502A6E1FC0D9FF5D
:1026E80020C0DAFF27C0DFFF21C0D9FF22C0DAFFF0
:1026F80028C0DFFF23C0D9FF24C0DAFF29C0DFFFCD
:1027080025C0D9FF26C0DAFF2AC0DFFF1200146EE9
:102718001450D8A40FAE1AD00CC010F00DC011F090
:102728000EC012F00FC013F0101E111E121E131E41
:10273800102A000E11221222132210C016F011C006
:1027480017F012C018F013C019F008D00CC016F01A
:102758000DC017F00EC018F00FC019F00C500D1076
:102768000E100F10D8A409D0000E0C6E000E0D6EBE
:10277800000E0E6E000E0F6E1200960E156E06D02D
:10278800152AD8901932183217321632000E16143C
:10279800106E000E1714116E000E1814126EFE0E35
:1027A8001914136E1050111012101310D8B40DD044
:1027B800E7D7152A010E1626000E1722182219220D
:1027C800D8901932183217321632000E1614106EBD
:1027D800000E1714116E000E1814126EFF0E191445
:1027E800136E1050111012101310D8B407D0E1D77F
:1027F8001506D890163617361836193618BE03D06F
:10280800020E1560F5D715A0189ED890153215C080
:1028180010F0116A126A136A10C013F0126A116A72
:10282800106A105016121150171212501812135025
:1028380019121450D8A40FAE01D0198E16C00CF07E
:1028480017C00DF018C00EF019C00FF0120082D09A
:102858000A0E1EEC20F00C240101086F000E0D205A
:10286800096F000E0E200A6F000E0F200B6F10501C
:10287800D96EDA6A190EDE6E000EDD6E1EEC20F0DF
:10288800010108510C5C09510D580A510E580B51A1
:102898000F58D8A0120046D05104D8A403D08B8278
:1028A800010E1FD0020E5118D8A404D04F068B82F7
:1028B800020E17D0030E5118D8A403D08B82030E32
:1028C80010D0000E516E000E506E000E00019C6F6D
:1028D8008B92BED7502A040E5064BAD7000E506EA1
:1028E8000BD0526EB5D7502A040E5064B1D7000EE3
:1028F800506E4F50D8A40CD08B92000E516E10D051
:10290800040EEFD7502A040E5064A2D7000E506E62
:102918008B92F6D7502A040E50649AD7000E506E48
:10292800000EDFD75250116E126A1250000AD8A456
:102938008FD71150000AD8B4AFD7010AD8B4CAD774
:10294800030AD8B4D0D7010AD8B4DCD7070AD8B458
:10295800E1D77ED71050D96EDA6ADECF11F0DDCF1D
:1029680012F01250000AD8A407D01150000AD8B4A7
:102978006FD7190AD8B482D71050D96EDA6A000E08
:10298800DE6E000EDD6E120010C01AF011C01BF0D2
:1029980014501510D8B412001AC0D9FF1BC0DAFFA2
:1029A80012C0DFFF14501A24166E15501B20176E24
:1029B800FF0E1624D96EFF0E1720DA6E12C0DFFF45
:1029C800155004E1030E145CD8A0120020EE01F0AB
:1029D8001A50D9261B50DA2212C0DFFF20EE02F06F
:1029E8001A50D9261B50DA2212C0DFFF14501A24BD
:1029F800166E15501B20176EFE0E1624D96EFF0E8C
:102A08001720DA6E12C0DFFF14501A24166E155004
:102A18001B20176EFD0E1624D96EFF0E1720DA6ED6
:102A280012C0DFFF155004E1070E145CD8A0120095
:102A380020EE03F01A50D9261B50DA2212C0DFFF0D
:102A480014501A24166E15501B20176EFC0E1624EF
:102A5800D96EFF0E1720DA6E12C0DFFF155004E1A1
:102A6800090E145CD8A012001AC016F01BC017F08B
:102A7800161E171E164A172A030E1614186E196A00
:102A880018501A2619501B221850145E1950155A3E
:102A9800FC0E1416FF0E15160BD01AC0D9FF1BC05A
:102AA800DAFF12C0DFFF1406D8A015061A4A1B2A3F
:102AB80014501510D8B41200F0D7000E1D6E13AEC6
:102AC80012D0131E121E111E101E0F1E0E1E0D1EDA
:102AD8000C6C000E0D220E220F221022112212223F
:102AE8001322010E1D6E1BAE10D01B1E1A1E191EBE
:102AF800181E171E161E151E146C000E15221622FF
:102B08001722182219221A221B22145015101610E7
:102B18001710181019101A101B10D8B43CD0010E39
:102B28001C6E0AD0D8901436153616361736183655
:102B380019361A361B361C2A1BAEF4D714500C5CF7
:102B480015500D5816500E5817500F581850105849
:102B5800195011581A5012581B501358D8A010D099
:102B680014500C5E15500D5A16500E5A17500F5A25
:102B78001850105A1950115A1A50125A1B50135AF9
:102B8800D8901B321A3219321832173216321532CF
:102B980014321C2ED3D71D50D8B410D0131E121EB9
:102BA800111E101E0F1E0E1E0D1E0C6C000E0D2287
:102BB8000E220F2210221122122213220CC00CF016
:102BC8000DC00DF00EC00EF00FC00FF010C010F0C9
:102BD80011C011F012C012F013C013F01200000E51
:102BE8001C6E000E1B6E000E1A6E000E196E02D0BF
:102BF800134A142A13C0D9FF14C0DAFF200EDE18B6
:102C0800D8B4F6D7F70E156EFF0E166E13C0D9FF9F
:102C180014C0DAFFDF50176E186A155017261650C1
:102C2800182218500CE1050E175CD8B008D0E0D770
:102C3800000E1A6E010E196E134A142A2ED013C0F4
:102C4800D9FF14C0DAFFDF50156E166A1650000A55
:102C5800D8A423D015502B0AD8B4EED7060AD8B476
:102C6800E7D71BD01BC00CF01CC00DF0000E0F6E78
:102C78000A0E0E6E90EC1FF013C0D9FF14C0DAFFD5
:102C8800DF50156E15500C5E000E0D5A300E0C24D8
:102C98001B6E000E0D201C6ECFD7D00E156EFF0ECA
:102CA800166E13C0D9FF14C0DAFFDF50176E186A0A
:102CB8001550172616501822185004E10A0E175CF2
:102CC800D8A0D0D719501A10D8A40DD01BC015F011
:102CD8001CC016F0151E161E154A162A15C013F02C
:102CE80016C014F012001BC013F01CC014F0120020
:102CF8006DD00A0E1EEC20F00C240101006F000EAE
:102D08000D20016F000E0E20026F000E0F20036FC2
:102D18001050D96EDA6A210EDE6E000EDD6E1EECE2
:102D280020F0010100510C5C01510D5802510E5860
:102D380003510F58D8A0120034D014A1DAD7010ECD
:102D48002ED000018C51D8B406D08B84000E8B6F26
:102D5800000E8A6F23D08B94CCD700018A4B8B2B23
:102D68008B5104E1320E8A5DD8A0C3D7000E8B6F59
:102D7800000E8A6F8B94030E12D000018A4B8B2BA6
:102D88008B5104E1320E8A5DD8A0B3D7000E8B6F49
:102D9800000E8A6F8C51D8B4D2D78B84020E4E6E37
:102DA800A8D74E50116E126A1250000AD8A4A1D7A3
:102DB8001150000AD8B4C1D7010AD8B4C2D7030A3F
:102DC800D8B4CBD7010AD8B4D8D793D71050D96E76
:102DD800DA6ADECF11F0DDCF12F01250000AD8A463
:102DE80007D01150000AD8B484D7210AD8B497D78D
:102DF8001050D96EDA6A000EDE6E000EDD6E12001B
:102E080021EEE7F010EE19F0060EDBCFE3FFE8063F
:102E1800FCE217C024F02450D8A402D0190E246E66
:102E280024C00CF00D6A12EC1EF00CC027F00DC087
:102E380028F047C025F048C026F026BE0ED02750FF
:102E4800255C2650800A186E2850800A1858D8B079
:102E580004D025C027F026C028F027C025F028C0B8
:102E680026F098C022F099C023F049A00BD014D0C6
:102E7800000E0F6E200E0E6E16C010F08BEC1BF0BD
:102E8800274A282A2250275C2850800A186E235087
:102E9800800A1858D8A0ECD7000E216E000E206EBC
:102EA8000FD02450D96EDA6ADF50186E18500E6EA3
:102EB8000F6A16C010F08BEC1BF0242A204A212A36
:102EC8002550205C2150800A186E2650800A185818
:102ED800D8A0E7D749B00BD014D0000E0F6E200E43
:102EE8000E6E16C010F08BEC1BF0274A282A2250D1
:102EF800275C2850800A186E2350800A1858D8A0DA
:102F0800ECD727C016F028C017F012006AD00A0EB6
:102F18001EEC20F00C240001926F000E0D20936F20
:102F2800000E0E20946F000E0F20956F1050D96E72
:102F3800DA6A290EDE6E000EDD6E1EEC20F000014E
:102F480092510C5C93510D5894510E5895510F584D
:102F5800D8A0120034D08990010114A1D8D72CD060
:102F68004C50D8A404D0010E4C6E8990D0D79A4BFF
:102F78009B2B9B5104E1050E9A5DD8A0C8D7000E83
:102F88009B6F000E9A6F000E4C6E020E16D04C50BE
:102F9800D8A404D0010E4C6E8980B9D79A4B9B2BCC
:102FA8009B5104E1C30E9A5DD8A0B1D7000E9B6F68
:102FB800000E9A6F000E4C6E010E4D6EA8D74D5044
:102FC800116E126A1250000AD8A4A1D71150000A33
:102FD800D8B4C1D7010AD8B4C3D7030AD8B4D7D74D
:102FE80096D71050D96EDA6ADECF11F0DDCF12F025
:102FF8001250000AD8A407D01150000AD8B487D7B5
:10300800290AD8B49AD71050D96EDA6A000EDE6E43
:10301800000EDD6E1200000E366E1F502010D8B460
:1030280012001FC0D9FF20C0DAFF000EDF6E1D504E
:103038001E10D8B4120021502210D8B41200235008
:103048002410D8B41200260E106E116A000E136EEA
:10305800000E126E000E156E100E146EC8EC14F0F1
:103068001DC017F01EC018F021C019F022C01AF0B8
:1030780041EC1BF017C037F018C038F03750381043
:10308800D8B4120021C00CF022C00DF012EC1EF0D2
:103098000C503724376E0D503820386E0DD037C09D
:1030A800D9FF38C0DAFF3650260FE16EE26ADFCF6B
:1030B800E7FF374A382A362A37C0D9FF38C0DAFF3F
:1030C800DF50D8B412D037C0D9FF38C0DAFFDF508C
:1030D800256E23C0F6FF24C0F7FF0800F550251819
:1030E800D8B403D00E0E3664DAD73650260FD96E10
:1030F800DA6A000EDF6E1FC00CF020C00DF0260E3D
:103108000E6E3EEC1FF012000CC013F00DC014F050
:103118000EC015F00FC016F01006D8A01106102822
:103128000FE11128D8A40CD0000E0D6E000E0C6E05
:103138001200134A142A154A162A1006D8A0110696
:1031480013C0F6FF14C0F7FFF86A070EF76403D040
:103158000800F55005D0F6CFE1FFF7CFE2FFE750C2
:103168000009D8B427D015C0F6FF16C0F7FF08002D
:10317800F5500009D8B41ED010501110D8B41AD088
:1031880015C0F6FF16C0F7FF0800F5CF12F013C000
:10319800F6FF14C0F7FFF86A070EF76403D00800BB
:1031A800F55005D0F6CFE1FFF7CFE2FFE750121850
:1031B800D8B4BFD713C0F6FF14C0F7FFF86A070EDC
:1031C800F76403D00800F55005D0F6CFE1FFF7CF3C
:1031D800E2FFE750126E15C0F6FF16C0F7FF0800B1
:1031E800F550125C0C6E0D6AD8A00D061200060090
:1031F800E1CF06F0E2CF07F0D9CF08F0DACF09F037
:10320800F2A44ED0FF0ED76EEC0ED66EF294010EDD
:1032180000018E27000E8F23902391239151901146
:1032280006E1600E8E5DEA0E8F59D8A039D0000EE7
:103238008E6F000E8F6F000E906F000E916F000E54
:10324800926F000E936F000E946F000E956F000E34
:103258000101106F000E116F000E126F000E136F38
:10326800000E0C6F000E0D6F000E0E6F000E0F6F2C
:10327800000E086F000E096F000E0A6F000E0B6F2C
:10328800000E046F000E056F000E066F000E076F2C
:10329800000E006F000E016F000E026F000E036F2C
:1032A8009EAA0ED00AEC20F00A6E0A0E056E52ECA9
:1032B8001EF002010081000E0101866F000E856F6D
:1032C80009C0DAFF08C0D9FF07C0E2FF06C0E1FF66
:1032D80054921100000E2F6E1D501E10D8B408D045
:1032E8001F502010D8B404D021502210D8A402D0E6
:1032F800000E1200240E106E116A000E136E000EDE
:10330800126E000E156E0A0E146EC8EC14F01DC075
:1033180017F01EC018F01FC019F020C01AF041ECB9
:103328001BF017C030F018C031F030503110D8B44D
:10333800DFD71FC00CF020C00DF012EC1EF00C50AF
:103348003024306E0D503120316E0DD030C0D9FF91
:1033580031C0DAFF2F50240FE16EE26ADFCFE7FFBA
:10336800304A312A2F2A30C0D9FF31C0DAFFDF5066
:10337800D8B412D030C0D9FF31C0DAFFDF50236E85
:1033880021C0F6FF22C0F7FF0800F5502318D8B473
:1033980003D0080E2F64DAD7240E136E146AF3ECE8
:1033A80015F013502E6E2E501200000E246E1D5074
:1033B8001E10D8B412001F502010D8B4120021508B
:1033C8002210D8B412001DC00CF01EC00DF012EC73
:1033D8001EF00D5004E1040E0C5CD8A01200250E5E
:1033E800106E116A000E136E000E126E000E156E2E
:1033F800040E146EC8EC14F01DC0D9FF1EC0DAFF0D
:10340800DF50256E1D4A1E2A1DC0D9FF1EC0DAFFD7
:10341800DF50266E1D4A1E2A250E136E146AF3EC21
:1034280015F01350236E1DC0D9FF1EC0DAFFDF5000
:10343800256E1D4A1E2A1DC0D9FF1EC0DAFFDF50A7
:10344800266E250E136E146AF3EC15F01350246ED5
:103458001FC0D9FF20C0DAFF23C0DFFF21C0D9FF7A
:1034680022C0DAFF24C0DFFF1200CF35D035D66F77
:10347800D651D8A409D0000ECD6F000ECE6F000E25
:10348800CF6F000ED06F1200CDC0D1F0CEC0D2F0F9
:10349800CFC0D3F0D0C0D4F0200E05D0D890D4330C
:1034A800D333D233D133E82EF9D7D151D56FCF8F5B
:1034B800FF0ECD17FF0ECE17FF0ECF17000ED01739
:1034C800960ED65FD6AF0DD0D651800A970FD8A0EA
:1034D800D2D7D890D033CF33CE33CD33D63FF9D7E8
:1034E8000DD01F0ED66507D0C6D7D890CD37CE37AA
:1034F800CF37D037D607D651D8A4F7D7D551D8B4B7
:1035080008D0D01FCF1FCE1FCD6D000ECE23CF23E6
:10351800D023CDC0CDF0CEC0CEF0CFC0CFF0D0C03C
:10352800D0F0120093809382C78EC68AC650F00BE3
:103538000809C66E000EC96F000ECA6F800ECB6FE9
:10354800BF0ECC6F000E1E6E000E1F6E800E206E1A
:10355800400E216ED7C00CF0D8C00DF0D9C00EF0C7
:10356800DAC00FF0000E8BEC13F00CC01AF00DC08F
:103578001BF00EC01CF00FC01DF095EC08F01AC02F
:1035880037F01BC038F01CC039F01DC03AF0800E6F
:10359800336E960E346E980E356E4B0E366E0DECFD
:1035A8000DF033C0C5F034C0C6F035C0C7F036C022
:1035B800C8F02BEC0AF0C5C0CDF0C6C0CEF0C7C02D
:1035C800CFF0C8C0D0F039EC1AF0CD51C86E000E5B
:1035D800C56E1200A10EF66E7E0EF76E20EE19F083
:1035E800060E0900F5CFDEFFE806FBE2000E276EA7
:1035F800A1EC20F0D00E57EC20F02750190FD96E0F
:10360800DA6ADF5057EC20F0A5EC20F0D10E57EC29
:1036180020F02750200FD96EDA6A000EA8EC1EF0B1
:10362800FFEC1FF0DF6E9DEC20F0272A060E2764C2
:10363800DFD71250D96EDA6A22C0DFFF1350D96E75
:10364800DA6A21C0DFFF1450D96EDA6A20C0DFFFC2
:103658001550D96EDA6A23C0DFFF1650D96EDA6AC0
:1036680024C0DFFF1750D96EDA6A25C0DFFF185073
:10367800D96EDA6A26C0DFFF120019501A10D8B4C2
:1036880041D019C00CF01AC00DF012EC1EF00CC09D
:103698001BF00DC01CF02BD017C00CF018C00DF09B
:1036A80019C00EF01AC00FF01BC010F01CC011F0AA
:1036B80088EC18F00C500D10D8A405D017C017F0DE
:1036C80018C018F01200010E17240C6E000E1820F6
:1036D8000D6E19C0F6FF1AC0F7FF0800F5500E6E00
:1036E8000F6A8DEC1EF00CC017F00DC018F01750C3
:1036F8001810D8B407D017C0D9FF18C0DAFFDF50A8
:10370800D8A4CAD7000E176E000E186E12001050FB
:10371800D8B403D01050D8A404D00E508AEC20F0AE
:1037280012001050D96EDA6A090ED926DE50DE1062
:10373800D8B414D01050D96EDA6A090ED9261050B0
:10374800E16EE26A030EE126DE50E65CE650800A8E
:10375800156EDE50800A1558D8B012001050D96E78
:10376800DA6A030ED926DECF11F0DDCF12F0105041
:10377800D96EDA6ADECF13F0DDCF14F011501324BE
:10378800D96E12501420DA6E0EC0DFFF1050D96EB9
:10379800DA6A030ED926DE2A000EDD22120049A0BD
:1037A80008D01DC016F01EC017F01CC018F0C3ECDE
:1037B8001EF020BE05D01FC024F020C025F004D084
:1037C800000E256E000E246E000E236E000E226E73
:1037D8000AD0000E0F6E200E0E6E1CC010F08BEC7F
:1037E8001BF0224A232A2450225C2350800A216E8F
:1037F8002550800A2158D8A0ECD749B008D01DC060
:1038080016F01EC017F01CC018F0C3EC1EF01DC047
:103818000CF01EC00DF012EC1EF024500C241C6E8F
:1038280025500D201D6E12001F6E9A0EF66E7E0E2C
:10383800F76E20EE18F0060E0900F5CFDEFFE80659
:10384800FBE2930EF66E7E0EF76E20EE20F0060E6B
:103858000900F5CFDEFFE806FBE21FC020F012C02A
:1038680021F013C022F014C023F015C024F016C0B4
:1038780025F017C026F0000E276EA1EC20F0D00E20
:1038880057EC20F02750180FD96EDA6ADF5057EC42
:1038980020F02750200FD96EDA6ADF50D7EC1FF0DE
:1038A80057EC20F09DEC20F0272A060E2764E5D778
:1038B80012000F0EC16EF3EC1FF0800E0C6E250E79
:1038C8000D6E000E0E6E000E0F6EE7EC1FF0B6ECDC
:1038D8001FF099EC20F0A00E0001D76F860ED86F6C
:1038E800010ED96F000EDA6F96EC1AF0ADEC20F0ED
:1038F800B0EC20F05DEC20F071EC20F06CEC20F0E6
:1039080076EC20F067EC20F062EC20F004007BEC11
:1039180020F08FEC20F03FEC20F094EC20F085ECC8
:1039280020F080EC20F0F2D7E8C010F0116A000E09
:10393800136E000E126EE8C00CF00D6A12EC1EF049
:103948000CC014F00DC015F0C8EC14F0080E0001FE
:10395800E919D8A40AD0E8C0CEF0CF6BE00ED06F3A
:103968007F0ED16FD0EC1DF01200090EE919D8A412
:103978000AD0E8C0CEF0CF6BEA0ED06F7F0ED16FC1
:10398800D0EC1DF01200E8C0CEF0CF6BE40ED06F83
:103998007F0ED16FD0EC1DF01200520EF66E410E64
:1039A800F76E000EF86E01EEE7F010EE07F0090072
:1039B800F5CFEEFFE550E150FAE102EE00F04F0ED0
:1039C800EE6AE806FDE101EE00F0E70EEE6AE806B1
:1039D800FDE100EE60F0580EEE6AE806FDE100EE4B
:1039E80047F00D0EEE6AE806FDE154905492000E81
:1039F800F86E00015DEF1CF00C500D10D8B41200E9
:103A080015D00CC0F6FF0DC0F7FFF86A070EF76473
:103A180003D00800F55005D0F6CFE1FFF7CFE2FF5D
:103A2800E750AD6E0C4A0D2AACA2FED70CC0F6FFCB
:103A38000DC0F7FFF86A070EF76403D00800F550C9
:103A480005D0F6CFE1FFF7CFE2FFE7500009D8B481
:103A58001200D7D7000E146E000E156E000E166EEB
:103A6800000E176E0CA008D0105014261150152205
:103A78001250162213501722D890103611361236CB
:103A88001336D8900F320E320D320C320C500D1006
:103A98000E100F10D8A4E6D714C00CF015C00DF006
:103AA80016C00EF017C00FF01200E8C010F0116A2F
:103AB800000E136E000E126EE8C00CF00D6A12ECC8
:103AC8001EF00CC014F00DC015F0C8EC14F0000185
:103AD800E951D8B40AD0E8C0CEF0CF6BE70ED06F6A
:103AE8007F0ED16FD0EC1DF01200E8C0CEF0CF6B86
:103AF800DC0ED06F7F0ED16FD0EC1DF01200000EDF
:103B0800126E000E116E0E500F10D8B41CD0010E9C
:103B1800106E04D0D8900E360F36102A0FAEFAD792
:103B2800D890113612360E500C5C0F500D58D8A094
:103B380005D00E500C5E0F500D5A1180D8900F32E0
:103B48000E32102EEDD711C00CF012C00DF012007D
:103B5800CBC045F0CCC046F0000E976F000E966FB4
:103B68000DD0CAC037F0450E386ECDC039F08BEC99
:103B780010F03750000196273850972345C0F6FFBC
:103B880046C0F7FF0800F5500009D8A4EAD796C048
:103B9800CAF097C0CBF01200D20EDC6FCEC0DDF0B9
:103BA800CFC0DEF0000EE16F000EE06F000EE76F91
:103BB800000EE66FDD0ECA6FD0C0CBF0D1C0CCF0DE
:103BC800DC0ECD6FACEC1DF0E051CE25D96EE15185
:103BD800CF21DA6E000EDF6E12000E500F10D8B42F
:103BE80018D0010E106E04D0D8900E360F36102A59
:103BF8000FAEFAD70E500C5C0F500D58D8A004D059
:103C08000E500C5E0F500D5AD8900F320E32102EF7
:103C1800F1D70CC00CF00DC00DF012000CC00EF066
:103C28000DC00FF002D00C4A0D2A0CC0F6FF0DC0D3
:103C3800F7FFF86A070EF76403D00800F55005D0BF
:103C4800F6CFE1FFF7CFE2FFE7500009D8A4EBD7A2
:103C58000E500C5C0C6E0F500D580D6E1200010EBC
:103C6800126E200E0C180D10D8B414D0F70E0E6E6C
:103C7800FF0E0F6E0CC010F00DC011F00E50102684
:103C88000F501122115004E1050E105CD8A002D08B
:103C9800000E126E12C00CF00D6A12000550D8B456
:103CA8001200270E0201296112000550D96EDA6A46
:103CB800010E2925E16EE26A020EE222DFCFE7FF5C
:103CC800292B27EC20F001C02AF202C02BF203C0F6
:103CD8002CF204C02DF212000D6E000E0F6E0C5067
:103CE800D8B415D0010E0E6E03D0D8900C360E2A1B
:103CF8000CAEFBD7D8900F360C500D5CD8A003D073
:103D08000C500D5E0F80D8900C320E2EF3D70F504A
:103D180012000CC0D9FF0DC0DAFF0E50DE18D8A46F
:103D280005D00CC00CF00DC00DF012000CC0D9FF6E
:103D38000DC0DAFF0C4A0D2ADF50D8A4EAD7000ECE
:103D48000C6E000E0D6E1200106E69EC1FF0C58629
:103D580069EC1FF0C9CF11F069EC1FF01050D8A41E
:103D680003D00F6A0F2A01D00F6A0F3A0F46C550C9
:103D78000F18DF0B0F18C56EC58811501200000E02
:103D88001B6E000E1A6E09D019C00EF00F6A18C00B
:103D980010F08BEC1BF01A4A1B2A1A501624D96E05
:103DA8001B501720DA6EDF50196E1950D8B4120064
:103DB800EBD71FBE05D01F5010E11E04D8B00DD0A0
:103DC8001EC020F01FC021F0201E211E204A212ADB
:103DD80020C01EF021C01FF012001EC01EF01FC020
:103DE8001FF01200A1EC20F0D00E57EC20F0000ECE
:103DF80057EC20F0A5EC20F0D10E57EC20F0125033
:103E0800D96EDA6A000EA8EC1EF0FFEC1FF0DF6E28
:103E18009DEC20F01200D00E0E6EFF0E0F6E0CC03F
:103E280010F00DC011F00E5010260F501122115035
:103E380006E10A0E105CD8B002D0010E01D0000EC7
:103E48000C6E0D6A1200106E10C00EF00E460E4673
:103E5800C2500E18C30B0E18C26EC282C2B2FED771
:103E6800C4500F6E0E6AC3500E240C6E000E0F2045
:103E78000D6E12000EC011F00CC00FF00DC010F046
:103E8800112A1104D96EDA6A0FC0E1FF10C0E2FFEF
:103E98000F4A102ADFCFE7FFE750D8B41200F0D757
:103EA8000D6E080E0E6E000E0F6ED8900D340F3486
:103EB8000F6ED8900D360C500F5CD8A002D00C5065
:103EC8000F5E0E2EF2D70F501200130E0E6E880ED4
:103ED8000D6EC5CF0CF01F0E0C16D8A402D0C7A4C7
:103EE80012000D06D8A00E060D500E10D8B4120000
:103EF800F0D71C501D10D8B412001CC010F01DC003
:103F080011F0000E136E000E126E000E156E2D0EBF
:103F1800146EC8EC14F012000C500E02F3CF10F01F
:103F2800F4CF11F00C500F02F35011260D500E0271
:103F3800F350112610C00CF011C00DF012000CC087
:103F4800A9FF0EC0A8FFA69EA69CA684F29E550EA9
:103F5800A76EAA0EA76EA682F28EA1A8FED7A19878
:103F6800A6941200CF0EC116C150F00B0B09C16EFA
:103F7800C050C70B1009C06EC050F80B0409C06EC2
:103F8800C08EC28012000C500101151904E10D50B9
:103F98001619D8B406D00CC015F10DC016F1010ED3
:103FA8001200000E1200116E0A0E0C6E115054EC25
:103FB8001FF0106E0A0E0C6E115070EC1EF0100DF2
:103FC800F35010241200AC94948E949CAC98AC9C42
:103FD800200EAF6EAB8EAC8AAB889D8A1200D08E55
:103FE800F28EF28CF28AF28EFF0ED76EEC0ED66E3F
:103FF800870ED56E12000D6E0DC00CF00F0E0C164C
:104008000D380F0B0A0DF3500C2412009EAA07D08E
:10401800ABA203D0AB9800F0AB88AE501200000EF4
:1040280012000CC0D9FF0DC0DAFF000EDE6E000EC4
:10403800DD6E12008EC00CF08FC00DF090C00EF037
:1040480091C00FF012008EC001F08FC002F090C036
:1040580003F091C004F01200020E516E020E4F6E72
:10406800010E00019C6F12000CC0A9FFA69EA69C21
:10407800A680A8501200B40E0001FD6F4DEC04F0AC
:1040880012000C6E0CC0ADFFACB21200FDD7010ED1
:10409800516E010E00019C6F12000101156916692D
:1040A8000CC0A4F012000F6E69EC1FF00FC0C9FF1E
:1040B8001200000EAF6F000EAE6F1200000EB16F4F
:1040C800000EB06F1200000EB36F000EB26F120038
:1040D800000EB56F000EB46F1200000EAD6F000E2B
:1040E800AC6F1200000EB76F000EB66F1200AE0E66
:1040F800106E8AEC17F01200B00E106E7CEC16F001
:104108001200B20E106E2BEC14F012000D6E0D5052
:1041180045EC20F01200AC0E396E17EC00F01200DE
:10412800B60E286EB1EC0BF012009290898089903F
:10413800120069EC1FF0C584120069EC1FF0C580FD
:10414800120069EC1FF0C5821200286E756C6C298C
:014158000066
:0A415A0094929480120094941200D5
:107E920000000000000000000201000405060300CB
:107EA2000102040506034E6F202D20202020496E7A
:107EB20069202020202D20202046696E20202020AD
:107EC2002D204F6E202D2044696173200A0D0A0D6A
:107ED2000020352020202D2025643A2564202020F2
:107EE2002D2025643A256420202D202573202D2065
:107EF20025730A0D0A0D0020312020202D20256433
:107F02003A25642020202D2025643A256420202D46
:107F1200202573202D2025730A0D002032202020D9
:107F22002D2025643A25642020202D2025643A2521
:107F32006420202D202573202D2025730A0D00207A
:107F4200332020202D2025643A25642020202D2056
:107F520025643A256420202D202573202D202573A9
:107F62000A0D0020342020202D2025643A2564208B
:107F720020202D2025643A256420202D20257320E1
:107F82002D2025730A0D004261743A2025642E25A6
:107F92006456207C20436F727465733A2025640A0C
:107FA2000D0A0D000A0D42414C495A4120414C41F3
:107FB200524D412056312E300A0D0A0D0025642FF4
:107FC20025642F25642D25640A0D0025643A256455
:107FD2003A25640A0D006C6C73004F4646004469F2
:107FE20061005344004F4E004C5600BF002C003F2E
:0E7FF2000041004300450049004C00520000D1
:020000040030CA
:0E000000000C181EFF8381FF0FC00FE00F40A1
:00000001FF
