:0400000059EF00F0C4
:060008005882CAED1FF052
:100018005880D8CF7AF0E8CF7BF0E0CF7CF0E1CF02
:100028007DF0E2CF7EF0D9CF7FF0DACF80F0F6CF47
:1000380081F0F7CF82F0F8CF83F0F5CF84F0F0B6F7
:10004800F0A01BD06F0E0001746F7F0E756FDDEC92
:1000580027F0660E0001796F760E786FC10EE82ED4
:10006800FED7782FFCD7792FFAD7A30E0001746F2B
:100078007F0E756FDDEC27F0F09084C0F5FF83C02C
:10008800F8FF82C0F7FF81C0F6FF80C0DAFF7FC0AB
:10009800D9FF7EC0E2FF7DC0E1FF7CC0E0FF7BC0EE
:1000A800E8FF7AC0D8FF58901000DBEF24F0D6EFB5
:1000B80004F0010E3EEC28F00001852501017C6F5B
:1000C800000E0001862101017D6F000E00018721CD
:1000D80001017E6F000E0001882101017F6FACC015
:1000E800D9FFADC0DAFF620EDE6E000EDD6E3EECAB
:1000F80028F001017C510001855D01017D5100015D
:10010800865901017E510001875901017F51000183
:100118008859D8A01200BAEF04F0020100A1C9D78B
:100128004D0E0001896F020E8A6F000E8C6F000E53
:100138008B6F000E8E6F280E8D6FEDEC1AF0000E8F
:100148000201756F4C91010E1BD102014CA1B1D770
:100158000101BD4BBE2BBE5104E1050EBD5DD8A00B
:10016800A8D702014C91940E0001896F010E8A6F85
:10017800000E8C6F000E8B6F000E8E6F280E8D6F29
:10018800EDEC1AF0000EB06F000EB16F4D0EB125F8
:10019800D96EDA6A020EDA22DF50D8B40FD04D0ECB
:1001A800B125D96EDA6A020EDA22940EB025E16E14
:1001B800E26A010EE222DFCFE7FFB02BB12B280E57
:1001C800B165E4D74D0E896F020E8A6F000E8C6FF1
:1001D800000E8B6F000E8E6F280E8D6FEDEC1AF0EF
:1001E800000E0201756F020ECBD0940E906F010EB7
:1001F800916FED0E926F7F0E936F3FEC23F090514D
:100208009111D8B4A0D7030EBCD0940E906F010EF4
:10021800916FFB0E926F7F0E936F3FEC23F090511E
:100228009111D8B403D0020176818DD7940E906FC6
:10023800010E916FFD0E926F7F0E936F3FEC23F0CE
:1002480090519111D8B45BD0940E966F010E976FB0
:10025800C10E986F010E996FFD0E9A6F7F0E9B6FFE
:10026800EF0E9C6F7F0E9D6FA4EC20F0C10E966F71
:10027800010E976FCB0E986F010E996FCC0E9A6F87
:10028800010E9B6FD2EC23F0940E966F010E976FC0
:10029800C10E986F010E996FF50E9A6F7F0E9B6FC6
:1002A800F10E9C6F7F0E9D6FA4EC20F0C10E966F2F
:1002B800010E976FCD0E986F010E996FCE0E9A6F43
:1002C800010E9B6FCF0E9C6F010E9D6FD00E9E6F1F
:1002D800010E9F6F5FEC1EF0CCC18BF0000E8C6F8F
:1002E800CDC18DF0CEC18EF0CFC18FF0D0C190F0CE
:1002F8000101CB511AEC24F00201768324D7940E25
:10030800906F010E916FF30E926F7F0E936F3FEC1B
:1003180023F090519111D8B416D7940E966F010E10
:10032800976FF30E986F7F0E996FEF0E9A6F7F0E8F
:100338009B6F89EC23F00101BF6F940E0001906F51
:10034800010E916FF70E926F7F0E936F3FEC23F0C3
:1003580090519111D8B4F7D6940E966F010E976FFD
:10036800F70E986F7F0E996FEF0E9A6F7F0E9B6F47
:1003780089EC23F00101C06FC051D8A404D0040E49
:100388000001C96F96D6940E0001966F010E976F03
:10039800C10E986F010E996FF90E9A6F7F0E9B6FC1
:1003A800EF0E9C6F7F0E9D6FA4EC20F0C10E966F30
:1003B800010E976FD10E986F010E996FD20E9A6F3A
:1003C800010E9B6FD2EC23F0940E966F010E976F7F
:1003D800C10E986F010E996FDE0E9A6F7F0E9B6F9C
:1003E800EF0E9C6F7F0E9D6FA4EC20F0C10E966FF0
:1003F800010E976FD30E986F010E996FD40E9A6FF6
:10040800010E9B6FD2EC23F0940E966F010E976F3E
:10041800C10E986F010E996FE50E9A6F7F0E9B6F54
:10042800EF0E9C6F7F0E9D6FA4EC20F0C10E8C6FB9
:10043800010E8D6FD6EC1DF08CC0D5F18DC0D6F1B4
:100448000101000ED6BFFF0ED76FD86F98D70101F4
:10045800C051D8A44AD0BF05D8A40BD05C91000ED7
:100468000001866F010E856F000E876F96EC27F0EE
:1004780079D2020EBF19D8A40BD04E91000E0001FC
:10048800866F080E856F000E876F96EC27F06AD28C
:10049800030EBF19D8A40BD04091000E0001866F3F
:1004A8000F0E856F000E876F96EC27F05BD2040E57
:1004B800BF19D8A40BD03291000E0001866F160E1A
:1004C800856F000E876F96EC27F04CD2050EBF198A
:1004D800D8A448D22491000E0001866F1D0E856FA6
:1004E800000E876F96EC27F03DD2BF05D8A46FD0D9
:1004F8005C81D1C166F1D2C167F1D3C168F1D4C1C1
:1005080069F1D851D711D61104E1080ED55DD8A0EC
:1005180029D2D851D711D61103E10B0ED55DD8B029
:1005280021D25C93080ED519D611D711D811D8A4A9
:1005380002D0080E5D6F090ED519D611D711D81142
:10054800D8A402D0090E5D6F0A0ED519D611D7119D
:10055800D811D8A402D00A0E5D6F000E0001866F74
:10056800010E856F010E876F96EC27F0000E866FDF
:10057800020E856F000E876F96EC27F0000E866FCF
:10058800030E856FD5C187F096EC27F0000E866FB5
:10059800040E856FD1C187F096EC27F0000E866FA8
:1005A800050E856FD2C187F096EC27F0000E866F96
:1005B800060E856FD3C187F096EC27F0000E866F84
:1005C800070E856FD4C187F096EC27F0CBD1020EC9
:1005D800BF19D8A46FD04E81D1C158F1D2C159F1F9
:1005E800D3C15AF1D4C15BF1D851D711D61104E166
:1005F800080ED55DD8A0B6D1D851D711D61103E1D0
:100608000B0ED55DD8B0AED14E93080ED519D611C4
:10061800D711D811D8A402D0080E4F6F090ED519DA
:10062800D611D711D811D8A402D0090E4F6F0A0ECF
:10063800D519D611D711D811D8A402D00A0E4F6FE8
:10064800000E0001866F080E856F010E876F96EC0D
:1006580027F0000E866F090E856F000E876F96ECE7
:1006680027F0000E866F0A0E856FD5C187F096ECCD
:1006780027F0000E866F0B0E856FD1C187F096ECC0
:1006880027F0000E866F0C0E856FD2C187F096ECAE
:1006980027F0000E866F0D0E856FD3C187F096EC9C
:1006A80027F0000E866F0E0E856FD4C187F096EC8A
:1006B80027F058D1030EBF19D8A46FD04081D1C1FB
:1006C8004AF1D2C14BF1D3C14CF1D4C14DF1D8514B
:1006D800D711D61104E1080ED55DD8A043D1D85161
:1006E800D711D61103E10B0ED55DD8B03BD140939D
:1006F800080ED519D611D711D811D8A402D0080ED2
:10070800416F090ED519D611D711D811D8A402D026
:10071800090E416F0A0ED519D611D711D811D8A4D0
:1007280002D00A0E416F000E0001866F0F0E856F12
:10073800010E876F96EC27F0000E866F100E856FFE
:10074800000E876F96EC27F0000E866F110E856FEE
:10075800D5C187F096EC27F0000E866F120E856FD4
:10076800D1C187F096EC27F0000E866F130E856FC7
:10077800D2C187F096EC27F0000E866F140E856FB5
:10078800D3C187F096EC27F0000E866F150E856FA3
:10079800D4C187F096EC27F0E5D0040EBF19D8A491
:1007A8006FD03281D1C13CF1D2C13DF1D3C13EF10C
:1007B800D4C13FF1D851D711D61104E1080ED55D47
:1007C800D8A0D0D0D851D711D61103E10B0ED55DE2
:1007D800D8B0C8D03293080ED519D611D711D81170
:1007E800D8A402D0080E336F090ED519D611D71127
:1007F800D811D8A402D0090E336F0A0ED519D61114
:10080800D711D811D8A402D00A0E336F000E0001F8
:10081800866F160E856F010E876F96EC27F0000E17
:10082800866F170E856F000E876F96EC27F0000E07
:10083800866F180E856FD5C187F096EC27F0000EED
:10084800866F190E856FD1C187F096EC27F0000EE0
:10085800866F1A0E856FD2C187F096EC27F0000ECE
:10086800866F1B0E856FD3C187F096EC27F0000EBC
:10087800866F1C0E856FD4C187F096EC27F072D076
:10088800050EBF19D8A46ED02481D1C12EF1D2C1D2
:100898002FF1D3C130F1D4C131F1D851D711D611CC
:1008A80004E1080ED55DD8A05DD0D851D711D61176
:1008B80059E10B0ED55DD8B055D02493080ED51943
:1008C800D611D711D811D8A402D0080E256F090E59
:1008D800D519D611D711D811D8A402D0090E256F71
:1008E8000A0ED519D611D711D811D8A402D00A0EDC
:1008F800256F000E0001866F1D0E856F010E876F34
:1009080096EC27F0000E866F1E0E856F000E876F1F
:1009180096EC27F0000E866F1F0E856FD5C187F005
:1009280096EC27F0000E866F200E856FD1C187F0F8
:1009380096EC27F0000E866F210E856FD2C187F0E6
:1009480096EC27F0000E866F220E856FD3C187F0D4
:1009580096EC27F0000E866F230E856FD4C187F0C2
:1009680096EC27F002017685A7EF00F0C951AE6F2B
:10097800AF6BAF51000AD8A45DEF00F0AE51000A8A
:10098800D8B491EF00F0010AD8B4A9EF00F0030A37
:10099800D8B42BD4010AD8B438D4070AD8B457D558
:1009A8005DEF00F0ACC0D9FFADC0DAFFDECFAEF02E
:1009B800DDCFAFF0AF51000AD8A409D0AE51000A7C
:1009C800D8B45DEF00F0620AD8B47BEF00F0ACC099
:1009D800D9FFADC0DAFF000EDE6E000EDD6E12002C
:1009E800E5D20A0E3EEC28F0000185250101886F4A
:1009F800000E000186210101896F000E0001872188
:100A080001018A6F000E0001882101018B6FD9C294
:100A1800D9FFDAC2DAFF3F0EDE6E000EDD6E3EEC65
:100A280028F0010188510001855D0101895100010B
:100A3800865901018A510001875901018B51000132
:100A48008859D8A0120096D2034B042BF40E035DEC
:100A5800010E0459D8A0C5D70081030E0001856F87
:100A6800020E866F35EC28F06DEC28F0000E866FCC
:100A7800030E856F9AEC28F0B4D7000E0001866F3C
:100A8800030E856FA9EC27F00009D8B408D0030E2F
:100A98000001856F020E866F35EC28F0A2D7034B54
:100AA800042B045104E1C80E035DD8A09AD7000EA8
:100AB8000001866F000E856F74EC28F00101006F4D
:100AC800060E0019D8B42AD1000E0001866F000E58
:100AD800856F060E876F96EC27F06DEC28F0000EF8
:100AE800866F010E856F000E876F96EC27F0000E5B
:100AF800866F020E856F000E876F96EC27F0000E4A
:100B0800866F030E856F080E876F96EC27F0000E30
:100B1800866F040E856F000E876F96EC27F0000E27
:100B2800866F050E856F000E876F96EC27F0000E16
:100B3800866F060E856F000E876F96EC27F0000E05
:100B4800866F070E856F000E876F96EC27F0000EF4
:100B5800866F080E856F000E876F96EC27F0000EE3
:100B6800866F090E856F000E876F96EC27F0000ED2
:100B7800866F0A0E856F080E876F96EC27F0000EB9
:100B8800866F0B0E856F000E876F96EC27F0000EB0
:100B9800866F0C0E856F000E876F96EC27F0000E9F
:100BA800866F0D0E856F000E876F96EC27F0000E8E
:100BB800866F0E0E856F000E876F96EC27F0000E7D
:100BC800866F0F0E856F000E876F96EC27F0000E6C
:100BD800866F100E856F000E876F96EC27F0000E5B
:100BE800866F110E856F080E876F96EC27F0000E42
:100BF800866F120E856F000E876F96EC27F0000E39
:100C0800866F130E856F000E876F96EC27F0000E27
:100C1800866F140E856F000E876F96EC27F0000E16
:100C2800866F150E856F000E876F96EC27F0000E05
:100C3800866F160E856F000E876F96EC27F0000EF4
:100C4800866F170E856F000E876F96EC27F0000EE3
:100C5800866F180E856F080E876F96EC27F0000ECA
:100C6800866F190E856F000E876F96EC27F0000EC1
:100C7800866F1A0E856F000E876F96EC27F0000EB0
:100C8800866F1B0E856F000E876F96EC27F0000E9F
:100C9800866F1C0E856F000E876F96EC27F0000E8E
:100CA800866F1D0E856F000E876F96EC27F0000E7D
:100CB800866F1E0E856F000E876F96EC27F0000E6C
:100CC800866F1F0E856F080E876F96EC27F0000E53
:100CD800866F200E856F000E876F96EC27F0000E4A
:100CE800866F210E856F000E876F96EC27F0000E39
:100CF800866F220E856F000E876F96EC27F0000E28
:100D0800866F230E856F000E876F96EC27F0000E16
:100D1800866F030E856F9AEC28F063D626EC11F0E7
:100D28006F818A0E0001956F7F0E966F58EC22F046
:100D3800170E0201416F700E406F110E436F940E33
:100D4800426F000E0001866F010E856F9AEC28F045
:100D580048D6000E0001866F010E856FA9EC27F0BA
:100D68000009D8A494D676A106D0769194EC28F000
:100D780001EC0EF036D676A304D0769394EC28F0E6
:100D880030D676A507D0769526EC11F06F8194ECD5
:100D980028F027D6404B412B700E405D170E415965
:100DA800D8A00CD0000E416F000E406F000E00015D
:100DB800866F040E856F9AEC28F013D608A102D02E
:100DC800010E01D0000E0101726F0BD6000E00015A
:100DD800866F040E856FA9EC27F00009D8B4B1D747
:100DE800010EDAEC26F085C08AF086C08BF08C6B99
:100DF8008D6B000EB0EC19F08AC044F28BC045F23E
:100E08008CC046F28DC047F244C298F045C299F0B2
:100E180046C29AF047C29BF0000E9C6F000E9D6F71
:100E2800A00E9E6F3B0E9F6F6BEC0CF098C044F2C7
:100E380099C045F29AC046F29BC047F2000E9C6FDB
:100E4800000E9D6FC00E9E6F400E9F6F44C298F0BB
:100E580045C299F046C29AF047C29BF06BEC0CF081
:100E680098C097F299C098F29AC099F29BC09AF2EA
:100E78009A0E02019B6F990E9C6F990E9D6F3E0E04
:100E88009E6F8CEC0AF097C244F298C245F299C260
:100E980046F29AC247F244C298F045C299F046C257
:100EA8009AF047C29BF0000E00019C6F000E9D6FE8
:100EB800200E9E6F410E9F6F6BEC0CF098C044F2B1
:100EC80099C045F29AC046F29BC047F28AD5000EF7
:100ED8000001866F050E856FA9EC27F00009D8B4CC
:100EE80030D7030EDAEC26F085C08AF086C08BF086
:100EF8008C6B8D6B000EB0EC19F08AC048F28BC079
:100F080049F28CC04AF28DC04BF248C298F049C2EF
:100F180099F04AC29AF04BC29BF0000E9C6F000EEB
:100F28009D6FA00E9E6F3B0E9F6F6BEC0CF098C0F0
:100F380048F299C049F29AC04AF29BC04BF248C2A3
:100F480098F049C299F04AC29AF04BC29BF0000E41
:100F58009C6F000E9D6F200E9E6F410E9F6F6BEC75
:100F68000CF098C048F299C049F29AC04AF29BC066
:100F78004BF237D5D1510201DB6FDC6BDC51000A33
:100F8800D8A42FD5DB51000AD8B45ED5010AD8B44D
:100F9800E0D6030AD8B425D5010AD8B46ED5070A15
:100FA800D8B414D7010AD8B492D71BD5D9C2D9FF5F
:100FB800DAC2DAFFDECFDBF2DDCFDCF2DC51000A89
:100FC800D8A407D0DB51000AD8B40BD53F0AD8B44F
:100FD80026D5D9C2D9FFDAC2DAFF000EDE6E000EBE
:100FE800DD6E120079D20A0E3EEC28F0000185254C
:100FF8000101846F000E000186210101856F000E3A
:10100800000187210101866F000E0001882101017E
:10101800876F9FC0D9FFA0C0DAFF2F0EDE6E000ECB
:10102800DD6E3EEC28F0010184510001855D01016F
:101038008551000186590101865100018759010136
:10104800875100018859D8A012000DD2020100A1D1
:10105800CAD7D50E0001896FD40E8A6FD30E8B6F55
:10106800D60E8C6FD70E8D6FD80E8E6FD90E8F6FF0
:1010780065EC21F0020E000193D0010101B102D00C
:101088005C9102D001015C8102B102D05C9302D074
:1010980001015C8303C15DF104C166F105C167F11B
:1010A80006C168F107C169F108B102D04E9102D0BA
:1010B80001014E8109B102D04E9302D001014E8345
:1010C8000AC14FF10BC158F10CC159F10DC15AF1C8
:1010D8000EC15BF10FB102D0409102D001014081F5
:1010E80010B102D0409302D00101408311C141F1F7
:1010F80012C14AF113C14BF114C14CF115C14DF1A4
:1011080016B102D0329102D00101328117B102D05A
:10111800329302D00101328318C133F119C13CF175
:101128001AC13DF11BC13EF11CC13FF11DB102D0F6
:10113800249102D0010124811EB102D0249302D04F
:10114800010124831FC125F120C12EF121C12FF1F6
:1011580022C130F123C131F18DD701016A4B6B2BCC
:101168006B5104E1320E6A5DD8A00CD0000E6B6F93
:10117800000E6A6F0001D351D8B402D0040E10D00B
:10118800050E0ED06C4B6D2B6D5104E1140E6C5D89
:10119800D8A008D0000E6D6F000E6C6F030E6BD7D1
:1011A800D26F21D76FA11FD76F91010E64D70101AC
:1011B8006E2B6E05D8A404D05CA15CD7060E5BD755
:1011C800020E6E19D8A404D04EA154D7070E53D7D7
:1011D800030E6E19D8A404D040A14CD7080E4BD7E3
:1011E800040E6E19D8A404D032A144D7090E43D7EF
:1011F800050E6E19D8A4F7D6000E6E6F24A13AD743
:101208000A0E39D7D30E896F26EC27F033D70101A0
:101218005CB3E9D6080E5D19D8A402D00B0E2BD703
:10122800090E5D19D8A408D00001D951D8B422D725
:10123800060ED9611FD7F2D70A0E5D19D8A41AD79E
:10124800060E0001D919D8B4E9D7070ED919D8B4B0
:10125800E5D710D701014EB3C6D6080E4F19D8A44A
:1012680002D00C0E08D7090E4F19D8A408D00001D7
:10127800D951D8B4FFD6060ED961FCD6F2D70A0EDA
:101288004F19D8A4F7D6060E0001D919D8B4E9D752
:10129800070ED919D8B4E5D7EDD6010140B3A3D6C6
:1012A800080E4119D8A402D00D0EE5D6090E411931
:1012B800D8A408D00001D951D8B4DCD6060ED9611B
:1012C800D9D6F2D70A0E4119D8A4D4D6060E0001F1
:1012D800D919D8B4E9D7070ED919D8B4E5D7CAD6D9
:1012E800010132B380D6080E3319D8A402D00E0EED
:1012F800C2D6090E3319D8A408D00001D951D8B4E0
:10130800B9D6060ED961B6D6F2D70A0E3319D8A4C3
:10131800B1D6060E0001D919D8B4E9D7070ED919E4
:10132800D8B4E5D7A7D6010124B35DD6080E251990
:10133800D8A402D00F0E9FD6090E2519D8A408D01C
:101348000001D951D8B496D6060ED96193D6F2D7F2
:101358000A0E2519D8A48ED6060E0001D919D8B4BC
:10136800E9D7070ED919D8B4E5D784D60101665153
:101378000001D519D8A408D0010167510001D4197A
:10138800D8A402D002010881010168510001D519D1
:10139800D8A470D6010169510001D419D8A46AD61D
:1013A8000201089167D6010158510001D519D8A446
:1013B80008D0010159510001D419D8A402D0020162
:1013C800088101015A510001D519D8A453D6010149
:1013D8005B510001D419D8B4E3D74CD601014A5166
:1013E8000001D519D8A408D001014B510001D41926
:1013F800D8A402D00201088101014C510001D5197D
:10140800D8A438D601014D51E4D701013C5100015F
:10141800D519D8A408D001013D510001D419D8A488
:1014280002D00201088101013E510001D519D8A45A
:1014380021D601013F51CDD701012E510001D51907
:10144800D8A408D001012F510001D419D8A402D082
:1014580002010881010130510001D519D8A40AD62A
:1014680001013151B6D7D251A16FA26BA251000A26
:10147800D8A4B9D5A151000AD8B4E8D5010AD8B47E
:10148800FCD5030AD8B469D6010AD8B490D6070A9D
:10149800D8B4B8D6010AD8B4DCD5030AD8B4B7D6BC
:1014A800010AD8B4D7D60F0AD8B4F7D6010AD8B4E7
:1014B80017D7030AD8B437D7010AD8B457D7070AB9
:1014C800D8B471D7010AD8B489D7030AD8B49DD73C
:1014D800010AD8B4B1D787D59FC0D9FFA0C0DAFF19
:1014E800DECFA1F0DDCFA2F0A251000AD8A407D028
:1014F800A151000AD8B477D52F0AD8B492D59FC085
:10150800D9FFA0C0DAFF000EDE6E000EDD6E1200FD
:1015180002019A51800B0101F26F02019A519A253A
:101528000101F46F020199AF02D00101F4810101B8
:10153800F451D8B40FD0F429D8A409D0000E020170
:10154800976F000E986F000E996F000E9A6F020148
:10155800998F07D0000E0201976F000E986F000E4A
:10156800996F000E9A6F9E51800B0101F36FF25133
:10157800F319D8A4F28D02019E519E250101F36F43
:1015880002019DAF02D00101F3810101F351D8B4EA
:101598000FD0F329D8A409D0000E02019B6F000ECA
:1015A8009C6F000E9D6F000E9E6F02019D8F07D0ED
:1015B800000E02019B6F000E9C6F000E9D6F000EC7
:1015C8009E6F0101F451F35DD8B022D0F2AD02D084
:1015D800800EF21BF4C1F5F1F3C1F4F1F5C1F3F19A
:1015E80097C2F5F19BC297F2F5C19BF298C2F5F14B
:1015F8009CC298F2F5C19CF299C2F5F19DC299F28C
:10160800F5C19DF29AC2F5F19EC29AF2F5C19EF219
:10161800000EF56FF451F3C1BDF00001BE6BBD5F64
:10162800000EBE5BBEBF34D0BE5104E11A0EBD5DD4
:10163800D8A02ED002019751981199119A11D8B4B7
:1016480002D0010E01D0000E0101F56F000E02015B
:10165800976F000E986F000E996F000E9A6FF3C186
:10166800F4F11BD0F5A105D0D890F5310109F56F3B
:1016780002D0D890F533020197A102D00101F58F6D
:1016880002019A359A339933983397330101F42B31
:101698000101F351F45DD8A0E5D70101F2BD30D0C6
:1016A800F451D8A40AD0000E0201976F000E986F6B
:1016B800000E996F000E9A6F120002019B51972736
:1016C8009C5198239D5199239E519A239AA195D074
:1016D8000101F5A105D0D890F5310109F56F02D0C7
:1016E800D890F533020197A102D00101F58F0201CC
:1016F8009A359A339933983397330101F42B7DD077
:1017080002019B51975D9C5198599D5199599A5145
:10171800800A0001BD6F02019E51800A0001BD5977
:10172800D8B036D0020197519B5D0001BD6F020110
:1017380098519C590001BE6F020199519D590001B1
:10174800BF6F02019A519E590001C06FFF0EBD255F
:101758000201976FFF0E0001BE210201986FFF0E74
:101768000001BF210201996FFF0E0001C021020193
:101778009A6F800E0101F21BF56DF551D8A411D0B6
:10178800010E02019727000E982399239A2309D066
:1017980002019B51975F9C51985B9D51995B9E51AB
:1017A8009A5B02019751981199119A11D8A422D0E5
:1017B8000101F551D8A41ED0000E0201976F000E4A
:1017C800986F000E996F000E9A6F1200D890973795
:1017D800983799379A370101F5AF02D002019781FE
:1017E8000101F5A102D0D88001D0D890F537F45185
:1017F800D8A4F407020199AFE9D7000E0101F36FED
:10180800F5AF0ED0F5C1BDF07F0E0001BD17D8B4FD
:1018180004D0010E0101F36F03D0020197B1F9D78B
:101828000101F351D8B423D0010E02019727000E0D
:10183800982399239A239AA11AD097C2BDF098C2E7
:10184800BEF099C2BFF09AC2C0F00001C035C033E3
:10185800BF33BE33BD33BDC097F2BEC098F2BFC020
:1018680099F2C0C09AF20101F429D8A4F42B01011D
:10187800F429D8B403D0F451D8A40FD0000E020133
:10188800976F000E986F000E996F000E9A6F010106
:10189800F451D8A402D0000EF26FF4A103D00201D3
:1018A800998F02D00201999F0101D890F431020169
:1018B8009A6F0101F2AF02D002019A8F97C297F294
:1018C80098C298F299C299F29AC29AF212009B5160
:1018D800800BA46F9B519B25AA6F9ABFAA81AA511E
:1018E800D8B40DD0AA29D8A408D0000E986F000E3D
:1018F800996F000E9A6F000E9B6F9A8F08D0000E9A
:10190800986F000E996F000E9A6F000E9B6F9F5193
:10191800800BA41B9F519F25A56F9EBFA581A55134
:10192800D8B40DD0A529D8A408D0000E9C6F000EFD
:101938009D6F000E9E6F000E9F6F9E8F08D0000E49
:101948009C6F000E9D6F000E9E6F000E9F6FA5513D
:10195800D8B403D0AA51D8A409D0000E986F000EAD
:10196800996F000E9A6F000E9B6F12009E5198039C
:10197800F3CFAFF0F4CFB0F0AF51A66FA76BA86B61
:10198800A96BB051AB6FAC6BAD6BAE6B9D5199034E
:10199800F3CFAFF0F4CFB0F0AF51A627000EA723D6
:1019A800A823A923B051AB27000EAC23AD23AE2347
:1019B8009C519A03F3CFAFF0F4CFB0F0AF51A62704
:1019C800000EA723A823A923B051AB27000EAC23F0
:1019D800AD23AE23A8C0A9F0A7C0A8F0A6C0A7F061
:1019E800A66B9C519903F3CFAFF0F4CFB0F0AF5191
:1019F800A627B051A723000EA823000EA9239D51A6
:101A08009803F3CFAFF0F4CFB0F0AF51A627B051A1
:101A1800A723000EA823000EA923A8C0A9F0A7C0D9
:101A2800A8F0A6C0A7F0A66B9C519803F3CFAFF01F
:101A3800F4CFB0F0AF51A627B051A723000EA823CA
:101A4800000EA9239E519903F3CFAFF0F4CFB0F065
:101A5800AF51AB27B051AC23000EAD23000EAE231F
:101A68009D519A03F3CFAFF0F4CFB0F0AF51AB274D
:101A7800B051AC23000EAD23000EAE239E519A0345
:101A8800F3CFAFF0F4CFB0F0AF51A06FB051A16F6A
:101A9800A26BA36BA2C0A3F0A1C0A2F0A0C0A1F04A
:101AA800A06BA051AB27A151AC23A251AD23A351E8
:101AB800AE23A951AB27000EAC23AD23AE23A8C09B
:101AC800A9F0A7C0A8F0A6C0A7F0A66BA551AAC008
:101AD800A0F0A16BA027000EA123820EA025AF6F56
:101AE800FF0EA121B06F0FD0D890AB37AC37AD3710
:101AF800AE37A9BFAB81D890A637A737A837A93783
:101B0800AF07D8A0B007ADAFEFD7000EA56FA9AF4C
:101B180017D0FF0EA615A06FFF0EA715A16FFF0E19
:101B2800A815A26F7F0EA915A36FA051A111A2112C
:101B3800A311D8B403D0010EA56F02D0ABB1FBD767
:101B4800A551D8B41FD0010EAB27000EAC23AD238E
:101B5800AE23AEA117D0ABC0A0F0ACC0A1F0ADC011
:101B6800A2F0AEC0A3F0A335A333A233A133A033B0
:101B7800A0C0ABF0A1C0ACF0A2C0ADF0A3C0AEF065
:101B8800AF4BB02BB0BF0DD0B05103E1AF29D8A0F7
:101B980008D0000EAB6F000EAC6F800EAD6F7F0EDD
:101BA80020D0B0BF05D0B0510EE1AF05D8B00BD0F2
:101BB800000EAB6F000EAC6F000EAD6F000EAE6F77
:101BC800000EA46F0FD0AFC0AAF0FF0EAB17FF0E28
:101BD800AC177F0EAD17000EAE17AAB1AD8FD89017
:101BE800AA31AE6FA451AE13ABC098F0ACC099F057
:101BF800ADC09AF0AEC09BF01200090E956F020EB0
:101C0800966F6EEC27F0090E0201AF6F020EB06FEF
:101C1800CD0EB16F7F0EB26FD5C0B3F2B46BD4C026
:101C2800B5F2B66BD3C0B7F2B86BC0EC25F0090EAD
:101C38000001956F020E966F58EC22F0090E956F11
:101C4800020E966F6EEC27F0090E0201AF6F020EBE
:101C5800B06FBB0EB16F7F0EB26FD6C0B3F2B46B6C
:101C6800D7C0B5F2B66BD8C0B7F2B86BD9C0B9F265
:101C7800BA6BC0EC25F0090E0001956F020E966F45
:101C880058EC22F0090E956F020E966F6EEC27F055
:101C9800090E0201AF6F020EB06F8E0EB16F7E0E8D
:101CA800B26FC0EC25F0090E0001956F020E966F19
:101CB80058EC22F0D40E0201CC6F020ECD6F01C198
:101CC800CEF20AEC25F0CF0ECC6F020ECD6F03C119
:101CD800CEF261EC24F0090E0001956F020E966FAA
:101CE8006EEC27F0090E0201AF6F020EB06FDF0E27
:101CF800B16F7E0EB26F04C1B3F2B46B05C1B5F219
:101D0800B66B06C1B7F2B86B07C1B9F2BA6BD40E9D
:101D1800BB6F020EBC6FCF0EBD6F020EBE6FC0EC64
:101D280025F0090E0001956F020E966F58EC22F00F
:101D3800D40E0201CC6F020ECD6F08C1CEF20AECB0
:101D480025F0CF0ECC6F020ECD6F0AC1CEF261EC3A
:101D580024F0090E0001956F020E966F6EEC27F0C5
:101D6800090E0201AF6F020EB06F030EB16F7F0E46
:101D7800B26F0BC1B3F2B46B0CC1B5F2B66B0DC147
:101D8800B7F2B86B0EC1B9F2BA6BD40EBB6F020EC4
:101D9800BC6FCF0EBD6F020EBE6FC0EC25F0090EF2
:101DA8000001956F020E966F58EC22F0D40E0201D6
:101DB800CC6F020ECD6F0FC1CEF20AEC25F0CF0E1C
:101DC800CC6F020ECD6F11C1CEF261EC24F0090E7A
:101DD8000001956F020E966F6EEC27F0090E020156
:101DE800AF6F020EB06F270EB16F7F0EB26F12C1C8
:101DF800B3F2B46B13C1B5F2B66B14C1B7F2B86BDA
:101E080015C1B9F2BA6BD40EBB6F020EBC6FCF0E00
:101E1800BD6F020EBE6FC0EC25F0090E0001956F74
:101E2800020E966F58EC22F0D40E0201CC6F020E0F
:101E3800CD6F16C1CEF20AEC25F0CF0ECC6F020E94
:101E4800CD6F18C1CEF261EC24F0090E0001956F38
:101E5800020E966F6EEC27F0090E0201AF6F020EAC
:101E6800B06F4B0EB16F7F0EB26F19C1B3F2B46B86
:101E78001AC1B5F2B66B1BC1B7F2B86B1CC1B9F287
:101E8800BA6BD40EBB6F020EBC6FCF0EBD6F020EC5
:101E9800BE6FC0EC25F0090E0001956F020E966F1B
:101EA80058EC22F0D40E0201CC6F020ECD6F1DC18A
:101EB800CEF20AEC25F0CF0ECC6F020ECD6F1FC10B
:101EC800CEF261EC24F0090E0001956F020E966FB8
:101ED8006EEC27F0090E0201AF6F020EB06FB90E5B
:101EE800B16F7E0EB26F20C1B3F2B46B21C1B5F2EF
:101EF800B66B22C1B7F2B86B23C1B9F2BA6BD40E74
:101F0800BB6F020EBC6FCF0EBD6F020EBE6FC0EC72
:101F180025F0090E0001956F020E966F58EC22F01D
:101F28001200B451800B0101E96F0001B451B425CE
:101F38000101F06F0001B3AF02D00101F08101018E
:101F4800F051D8B40FD0F029D8A409D0000E000160
:101F5800B16F000EB26F000EB36F000EB46F0001C8
:101F6800B38F07D0000E0001B16F000EB26F000EE4
:101F7800B36F000EB46FB851800B0101E91B00016B
:101F8800B851B8250101F16F0001B7AF02D00101C6
:101F9800F1810101F151D8B40FD0F129D8A409D0A9
:101FA800000E0001B56F000EB66F000EB76F000E81
:101FB800B86F0001B78F07D0000E0001B56F000E93
:101FC800B66F000EB76F000EB86FB551B611B711E6
:101FD800B811D8A419D0000EB16F000EB26F000E60
:101FE800B36F000EB46F800EB3137F0EB4130101EC
:101FF800E9510001B413B1C0B1F0B2C0B2F0B3C03E
:10200800B3F0B4C0B4F012000101F051D8A40AD062
:10201800000E0001B16F000EB26F000EB36F000E1C
:10202800B46F1200F151F0C1B9F00001BA6BB95F99
:10203800000EBA5B7F0EB9250101EA6F000E0001A0
:10204800BA210101EB6FB1C0E5F1B2C0E6F1B3C04E
:10205800E7F1B4C0E8F1000E0001B16F000EB26FF5
:10206800000EB36F000EB46F000E0101EC6F000E8E
:10207800ED6F000EEE6F000EEF6F000EF16F3DD0AA
:10208800F151D8B416D0D890E537E637E737E837B6
:102098000001D890B137B237B337B4370101EFAF89
:1020A80002D00001B1810101D890EC37ED37EE374D
:1020B800EF370001B5510101E55D0001B65101019D
:1020C800E6590001B7510101E7590001B851010172
:1020D800E859D8A011D0EF8D0001B5510101E55F95
:1020E8000001B6510101E65B0001B7510101E75B50
:1020F8000001B8510101E85BF12B190EF165C0D759
:10210800E551E611E711E811D8B415D0EC8113D0E8
:10211800D890B137B237B337B4370101EFAF02D037
:102128000001B1810101D890EC37ED37EE37EF3778
:10213800EA07D8A0EB070001B3AFEAD7000E010108
:10214800F16FEFAF1FD0FF0EEC150001B96FFF0E56
:102158000101ED150001BA6FFF0E0101EE15000136
:10216800BB6F7F0E0101EF150001BC6FB951BA11A9
:10217800BB11BC11D8B404D0010E0101F16F02D01B
:10218800B1B1FAD70101F151D8B421D0010E000143
:10219800B127000EB223B323B423B4A118D0B1C021
:1021A800B9F0B2C0BAF0B3C0BBF0B4C0BCF0BC3533
:1021B800BC33BB33BA33B933B9C0B1F0BAC0B2F02B
:1021C800BBC0B3F0BCC0B4F00101EA4BEB2B01017A
:1021D800EBBF11D0EB5103E1EA29D8A00CD0000ED7
:1021E800EB6FEA69000E0001B16F000EB26F000ECE
:1021F800B36F000EB46F0101EBBF05D0EB5113E1D3
:10220800EA05D8B010D0000EEB6F000EEA6F000E92
:102218000001B16F000EB26F000EB36F000EB46F05
:10222800000E0101E96FEAC1F0F1F0A103D000014D
:10223800B38F02D00001B39F0101D890F0310001A3
:10224800B46FD5D6000E0001866F010E856F74EC51
:1022580028F00101016F000E0001866F020E856FE4
:1022680074EC28F00101026F000E0001866F030E66
:10227800856F74EC28F00101036F000E0001866F72
:10228800040E856F74EC28F00101046F000E000144
:10229800866F050E856F74EC28F00101056F000E3E
:1022A8000001866F060E856F74EC28F00101066F39
:1022B800000E0001866F070E856F74EC28F001018F
:1022C800076F000E0001866F080E856F74EC28F00A
:1022D8000101086F000E0001866F090E856F74EC0E
:1022E80028F00101096F000E0001866F0A0E856F44
:1022F80074EC28F001010A6F000E0001866F0B0EC6
:10230800856F74EC28F001010B6F000E0001866FD9
:102318000C0E856F74EC28F001010C6F000E0001A3
:10232800866F0D0E856F74EC28F001010D6F000E9D
:102338000001866F0E0E856F74EC28F001010E6F98
:10234800000E0001866F0F0E856F74EC28F00101F6
:102358000F6F000E0001866F100E856F74EC28F069
:102368000101106F000E0001866F110E856F74EC6D
:1023780028F00101116F000E0001866F120E856FA3
:1023880074EC28F00101126F000E0001866F130E25
:10239800856F74EC28F00101136F000E0001866F41
:1023A800140E856F74EC28F00101146F000E000103
:1023B800866F150E856F74EC28F00101156F000EFD
:1023C8000001866F160E856F74EC28F00101166FF8
:1023D800000E0001866F170E856F74EC28F001015E
:1023E800176F000E0001866F180E856F74EC28F0C9
:1023F8000101186F000E0001866F190E856F74ECCD
:1024080028F00101196F000E0001866F1A0E856F02
:1024180074EC28F001011A6F000E0001866F1B0E84
:10242800856F74EC28F001011B6F000E0001866FA8
:102438001C0E856F74EC28F001011C6F000E000162
:10244800866F1D0E856F74EC28F001011D6F000E5C
:102458000001866F1E0E856F74EC28F001011E6F57
:10246800000E0001866F1F0E856F74EC28F00101C5
:102478001F6F000E0001866F200E856F74EC28F028
:102488000101206F000E0001866F210E856F74EC2C
:1024980028F00101216F000E0001866F220E856F62
:1024A80074EC28F00101226F000E0001866F230EE4
:1024B800856F74EC28F00101236F1200A4C0EDF1C0
:1024C800A5C0EEF1A6C0EFF1A7C0F0F1A8C0F1F1E8
:1024D800A9C0F2F1AAC0F3F1ABC0F4F10101F4AF65
:1024E80002D0010E01D0000EEB6FEC6BEB51EC113A
:1024F800D8B410D0F41FF31FF21FF11FF01FEF1F05
:10250800EE1FED6D000EEE23EF23F023F123F223EF
:10251800F323F4230001C6AFC793C6BF05D0C65145
:1025280009E1C505D8B006D0000E0101E86F010E1B
:10253800E76F04D0C5C0E7F1C6C0E8F1C3C0E9F150
:10254800C4C0EAF10101EB51EC11D8A403D0000199
:10255800C7A504D00101E907D8A0EA07000E0101C8
:10256800F66F1F0EF56F000E0201966F80D0010105
:10257800F507D8A0F607770EF525D96E020EF621D5
:10258800DA6EEDC185F0EEC186F0EFC187F0F0C1DB
:1025980088F0F1C189F0F2C18AF0F3C18BF0F4C17F
:1025A8008CF00A0E00018D6F000E8E6F000E8F6F7B
:1025B800000E906F000E916F000E926F000E936FD9
:1025C800000E946FB2EC1CF085C0ACF086C0ADF084
:1025D80087C0AEF088C0AFF089C0B0F08AC0B1F053
:1025E8008BC0B2F08CC0B3F0ACC097F0AEC098F01E
:1025F800F4EC26F09751300FDF6E0101E707D8A001
:10260800E807E907D8A0EA07EDC185F0EEC186F032
:10261800EFC187F0F0C188F0F1C189F0F2C18AF00A
:10262800F3C18BF0F4C18CF00A0E00018D6F000E1F
:102638008E6F000E8F6F000E906F000E916F000E60
:10264800926F000E936F000E946F68EC18F085C0BF
:10265800EDF186C0EEF187C0EFF188C0F0F189C0D6
:10266800F1F18AC0F2F18BC0F3F18CC0F4F10101F1
:10267800F6BF20D0F65103E1F505D8A01BD0ED51E7
:10268800EE11EF11F011F111F211F311F411D8A4B8
:102698006ED7E8BF05D0E85102E1E705D8B067D7A3
:1026A800EABF08D0EA5103E1E905D8A003D0000148
:1026B800C7B35DD70101EB51EC11D8A403D00001D9
:1026C800C7A518D00101F507D8A0F607EB51EC1102
:1026D800D8A404D0000EE66F2B0E03D0000EE66FD0
:1026E8002D0EE56F770EF525D96E020EF621DA6EFE
:1026F800E5C1DFFFA2C097F0A3C098F0770E0101F3
:10270800F5250001996F020E0101F62100019A6F6B
:10271800E9C19BF0EAC19CF0F3EC22F097C0A2F06B
:1027280098C0A3F0120099C2D9FF9AC2DAFFDECF8F
:10273800F6FFDDCFF7FF0800F550250AD8A402D12F
:1027480099C2D9FF9AC2DAFFDE2A000EDD22000EF6
:102758000001C46F000EC36FC3C0C7F0C4C0C8F087
:10276800C569C66999C2D9FF9AC2DAFFDECFF6FFFA
:10277800DDCFF7FF0800F550640AD8B40DD099C230
:10278800D9FF9AC2DAFFDECFF6FFDDCFF7FF0800E8
:10279800F550690AD8A440D099C2D9FF9AC2DAFF85
:1027A800DE2A000EDD229BC2D9FF9CC2DAFFDFCFF2
:1027B800B4F0020EDE26DFCFB5F0000EDD22B4C085
:1027C800D9FFB5C0DAFFDECF9DF2DDCF9EF2020160
:1027D800000E9EBFFF0E9F6FA06FA16FA26FA36F29
:1027E800A46F97C2A2F098C2A3F09DC2A4F09EC2A3
:1027F800A5F09FC2A6F0A0C2A7F0A1C2A8F0A2C2ED
:10280800A9F0A3C2AAF0A4C2ABF062EC12F0A2C075
:1028180097F2A3C098F2120099C2D9FF9AC2DAFFC0
:10282800DECFF6FFDDCFF7FF0800F550730AD8B406
:1028380016D099C2D9FF9AC2DAFFDECF85F0DDCF74
:1028480086F0D80E876F7F0E886F000E8A6F030E92
:10285800896FE1EC1EF085518611D8A442D099C247
:10286800D9FF9AC2DAFFDECFF6FFDDCFF7FF080007
:10287800F550730AD8B405D0000E0201A86F030EF4
:1028880004D0000E0201A86F010EA76F99C2D9FFEC
:102898009AC2DAFFA751DE26A851DD229BC2D9FFD2
:1028A8009CC2DAFFDFCFB4F0020EDE26DFCFB5F030
:1028B800000EDD22B4C0D9FFB5C0DAFFDECFA5F225
:1028C800DDCFA6F297C290F098C291F0A5C292F01F
:1028D800A6C293F086EC1BF090C097F291C098F2D4
:1028E800120099C2D9FF9AC2DAFFDECFF6FFDDCF18
:1028F800F7FF0800F550250AD8A417D099C2D9FFC8
:102908009AC2DAFFDE2A000EDD22000E886F250E3D
:10291800876F97C289F098C28AF0B8EC21F0000E50
:102928000201986F010E976F120099C2D9FF9AC2DF
:10293800DAFFDE2A000EDD22000E0201986F000E7B
:10294800976F120099C2D9FF9AC2DAFFDECFF6FF5D
:10295800DDCFF7FF0800F5500001876F886B97C23D
:1029680089F098C28AF0B8EC21F099C2D9FF9AC2CE
:10297800DAFFDE2A000EDD22D2D74AC0D9FF4BC0CB
:10298800DAFFDECFF6FFDDCFF7FF0800F550250AA6
:10299800D8A4FFD04AC0D9FF4BC0DAFFDE2A000E08
:1029A800DD22000E0001C46F000EC36FC3C0C7F064
:1029B800C4C0C8F0C569C6694AC0D9FF4BC0DAFFB0
:1029C800DECFF6FFDDCFF7FF0800F550640AD8B474
:1029D8000DD04AC0D9FF4BC0DAFFDECFF6FFDDCFFE
:1029E800F7FF0800F550690AD8A43FD04AC0D9FFBC
:1029F8004BC0DAFFDE2A000EDD224CC0D9FF4DC0E5
:102A0800DAFFDFCF4EF0020EDE26DFCF4FF0000EEA
:102A1800DD224EC0D9FF4FC0DAFFDECF60F0DDCF38
:102A280061F0000E61BFFF0E626F636F646F656FC8
:102A3800666F676F48C024F049C025F060C026F073
:102A480061C027F062C028F063C029F064C02AF092
:102A580065C02BF066C02CF067C02DF0E7EC15F0D0
:102A680024C048F025C049F012004AC0D9FF4BC025
:102A7800DAFFDECFF6FFDDCFF7FF0800F550730A67
:102A8800D8B416D04AC0D9FF4BC0DAFFDECF07F062
:102A9800DDCF08F0D80E096E7F0E0A6E000E0C6EA0
:102AA800030E0B6E57EC1FF007500810D8A442D045
:102AB8004AC0D9FF4BC0DAFFDECFF6FFDDCFF7FF04
:102AC8000800F550730AD8B405D0000E00016B6FEA
:102AD800030E04D0000E00016B6F010E6A6F4AC02E
:102AE800D9FF4BC0DAFF6A51DE266B51DD224CC09C
:102AF800D9FF4DC0DAFFDFCF4EF0020EDE26DFCF62
:102B08004FF0000EDD224EC0D9FF4FC0DAFFDECFF6
:102B180068F0DDCF69F048C012F049C013F068C012
:102B280014F069C015F01DEC1CF012C048F013C079
:102B380049F012004AC0D9FF4BC0DAFFDECFF6FFDA
:102B4800DDCFF7FF0800F550250AD8A416D04AC0F3
:102B5800D9FF4BC0DAFFDE2A000EDD22000E0A6E16
:102B6800250E096E48C00BF049C00CF008EC22F0A5
:102B7800000E496E010E486E12004AC0D9FF4BC0C4
:102B8800DAFFDE2A000EDD22000E496E000E486EC6
:102B980012004AC0D9FF4BC0DAFFDECFF6FFDDCF07
:102BA800F7FF0800F550096E0A6A48C00BF049C0E3
:102BB8000CF008EC22F04AC0D9FF4BC0DAFFDE2A3D
:102BC800000EDD22D5D726C03EF027C03FF028C032
:102BD80040F029C041F02AC042F02BC043F02CC07D
:102BE80044F02DC045F045AE02D0010E01D0000ED4
:102BF8003C6E3D6A3C503D10D8B410D0451E441E72
:102C0800431E421E411E401E3F1E3E6C000E3F22C8
:102C1800402241224222432244224522C6AFC79382
:102C2800C6BF05D0C65108E1C505D8B005D0000E0D
:102C3800396E010E386E04D0C5C038F0C6C039F000
:102C4800C3C03AF0C4C03BF03C503D10D8A402D0F9
:102C5800C7A503D03A06D8A03B06000E476E1F0E44
:102C6800466E000E0201966F7CD04606D8A0470635
:102C7800770E4624D96E020E4720DA6E3EC007F062
:102C88003FC008F040C009F041C00AF042C00BF054
:102C980043C00CF044C00DF045C00EF00A0E0F6E94
:102CA800000E106E000E116E000E126E000E136EE6
:102CB800000E146E000E156E000E166E44EC1DF01C
:102CC80007C02EF008C02FF009C030F00AC031F05C
:102CD8000BC032F00CC033F00DC034F00EC035F02C
:102CE8002EC019F030C01AF03FEC27F01950300F01
:102CF800DF6E3806D8A039063A06D8A03B063EC093
:102D080007F03FC008F040C009F041C00AF042C0D7
:102D18000BF043C00CF044C00DF045C00EF00A0E95
:102D28000F6E000E106E000E116E000E126E000E69
:102D3800136E000E146E000E156E000E166E0CEC5F
:102D480019F007C03EF008C03FF009C040F00AC0C3
:102D580041F00BC042F00CC043F00DC044F00EC06F
:102D680045F047BE20D0475003E14604D8A01BD009
:102D78003E503F104010411042104310441045107F
:102D8800D8A473D739BE05D0395002E13804D8B079
:102D98006CD73BBE08D03B5003E13A04D8A003D01F
:102DA8000001C7B362D73C503D10D8A403D000013E
:102DB800C7A517D04606D8A047063C503D10D8A452
:102DC80004D0000E376E2B0E03D0000E376E2D0E7A
:102DD800366E770E4624D96E020E4720DA6E36C05C
:102DE800DFFF24C019F025C01AF0770E46241B6EA9
:102DF800020E47201C6E3AC01DF03BC01EF0A6EC28
:102E080022F019C024F01AC025F0120094D00A0E3E
:102E18003EEC28F0000185250101786F000E0001C5
:102E280086210101796F000E0001872101017A6F67
:102E3800000E0001882101017B6F89C0D9FF8AC07B
:102E4800DAFF230EDE6E000EDD6E3EEC28F0010187
:102E580078510001855D0101795100018659010110
:102E68007A510001875901017B5100018859D8A086
:102E7800120049D0020100A1CAD741D00101725104
:102E8800D8B405D08B8494EC28F0020E39D08B94FA
:102E9800BED70101704B712B715104E1050E705DB5
:102EA800D8A0B5D7000E716F000E706F8B94030E0B
:102EB80027D00101704B712B715104E1050E705D33
:102EC800D8A0A5D7000E716F000E706F732B040E7B
:102ED800736504D0000E736F040E12D08B84D5D79F
:102EE8000101704B712B715104E1320E705DD8A055
:102EF8008ED7000E716F000E706F000E726F010E8C
:102F08000001CC6F84D7CC518B6F8C6B8C51000A2D
:102F1800D8A47DD78B51000AD8B4ACD7010AD8B44D
:102F2800ADD7030AD8B4B5D7010AD8B4C2D7070AAF
:102F3800D8B4D6D76CD789C0D9FF8AC0DAFFDECF1C
:102F48008BF0DDCF8CF08C51000AD8A407D08B51C0
:102F5800000AD8B45CD7230AD8B477D789C0D9FF78
:102F68008AC0DAFF000EDE6E000EDD6E120090D011
:102F78000A0E3EEC28F0000185250101806F000E45
:102F8800000186210101816F000E000187210101E6
:102F9800826F000E000188210101836F89C0D9FF6B
:102FA8008AC0DAFF190EDE6E000EDD6E3EEC28F0E8
:102FB800010180510001855D01018151000186599F
:102FC800010182510001875901018351000188598B
:102FD800D8A0120045D0CF05D8A403D08B80010E0D
:102FE8001ED0020ECF19D8A404D0CD078B80020EB4
:102FF80016D0030ECF19D8A403D08B80030E0FD0A0
:10300800000ECF6F000ECE6F000E506E8B90B0D7B3
:10301800CE2B040ECE65ACD7000ECE6F0BD0D06F82
:10302800A7D7CE2B040ECE65A3D7000ECE6FCD51F9
:10303800D8A40CD08B90000ECF6F10D0040EEFD711
:10304800CE2B040ECE6594D7000ECE6F8B90F6D79C
:10305800CE2B040ECE658CD7000ECE6F000EDFD7B8
:10306800D0518B6F8C6B8C51000AD8A481D78B51AF
:10307800000AD8B4B0D7010AD8B4CAD7030AD8B45A
:10308800D0D7010AD8B4DCD7070AD8B4E1D770D7AB
:1030980089C0D9FF8AC0DAFFDECF8BF0DDCF8CF094
:1030A8008C51000AD8A407D08B51000AD8B460D735
:1030B800190AD8B47BD789C0D9FF8AC0DAFF000EB5
:1030C800DE6E000EDD6E1200000E966F94AF12D009
:1030D800941F931F921F911F901F8F1F8E1F8D6D1E
:1030E800000E8E238F2390239123922393239423DE
:1030F800010E966F8CAF12D08C1F8B1F8A1F891FF1
:10310800881F871F861F856D000E862387238823C7
:1031180089238A238B238C23010E961B20EE97F09C
:10312800070EDE6AE806FDE28D518E118F119011AF
:103138009111921193119411D8B446D0010E956F44
:103148000AD0D8908D378E378F379037913792378E
:1031580093379437952B94AFF4D7D89097379837FF
:1031680099379A379B379C379D379E378D51855DA8
:103178008E5186598F518759905188599151895943
:1031880092518A5993518B5994518C59D8A011D086
:103198008D51855F8E51865B8F51875B9051885B1F
:1031A8009151895B92518A5B93518B5B94518C5BF3
:1031B8009781D890943393339233913390338F33EC
:1031C8008E338D33952FC9D79651D8B410D09E1F02
:1031D8009D1F9C1F9B1F9A1F991F981F976D000E7C
:1031E800982399239A239B239C239D239E2397C04E
:1031F80085F098C086F099C087F09AC088F09BC087
:1032080089F09CC08AF09DC08BF09EC08CF01200A3
:10321800000E186E16AE12D0161E151E141E131EA2
:10322800121E111E101E0F6C000E102211221222E7
:103238001322142215221622010E186E0EAE12D079
:103248000E1E0D1E0C1E0B1E0A1E091E081E076CE4
:10325800000E082209220A220B220C220D220E221D
:10326800010E181A20EE19F0070EDE6AE806FDE2D4
:103278000F501010111012101310141015101610F2
:10328800D8B446D0010E176E0AD0D8900F36103633
:10329800113612361336143615361636172A16AE68
:1032A800F4D7D89019361A361B361C361D361E36FA
:1032B8001F3620360F50075C105008581150095817
:1032C80012500A5813500B5814500C5815500D58DA
:1032D80016500E58D8A011D00F50075E1050085A3B
:1032E8001150095A12500A5A13500B5A14500C5ABA
:1032F80015500D5A16500E5A1980D890163215329C
:10330800143213321232113210320F32172EC9D73B
:103318001850D8B410D0201E1F1E1E1E1D1E1C1EA5
:103328001B1E1A1E196C000E1A221B221C221D229B
:103338001E221F22202219C007F01AC008F01BC045
:1033480009F01CC00AF01DC00BF01EC00CF01FC015
:103358000DF020C00EF01200926F00019251D8A417
:103368008DAF1AD08AC08EF08BC08FF08CC090F0D1
:103378008DC091F08E1F8F1F901F911F8E2B000EF6
:103388008F23902391238EC094F08FC095F090C026
:1033980096F091C097F008D08AC094F08BC095F051
:1033A8008CC096F08DC097F08A518B118C118D11BD
:1033B800D8A409D0000E8A6F000E8B6F000E8C6F98
:1033C800000E8D6F1200960E936F06D0932BD89037
:1033D8009733963395339433000E94158E6F000E01
:1033E80095158F6F000E9615906FFE0E9715916FBD
:1033F8008E518F1190119111D8B40DD0E7D7932B1E
:10340800010E9427000E952396239723D89097337F
:10341800963395339433000E94158E6F000E9515E0
:103428008F6F000E9615906FFF0E9715916F8E5146
:103438008F1190119111D8B407D0E1D79307D89084
:10344800943795379637973796BF03D0020E936116
:10345800F5D793A1969FD890933393C08EF08F6B36
:10346800906B916B8EC091F0906B8F6B8E6B8E51C1
:1034780094138F519513905196139151971392511C
:10348800D8A48DAF01D0978F94C08AF095C08BF0E7
:1034980096C08CF097C08DF012007FD00A0E3EECDB
:1034A80028F00001852501018C6F000E000186219E
:1034B80001018D6F000E0001872101018E6F000E42
:1034C8000001882101018F6F89C0D9FF8AC0DAFF06
:1034D800290EDE6E000EDD6E3EEC28F001018C51E7
:1034E8000001855D01018D510001865901018E5150
:1034F8000001875901018F5100018859D8A0120095
:103508003AD08990020100A1C9D7010E000131D03B
:10351800CA51D8A404D0010ECA6F8990BFD701013F
:10352800924B932B935104E1050E925DD8A0B6D728
:10353800000E936F000E926F000E0001CA6F020E0C
:1035480018D0CA51D8A404D0010ECA6F8980A6D752
:103558000101924B932B935104E1C30E925DD8A0C5
:103568009DD7000E936F000E926F000E0001CA6F78
:10357800010ECB6F93D7CB518B6F8C6B8C51000A9C
:10358800D8A48CD78B51000AD8B4BBD7010AD8B4B9
:10359800BFD7030AD8B4D5D781D789C0D9FF8AC085
:1035A800DAFFDECF8BF0DDCF8CF08C51000AD8A487
:1035B80007D08B51000AD8B471D7290AD8B48CD750
:1035C80089C0D9FF8AC0DAFF000EDE6E000EDD6EFC
:1035D800120089C093F08AC094F08D518E11D8B42E
:1035E800120093C0D9FF94C0DAFF8BC0DFFF8D5162
:1035F80093258F6F8E519421906FFF0E8F25D96E72
:10360800FF0E9021DA6E8BC0DFFF8E5104E1030EAE
:103618008D5DD8A0120020EE01F09351D926945167
:10362800DA228BC0DFFF20EE02F09351D9269451A5
:10363800DA228BC0DFFF8D5193258F6F8E51942135
:10364800906FFE0E8F25D96EFF0E9021DA6E8BC01B
:10365800DFFF8D5193258F6F8E519421906FFD0E52
:103668008F25D96EFF0E9021DA6E8BC0DFFF8E5149
:1036780004E1070E8D5DD8A0120020EE03F09351EF
:10368800D9269451DA228BC0DFFF8D5193258F6F95
:103698008E519421906FFC0E8F25D96EFF0E9021CC
:1036A800DA6E8BC0DFFF8E5104E1090E8D5DD8A064
:1036B800120093C08FF094C090F08F1F901F8F4B13
:1036C800902B030E8F15916F926B91519327925106
:1036D800942391518D5F92518E5BFC0E8D17FF0ED6
:1036E8008E170BD093C0D9FF94C0DAFF8BC0DFFFD1
:1036F8008D07D8A08E07934B942B8D518E11D8B47B
:103708001200F0D721EEF9F010EE95F0060EDBCF9F
:10371800E3FFE806FCE292C0A0F093C0A1F000012C
:10372800A051A111D8A403D0950EA06FA16BA0C081
:1037380085F0A1C086F0E8EC25F085C0A4F086C02D
:10374800A5F0C5C0A2F0C6C0A3F0A3BF0ED0A45177
:10375800A25DA351800A946FA551800A9459D8B0EC
:1037680004D0A2C0A4F0A3C0A5F0A4C0A2F0A5C034
:10377800A3F0C3C09EF0C4C09FF0C7A10ED017D05D
:10378800000E886F200E876F90C089F091C08AF074
:10379800B8EC21F00001A44BA52B9E51A45DA551C6
:1037A800800A946F9F51800A9459D8A0E9D7000ED7
:1037B8009D6F000E9C6F14D0A0C0D9FFA1C0DAFF86
:1037C800DF50946F9451876F886B90C089F091C0D7
:1037D8008AF0B8EC21F00001A04BA12B9C4B9D2B4B
:1037E800A2519C5D9D51800A946FA351800A9459FF
:1037F800D8A0E2D7C7B10ED017D0000E886F200E20
:10380800876F90C089F091C08AF0B8EC21F0000170
:10381800A44BA52B9E51A45DA551800A946F9F517E
:10382800800A9459D8A0E9D7A4C090F0A5C091F017
:10383800120021EEF9F010EE17F0060EDBCFE3FFD1
:10384800E806FCE214C022F015C023F02250231031
:10385800D8A403D0170E226E236A22C007F023C013
:1038680008F00BEC26F007C026F008C027F0C5C00A
:1038780024F0C6C025F025BE0ED02650245C255065
:10388800800A166E2750800A1658D8B004D024C073
:1038980026F025C027F026C024F027C025F0C3C095
:1038A80020F0C4C021F00001C7A10DD016D0000E31
:1038B8000A6E200E096E12C00BF013C00CF008EC53
:1038C80022F0264A272A2050265C2750800A166EA6
:1038D8002150800A1658D8A0EAD7000E1F6E000E95
:1038E8001E6E13D022C0D9FF23C0DAFFDF50166E38
:1038F8001650096E0A6A12C00BF013C00CF008ECDF
:1039080022F0224A232A1E4A1F2A24501E5C1F50D6
:10391800800A166E2550800A1658D8A0E3D70001F1
:10392800C7B10DD016D0000E0A6E200E096E12C057
:103938000BF013C00CF008EC22F0264A272A20507E
:10394800265C2750800A166E2150800A1658D8A087
:10395800EAD726C012F027C013F01200000E966FA7
:103968008CAF12D08C1F8B1F8A1F891F881F871F3F
:10397800861F856D000E86238723882389238A2343
:103988008B238C23010E966F94AF10D0941F931F36
:10399800921F911F901F8F1F8E1F8D6D000E8E23FB
:1039A8008F23902391239223932394238D518E1157
:1039B8008F1190119111921193119411D8B43CD098
:1039C800010E956F0AD0D8908D378E378F37903784
:1039D8009137923793379437952B94AFF4D78D510D
:1039E800855D8E5186598F518759905188599151CB
:1039F800895992518A5993518B5994518C59D8A00D
:103A080010D08D51855F8E51865B8F51875B9051A9
:103A1800885B9151895B92518A5B93518B5B94517E
:103A28008C5BD890943393339233913390338F33A4
:103A38008E338D33952FD3D79651D8B410D08C1F91
:103A48008B1F8A1F891F881F871F861F856D000E81
:103A580086238723882389238A238B238C2385C065
:103A680085F086C086F087C087F088C088F089C056
:103A780089F08AC08AF08BC08BF08CC08CF0120061
:103A8800000E186E0EAE12D00E1E0D1E0C1E0B1E52
:103A98000A1E091E081E076C000E082209220A22A7
:103AA8000B220C220D220E22010E186E16AE10D01B
:103AB800161E151E141E131E121E111E101E0F6C2C
:103AC800000E10221122122213221422152216226D
:103AD8000F5010101110121013101410151016108A
:103AE800D8B43CD0010E176E0AD0D8900F361036D5
:103AF800113612361336143615361636172A16AE00
:103B0800F4D70F50075C105008581150095812503C
:103B18000A5813500B5814500C5815500D5816507D
:103B28000E58D8A010D00F50075E1050085A1150E8
:103B3800095A12500A5A13500B5A14500C5A15505D
:103B48000D5A16500E5AD8901632153214321332B6
:103B58001232113210320F32172ED3D71850D8B470
:103B680010D00E1E0D1E0C1E0B1E0A1E091E081E4E
:103B7800076C000E082209220A220B220C220D22B1
:103B88000E2207C007F008C008F009C009F00AC0F3
:103B98000AF00BC00BF00CC00CF00DC00DF00EC0FD
:103BA8000EF01200000E956F000E946F000E936FCA
:103BB800000E926F02D08C4B8D2B8CC0D9FF8DC01C
:103BC800DAFF200EDE18D8B4F6D7F70E8E6FFF0E88
:103BD8008F6F8CC0D9FF8DC0DAFFDF50906F916B6B
:103BE8008E5190278F51912391510CE1050E905DD4
:103BF800D8B008D0E0D7000E936F010E926F8C4BAF
:103C08008D2B2ED08CC0D9FF8DC0DAFFDF508E6F80
:103C18008F6B8F51000AD8A423D08E512B0AD8B4A9
:103C2800EED7060AD8B4E7D71BD094C085F095C064
:103C380086F0000E886F0A0E876F83EC27F08CC021
:103C4800D9FF8DC0DAFFDF508E6F8E51855F000E71
:103C5800865B300E8525946F000E8621956FCFD731
:103C6800D00E8E6FFF0E8F6F8CC0D9FF8DC0DAFF1C
:103C7800DF50906F916B8E5190278F519123915106
:103C880004E10A0E905DD8A0D0D792519311D8A420
:103C98000DD094C08EF095C08FF08E1F8F1F8E4B65
:103CA8008F2B8EC08CF08FC08DF0120094C08CF0DA
:103CB80095C08DF01200000EA16F000EA26F000ECD
:103CC800A36FA40E896F8A6B000E8C6F000E8B6F2A
:103CD800000E8E6F040E8D6FEDEC1AF096C0D9FFB2
:103CE80097C0DAFFDF50A46F964B972B96C0D9FF89
:103CF80097C0DAFFDF50A56F964B972BA40E8C6FF9
:103D08008D6BD6EC1DF08C51A06F96C0D9FF97C073
:103D1800DAFFDF50A46F964B972B96C0D9FF97C058
:103D2800DAFFDF50A56F964B972BA40E8C6F8D6B27
:103D3800D6EC1DF08C51A16F96C0D9FF97C0DAFF61
:103D4800DF50A46F964B972B96C0D9FF97C0DAFF28
:103D5800DF50A56F964B972BA40E8C6F8D6BD6EC0E
:103D68001DF08C51A26F964B972B96C0D9FF97C028
:103D7800DAFFDF50A46F000EA56FA40E8C6F8D6B59
:103D8800D6EC1DF08C51A36F98C0D9FF99C0DAFF0B
:103D9800A0C0DFFF9AC0D9FF9BC0DAFFA1C0DFFF38
:103DA8009CC0D9FF9DC0DAFFA2C0DFFF9EC0D9FF2B
:103DB8009FC0DAFFA3C0DFFF120085C08CF086C069
:103DC8008DF087C08EF088C08FF08907D8A08A0749
:103DD800892910E18A29D8A40DD0000E866F000E1B
:103DE800856F120000018C4B8D2B8E4B8F2B890712
:103DF800D8A08A078CC0F6FF8DC0F7FFF86A070EB7
:103E0800F76403D00800F55005D0F6CFE1FFF7CFEF
:103E1800E2FFE7500009D8B428D08EC0F6FF8FC063
:103E2800F7FF0800F5500009D8B41FD000018951E8
:103E38008A11D8B41AD08EC0F6FF8FC0F7FF0800D9
:103E4800F5CF8BF08CC0F6FF8DC0F7FFF86A070E30
:103E5800F76403D00800F55005D0F6CFE1FFF7CF9F
:103E6800E2FFE7508B19D8B4BDD78CC0F6FF8DC0E0
:103E7800F7FFF86A070EF76403D00800F55005D07D
:103E8800F6CFE1FFF7CFE2FFE75000018B6F8EC05E
:103E9800F6FF8FC0F7FF0800F5508B5D856F866BC6
:103EA800D8A08607120007C00EF008C00FF009C09E
:103EB80010F00AC011F00B06D8A00C060B280FE171
:103EC8000C28D8A40CD0000E086E000E076E120045
:103ED8000E4A0F2A104A112A0B06D8A00C060EC04B
:103EE800F6FF0FC0F7FFF86A070EF76403D0080063
:103EF800F55005D0F6CFE1FFF7CFE2FFE750000914
:103F0800D8B427D010C0F6FF11C0F7FF0800F5504D
:103F18000009D8B41ED00B500C10D8B41AD010C059
:103F2800F6FF11C0F7FF0800F5CF0DF00EC0F6FF41
:103F38000FC0F7FFF86A070EF76403D00800F550C2
:103F480005D0F6CFE1FFF7CFE2FFE7500D18D8B460
:103F5800BFD70EC0F6FF0FC0F7FFF86A070EF76469
:103F680003D00800F55005D0F6CFE1FFF7CFE2FF08
:103F7800E7500D6E10C0F6FF11C0F7FF0800F550AE
:103F88000D5C076E086AD8A0080612000600E1CF8B
:103F980002F0E2CF03F0D9CF04F0DACF05F0F2A4B3
:103FA8004DD0FF0ED76EEC0ED66EF294010E0101C5
:103FB8007427000E7523762377237751761106E14F
:103FC800600E745DEA0E7559D8A038D0000E746F73
:103FD800000E756F000E766F000E776F000E8C6FF7
:103FE800000E8D6F000E8E6F000E8F6F000E886FA3
:103FF800000E896F000E8A6F000E8B6F000E846FA3
:10400800000E856F000E866F000E876F000E806FA2
:10401800000E816F000E826F000E836F000E7C6FA2
:10402800000E7D6F000E7E6F000E7F6F000E786FA2
:10403800000E796F000E7A6F000E7B6F9EAA0DD06E
:1040480020EC28F0066E060E016EEEEC27F04C818F
:10405800000E0101BE6F000EBD6F05C0DAFF04C07F
:10406800D9FF03C0E2FF02C0E1FF5892110002012C
:10407800A135A2350001C26FC251D8A40AD0000EE2
:1040880002019F6F000EA06F000EA16F000EA26FBD
:1040980012009FC2A3F2A0C2A4F2A1C2A5F2A2C2BA
:1040A800A6F2200E06D00201D890A633A533A43379
:1040B800A333E82EF8D7A3510001C16F0201A18FE5
:1040C800FF0E9F17FF0EA017FF0EA117000EA217D5
:1040D800960E0001C25FC2AF0FD0C251800A970F7F
:1040E800D8A0CDD70201D890A233A133A0339F33F3
:1040F8000001C23FF7D70FD01F0EC26509D0BFD746
:104108000201D8909F37A037A137A2370001C20714
:10411800C251D8A4F5D7C151D8B409D00201A21F01
:10412800A11FA01F9F6D000EA023A123A2239FC241
:104138009FF2A0C2A0F2A1C2A1F2A2C2A2F21200F2
:10414800000EA96F98C089F099C08AF0000E8C6F94
:10415800000E8B6F98C085F099C086F0E8EC25F0CA
:1041680085C08DF086C08EF0EDEC1AF09F0E896F39
:104178008A6B000E8C6F000E8B6F000E8E6F0A0E0E
:104188008D6FEDEC1AF096C090F097C091F09AC040
:1041980092F09BC093F03FEC23F090C0AAF091C03E
:1041A800ABF0010EAA25AA6F000EAB21AB6F0DD0A4
:1041B800AAC0D9FFABC0DAFFA9519F0FE16EE26A2E
:1041C800DFCFE7FFA92BAA4BAB2BAAC0D9FFABC007
:1041D800DAFFDF509E6F9CC0F6FF9DC0F7FF080016
:1041E800F5509E19D8A4E4D798C089F099C08AF0F0
:1041F8009F0E8B6F8C6B9F0E856F866BE8EC25F09E
:1042080085C08DF086C08EF068EC25F01200938092
:104218009382C78EC68AC650F00B0809C66E000E78
:104228009B6F000E9C6F800E9D6FBF0E9E6F000EE1
:1042380000019C6F000E9D6F800E9E6F400E9F6F59
:10424800A7C28AF0A8C28BF0A9C28CF0AAC28DF0CE
:10425800000EB0EC19F08AC098F08BC099F08CC0B1
:104268009AF08DC09BF06BEC0CF098C0B5F099C03B
:10427800B6F09AC0B7F09BC0B8F0800EB16F960E3A
:10428800B26F980EB36F4B0EB46F95EC0FF0B1C0D0
:1042980097F2B2C098F2B3C099F2B4C09AF28CEC1B
:1042A8000AF097C29FF298C2A0F299C2A1F29AC2EC
:1042B800A2F23BEC20F002019F51C86E000EC56EC1
:1042C8001200870EF66E7E0EF76E20EE90F0060E48
:1042D8000900F5CFDEFFE806FBE2000E9E6FD2EC88
:1042E80028F0D00EA0EC28F09E51900FD96EDA6A13
:1042F800DF50A0EC28F0D6EC28F0D10EA0EC28F086
:104308009E51970FD96EDA6A000E87EC26F0FCEC06
:1043180027F0DF6ECEEC28F09E2B060E9E65DFD7C9
:104328008951D96EDA6A99C0DFFF8A51D96EDA6A83
:1043380098C0DFFF8B51D96EDA6A97C0DFFF8C51C6
:10434800D96EDA6A9AC0DFFF8D51D96EDA6A9BC0DE
:10435800DFFF8E51D96EDA6A9CC0DFFF8F51D96EAC
:10436800DA6A9DC0DFFF120089518A11D8B404D0DF
:1043780089518A11D8A404D0875188EC28F01200FA
:1043880020EE09F08951D9268A51DA22DE50DE1052
:10439800D8B416D020EE09F08951D9268A51DA22EC
:1043A80010EE03F08951E1268A51E222DE50E65CE4
:1043B800E650800A8F6FDE50800A8F59D8B01200FD
:1043C80020EE03F08951D9268A51DA22DECF8BF00C
:1043D800DDCF8CF089C0D9FF8AC0DAFFDECF8DF03F
:1043E800DDCF8EF08B518D25D96E8C518E21DA6EF2
:1043F80087C0DFFF20EE03F08951D9268A51DA22DF
:10440800DE2A000EDD2212000B500C10D8B404D0A6
:104418000B500C10D8A404D00950C5EC28F0120099
:1044280020EE09F00B50D9260C50DA22DE50DE10AF
:10443800D8B416D020EE09F00B50D9260C50DA2249
:1044480010EE03F00B50E1260C50E222DE50E65C41
:10445800E650800A116EDE50800A1158D8B012005A
:1044680020EE03F00B50D9260C50DA22DECF0DF0E7
:10447800DDCF0EF00BC0D9FF0CC0DAFFDECF0FF096
:10448800DDCF10F00D500F24D96E0E501020DA6ECB
:1044980009C0DFFF20EE03F00B50D9260C50DA22BA
:1044A800DE2A000EDD221200970E896F020E8A6F37
:1044B800000E8C6F000E8B6F000E8E6F2D0E8D6FA1
:1044C800EDEC1AF0970E896F020E8A6F95C08BF08B
:1044D80096C08CF095C085F096C086F0E8EC25F083
:1044E80085C08DF086C08EF068EC25F0970E856F3C
:1044F800020E866FE8EC25F085C0C4F286C0C5F2CE
:10450800000E0201C76F000EC66F0ED0970E020193
:10451800C625D96E020EC721DA6EDF50AD6EACA289
:10452800FED70201C64BC72BC651C45DC551800AD0
:104538000001976F0201C751800A00019759D8A05E
:104548001200E4D70001C7A10AD01BC012F01CC09A
:1045580013F019C014F01AC015F0A3EC26F01EBE13
:1045680005D01DC022F01EC023F004D0000E236E1B
:10457800000E226E000E216E000E206E0CD0000E72
:104588000A6E200E096E19C00BF01AC00CF008EC68
:1045980022F0204A212A2250205C2150800A1F6ED6
:1045A8002350800A1F58D8A0EAD70001C7B10AD003
:1045B8001BC012F01CC013F019C014F01AC015F07B
:1045C800A3EC26F01BC007F01CC008F00BEC26F08B
:1045D80022500724196E235008201A6E1200C7A112
:1045E8000AD099C090F09AC091F097C092F098C004
:1045F80093F06AEC26F09CBF05D09BC0A0F09CC04D
:10460800A1F004D0000EA16F000EA06F000E9F6FE6
:10461800000E9E6F0DD0000E886F200E876F97C01A
:1046280089F098C08AF0B8EC21F000019E4B9F2BCE
:10463800A0519E5D9F51800A9D6FA151800A9D598E
:10464800D8A0E9D7C7B10AD099C090F09AC091F024
:1046580097C092F098C093F06AEC26F099C085F064
:104668009AC086F0E8EC25F0A0518525976FA151F6
:104678008621986F120092519311D8B441D092C0FC
:1046880085F093C086F0E8EC25F085C094F086C0EC
:1046980095F02BD090C085F091C086F092C087F03D
:1046A80093C088F094C089F095C08AF0E1EC1EF0C0
:1046B80085518611D8A405D090C090F091C091F092
:1046C8001200010E9025856F000E9121866F92C011
:1046D800F6FF93C0F7FF0800F550876F886BBFECB3
:1046E80026F085C090F086C091F090519111D8B411
:1046F80007D090C0D9FF91C0DAFFDF50D8A4CAD73D
:10470800000E906F000E916F1200000E9E6F9F0EAC
:10471800896F8A6B000E8C6F000E8B6F000E8E6F88
:10472800040E8D6FEDEC1AF096C090F097C091F0E2
:1047380098C092F099C093F03FEC23F090C0A3F09A
:1047480091C0A4F0010EA325A36F000EA421A46FAD
:104758000DD0A3C0D9FFA4C0DAFF9E519F0FE16E10
:10476800E26ADFCFE7FF9E2BA34BA42BA3C0D9FFA0
:10477800A4C0DAFFDF509C6F9AC0F6FF9BC0F7FF1A
:104788000800F5509C19D8A4E4D79F0E8C6F8D6B48
:10479800D6EC1DF08C519D6F9D511200000E9D6F3F
:1047A8009E0E896F8A6B000E8C6F000E8B6F000E49
:1047B8008E6F040E8D6FEDEC1AF096C0D9FF97C07E
:1047C800DAFFDF509E6F964B972B96C0D9FF97C0A4
:1047D800DAFFDF509F6F964B972B9E0E8C6F8D6B79
:1047E800D6EC1DF08C519C6F96C0D9FF97C0DAFFAC
:1047F800DF509E6F964B972B96C0D9FF97C0DAFF74
:10480800DF509F6F9E0E8C6F8D6BD6EC1DF08C5118
:104818009D6F98C0D9FF99C0DAFF9CC0DFFF9AC08E
:10482800D9FF9BC0DAFF9DC0DFFF12000001986F1F
:10483800800EF66E7E0EF76E20EE91F0060E0900E1
:10484800F5CFDEFFE806FBE2790EF66E7E0EF76E18
:1048580020EE99F0060E0900F5CFDEFFE806FBE230
:1048680098C099F08BC09AF08CC09BF08DC09CF0DA
:104878008EC09DF08FC09EF090C09FF0000E00018A
:10488800A06FD2EC28F0D00EA0EC28F0A051910F28
:10489800D96EDA6ADF50A0EC28F0A051990FD96ED2
:1048A800DA6ADF50BBEC27F0A0EC28F0CEEC28F059
:1048B800A02B060EA065E5D71200CCC289F0CDC2A8
:1048C8008AF0000E00018C6F000E8B6FCCC285F051
:1048D800CDC286F0E8EC25F085C08DF086C08EF05C
:1048E800EDEC1AF0080E0201CE19D8A40BD0CCC2F8
:1048F800AFF2CDC2B0F2E00EB16F7F0EB26FC0EC76
:1049080025F01200090ECE19D8A40BD0CCC2AFF2F4
:10491800CDC2B0F2EA0EB16F7F0EB26FC0EC25F0D7
:104928001200CCC2AFF2CDC2B0F2E40EB16F7F0E6E
:10493800B26FC0EC25F012000F0EC16E14EC28F017
:10494800800E0001856F250E866F000E876F000EA2
:10495800886F08EC28F0CCEC27F0CAEC28F0A00E01
:104968000201A76F860EA86F010EA96F000EAA6F2D
:104978000BEC21F0E0EC28F0DEEC28F082EC28F0DB
:10498800BBEC28F0B6EC28F0C0EC28F0B1EC28F02D
:10499800ACEC28F047EC28F07BEC28F04FEC28F042
:1049A80057EC28F066EC28F05FEC28F0F3D7B40E4B
:1049B800F66E510EF76E000EF86E01EEF9F010EE7D
:1049C80007F00900F5CFEEFFE550E150FAE102EEFD
:1049D80000F0970EEE6AE806FDE101EE00F0E50E44
:1049E800EE6AE806FDE100EEC3F0170EEE6AE8068F
:1049F800FDE100EE50F0080EEE6AE806FDE1589081
:104A08005892000EF86E0001A0EF24F0CCC289F095
:104A1800CDC28AF0000E00018C6F000E8B6FCCC2E5
:104A280085F0CDC286F0E8EC25F085C08DF086C013
:104A38008EF0EDEC1AF00201CE51D8B40BD0CCC2F6
:104A4800AFF2CDC2B0F2E70EB16F7F0EB26FC0EC1D
:104A580025F01200CCC2AFF2CDC2B0F2DC0EB16FBD
:104A68007F0EB26FC0EC25F01200ABC2F7F1ACC2FA
:104A7800F8F1000E0101916F000E906F17D0A9C2D6
:104A880097F2AAC298F2F70E0201996F010E9A6F77
:104A9800ADC29BF2AEC29CF297EC13F002019751A3
:104AA800010190270201985101019123F7C1F6FFF6
:104AB800F8C1F7FF0800F5500009D8A4E0D790C165
:104AC800A9F291C1AAF212008BC092F08CC093F0A7
:104AD80089C090F08AC091F01CD092C0F6FF93C0B4
:104AE800F7FFF86A070EF76403D00800F55005D001
:104AF800F6CFE1FFF7CFE2FFE75000018F6F924B4F
:104B0800932B90C0D9FF91C0DAFF8FC0DFFF904B85
:104B1800912B8D07D8A08E078D29DFE18E29D8B477
:104B28001200DBD76EC072F06FC073F0000E010187
:104B3800916F000E906F12D06CC048F06DC049F0B4
:104B4800720E4A6E4B6A70C04CF071C04DF0C1ECE9
:104B580014F04850010190274950912372C0F6FF84
:104B680073C0F7FF0800F5500009D8A4E5D790C135
:104B78006CF091C16DF01200B30EBF6F020EC06FE2
:104B8800AFC2C1F2B0C2C2F2000EC56F000EC46F50
:104B9800000ECB6F000ECA6FC10EA96F020EAA6F6E
:104BA800B1C2ABF2B2C2ACF2BF0EAD6F020EAE6FC5
:104BB80039EC25F00201C451AF25D96EC551B02199
:104BC800DA6E000EDF6E120085C087F086C088F0AE
:104BD80003D00001854B862B85C0F6FF86C0F7FF02
:104BE800F86A070EF76403D00800F55005D0F6CF31
:104BF800E1FFF7CFE2FFE7500009D8A4EAD70001A8
:104C08008751855D856F88518659866F120007C068
:104C180009F008C00AF002D0074A082A07C0F6FFC0
:104C280008C0F7FFF86A070EF76403D00800F550CC
:104C380005D0F6CFE1FFF7CFE2FFE7500009D8A48F
:104C4800EBD70950075C076E0A500858086E120027
:104C5800010E00018B6F200E85198611D8B414D06F
:104C6800F70E876FFF0E886F85C089F086C08AF0BF
:104C78008751892788518A238A5104E1050E895D65
:104C8800D8A002D0000E8B6F8BC085F0866B120007
:104C9800866F000E0001886F8551D8B415D0010EBB
:104CA800876F03D0D8908537872B85AFFBD7D890EF
:104CB80088378551865DD8A003D08551865F888165
:104CC800D8908533872FF3D788511200000E966F3E
:104CD800000E956F0CD094C087F0886B92C089F055
:104CE80093C08AF0B8EC21F00001954B962B9551B2
:104CF8009025D96E96519121DA6EDF50946F9451B8
:104D0800D8B41200E8D7876F2BEC28F0C5862BECB7
:104D180028F0C9CF88F02BEC28F08751D8A403D00D
:104D2800866B862B02D00001866B863B8647C55072
:104D38008619DF0B8619C56EC58888511200000ECA
:104D4800186E000E176E0BD016C009F00A6A14C050
:104D58000BF015C00CF008EC22F0174A182A17506F
:104D68001224D96E18501320DA6EDF50166E1650C2
:104D7800D8B41200E9D785C0D9FF86C0DAFF8751B9
:104D8800DE18D8A405D085C085F086C086F012004C
:104D980085C0D9FF86C0DAFF854B862BDF50D8A4A3
:104DA800EAD7000E856F000E866F12000001896F2A
:104DB80089C087F0000187478747C2508719C30B0E
:104DC8008719C26EC282C2B2FED7C4500001886F72
:104DD800876BC3508725856F000E8821866F120068
:104DE80098BF05D0985110E19705D8B00DD097C05D
:104DF80099F098C09AF0991F9A1F994B9A2B99C0CD
:104E080097F09AC098F0120097C097F098C098F061
:104E18001200D00E0001876FFF0E886F85C089F0E1
:104E280086C08AF08751892788518A238A5106E1EA
:104E38000A0E895DD8B002D0010E01D0000E856F30
:104E4800866B1200D2EC28F0D00EA0EC28F0000EF1
:104E5800A0EC28F0D6EC28F0D10EA0EC28F089516F
:104E6800D96EDA6A000E87EC26F0FCEC27F0DF6ECC
:104E7800CEEC28F012001ABE05D01A5010E1190421
:104E8800D8B00DD019C01BF01AC01CF01B1E1C1E78
:104E98001B4A1C2A1BC019F01CC01AF0120019C0AA
:104EA80019F01AC01AF01200866F080E0001876FF9
:104EB800000E886FD89086358835886FD8908637E9
:104EC8008551885DD8A002D08551885F872FF2D799
:104ED8008851120095C089F096C08AF0000E8C6F38
:104EE800000E8B6F95C085F096C086F0E8EC25F033
:104EF80085C08DF086C08EF0EDEC1AF01200855159
:104F08008703F3CF89F0F4CF8AF085518803F350F3
:104F18008A2786518703F3508A2789C085F08AC07B
:104F280086F0120085C0A9FF87C0A8FFA69EA69C90
:104F3800A684F29E550EA76EAA0EA76EA682F28EC2
:104F4800A1A8FED7A198A6941200855102010119C3
:104F580006E10001865102010219D8B406D085C0C5
:104F680001F286C002F2010E1200000E12008A6FD2
:104F78000A0E0001856F8A5158EC27F0896F0A0ED6
:104F8800856F8A514CEC26F0100DF35089251200DC
:104F9800CF0EC116C150F00B0B09C16EC050C70B24
:104FA8001009C06EC050F80B0409C06EC08EC280D4
:104FB8001200760E766F776B000E6C6F000E6D6FB9
:104FC80074C06EF075C06FF0760E706F716B96ECF2
:104FD80025F012000150D96EDA6A4D0E02017525CE
:104FE800E16EE26A020EE222DFCFE7FF752B1200C4
:104FF800866F86C085F00F0E0001851786390F0B66
:105008000A0DF35085251200AC94948E949CAC98AC
:10501800AC9C200EAF6EAB8EAC8AAB889D8A12001A
:10502800D08EF28EF28CF28AF28EFF0ED76EEC0ED4
:10503800D66E870ED56E12009EAA07D0ABA203D0FB
:10504800AB9800F0AB88AE501200000E1200C5CF2E
:1050580085F01F0E00018517D8A4F9D7C7A4120040
:10506800F6D785C0D9FF86C0DAFF000EDE6E000EC7
:10507800DD6E120074C185F075C186F076C187F0C7
:1050880077C188F01200DB0E0001896F010E8A6F6C
:1050980051EC1AF01200E10E0201D96F010EDA6F1D
:1050A800F4EC04F01200E30E00019F6F010EA06FF4
:1050B800F6EC07F01200DD0E896F010E8A6F0AEC1C
:1050C80017F01200DF0E896F010E8A6FBBEC17F024
:1050D8001200020ECF6F020ECD6F010E506E12003D
:1050E80085C0A9FFA69EA69CA680A8501200D90E2E
:1050F800AC6F010EAD6F5BEC00F01200000E010109
:10510800DC6F000EDB6F1200866F000186518EEC9B
:1051180028F01200856F85C0ADFFACB21200FDD734
:10512800010E0001CF6F010E506E120002010169DD
:10513800026985C0D1F01200866F2BEC28F086C07A
:10514800C9FF1200076E07C0ADFFACB21200FDD751
:10515800000EDE6F000EDD6F1200000EE06F000E15
:10516800DF6F1200000EE26F000EE16F1200000EFA
:10517800DA6F000ED96F1200000EE46F000EE36FB5
:105188001200086E0850A6EC28F012009290898050
:10519800899012002BEC28F0C58412002BEC28F023
:1051A800C58012002BEC28F0C5821200286E756CA1
:0351B8006C29005F
:0851BC0094941200949012007B
:107E780000000000000000000201000405060300E5
:107E88000102040506034E6F202D20202020496E94
:107E980069202020202D20202046696E20202020C7
:107EA8002D204F6E202D2044696173200A0D0A0D84
:107EB8000020352020202D2025643A25642020200C
:107EC8002D2025643A256420202D202573202D207F
:107ED80025730A0D0A0D0020312020202D2025644D
:107EE8003A25642020202D2025643A256420202D61
:107EF800202573202D2025730A0D002032202020F4
:107F08002D2025643A25642020202D2025643A253B
:107F18006420202D202573202D2025730A0D002094
:107F2800332020202D2025643A25642020202D2070
:107F380025643A256420202D202573202D202573C3
:107F48000A0D0020342020202D2025643A256420A5
:107F580020202D2025643A256420202D20257320FB
:107F68002D2025730A0D00494E4943494F20494E9B
:107F780054455252555043494F4E20494E54310DA5
:107F88000A000A0D42414C495A4120414C41524D88
:107F9800412056312E300A0D0A0D0046494E20491F
:107FA8004E54455252555043494F4E20494E543134
:107FB8000D0A0025642F25642F25642D25640A0DDC
:107FC8000A0D0A0D0025643A25643A25640A0D0055
:107FD8006C6C73004F464600446961005344004F7F
:107FE8004E004C5600BF002C003F004100430045A6
:087FF8000049004C005200009A
:020000040030CA
:0E000000000C181EFF8381FF0FC00FE00F40A1
:00000001FF
