:0400000059EF00F0C4
:06000800588277ED1FF0A5
:100018005880D8CF7AF0E8CF7BF0E0CF7CF0E1CF02
:100028007DF0E2CF7EF0D9CF7FF0DACF80F0F6CF47
:1000380081F0F7CF82F0F8CF83F0F5CF84F0F0B6F7
:10004800F0A01BD06F0E0001746F7F0E756F99ECD6
:1000580027F0660E0001796F760E786FC10EE82ED4
:10006800FED7782FFCD7792FFAD7A30E0001746F2B
:100078007F0E756F99EC27F0F09084C0F5FF83C070
:10008800F8FF82C0F7FF81C0F6FF80C0DAFF7FC0AB
:10009800D9FF7EC0E2FF7DC0E1FF7CC0E0FF7BC0EE
:1000A800E8FF7AC0D8FF589010009BEF24F061EF6A
:1000B80004F0010EECEC27F0000185250101366FF4
:1000C800000E000186210101376F000E0001872113
:1000D8000101386F000E000188210101396FB2C09B
:1000E800D9FFB3C0DAFF670EDE6E000EDD6EECECF2
:1000F80027F0010136510001855D010137510001EA
:10010800865901013851000187590101395100010F
:100118008859D8A01200B8D301014EA1CAD7010E40
:100128000001896F020E8A6F000E8C6F000E8B6FB4
:10013800000E8E6F280E8D6FA3EC1AF0000E0201D0
:10014800296F0091010E1ED1020100A1B2D7010151
:10015800C34BC42BC45104E1050EC35DD8A0A9D775
:10016800020100919A0E0001896F010E8A6F000E3C
:100178008C6F000E8B6F000E8E6F280E8D6FA3ECA8
:100188001AF0000EB66F000EB76F010EB725D96EC4
:10019800DA6A020EDA22DF50D8B412D0270EB6611E
:1001A8000FD0010EB725D96EDA6A020EDA229A0E3E
:1001B800B625E16EE26A010EE222DFCFE7FFB62B39
:1001C800B72B270EB765E1D7010E896F020E8A6F2C
:1001D800000E8C6F000E8B6F000E8E6F280E8D6FC9
:1001E800A3EC1AF0000E0201296F020ECBD09A0E72
:1001F800906F010E916FED0E926F7F0E936F50EC22
:1002080023F090519111D8B49DD7030EBCD09A0E0B
:10021800906F010E916FFB0E926F7F0E936F50ECF3
:1002280023F090519111D8B403D002012A818AD7C2
:100238009A0E906F010E916FFD0E926F7F0E936F65
:1002480050EC23F090519111D8B45BD09A0E966F70
:10025800010E976FC70E986F010E996FFD0E9A6F7A
:100268007F0E9B6FEF0E9C6F7F0E9D6F15EC1EF03F
:10027800C70E966F010E976FD10E986F010E996F8A
:10028800D20E9A6F010E9B6FBDEC20F09A0E966FFE
:10029800010E976FC70E986F010E996FF50E9A6F42
:1002A8007F0E9B6FF10E9C6F7F0E9D6F15EC1EF0FD
:1002B800C70E966F010E976FD30E986F010E996F48
:1002C800D40E9A6F010E9B6FD50E9C6F010E9D6F19
:1002D800D60E9E6F010E9F6F29EC18F0D2C18BF0DD
:1002E800000E8C6FD3C18DF0D4C18EF0D5C18FF0C4
:1002F800D6C190F00101D1519AEC23F002012A8372
:1003080021D79A0E906F010E916FF30E926F7F0EA8
:10031800936F50EC23F090519111D8B413D79A0EE3
:10032800966F010E976FF30E986F7F0E996FEF0E11
:100338009A6F7F0E9B6FE9EC1FF00101C56F9A0E53
:100348000001906F010E916FF70E926F7F0E936F01
:1003580050EC23F090519111D8B4F4D69A0E966FC0
:10036800010E976FF70E986F7F0E996FEF0E9A6FC9
:100378007F0E9B6FE9EC1FF00101C66FC651D8A430
:1003880004D0040E0001C96F94D69A0E0001966F2E
:10039800010E976FC70E986F010E996FF90E9A6F3D
:1003A8007F0E9B6FEF0E9C6F7F0E9D6F15EC1EF0FE
:1003B800C70E966F010E976FD70E986F010E996F43
:1003C800D80E9A6F010E9B6FBDEC20F09A0E966FB7
:1003D800010E976FC70E986F010E996FDE0E9A6F18
:1003E8007F0E9B6FEF0E9C6F7F0E9D6F15EC1EF0BE
:1003F800C70E966F010E976FD90E986F010E996F01
:10040800DA0E9A6F010E9B6FBDEC20F09A0E966F74
:10041800010E976FC70E986F010E996FE50E9A6FD0
:100428007F0E9B6FEF0E9C6F7F0E9D6F15EC1EF07D
:10043800C70E8C6F010E8D6F8CEC1DF08CC0DBF13C
:100448008DC0DCF10101000EDCBFFF0EDD6FDE6F39
:1004580098D70101C651D8A44FD0C505D8A40CD04F
:1004680002018391000E0001866F010E856F000E58
:10047800876F52EC27F005D2020EC519D8A40CD00C
:1004880002017591000E0001866F080E856F000E3F
:10049800876F52EC27F0F5D1030EC519D8A40CD0FC
:1004A80002016791000E0001866F0F0E856F000E26
:1004B800876F52EC27F0E5D1040EC519D8A40CD0EB
:1004C80002015991000E0001866F160E856F000E0D
:1004D800876F52EC27F0D5D1050EC519D8A4D1D114
:1004E80002014B91000E0001866F1D0E856F000EF4
:1004F800876F52EC27F0C5D1C505D8A457D0DE5177
:10050800DD11DC1104E1080EDB5DD8A0BAD1DE51A3
:10051800DD11DC1103E10B0EDB5DD8B0B2D10201B5
:100528008381D7C18DF2D8C18EF2D9C18FF2DAC1D9
:1005380090F28393DBC184F2000E0001866F010EF6
:10054800856F010E876F52EC27F0000E866F020E42
:10055800856F000E876F52EC27F0000E866F030E32
:10056800856FDBC187F052EC27F0000E866F040E12
:10057800856FD7C187F052EC27F0000E866F050E05
:10058800856FD8C187F052EC27F0000E866F060EF3
:10059800856FD9C187F052EC27F0000E866F070EE1
:1005A800856FDAC187F052EC27F06BD1020EC519BE
:1005B800D8A457D0DE51DD11DC1104E1080EDB5D53
:1005C800D8A05FD1DE51DD11DC1103E10B0EDB5D3C
:1005D800D8B057D102017581D7C17FF2D8C180F256
:1005E800D9C181F2DAC182F27593DBC176F2000ECD
:1005F8000001866F080E856F010E876F52EC27F099
:10060800000E866F090E856F000E876F52EC27F07B
:10061800000E866F0A0E856FDBC187F052EC27F05B
:10062800000E866F0B0E856FD7C187F052EC27F04E
:10063800000E866F0C0E856FD8C187F052EC27F03C
:10064800000E866F0D0E856FD9C187F052EC27F02A
:10065800000E866F0E0E856FDAC187F052EC27F018
:1006680010D1030EC519D8A457D0DE51DD11DC1105
:1006780004E1080EDB5DD8A004D1DE51DD11DC11E8
:1006880003E10B0EDB5DD8B0FCD002016781D7C156
:1006980071F2D8C172F2D9C173F2DAC174F26793F8
:1006A800DBC168F2000E0001866F0F0E856F010E28
:1006B800876F52EC27F0000E866F100E856F000EC4
:1006C800876F52EC27F0000E866F110E856FDBC125
:1006D80087F052EC27F0000E866F120E856FD7C197
:1006E80087F052EC27F0000E866F130E856FD8C185
:1006F80087F052EC27F0000E866F140E856FD9C173
:1007080087F052EC27F0000E866F150E856FDAC160
:1007180087F052EC27F0B5D0040EC519D8A457D0ED
:10072800DE51DD11DC1104E1080EDB5DD8A0A9D093
:10073800DE51DD11DC1103E10B0EDB5DD8B0A1D079
:1007480002015981D7C163F2D8C164F2D9C165F2F7
:10075800DAC166F25993DBC15AF2000E0001866FC6
:10076800160E856F010E876F52EC27F0000E866F0C
:10077800170E856F000E876F52EC27F0000E866FFC
:10078800180E856FDBC187F052EC27F0000E866FDC
:10079800190E856FD7C187F052EC27F0000E866FCF
:1007A8001A0E856FD8C187F052EC27F0000E866FBD
:1007B8001B0E856FD9C187F052EC27F0000E866FAB
:1007C8001C0E856FDAC187F052EC27F05AD0050E5F
:1007D800C519D8A456D0DE51DD11DC1104E1080E8C
:1007E800DB5DD8A04ED0DE51DD11DC114AE10B0EE5
:1007F800DB5DD8B046D002014B81D7C155F2D8C1D4
:1008080056F2D9C157F2DAC158F24B93DBC14CF218
:10081800000E0001866F1D0E856F010E876F52EC6A
:1008280027F0000E866F1E0E856F000E876F52EC44
:1008380027F0000E866F1F0E856FDBC187F052EC24
:1008480027F0000E866F200E856FD7C187F052EC17
:1008580027F0000E866F210E856FD8C187F052EC05
:1008680027F0000E866F220E856FD9C187F052ECF3
:1008780027F0000E866F230E856FDAC187F052ECE1
:1008880027F002012A855ED4C951B46FB56BB55102
:10089800000AD8A40ED4B451000AD8B43DD4010A31
:1008A800D8B452D4030AD8B4A2D4010AD8B4AFD465
:1008B800070AD8B4CED55DEF00F0B2C0D9FFB3C0F7
:1008C800DAFFDECFB4F0DDCFB5F0B551000AD8A419
:1008D80008D0B451000AD8B45DEF00F0670AD8B464
:1008E80006D4B2C0D9FFB3C0DAFF000EDE6E000E28
:1008F800DD6E1200E7D20A0EECEC27F00001852528
:100908000101426F000E000186210101436F000EB4
:10091800000187210101446F000E000188210101B7
:10092800456FD3C2D9FFD4C2DAFF3F0EDE6E000E88
:10093800DD6EECEC27F0010142510001855D0101FB
:1009480043510001865901014451000187590101B1
:10095800455100018859D8A0120098D20101514B85
:10096800522BF40E515D010E5259D8A0C4D74E81B6
:10097800510E0001856F010E866FE3EC27F01BEC2A
:1009880028F0000E866F030E856F48EC28F0B3D769
:10099800000E0001866F030E856F65EC27F00009D5
:1009A800D8B408D0510E0001856F010E866FE3ECB4
:1009B80027F0A1D7514B522B525104E1C80E515D7B
:1009C800D8A099D7000E0001866F000E856F22EC23
:1009D80028F00101006F060E0019D8B42AD1000EC4
:1009E8000001866F000E856F060E876F52EC27F0A8
:1009F8001BEC28F0000E866F010E856F000E876FC6
:100A080052EC27F0000E866F020E856F000E876F7E
:100A180052EC27F0000E866F030E856F080E876F65
:100A280052EC27F0000E866F040E856F000E876F5C
:100A380052EC27F0000E866F050E856F000E876F4B
:100A480052EC27F0000E866F060E856F000E876F3A
:100A580052EC27F0000E866F070E856F000E876F29
:100A680052EC27F0000E866F080E856F000E876F18
:100A780052EC27F0000E866F090E856F000E876F07
:100A880052EC27F0000E866F0A0E856F080E876FEE
:100A980052EC27F0000E866F0B0E856F000E876FE5
:100AA80052EC27F0000E866F0C0E856F000E876FD4
:100AB80052EC27F0000E866F0D0E856F000E876FC3
:100AC80052EC27F0000E866F0E0E856F000E876FB2
:100AD80052EC27F0000E866F0F0E856F000E876FA1
:100AE80052EC27F0000E866F100E856F000E876F90
:100AF80052EC27F0000E866F110E856F080E876F77
:100B080052EC27F0000E866F120E856F000E876F6D
:100B180052EC27F0000E866F130E856F000E876F5C
:100B280052EC27F0000E866F140E856F000E876F4B
:100B380052EC27F0000E866F150E856F000E876F3A
:100B480052EC27F0000E866F160E856F000E876F29
:100B580052EC27F0000E866F170E856F000E876F18
:100B680052EC27F0000E866F180E856F080E876FFF
:100B780052EC27F0000E866F190E856F000E876FF6
:100B880052EC27F0000E866F1A0E856F000E876FE5
:100B980052EC27F0000E866F1B0E856F000E876FD4
:100BA80052EC27F0000E866F1C0E856F000E876FC3
:100BB80052EC27F0000E866F1D0E856F000E876FB2
:100BC80052EC27F0000E866F1E0E856F000E876FA1
:100BD80052EC27F0000E866F1F0E856F080E876F88
:100BE80052EC27F0000E866F200E856F000E876F7F
:100BF80052EC27F0000E866F210E856F000E876F6E
:100C080052EC27F0000E866F220E856F000E876F5C
:100C180052EC27F0000E866F230E856F000E876F4B
:100C280052EC27F0000E866F030E856F48EC28F013
:100C380062D68EEC0FF029818A0E0001956F7F0E27
:100C4800966FB8EC22F0170E01018F6F700E8E6F41
:100C5800110E916F940E906F000E0001866F010EB9
:100C6800856F48EC28F047D6000E0001866F010E0C
:100C7800856F65EC27F00009D8A494D602012AA153
:100C880006D02A9142EC28F0F7EC0AF034D62AA3D1
:100C980004D02A9342EC28F02ED62AA507D02A950C
:100CA8008EEC0FF0298142EC28F025D601018E4BFD
:100CB8008F2B700E8E5D170E8F59D8A00CD0000E9A
:100CC8008F6F000E8E6F000E0001866F040E856F09
:100CD80048EC28F010D656A102D0010E01D0000E23
:100CE8002C6F09D6000E0001866F040E856F65EC27
:100CF80027F00009D8B4B0D7010E6CEC26F085C0F7
:100D08008AF086C08BF08C6B8D6B000ECBEC18F0E4
:100D18008AC092F18BC093F18CC094F18DC095F18B
:100D280092C198F093C199F094C19AF095C19BF043
:100D3800000E9C6F000E9D6FA00E9E6F3B0E9F6F66
:100D480061EC09F098C092F199C093F19AC094F1BE
:100D58009BC095F1000E9C6F000E9D6FC00E9E6F9C
:100D6800400E9F6F92C198F093C199F094C19AF088
:100D780095C19BF061EC09F098C0F8F199C0F9F1C0
:100D88009AC0FAF19BC0FBF19A0E0101FC6F990E13
:100D9800FD6F990EFE6F3E0EFF6F82EC07F0F8C1F3
:100DA80092F1F9C193F1FAC194F1FBC195F192C1A5
:100DB80098F093C199F094C19AF095C19BF0000EF8
:100DC80000019C6F000E9D6F200E9E6F410E9F6F5D
:100DD80061EC09F098C092F199C093F19AC094F12E
:100DE8009BC095F188D5000E0001866F050E856FB2
:100DF80065EC27F00009D8B42FD7030E6CEC26F069
:100E080085C08AF086C08BF08C6B8D6B000ECBECA6
:100E180018F08AC096F18BC097F18CC098F18DC0FC
:100E280099F196C198F097C199F098C19AF099C133
:100E38009BF0000E9C6F000E9D6FA00E9E6F3B0EE8
:100E48009F6F61EC09F098C096F199C097F19AC02C
:100E580098F19BC099F196C198F097C199F098C103
:100E68009AF099C19BF0000E9C6F000E9D6F200EAA
:100E78009E6F410E9F6F61EC09F098C096F199C082
:100E880097F19AC098F19BC099F135D5D1510201DB
:100E9800D56FD66BD651000AD8A42DD5D551000AE6
:100EA800D8B45CD5010AD8B4DFD6030AD8B423D5A0
:100EB800010AD8B46DD5070AD8B414D7010AD8B432
:100EC80092D719D5D3C2D9FFD4C2DAFFDECFD5F273
:100ED800DDCFD6F2D651000AD8A407D0D551000AE2
:100EE800D8B409D53F0AD8B424D5D3C2D9FFD4C2BF
:100EF800DAFF000EDE6E000EDD6E12000101FB51FE
:100F0800800B0201916F0101FB51FB250201936FD8
:100F18000101FAAF02D00201938102019351D8B4C2
:100F28000FD09329D8A409D0000E0101F86F000E44
:100F3800F96F000EFA6F000EFB6F0101FA8F07D0F0
:100F4800000E0101F86F000EF96F000EFA6F000E27
:100F5800FB6FFF51800B0201926F91519219D8A437
:100F6800918D0101FF51FF250201926F0101FEAF32
:100F780002D00201928102019251D8B40FD0922975
:100F8800D8A409D0000E0101FC6F000EFD6F000E01
:100F9800FE6F000EFF6F0101FE8F07D0000E0101EA
:100FA800FC6F000EFD6F000EFE6F000EFF6F02015A
:100FB8009351925DD8B022D091AD02D0800E911B92
:100FC80093C294F292C293F294C292F2F8C194F24C
:100FD800FCC1F8F194C2FCF1F9C194F2FDC1F9F138
:100FE80094C2FDF1FAC194F2FEC1FAF194C2FEF185
:100FF800FBC194F2FFC1FBF194C2FFF1000E946FA4
:10100800935192C2BDF00001BE6BBD5F000EBE5B86
:10101800BEBF34D0BE5104E11A0EBD5DD8A02ED09B
:101028000101F851F911FA11FB11D8B402D0010EDF
:1010380001D0000E0201946F000E0101F86F000E3E
:10104800F96F000EFA6F000EFB6F92C293F21BD07D
:1010580094A105D0D89094310109946F02D0D8900A
:1010680094330101F8A102D00201948F0101FB35EC
:10107800FB33FA33F933F8330201932B020192510F
:10108800935DD8A0E5D7020191BD30D09351D8A483
:101098000AD0000E0101F86F000EF96F000EFA6F0A
:1010A800000EFB6F12000101FC51F827FD51F923D6
:1010B800FE51FA23FF51FB23FBA195D0020194A115
:1010C80005D0D89094310109946F02D0D890943308
:1010D8000101F8A102D00201948F0101FB35FB3315
:1010E800FA33F933F8330201932B7DD00101FC5117
:1010F800F85DFD51F959FE51FA59FB51800A00017A
:10110800BD6F0101FF51800A0001BD59D8B036D02A
:101118000101F851FC5D0001BD6F0101F951FD5954
:101128000001BE6F0101FA51FE590001BF6F0101B4
:10113800FB51FF590001C06FFF0EBD250101F86F7B
:10114800FF0E0001BE210101F96FFF0E0001BF2152
:101158000101FA6FFF0E0001C0210101FB6F800E33
:101168000201911B946D9451D8A411D0010E010174
:10117800F827000EF923FA23FB2309D00101FC51BB
:10118800F85FFD51F95BFE51FA5BFF51FB5B010112
:10119800F851F911FA11FB11D8A422D00201945187
:1011A800D8A41ED0000E0101F86F000EF96F000ED2
:1011B800FA6F000EFB6F1200D890F837F937FA373C
:1011C800FB37020194AF02D00101F881020194A11A
:1011D80002D0D88001D0D89094379351D8A49307DF
:1011E8000101FAAFE9D7000E0201926F94AF0ED059
:1011F80094C2BDF07F0E0001BD17D8B404D0010E13
:101208000201926F03D00101F8B1F9D7020192519E
:10121800D8B423D0010E0101F827000EF923FA23D0
:10122800FB23FBA11AD0F8C1BDF0F9C1BEF0FAC189
:10123800BFF0FBC1C0F00001C035C033BF33BE33BF
:10124800BD33BDC0F8F1BEC0F9F1BFC0FAF1C0C0EE
:10125800FBF102019329D8A4932B02019329D8B456
:1012680003D09351D8A40FD0000E0101F86F000EDF
:10127800F96F000EFA6F000EFB6F02019351D8A4AC
:1012880002D0000E916F93A103D00101FA8F02D012
:101298000101FA9F0201D89093310101FB6F02010D
:1012A80091AF02D00101FB8FF8C1F8F1F9C1F9F152
:1012B800FAC1FAF1FBC1FBF112009B51800BA46F3C
:1012C8009B519B25AA6F9ABFAA81AA51D8B40DD069
:1012D800AA29D8A408D0000E986F000E996F000EA6
:1012E8009A6F000E9B6F9A8F08D0000E986F000EB1
:1012F800996F000E9A6F000E9B6F9F51800BA41B75
:101308009F519F25A56F9EBFA581A551D8B40DD02B
:10131800A529D8A408D0000E9C6F000E9D6F000E62
:101328009E6F000E9F6F9E8F08D0000E9C6F000E60
:101338009D6F000E9E6F000E9F6FA551D8B403D00D
:10134800AA51D8A409D0000E986F000E996F000E0C
:101358009A6F000E9B6F12009E519803F3CFAFF067
:10136800F4CFB0F0AF51A66FA76BA86BA96BB051C3
:10137800AB6FAC6BAD6BAE6B9D519903F3CFAFF018
:10138800F4CFB0F0AF51A627000EA723A823A923B6
:10139800B051AB27000EAC23AD23AE239C519A036A
:1013A800F3CFAFF0F4CFB0F0AF51A627000EA723CC
:1013B800A823A923B051AB27000EAC23AD23AE233D
:1013C800A8C0A9F0A7C0A8F0A6C0A7F0A66B9C511A
:1013D8009903F3CFAFF0F4CFB0F0AF51A627B051D7
:1013E800A723000EA823000EA9239D519803F3CF2D
:1013F800AFF0F4CFB0F0AF51A627B051A723000E3D
:10140800A823000EA923A8C0A9F0A7C0A8F0A6C0C9
:10141800A7F0A66B9C519803F3CFAFF0F4CFB0F0D0
:10142800AF51A627B051A723000EA823000EA92369
:101438009E519903F3CFAFF0F4CFB0F0AF51AB2783
:10144800B051AC23000EAD23000EAE239D519A037C
:10145800F3CFAFF0F4CFB0F0AF51AB27B051AC231E
:10146800000EAD23000EAE239E519A03F3CFAFF0CA
:10147800F4CFB0F0AF51A06FB051A16FA26BA36BC6
:10148800A2C0A3F0A1C0A2F0A0C0A1F0A06BA0517F
:10149800AB27A151AC23A251AD23A351AE23A9512F
:1014A800AB27000EAC23AD23AE23A8C0A9F0A7C07C
:1014B800A8F0A6C0A7F0A66BA551AAC0A0F0A16B82
:1014C800A027000EA123820EA025AF6FFF0EA12139
:1014D800B06F0FD0D890AB37AC37AD37AE37A9BFA8
:1014E800AB81D890A637A737A837A937AF07D8A0B8
:1014F800B007ADAFEFD7000EA56FA9AF17D0FF0E9D
:10150800A615A06FFF0EA715A16FFF0EA815A26F55
:101518007F0EA915A36FA051A111A211A311D8B4D0
:1015280003D0010EA56F02D0ABB1FBD7A551D8B43B
:101538001FD0010EAB27000EAC23AD23AE23AEA106
:1015480017D0ABC0A0F0ACC0A1F0ADC0A2F0AEC047
:10155800A3F0A335A333A233A133A033A0C0ABF0CB
:10156800A1C0ACF0A2C0ADF0A3C0AEF0AF4BB02BA1
:10157800B0BF0DD0B05103E1AF29D8A008D0000EFC
:10158800AB6F000EAC6F800EAD6F7F0E20D0B0BF7A
:1015980005D0B0510EE1AF05D8B00BD0000EAB6F3F
:1015A800000EAC6F000EAD6F000EAE6F000EA46F94
:1015B8000FD0AFC0AAF0FF0EAB17FF0EAC177F0E0F
:1015C800AD17000EAE17AAB1AD8FD890AA31AE6F85
:1015D800A451AE13ABC098F0ACC099F0ADC09AF06E
:1015E800AEC09BF01200570E956F010E966F16EC69
:1015F80027F0570E0201A96F010EAA6FCD0EAB6F2F
:101608007F0EAC6FD5C0ADF2AE6BD4C0AFF2B06B8D
:10161800D3C0B1F2B26B52EC25F0570E0001956FB2
:10162800010E966FB8EC22F0570E956F010E966F6B
:1016380016EC27F0570E0201A96F010EAA6FBB0E18
:10164800AB6F7F0EAC6FD6C0ADF2AE6BD7C0AFF24A
:10165800B06BD8C0B1F2B26BD9C0B3F2B46B52EC74
:1016680025F0570E0001956F010E966FB8EC22F029
:10167800570E956F010E966F16EC27F0570E020164
:10168800A96F010EAA6F8E0EAB6F7E0EAC6F52EC77
:1016980025F0570E0001956F010E966FB8EC22F0F9
:1016A800CE0E0201C66F020EC76F01C1C8F2CAECA6
:1016B80024F0C90EC66F020EC76F03C1C8F221EC31
:1016C80024F0570E0001956F010E966F16EC27F067
:1016D800570E0201A96F010EAA6FDF0EAB6F7E0EC7
:1016E800AC6F04C1ADF2AE6B05C1AFF2B06B06C111
:1016F800B1F2B26B07C1B3F2B46BCE0EB56F020E86
:10170800B66FC90EB76F020EB86F52EC25F0570EC0
:101718000001956F010E966FB8EC22F0CE0E020113
:10172800C66F020EC76F08C1C8F2CAEC24F0C90E12
:10173800C66F020EC76F0AC1C8F221EC24F0570E1B
:101748000001956F010E966F16EC27F0570E0201F7
:10175800A96F010EAA6F030EAB6F7F0EAC6F0BC1A2
:10176800ADF2AE6B0CC1AFF2B06B0DC1B1F2B26BA2
:101778000EC1B3F2B46BCE0EB56F020EB66FC90EC2
:10178800B76F020EB86F52EC25F0570E0001956F37
:10179800010E966FB8EC22F0CE0E0201C66F020E53
:1017A800C76F0FC1C8F2CAEC24F0C90EC66F020E8B
:1017B800C76F11C1C8F221EC24F0570E0001956FD4
:1017C800010E966F16EC27F0570E0201A96F010E55
:1017D800AA6F270EAB6F7F0EAC6F12C1ADF2AE6B66
:1017E80013C1AFF2B06B14C1B1F2B26B15C1B3F251
:1017F800B46BCE0EB56F020EB66FC90EB76F020E80
:10180800B86F52EC25F0570E0001956F010E966FD8
:10181800B8EC22F0CE0E0201C66F020EC76F16C1D9
:10182800C8F2CAEC24F0C90EC66F020EC76F18C101
:10183800C8F221EC24F0570E0001956F010E966F47
:1018480016EC27F0570E0201A96F010EAA6F4B0E76
:10185800AB6F7F0EAC6F19C1ADF2AE6B1AC1AFF2B0
:10186800B06B1BC1B1F2B26B1CC1B3F2B46BCE0E3C
:10187800B56F020EB66FC90EB76F020EB86F52EC95
:1018880025F0570E0001956F010E966FB8EC22F007
:10189800CE0E0201C66F020EC76F1DC1C8F2CAEC98
:1018A80024F0C90EC66F020EC76F1FC1C8F221EC23
:1018B80024F0570E0001956F010E966F16EC27F075
:1018C800570E0201A96F010EAA6FB90EAB6F7E0EFB
:1018D800AC6F20C1ADF2AE6B21C1AFF2B06B22C1CB
:1018E800B1F2B26B23C1B3F2B46BCE0EB56F020E78
:1018F800B66FC90EB76F020EB86F52EC25F0570ECF
:101908000001956F010E966FB8EC22F01200B451E9
:10191800800B0101EF6F0001B451B4250101F66F8E
:101928000001B3AF02D00101F6810101F651D8B42C
:101938000FD0F629D8A409D0000E0001B16F000E0F
:10194800B26F000EB36F000EB46F0001B38F07D0F3
:10195800000E0001B16F000EB26F000EB36F000EE3
:10196800B46FB851800B0101EF1B0001B851B825C5
:101978000101F76F0001B7AF02D00101F781010142
:10198800F751D8B40FD0F729D8A409D0000E000118
:10199800B56F000EB66F000EB76F000EB86F00017E
:1019A800B78F07D0000E0001B56F000EB66F000E9E
:1019B800B76F000EB86FB551B611B711B811D8A4EA
:1019C80019D0000EB16F000EB26F000EB36F000E8B
:1019D800B46F800EB3137F0EB4130101EF510001F1
:1019E800B413B1C0B1F0B2C0B2F0B3C0B3F0B4C078
:1019F800B4F012000101F651D8A40AD0000E00017B
:101A0800B16F000EB26F000EB36F000EB46F12000C
:101A1800F751F6C1B9F00001BA6BB95F000EBA5BB5
:101A28007F0EB9250101F06F000E0001BA210101F6
:101A3800F16FB1C0EBF1B2C0ECF1B3C0EDF1B4C0DD
:101A4800EEF1000E0001B16F000EB26F000EB36F21
:101A5800000EB46F000E0101F26F000EF36F000E5E
:101A6800F46F000EF56F000EF76F3DD0F751D8B444
:101A780016D0D890EB37EC37ED37EE370001D89019
:101A8800B137B237B337B4370101F5AF02D000012F
:101A9800B1810101D890F237F337F437F5370001F7
:101AA800B5510101EB5D0001B6510101EC5900018E
:101AB800B7510101ED590001B8510101EE59D8A003
:101AC80011D0F58D0001B5510101EB5F0001B65150
:101AD8000101EC5B0001B7510101ED5B0001B85158
:101AE8000101EE5BF72B190EF765C0D7EB51EC112E
:101AF800ED11EE11D8B415D0F28113D0D890B137CA
:101B0800B237B337B4370101F5AF02D00001B18164
:101B18000101D890F237F337F437F537F007D8A03A
:101B2800F1070001B3AFEAD7000E0101F76FF5AF77
:101B38001FD0FF0EF2150001B96FFF0E0101F3155A
:101B48000001BA6FFF0E0101F4150001BB6F7F0E93
:101B58000101F5150001BC6FB951BA11BB11BC11D7
:101B6800D8B404D0010E0101F76F02D0B1B1FAD791
:101B78000101F751D8B421D0010E0001B127000EA0
:101B8800B223B323B423B4A118D0B1C0B9F0B2C002
:101B9800BAF0B3C0BBF0B4C0BCF0BC35BC33BB3387
:101BA800BA33B933B9C0B1F0BAC0B2F0BBC0B3F000
:101BB800BCC0B4F00101F04BF12B0101F1BF11D011
:101BC800F15103E1F029D8A00CD0000EF16FF069B3
:101BD800000E0001B16F000EB26F000EB36F000E61
:101BE800B46F0101F1BF05D0F15113E1F005D8B090
:101BF80010D0000EF16F000EF06F000E0001B16FF3
:101C0800000EB26F000EB36F000EB46F000E01012C
:101C1800EF6FF0C1F6F1F6A103D00001B38F02D047
:101C28000001B39F0101D890F6310001B46FD5D6F9
:101C380055D10A0EECEC27F00001852501013E6F15
:101C4800000E0001862101013F6F000E000187216F
:101C58000101406F000E000188210101416F9FC002
:101C6800D9FFA0C0DAFF550EDE6E000EDD6EECEC7B
:101C780027F001013E510001855D01013F5100013E
:101C88008659010140510001875901014151000164
:101C98008859D8A0120007D101014EA1CAD7D50E84
:101CA8000001896FD40E8A6FD30E8B6FD60E8C6F9E
:101CB800D70E8D6FD80E8E6FD90E8F6F78EC21F0FE
:101CC800020E92D0010101B103D00201839102D02A
:101CD80002018381010102B103D00201839302D082
:101CE8000201838303C184F204C18DF205C18EF21F
:101CF80006C18FF207C190F2010108B103D00201B9
:101D0800759102D002017581010109B103D0020168
:101D1800759302D0020175830AC176F20BC17FF276
:101D28000CC180F20DC181F20EC182F201010FB126
:101D380003D00201679102D002016781010110B14D
:101D480003D00201679302D00201678311C168F2D0
:101D580012C171F213C172F214C173F215C174F297
:101D6800010116B103D00201599102D00201598133
:101D7800010117B103D00201599302D0020159831E
:101D880018C15AF219C163F21AC164F21BC165F293
:101D98001CC166F201011DB103D002014B9102D0B2
:101DA80002014B8101011EB103D002014B9302D005
:101DB80002014B831FC14CF220C155F221C156F2DA
:101DC80022C157F223C158F26AD70101244B252BAF
:101DD800255104E1320E245DD8A008D0000E256FED
:101DE800000E246F050E58D0D26F23D7264B272B11
:101DF800275104E1140E265DD8A006D0000E276FE7
:101E0800000E266F030E48D029A113D72991010E81
:101E180043D0010EA36F830E856F020E866FD30E1B
:101E2800876F72EC15F00009D8A42ED0750E856F57
:101E3800020E866FD30E876F72EC15F00009D8A4D6
:101E480023D0670E856F020E866FD30E876F72ECF4
:101E580015F00009D8A418D0590E856F020E866FA8
:101E6800D30E876F72EC15F00009D8A40DD04B0E75
:101E7800856F020E866FD30E876F72EC15F000091E
:101E8800D8A402D0000EA36FA3B103D001015691CC
:101E980002D001015681020E0001A6D7D30E896F28
:101EA800B8EC26F00DD7D251A16FA26BA251000A4F
:101EB800D8A4BFD6A151000AD8B4EED6010AD8B426
:101EC80001D7030AD8B481D7010AD8B4A2D7070A20
:101ED800D8B4E4D7010AD8B4E2D6ABD69FC0D9FFAC
:101EE800A0C0DAFFDECFA1F0DDCFA2F0A251000A38
:101EF800D8A407D0A151000AD8B49BD6550AD8B4A3
:101F0800B6D69FC0D9FFA0C0DAFF000EDE6E000E65
:101F1800DD6E1200000E0001866F010E856F22EC47
:101F280028F00101016F000E0001866F020E856F17
:101F380022EC28F00101026F000E0001866F030EEB
:101F4800856F22EC28F00101036F000E0001866FF7
:101F5800040E856F22EC28F00101046F000E0001C9
:101F6800866F050E856F22EC28F00101056F000EC3
:101F78000001866F060E856F22EC28F00101066FBE
:101F8800000E0001866F070E856F22EC28F0010114
:101F9800076F000E0001866F080E856F22EC28F08F
:101FA8000101086F000E0001866F090E856F22EC93
:101FB80028F00101096F000E0001866F0A0E856F77
:101FC80022EC28F001010A6F000E0001866F0B0E4B
:101FD800856F22EC28F001010B6F000E0001866F5F
:101FE8000C0E856F22EC28F001010C6F000E000129
:101FF800866F0D0E856F22EC28F001010D6F000E23
:102008000001866F0E0E856F22EC28F001010E6F1D
:10201800000E0001866F0F0E856F22EC28F001017B
:102028000F6F000E0001866F100E856F22EC28F0EE
:102038000101106F000E0001866F110E856F22ECF2
:1020480028F00101116F000E0001866F120E856FD6
:1020580022EC28F00101126F000E0001866F130EAA
:10206800856F22EC28F00101136F000E0001866FC6
:10207800140E856F22EC28F00101146F000E000188
:10208800866F150E856F22EC28F00101156F000E82
:102098000001866F160E856F22EC28F00101166F7D
:1020A800000E0001866F170E856F22EC28F00101E3
:1020B800176F000E0001866F180E856F22EC28F04E
:1020C8000101186F000E0001866F190E856F22EC52
:1020D80028F00101196F000E0001866F1A0E856F36
:1020E80022EC28F001011A6F000E0001866F1B0E0A
:1020F800856F22EC28F001011B6F000E0001866F2E
:102108001C0E856F22EC28F001011C6F000E0001E7
:10211800866F1D0E856F22EC28F001011D6F000EE1
:102128000001866F1E0E856F22EC28F001011E6FDC
:10213800000E0001866F1F0E856F22EC28F001014A
:102148001F6F000E0001866F200E856F22EC28F0AD
:102158000101206F000E0001866F210E856F22ECB1
:1021680028F00101216F000E0001866F220E856F95
:1021780022EC28F00101226F000E0001866F230E69
:10218800856F22EC28F00101236F1200A4C0F3F13F
:10219800A5C0F4F1A6C0F5F1A7C0F6F1A8C0F7F103
:1021A800A9C0F8F1AAC0F9F1ABC0FAF10101FAAF80
:1021B80002D0010E01D0000EF16FF26BF151F21155
:1021C800D8B410D0FA1FF91FF81FF71FF61FF51F14
:1021D800F41FF36D000EF423F523F623F723F823F9
:1021E800F923FA230001C6AFC793C6BF05D0C6516D
:1021F80009E1C505D8B006D0000E0101EE6F010E49
:10220800ED6F04D0C5C0EDF1C6C0EEF1C3C0EFF16B
:10221800C4C0F0F10101F151F211D8A403D00001BA
:10222800C7A504D00101EF07D8A0F007000E0101EF
:10223800FC6F1F0EFB6F000E02014A6F80D0010178
:10224800FB07D8A0FC072B0EFB25D96E020EFC213C
:10225800DA6EF3C185F0F4C186F0F5C187F0F6C1F6
:1022680088F0F7C189F0F8C18AF0F9C18BF0FAC19A
:102278008CF00A0E00018D6F000E8E6F000E8F6FAE
:10228800000E906F000E916F000E926F000E936F0C
:10229800000E946F68EC1CF085C0ACF086C0ADF001
:1022A80087C0AEF088C0AFF089C0B0F08AC0B1F086
:1022B8008BC0B2F08CC0B3F0ACC097F0AEC098F051
:1022C80086EC26F09751300FDF6E0101ED07D8A09C
:1022D800EE07EF07D8A0F007F3C185F0F4C186F048
:1022E800F5C187F0F6C188F0F7C189F0F8C18AF026
:1022F800F9C18BF0FAC18CF00A0E00018D6F000E47
:102308008E6F000E8F6F000E906F000E916F000E93
:10231800926F000E936F000E946FE1EC16F085C07B
:10232800F3F186C0F4F187C0F5F188C0F6F189C0F1
:10233800F7F18AC0F8F18BC0F9F18CC0FAF101010C
:10234800FCBF20D0FC5103E1FB05D8A01BD0F35102
:10235800F411F511F611F711F811F911FA11D8A4C1
:102368006ED7EEBF05D0EE5102E1ED05D8B067D7C4
:10237800F0BF08D0F05103E1EF05D8A003D0000169
:10238800C7B35DD70101F151F211D8A403D0000100
:10239800C7A518D00101FB07D8A0FC07F151F2111D
:1023A800D8A404D0000EEC6F2B0E03D0000EEC6FF7
:1023B8002D0EEB6F2B0EFB25D96E020EFC21DA6E6B
:1023C800EBC1DFFFA2C097F0A3C098F02B0E01016C
:1023D800FB250001996F020E0101FC2100019A6F93
:1023E800EFC19BF0F0C19CF004EC23F097C0A2F081
:1023F80098C0A3F0120093C2D9FF94C2DAFFDECFCF
:10240800F6FFDDCFF7FF0800F550250AD8A402D162
:1024180093C2D9FF94C2DAFFDE2A000EDD22000E35
:102428000001C46F000EC36FC3C0C7F0C4C0C8F0BA
:10243800C569C66993C2D9FF94C2DAFFDECFF6FF39
:10244800DDCFF7FF0800F550640AD8B40DD093C269
:10245800D9FF94C2DAFFDECFF6FFDDCFF7FF080021
:10246800F550690AD8A440D093C2D9FF94C2DAFFC4
:10247800DE2A000EDD2295C2D9FF96C2DAFFDFCF31
:10248800B4F0020EDE26DFCFB5F0000EDD22B4C0B8
:10249800D9FFB5C0DAFFDECF97F2DDCF98F202019F
:1024A800000E98BFFF0E996F9A6F9B6F9C6F9D6F80
:1024B8009E6F91C2A2F092C2A3F097C2A4F098C2F4
:1024C800A5F099C2A6F09AC2A7F09BC2A8F09CC238
:1024D800A9F09DC2AAF09EC2ABF0CAEC10F0A2C04F
:1024E80091F2A3C092F2120093C2D9FF94C2DAFF0C
:1024F800DECFF6FFDDCFF7FF0800F550730AD8B43A
:1025080016D093C2D9FF94C2DAFFDECF85F0DDCFB3
:1025180086F0D80E876F7F0E886F000E8A6F030EC5
:10252800896F8EEC1EF085518611D8A442D093C2D3
:10253800D9FF94C2DAFFDECFF6FFDDCFF7FF080040
:10254800F550730AD8B405D0000E0201A26F030E2D
:1025580004D0000E0201A26F010EA16F93C2D9FF31
:1025680094C2DAFFA151DE26A251DD2295C2D9FF1D
:1025780096C2DAFFDFCFB4F0020EDE26DFCFB5F069
:10258800000EDD22B4C0D9FFB5C0DAFFDECF9FF25E
:10259800DDCFA0F291C290F092C291F09FC292F06A
:1025A800A0C293F03CEC1BF090C091F291C092F263
:1025B800120093C2D9FF94C2DAFFDECFF6FFDDCF57
:1025C800F7FF0800F550250AD8A417D093C2D9FF01
:1025D80094C2DAFFDE2A000EDD22000E886F250E77
:1025E800876F91C289F092C28AF0CBEC21F0000E7D
:1025F8000201926F010E916F120093C2D9FF94C22B
:10260800DAFFDE2A000EDD22000E0201926F000EB4
:10261800916F120093C2D9FF94C2DAFFDECFF6FFA2
:10262800DDCFF7FF0800F5500001876F886B91C276
:1026380089F092C28AF0CBEC21F093C2D9FF94C200
:10264800DAFFDE2A000EDD22D2D74AC0D9FF4BC0FE
:10265800DAFFDECFF6FFDDCFF7FF0800F550250AD9
:10266800D8A4FFD04AC0D9FF4BC0DAFFDE2A000E3B
:10267800DD22000E0001C46F000EC36FC3C0C7F097
:10268800C4C0C8F0C569C6694AC0D9FF4BC0DAFFE3
:10269800DECFF6FFDDCFF7FF0800F550640AD8B4A7
:1026A8000DD04AC0D9FF4BC0DAFFDECFF6FFDDCF31
:1026B800F7FF0800F550690AD8A43FD04AC0D9FFEF
:1026C8004BC0DAFFDE2A000EDD224CC0D9FF4DC018
:1026D800DAFFDFCF4EF0020EDE26DFCF4FF0000E1E
:1026E800DD224EC0D9FF4FC0DAFFDECF60F0DDCF6C
:1026F80061F0000E61BFFF0E626F636F646F656FFC
:10270800666F676F48C024F049C025F060C026F0A6
:1027180061C027F062C028F063C029F064C02AF0C5
:1027280065C02BF066C02CF067C02DF04FEC14F09C
:1027380024C048F025C049F012004AC0D9FF4BC058
:10274800DAFFDECFF6FFDDCFF7FF0800F550730A9A
:10275800D8B416D04AC0D9FF4BC0DAFFDECF07F095
:10276800DDCF08F0D80E096E7F0E0A6E000E0C6ED3
:10277800030E0B6E04EC1FF007500810D8A442D0CB
:102788004AC0D9FF4BC0DAFFDECFF6FFDDCFF7FF37
:102798000800F550730AD8B405D0000E00016B6F1D
:1027A800030E04D0000E00016B6F010E6A6F4AC061
:1027B800D9FF4BC0DAFF6A51DE266B51DD224CC0CF
:1027C800D9FF4DC0DAFFDFCF4EF0020EDE26DFCF95
:1027D8004FF0000EDD224EC0D9FF4FC0DAFFDECF2A
:1027E80068F0DDCF69F048C012F049C013F068C046
:1027F80014F069C015F0D3EC1BF012C048F013C0F8
:1028080049F012004AC0D9FF4BC0DAFFDECFF6FF0D
:10281800DDCFF7FF0800F550250AD8A416D04AC026
:10282800D9FF4BC0DAFFDE2A000EDD22000E0A6E49
:10283800250E096E48C00BF049C00CF01BEC22F0C5
:10284800000E496E010E486E12004AC0D9FF4BC0F7
:10285800DAFFDE2A000EDD22000E496E000E486EF9
:1028680012004AC0D9FF4BC0DAFFDECFF6FFDDCF3A
:10287800F7FF0800F550096E0A6A48C00BF049C016
:102888000CF01BEC22F04AC0D9FF4BC0DAFFDE2A5D
:10289800000EDD22D5D726C03EF027C03FF028C065
:1028A80040F029C041F02AC042F02BC043F02CC0B0
:1028B80044F02DC045F045AE02D0010E01D0000E07
:1028C8003C6E3D6A3C503D10D8B410D0451E441EA5
:1028D800431E421E411E401E3F1E3E6C000E3F22FC
:1028E800402241224222432244224522C6AFC793B6
:1028F800C6BF05D0C65108E1C505D8B005D0000E41
:10290800396E010E386E04D0C5C038F0C6C039F033
:10291800C3C03AF0C4C03BF03C503D10D8A402D02C
:10292800C7A503D03A06D8A03B06000E476E1F0E77
:10293800466E000E02014A6F7CD04606D8A04706B4
:102948002B0E4624D96E020E4720DA6E3EC007F0E1
:102958003FC008F040C009F041C00AF042C00BF087
:1029680043C00CF044C00DF045C00EF00A0E0F6EC7
:10297800000E106E000E116E000E126E000E136E19
:10298800000E146E000E156E000E166EFAEC1CF09A
:1029980007C02EF008C02FF009C030F00AC031F08F
:1029A8000BC032F00CC033F00DC034F00EC035F05F
:1029B8002EC019F030C01AF0D1EC26F01950300FA3
:1029C800DF6E3806D8A039063A06D8A03B063EC0C6
:1029D80007F03FC008F040C009F041C00AF042C00B
:1029E8000BF043C00CF044C00DF045C00EF00A0EC9
:1029F8000F6E000E106E000E116E000E126E000E9D
:102A0800136E000E146E000E156E000E166E85EC19
:102A180017F007C03EF008C03FF009C040F00AC0F8
:102A280041F00BC042F00CC043F00DC044F00EC0A2
:102A380045F047BE20D0475003E14604D8A01BD03C
:102A48003E503F10401041104210431044104510B2
:102A5800D8A473D739BE05D0395002E13804D8B0AC
:102A68006CD73BBE08D03B5003E13A04D8A003D052
:102A78000001C7B362D73C503D10D8A403D0000171
:102A8800C7A517D04606D8A047063C503D10D8A485
:102A980004D0000E376E2B0E03D0000E376E2D0EAD
:102AA800366E2B0E4624D96E020E4720DA6E36C0DB
:102AB800DFFF24C019F025C01AF02B0E46241B6E28
:102AC800020E47201C6E3AC01DF03BC01EF06BEC96
:102AD80022F019C024F01AC025F0120085C0D9FFD1
:102AE80086C0DAFFDFB002D0000E120020EE01F03F
:102AF8008551D9268651DA22080EDE18D8B437D087
:102B080020EE01F08551D9268651DA22090EDE1809
:102B1800D8A411D08751D96EDA6A060ED926DF50AB
:102B2800D8B4E2D78751D96EDA6A060ED926050ECF
:102B3800DF641DD0D9D720EE01F08551D926865102
:102B4800DA220A0EDE18D8A4CFD78751D96EDA6AEE
:102B5800060ED926060EDE18D8B409D08751D96ECC
:102B6800DA6A060ED926070EDE18D8A4BDD7875113
:102B7800D96EDA6A010ED926DF50886F8751D96E6F
:102B8800DA6A020ED926DF50896F89513C0DF3CFDE
:102B98008AF0F4CF8BF088518A258C6F000E8B2138
:102BA8008D6F20EE0BF08551D9268651DA22DF5041
:102BB800886F20EE0AF08551D9268651DA22DF5037
:102BC800896F89513C0DF3CF8AF0F4CF8BF088518F
:102BD8008A258E6F000E8B218F6F20EE0DF08551A8
:102BE800D9268651DA22DF50886F20EE0CF0855105
:102BF800D9268651DA22DF50896F89513C0DF3CFEF
:102C08008AF0F4CF8BF088518A25906F000E8B21C3
:102C1800916F90518E5D91518F59D8B00ED08E51D1
:102C28008C5D8F518D59D8A05FD790518C5D915193
:102C38008D59D8B059D7010E12008E51905D8F5121
:102C48009159D8B051D78E518C5D8F518D59D8B0CC
:102C5800F2D790518C5D91518D59D8A0ECD744D7BB
:102C680090D00A0EECEC27F00001852501013A6F9F
:102C7800000E0001862101013B6F000E0001872133
:102C880001013C6F000E0001882101013D6F89C0E0
:102C9800D9FF8AC0DAFF190EDE6E000EDD6EECEC8D
:102CA80027F001013A510001855D01013B51000106
:102CB800865901013C510001875901013D5100012C
:102CC8008859D8A0120045D0CF05D8A403D08B824C
:102CD800010E1ED0020ECF19D8A404D0CD078B82C6
:102CE800020E16D0030ECF19D8A403D08B82030E80
:102CF8000FD0000ECF6F000ECE6F000E506E8B926D
:102D0800B0D7CE2B040ECE65ACD7000ECE6F0BD04D
:102D1800D06FA7D7CE2B040ECE65A3D7000ECE6FEB
:102D2800CD51D8A40CD08B92000ECF6F10D0040ECA
:102D3800EFD7CE2B040ECE6594D7000ECE6F8B92B4
:102D4800F6D7CE2B040ECE658CD7000ECE6F000EB4
:102D5800DFD7D0518B6F8C6B8C51000AD8A481D7E8
:102D68008B51000AD8B4B0D7010AD8B4CAD7030A1D
:102D7800D8B4D0D7010AD8B4DCD7070AD8B4E1D779
:102D880070D789C0D9FF8AC0DAFFDECF8BF0DDCFDC
:102D98008CF08C51000AD8A407D08B51000AD8B403
:102DA80060D7190AD8B47BD789C0D9FF8AC0DAFF9F
:102DB800000EDE6E000EDD6E1200000E966F94AFF0
:102DC80012D0941F931F921F911F901F8F1F8E1F49
:102DD8008D6D000E8E238F239023912392239323AE
:102DE8009423010E966F8CAF12D08C1F8B1F8A1FF5
:102DF800891F881F871F861F856D000E86238723DE
:102E0800882389238A238B238C23010E961B20EE8B
:102E180097F0070EDE6AE806FDE28D518E118F11DC
:102E280090119111921193119411D8B446D0010EBA
:102E3800956F0AD0D8908D378E378F379037913766
:102E4800923793379437952B94AFF4D7D890973718
:102E5800983799379A379B379C379D379E378D51CE
:102E6800855D8E5186598F51875990518859915156
:102E7800895992518A5993518B5994518C59D8A098
:102E880011D08D51855F8E51865B8F51875B905134
:102E9800885B9151895B92518A5B93518B5B94510A
:102EA8008C5B9781D89094339333923391339033DA
:102EB8008F338E338D33952FC9D79651D8B410D010
:102EC8009E1F9D1F9C1F9B1F9A1F991F981F976DE0
:102ED800000E982399239A239B239C239D239E23AA
:102EE80097C085F098C086F099C087F09AC088F09E
:102EF8009BC089F09CC08AF09DC08BF09EC08CF06E
:102F08001200000E186E16AE12D0161E151E141ED4
:102F1800131E121E111E101E0F6C000E10221122FD
:102F280012221322142215221622010E186E0EAE3A
:102F380012D00E1E0D1E0C1E0B1E0A1E091E081E88
:102F4800076C000E082209220A220B220C220D22ED
:102F58000E22010E181A20EE19F0070EDE6AE80696
:102F6800FDE20F501010111012101310141015104C
:102F78001610D8B446D0010E176E0AD0D8900F3666
:102F88001036113612361336143615361636172AF9
:102F980016AEF4D7D89019361A361B361C361D369D
:102FA8001E361F3620360F50075C10500858115037
:102FB800095812500A5813500B5814500C581550F1
:102FC8000D5816500E58D8A011D00F50075E10504B
:102FD800085A1150095A12500A5A13500B5A1450D1
:102FE8000C5A15500D5A16500E5A1980D890163290
:102FF8001532143213321232113210320F32172EA8
:10300800C9D71850D8B410D0201E1F1E1E1E1D1E52
:103018001C1E1B1E1A1E196C000E1A221B221C22B3
:103028001D221E221F22202219C007F01AC008F0F4
:103038001BC009F01CC00AF01DC00BF01EC00CF02C
:103048001FC00DF020C00EF01200000EA16F000E80
:10305800A26F000EA36F96519711D8B41200985121
:103068009911D8B412009A519B11D8B412009C51EE
:103078009D11D8B412009E519F11D8B4120096C069
:1030880085F097C086F07AEC25F0865104E1080EA9
:10309800855DD8A01200A40E896F8A6B000E8C6F14
:1030A800000E8B6F000E8E6F040E8D6FA3EC1AF05E
:1030B80096C0D9FF97C0DAFFDF50A46F964B972BC5
:1030C80096C0D9FF97C0DAFFDF50A56F964B972BB4
:1030D800A40E8C6F8D6B8CEC1DF08C51A06F96C07C
:1030E800D9FF97C0DAFFDF50A46F964B972B96C095
:1030F800D9FF97C0DAFFDF50A56F964B972BA40E28
:103108008C6F8D6B8CEC1DF08C51A16F96C0D9FF24
:1031180097C0DAFFDF50A46F964B972B96C0D9FF64
:1031280097C0DAFFDF50A56F964B972BA40E8C6FD4
:103138008D6B8CEC1DF08C51A26F964B972B96C023
:10314800D9FF97C0DAFFDF50A46F000EA56FA40E59
:103158008C6F8D6B8CEC1DF08C51A36F98C0D9FFD0
:1031680099C0DAFFA0C0DFFF9AC0D9FF9BC0DAFF81
:10317800A1C0DFFF9CC0D9FF9DC0DAFFA2C0DFFF5E
:103188009EC0D9FF9FC0DAFFA3C0DFFF1200926F75
:1031980000019251D8A48DAF1AD08AC08EF08BC08E
:1031A8008FF08CC090F08DC091F08E1F8F1F901FF4
:1031B800911F8E2B000E8F23902391238EC094F0A5
:1031C8008FC095F090C096F091C097F008D08AC053
:1031D80094F08BC095F08CC096F08DC097F08A5112
:1031E8008B118C118D11D8A409D0000E8A6F000E96
:1031F8008B6F000E8C6F000E8D6F1200960E936F02
:1032080006D0932BD8909733963395339433000E8A
:1032180094158E6F000E95158F6F000E9615906F92
:10322800FE0E9715916F8E518F1190119111D8B490
:103238000DD0E7D7932B010E9427000E95239623E4
:103248009723D8909733963395339433000E94157B
:103258008E6F000E95158F6F000E9615906FFF0EEE
:103268009715916F8E518F1190119111D8B407D085
:10327800E1D79307D890943795379637973796BF05
:1032880003D0020E9361F5D793A1969FD8909333FC
:1032980093C08EF08F6B906B916B8EC091F0906B9A
:1032A8008F6B8E6B8E5194138F519513905196138B
:1032B800915197139251D8A48DAF01D0978F94C094
:1032C8008AF095C08BF096C08CF097C08DF01200F4
:1032D8007FD00A0EECEC27F0000185250101466F2E
:1032E800000E000186210101476F000E00018721B1
:1032F8000101486F000E000188210101496F89C052
:10330800D9FF8AC0DAFF290EDE6E000EDD6EECEC06
:1033180027F0010146510001855D01014751000177
:10332800865901014851000187590101495100019D
:103338008859D8A012003AD0899001014EA1C9D766
:10334800010E000131D0CA51D8A404D0010ECA6FB1
:103358008990BFD701014C4B4D2B4D5104E1050E0F
:103368004C5DD8A0B6D7000E4D6F000E4C6F000E06
:103378000001CA6F020E18D0CA51D8A404D0010E99
:10338800CA6F8980A6D701014C4B4D2B4D5104E1E2
:10339800C30E4C5DD8A09DD7000E4D6F000E4C6F2C
:1033A800000E0001CA6F010ECB6F93D7CB518B6F04
:1033B8008C6B8C51000AD8A48CD78B51000AD8B4D6
:1033C800BBD7010AD8B4BFD7030AD8B4D5D781D799
:1033D80089C0D9FF8AC0DAFFDECF8BF0DDCF8CF051
:1033E8008C51000AD8A407D08B51000AD8B471D7E1
:1033F800290AD8B48CD789C0D9FF8AC0DAFF000E51
:10340800DE6E000EDD6E12007ED00A0EECEC27F0A8
:10341800000185250101326F000E0001862101019E
:10342800336F000E000187210101346F000E000187
:1034380088210101356F89C0D9FF8AC0DAFF210EC2
:10344800DE6E000EDD6EECEC27F00101325100015A
:10345800855D010133510001865901013451000194
:1034680087590101355100018859D8A0120036D07A
:1034780001014EA1CAD7010E2ED001012C51D8B49A
:1034880006D08B84000E2B6F000E2A6F23D08B94EE
:10349800BCD701012A4B2B2B2B5104E1320E2A5D9C
:1034A800D8A0B3D7000E2B6F000E2A6F8B94030E93
:1034B80012D001012A4B2B2B2B5104E1320E2A5D2D
:1034C800D8A0A3D7000E2B6F000E2A6F2C51D8B4AA
:1034D800D2D78B84020E0001CC6F97D7CC518B6F5B
:1034E8008C6B8C51000AD8A490D78B51000AD8B4A1
:1034F800BFD7010AD8B4C1D7030AD8B4CAD7010ABA
:10350800D8B4D7D782D789C0D9FF8AC0DAFFDECF2F
:103518008BF0DDCF8CF08C51000AD8A407D08B51EA
:10352800000AD8B472D7210AD8B48DD789C0D9FF78
:103538008AC0DAFF000EDE6E000EDD6E120089C052
:1035480093F08AC094F08D518E11D8B4120093C0B4
:10355800D9FF94C0DAFF8BC0DFFF8D5193258F6FA1
:103568008E519421906FFF0E8F25D96EFF0E9021FA
:10357800DA6E8BC0DFFF8E5104E1030E8D5DD8A09B
:10358800120020EE01F09351D9269451DA228BC013
:10359800DFFF20EE02F09351D9269451DA228BC036
:1035A800DFFF8D5193258F6F8E519421906FFE0E02
:1035B8008F25D96EFF0E9021DA6E8BC0DFFF8D51FB
:1035C80093258F6F8E519421906FFD0E8F25D96EA4
:1035D800FF0E9021DA6E8BC0DFFF8E5104E1070EDB
:1035E8008D5DD8A0120020EE03F09351D926945196
:1035F800DA228BC0DFFF8D5193258F6F8E51942176
:10360800906FFC0E8F25D96EFF0E9021DA6E8BC05D
:10361800DFFF8E5104E1090E8D5DD8A0120093C022
:103628008FF094C090F08F1F901F8F4B902B030E3C
:103638008F15916F926B91519327925194239151C9
:103648008D5F92518E5BFC0E8D17FF0E8E170BD07F
:1036580093C0D9FF94C0DAFF8BC0DFFF8D07D8A0D5
:103668008E07934B942B8D518E11D8B41200F0D73E
:1036780022EED7F010EE95F0060EDBCFE3FFE8065A
:10368800FCE292C0A0F093C0A1F00001A051A111EA
:10369800D8A403D0950EA06FA16BA0C085F0A1C0DF
:1036A80086F07AEC25F085C0A4F086C0A5F0C5C0E8
:1036B800A2F0C6C0A3F0A3BF0ED0A451A25DA3512F
:1036C800800A946FA551800A9459D8B004D0A2C03A
:1036D800A4F0A3C0A5F0A4C0A2F0A5C0A3F0C3C0E5
:1036E8009EF0C4C09FF0C7A10ED017D0000E886FFF
:1036F800200E876F90C089F091C08AF0CBEC21F042
:103708000001A44BA52B9E51A45DA551800A946F7E
:103718009F51800A9459D8A0E9D7000E9D6F000EDA
:103728009C6F14D0A0C0D9FFA1C0DAFFDF50946FFE
:103738009451876F886B90C089F091C08AF0CBEC68
:1037480021F00001A04BA12B9C4B9D2BA2519C5D0D
:103758009D51800A946FA351800A9459D8A0E2D74A
:10376800C7B10ED017D0000E886F200E876F90C09B
:1037780089F091C08AF0CBEC21F00001A44BA52B75
:103788009E51A45DA551800A946F9F51800A945957
:10379800D8A0E9D7A4C090F0A5C091F0120022EEFD
:1037A800D7F010EE17F0060EDBCFE3FFE806FCE2D9
:1037B80014C022F015C023F022502310D8A403D03F
:1037C800170E226E236A22C007F023C008F09DEC72
:1037D80025F007C026F008C027F0C5C024F0C6C0F1
:1037E80025F025BE0ED02650245C2550800A166E82
:1037F8002750800A1658D8B004D024C026F025C017
:1038080027F026C024F027C025F0C3C020F0C4C08C
:1038180021F00001C7A10DD016D0000E0A6E200EAF
:10382800096E12C00BF013C00CF01BEC22F0264AF4
:10383800272A2050265C2750800A166E2150800ABD
:103848001658D8A0EAD7000E1F6E000E1E6E13D0B1
:1038580022C0D9FF23C0DAFFDF50166E1650096E5A
:103868000A6A12C00BF013C00CF01BEC22F0224ABB
:10387800232A1E4A1F2A24501E5C1F50800A166ED7
:103888002550800A1658D8A0E3D70001C7B10DD03B
:1038980016D0000E0A6E200E096E12C00BF013C06F
:1038A8000CF01BEC22F0264A272A2050265C2750D1
:1038B800800A166E2150800A1658D8A0EAD726C06A
:1038C80012F027C013F01200000E966F8CAF12D0C2
:1038D8008C1F8B1F8A1F891F881F871F861F856D56
:1038E800000E86238723882389238A238B238C230E
:1038F800010E966F94AF10D0941F931F921F911FC3
:10390800901F8F1F8E1F8D6D000E8E238F23902387
:1039180091239223932394238D518E118F1190110B
:103928009111921193119411D8B43CD0010E956F56
:103938000AD0D8908D378E378F3790379137923796
:1039480093379437952B94AFF4D78D51855D8E516D
:1039580086598F5187599051885991518959925157
:103968008A5993518B5994518C59D8A010D08D51A4
:10397800855F8E51865B8F51875B9051885B915133
:10398800895B92518A5B93518B5B94518C5BD89085
:10399800943393339233913390338F338E338D3303
:1039A800952FD3D79651D8B410D08C1F8B1F8A1F50
:1039B800891F881F871F861F856D000E8623872312
:1039C800882389238A238B238C2385C085F086C08E
:1039D80086F087C087F088C088F089C089F08AC0DF
:1039E8008AF08BC08BF08CC08CF01200000E186E21
:1039F8000EAE12D00E1E0D1E0C1E0B1E0A1E091E28
:103A0800081E076C000E082209220A220B220C222B
:103A18000D220E22010E186E16AE10D0161E151E9F
:103A2800141E131E121E111E101E0F6C000E1022E3
:103A38001122122213221422152216220F501010BE
:103A4800111012101310141015101610D8B43CD001
:103A5800010E176E0AD0D8900F361036113612366E
:103A68001336143615361636172A16AEF4D70F50F5
:103A7800075C105008581150095812500A58135032
:103A88000B5814500C5815500D5816500E58D8A0F5
:103A980010D00F50075E1050085A1150095A125092
:103AA8000A5A13500B5A14500C5A15500D5A1650E6
:103AB8000E5AD8901632153214321332123211328D
:103AC80010320F32172ED3D71850D8B410D00E1E7C
:103AD8000D1E0C1E0B1E0A1E091E081E076C000E6A
:103AE800082209220A220B220C220D220E2207C0CC
:103AF80007F008C008F009C009F00AC00AF00BC0B6
:103B08000BF00CC00CF00DC00DF00EC00EF0120042
:103B1800000E956F000E946F000E936F000E926F5B
:103B280002D08C4B8D2B8CC0D9FF8DC0DAFF200EB4
:103B3800DE18D8B4F6D7F70E8E6FFF0E8F6F8CC0D5
:103B4800D9FF8DC0DAFFDF50906F916B8E519027AF
:103B58008F51912391510CE1050E905DD8B008D09A
:103B6800E0D7000E936F010E926F8C4B8D2B2ED0E9
:103B78008CC0D9FF8DC0DAFFDF508E6F8F6B8F51ED
:103B8800000AD8A423D08E512B0AD8B4EED7060A3F
:103B9800D8B4E7D71BD094C085F095C086F0000E46
:103BA800886F0A0E876F3FEC27F08CC0D9FF8DC055
:103BB800DAFFDF508E6F8E51855F000E865B300E08
:103BC8008525946F000E8621956FCFD7D00E8E6F06
:103BD800FF0E8F6F8CC0D9FF8DC0DAFFDF50906F5A
:103BE800916B8E5190278F519123915104E10A0EC8
:103BF800905DD8A0D0D792519311D8A40DD094C07D
:103C08008EF095C08FF08E1F8F1F8E4B8F2B8EC01E
:103C18008CF08FC08DF0120094C08CF095C08DF0A0
:103C28001200000EAF6F98519911D8B4120098C0C5
:103C3800D9FF99C0DAFF000EDF6E96519711D8B4FC
:103C480012009A519B11D8B412009C519D11D8B4FE
:103C580012009F0E896F8A6B000E8C6F000E8B6F9F
:103C6800000E8E6F100E8D6FA3EC1AF096C090F0B8
:103C780097C091F09AC092F09BC093F050EC23F05B
:103C880090C0B0F091C0B1F0B051B111D8B41200E9
:103C98009AC085F09BC086F07AEC25F08551B02556
:103CA800B06F8651B121B16F0DD0B0C0D9FFB1C08E
:103CB800DAFFAF519F0FE16EE26ADFCFE7FFB04B4B
:103CC800B12BAF2BB0C0D9FFB1C0DAFFDF50D8B4E9
:103CD80012D0B0C0D9FFB1C0DAFFDF509E6F9CC0D0
:103CE800F6FF9DC0F7FF0800F5509E19D8B403D021
:103CF8000E0EAF65DAD7AF519F0FD96EDA6A000E94
:103D0800DF6E98C085F099C086F09F0E876FEAEC49
:103D180026F0120085C08CF086C08DF087C08EF02A
:103D280088C08FF08907D8A08A07892910E18A29D5
:103D3800D8A40DD0000E866F000E856F120000010A
:103D48008C4B8D2B8E4B8F2B8907D8A08A078CC064
:103D5800F6FF8DC0F7FFF86A070EF76403D0080076
:103D6800F55005D0F6CFE1FFF7CFE2FFE7500009A5
:103D7800D8B428D08EC0F6FF8FC0F7FF0800F550E2
:103D88000009D8B41FD0000189518A11D8B41AD0BB
:103D98008EC0F6FF8FC0F7FF0800F5CF8BF08CC000
:103DA800F6FF8DC0F7FFF86A070EF76403D0080026
:103DB800F55005D0F6CFE1FFF7CFE2FFE7508B19BA
:103DC800D8B4BDD78CC0F6FF8DC0F7FFF86A070ED0
:103DD800F76403D00800F55005D0F6CFE1FFF7CF20
:103DE800E2FFE75000018B6F8EC0F6FF8FC0F7FF30
:103DF8000800F5508B5D856F866BD8A0860712008A
:103E080007C00EF008C00FF009C010F00AC011F08A
:103E18000B06D8A00C060B280FE10C28D8A40CD050
:103E2800000E086E000E076E12000E4A0F2A104A86
:103E3800112A0B06D8A00C060EC0F6FF0FC0F7FF1C
:103E4800F86A070EF76403D00800F55005D0F6CFDE
:103E5800E1FFF7CFE2FFE7500009D8B427D010C040
:103E6800F6FF11C0F7FF0800F5500009D8B41ED0BE
:103E78000B500C10D8B41AD010C0F6FF11C0F7FFC1
:103E88000800F5CF0DF00EC0F6FF0FC0F7FFF86A77
:103E9800070EF76403D00800F55005D0F6CFE1FF10
:103EA800F7CFE2FFE7500D18D8B4BFD70EC0F6FF22
:103EB8000FC0F7FFF86A070EF76403D00800F55043
:103EC80005D0F6CFE1FFF7CFE2FFE7500D6E10C047
:103ED800F6FF11C0F7FF0800F5500D5C076E086A81
:103EE800D8A0080612000600E1CF02F0E2CF03F0E6
:103EF800D9CF04F0DACF05F0F2A44DD0FF0ED76E7B
:103F0800EC0ED66EF294010E01012E27000E2F231F
:103F1800302331233151301106E1600E2E5DEA0E57
:103F28002F59D8A038D0000E2E6F000E2F6F000E1C
:103F3800306F000E316F000E466F000E476F000E97
:103F4800486F000E496F000E426F000E436F000E5F
:103F5800446F000E456F000E3E6F000E3F6F000E5F
:103F6800406F000E416F000E3A6F000E3B6F000E5F
:103F78003C6F000E3D6F000E366F000E376F000E5F
:103F8800386F000E396F000E326F000E336F000E5F
:103F9800346F000E356F9EAA0ED0CEEC27F0066E59
:103FA800060E016E2BEC27F002010081000E0101C4
:103FB800C46F000EC36F05C0DAFF04C0D9FF03C089
:103FC800E2FF02C0E1FF58921100000EA86F96515F
:103FD8009711D8B408D098519911D8B404D09A51EF
:103FE8009B11D8A402D0000E12009D0E896F8A6B17
:103FF800000E8C6F000E8B6F000E8E6F0A0E8D6F89
:10400800A3EC1AF096C090F097C091F098C092F087
:1040180099C093F050EC23F090C0A9F091C0AAF099
:10402800A951AA11D8B4DFD798C085F099C086F0F5
:104038007AEC25F08551A925A96F8651AA21AA6F86
:104048000DD0A9C0D9FFAAC0DAFFA8519D0FE16E13
:10405800E26ADFCFE7FFA94BAA2BA82BA9C0D9FF9B
:10406800AAC0DAFFDF50D8B412D0A9C0D9FFAAC0BD
:10407800DAFFDF509C6F9AC0F6FF9BC0F7FF08007D
:10408800F5509C19D8B403D0080EA865DAD79D0E50
:104098008C6F8D6B8CEC1DF08C51A76FA7511200A3
:1040A8000201973598350001C26FC251D8A40AD0D1
:1040B800000E0201956F000E966F000E976F000EAE
:1040C800986F120095C299F296C29AF297C29BF223
:1040D80098C29CF2200E06D00201D8909C339B33E4
:1040E8009A339933E82EF8D799510001C16F02012C
:1040F800978FFF0E9517FF0E9617FF0E9717000E56
:104108009817960E0001C25FC2AF0FD0C251800A45
:10411800970FD8A0CDD70201D8909833973396330C
:1041280095330001C23FF7D70FD01F0EC26509D0E3
:10413800BFD70201D890953796379737983700013F
:10414800C207C251D8A4F5D7C151D8B409D00201C9
:10415800981F971F961F956D000E962397239823F7
:1041680095C295F296C296F297C297F298C298F2C3
:104178001200000E9D6F96519711D8B412009851F5
:104188009911D8B412009A519B11D8B4120096C054
:1041980085F097C086F07AEC25F0865104E1040E8C
:1041A800855DD8A012009E0E896F8A6B000E8C6FF9
:1041B800000E8B6F000E8E6F040E8D6FA3EC1AF03D
:1041C80096C0D9FF97C0DAFFDF509E6F964B972BAA
:1041D80096C0D9FF97C0DAFFDF509F6F964B972B99
:1041E8009E0E8C6F8D6B8CEC1DF08C519C6F96C065
:1041F800D9FF97C0DAFFDF509E6F964B972B96C07A
:10420800D9FF97C0DAFFDF509F6F9E0E8C6F8D6BC2
:104218008CEC1DF08C519D6F98C0D9FF99C0DAFFC6
:104228009CC0DFFF9AC0D9FF9BC0DAFF9DC0DFFFAB
:10423800120093809382C78EC68AC650F00B080975
:10424800C66E000E0101FC6F000EFD6F800EFE6F42
:10425800BF0EFF6F000E00019C6F000E9D6F800E59
:104268009E6F400E9F6F9DC28AF09EC28BF09FC2C8
:104278008CF0A0C28DF0000ECBEC18F08AC098F03C
:104288008BC099F08CC09AF08DC09BF061EC09F05E
:1042980098C0B5F099C0B6F09AC0B7F09BC0B8F016
:1042A800800EB16F960EB26F980EB36F4B0EB46F4F
:1042B8008BEC0CF0B1C0F8F1B2C0F9F1B3C0FAF16F
:1042C800B4C0FBF182EC07F0F8C195F2F9C196F29F
:1042D800FAC197F2FBC198F254EC20F00201955113
:1042E800C86E000EC56E1200870EF66E7E0EF76E53
:1042F80020EE90F0060E0900F5CFDEFFE806FBE29F
:10430800000E9E6F80EC28F0D00E4EEC28F09E51E7
:10431800900FD96EDA6ADF504EEC28F084EC28F062
:10432800D10E4EEC28F09E51970FD96EDA6A000E26
:1043380019EC26F0AAEC27F0DF6E7CEC28F09E2B17
:10434800060E9E65DFD78951D96EDA6A99C0DFFFFC
:104358008A51D96EDA6A98C0DFFF8B51D96EDA6A52
:1043680097C0DFFF8C51D96EDA6A9AC0DFFF8D5192
:10437800D96EDA6A9BC0DFFF8E51D96EDA6A9CC0AB
:10438800DFFF8F51D96EDA6A9DC0DFFF12008951B5
:104398008A11D8B404D089518A11D8A404D087517D
:1043A80036EC28F0120020EE09F08951D9268A51FE
:1043B800DA22DE50DE10D8B416D020EE09F089518A
:1043C800D9268A51DA2210EE03F08951E1268A5162
:1043D800E222DE50E65CE650800A8F6FDE50800AEB
:1043E8008F59D8B0120020EE03F08951D9268A518E
:1043F800DA22DECF8BF0DDCF8CF089C0D9FF8AC0FE
:10440800DAFFDECF8DF0DDCF8EF08B518D25D96EA2
:104418008C518E21DA6E87C0DFFF20EE03F08951C0
:10442800D9268A51DA22DE2A000EDD2212000B502C
:104438000C10D8B404D00B500C10D8A404D00950D8
:1044480073EC28F0120020EE09F00B50D9260C501E
:10445800DA22DE50DE10D8B416D020EE09F00B5068
:10446800D9260C50DA2210EE03F00B50E1260C503E
:10447800E222DE50E65CE650800A116EDE50800AC9
:104488001158D8B0120020EE03F00B50D9260C506A
:10449800DA22DECF0DF0DDCF0EF00BC0D9FF0CC055
:1044A800DAFFDECF0FF0DDCF10F00D500F24D96EFC
:1044B8000E501020DA6E09C0DFFF20EE03F00B501B
:1044C800D9260C50DA22DE2A000EDD221200000165
:1044D800C7A10AD01BC012F01CC013F019C014F0F9
:1044E8001AC015F035EC26F01EBE05D01DC022F00E
:1044F8001EC023F004D0000E236E000E226E000EA4
:10450800216E000E206E0CD0000E0A6E200E096E71
:1045180019C00BF01AC00CF01BEC22F0204A212A1B
:104528002250205C2150800A1F6E2350800A1F5899
:10453800D8A0EAD70001C7B10AD01BC012F01CC02E
:1045480013F019C014F01AC015F035EC26F01BC092
:1045580007F01CC008F09DEC25F022500724196EC6
:10456800235008201A6E120095519611D8B41200E3
:10457800910E896F020E8A6F000E8C6F000E8B6F82
:10458800000E8E6F2D0E8D6FA3EC1AF0910E856FB5
:10459800020E866F95C087F096C088F0000E8A6F6D
:1045A8002C0E896FE1EC23F0910E856F020E866F59
:1045B8007AEC25F085C0BEF286C0BFF2000E02017B
:1045C800C16F000EC06F0ED0910E0201C025D96ECA
:1045D800020EC121DA6EDF50AD6EACA2FED7020129
:1045E800C04BC12BBE51C05DC151800A0001976FFD
:1045F8000201BF51800A00019759D8B01200E4D7D0
:10460800C7A10AD099C090F09AC091F097C092F0D3
:1046180098C093F0FCEC25F09CBF05D09BC0A0F09F
:104628009CC0A1F004D0000EA16F000EA06F000E78
:104638009F6F000E9E6F0DD0000E886F200E876F43
:1046480097C089F098C08AF0CBEC21F000019E4B0E
:104658009F2BA0519E5D9F51800A9D6FA151800A9A
:104668009D59D8A0E9D7C7B10AD099C090F09AC08F
:1046780091F097C092F098C093F0FCEC25F099C0A7
:1046880085F09AC086F07AEC25F0A0518525976FC1
:10469800A1518621986F120092519311D8B441D03C
:1046A80092C085F093C086F07AEC25F085C094F02E
:1046B80086C095F02BD090C085F091C086F092C04E
:1046C80087F093C088F094C089F095C08AF08EEC8A
:1046D8001EF085518611D8A405D090C090F091C0E5
:1046E80091F01200010E9025856F000E9121866FC2
:1046F80092C0F6FF93C0F7FF0800F550876F886BEC
:1047080051EC26F085C090F086C091F0905191113F
:10471800D8B407D090C0D9FF91C0DAFFDF50D8A431
:10472800CAD7000E906F000E916F12000001986FAB
:10473800800EF66E7E0EF76E20EE91F0060E0900E2
:10474800F5CFDEFFE806FBE2790EF66E7E0EF76E19
:1047580020EE99F0060E0900F5CFDEFFE806FBE231
:1047680098C099F08BC09AF08CC09BF08DC09CF0DB
:104778008EC09DF08FC09EF090C09FF0000E00018B
:10478800A06F80EC28F0D00E4EEC28F0A051910FCD
:10479800D96EDA6ADF504EEC28F0A051990FD96E25
:1047A800DA6ADF5077EC27F04EEC28F07CEC28F042
:1047B800A02B060EA065E5D7120085C08DF086C037
:1047C8008EF023D08907D8A08A0787518B6F88512C
:1047D8008C6F874B882B8BC0F6FF8CC0F7FFF86A6D
:1047E8008DC0D9FF8EC0DAFF8D4B8E2B070EF76474
:1047F80003D00800F55005D0F6CFE1FFF7CFE2FF70
:10480800E750DF6EDF50D8B40ED0000189518A110D
:10481800D8B409D0D7D78DC0D9FF8EC0DAFF000E23
:10482800DF6E8D4B8E2B00018907D8A08A07892956
:10483800F2E18A29D8B41200EED7C6C289F0C7C2FD
:104848008AF0000E00018C6F000E8B6FC6C285F0D7
:10485800C7C286F07AEC25F085C08DF086C08EF050
:10486800A3EC1AF0080E0201C819D8A40BD0C6C2CE
:10487800A9F2C7C2AAF2E00EAB6F7F0EAC6F52EC82
:1048880025F01200090EC819D8A40BD0C6C2A9F287
:10489800C7C2AAF2EA0EAB6F7F0EAC6F52EC25F0DE
:1048A8001200C6C2A9F2C7C2AAF2E40EAB6F7F0E0D
:1048B800AC6F52EC25F012000F0EC16EC2EC27F05F
:1048C800800E0001856F250E866F000E876F000E23
:1048D800886FB6EC27F088EC27F078EC28F0A00E6B
:1048E80002019D6F860E9E6F010E9F6F000EA06FD6
:1048F8001DEC21F08CEC28F08FEC28F030EC28F03F
:1049080069EC28F064EC28F06EEC28F05FEC28F0F5
:104918005AEC28F0F5EC27F029EC28F0FDEC27F00C
:1049280005EC28F014EC28F00DEC28F0F3D7100E65
:10493800F66E510EF76E000EF86E02EED7F010EE1E
:1049480007F00900F5CFEEFFE550E150FAE102EE7D
:1049580000F0910EEE6AE806FDE101EE00F0EB0EC4
:10496800EE6AE806FDE100EEC3F0170EEE6AE8060F
:10497800FDE100EE50F0080EEE6AE806FDE1589001
:104988005892000EF86E000160EF24F0C6C289F05C
:10499800C7C28AF0000E00018C6F000E8B6FC6C272
:1049A80085F0C7C286F07AEC25F085C08DF086C008
:1049B8008EF0A3EC1AF00201C851D8B40BD0C6C2CD
:1049C800A9F2C7C2AAF2E70EAB6F7F0EAC6F52EC2A
:1049D80025F01200C6C2A9F2C7C2AAF2DC0EAB6F5C
:1049E8007F0EAC6F52EC25F01200A5C2FDF1A6C2F5
:1049F800FEF1000E01014B6F000E4A6F17D0A3C2E3
:104A080091F2A4C292F2FD0E0201936F010E946F0F
:104A1800A7C295F2A8C296F2FFEC11F002019151DB
:104A280001014A270201925101014B23FDC1F6FF02
:104A3800FEC1F7FF0800F5500009D8A4E0D74AC125
:104A4800A3F24BC1A4F212006EC072F06FC073F0F3
:104A5800000E01014B6F000E4A6F12D06CC048F077
:104A68006DC049F0720E4A6E4B6A70C04CF071C04E
:104A78004DF029EC13F0485001014A2749504B23C7
:104A880072C0F6FF73C0F7FF0800F5500009D8A4FC
:104A9800E5D74AC16CF04BC16DF01200AD0EB96F8D
:104AA800020EBA6FA9C2BBF2AAC2BCF2000EBF6F57
:104AB800000EBE6F000EC56F000EC46FBB0EA36F55
:104AC800020EA46FABC2A5F2ACC2A6F2B90EA76FD4
:104AD800020EA86FF9EC24F00201BE51A925D96E87
:104AE800BF51AA21DA6E000EDF6E120085C087F072
:104AF80086C088F003D00001854B862B85C0F6FF61
:104B080086C0F7FFF86A070EF76403D00800F5506F
:104B180005D0F6CFE1FFF7CFE2FFE7500009D8A4B0
:104B2800EAD700018751855D856F88518659866F60
:104B3800120007C009F008C00AF002D0074A082A84
:104B480007C0F6FF08C0F7FFF86A070EF76403D03E
:104B58000800F55005D0F6CFE1FFF7CFE2FFE750A8
:104B68000009D8A4EBD70950075C076E0A5008580B
:104B7800086E1200010E00018B6F200E8519861138
:104B8800D8B414D0F70E876FFF0E886F85C089F0F0
:104B980086C08AF08751892788518A238A5104E17F
:104BA800050E895DD8A002D0000E8B6F8BC085F0F2
:104BB800866B1200866F000E0001886F8551D8B48D
:104BC80015D0010E876F03D0D8908537872B85AF16
:104BD800FBD7D89088378551865DD8A003D08551FA
:104BE800865F8881D8908533872FF3D78851120044
:104BF800000E966F000E956F0CD094C087F0886BEE
:104C080092C089F093C08AF0CBEC21F00001954B5B
:104C1800962B95519025D96E96519121DA6EDF50D9
:104C2800946F9451D8B41200E8D7876FD9EC27F065
:104C3800C586D9EC27F0C9CF88F0D9EC27F0875181
:104C4800D8A403D0866B862B02D00001866B863BE6
:104C58008647C5508619DF0B8619C56EC5888851E9
:104C68001200000E186E000E176E0BD016C009F059
:104C78000A6A14C00BF015C00CF01BEC22F0174A9E
:104C8800182A17501224D96E18501320DA6EDF50E4
:104C9800166E1650D8B41200E9D785C0D9FF86C061
:104CA800DAFF8751DE18D8A405D085C085F086C004
:104CB80086F0120085C0D9FF86C0DAFF854B862BA7
:104CC800DF50D8A4EAD7000E856F000E866F120059
:104CD8000001896F89C087F0000187478747C25064
:104CE8008719C30B8719C26EC282C2B2FED7C450DD
:104CF8000001886F876BC3508725856F000E882158
:104D0800866F120098BF05D0985110E19705D8B06A
:104D18000DD097C099F098C09AF0991F9A1F994B97
:104D28009A2B99C097F09AC098F0120097C097F004
:104D380098C098F01200D00E0001876FFF0E886FA0
:104D480085C089F086C08AF08751892788518A23CF
:104D58008A5106E10A0E895DD8B002D0010E01D051
:104D6800000E856F866B120080EC28F0D00E4EEC9A
:104D780028F0000E4EEC28F084EC28F0D10E4EEC12
:104D880028F08951D96EDA6A000E19EC26F0AAECDF
:104D980027F0DF6E7CEC28F012001ABE05D01A50FE
:104DA80010E11904D8B00DD019C01BF01AC01CF0BE
:104DB8001B1E1C1E1B4A1C2A1BC019F01CC01AF003
:104DC800120019C019F01AC01AF0120087C08AF030
:104DD80085C088F086C089F08A2B8A05D96EDA6A80
:104DE80088C0E1FF89C0E2FF884B892BDFCFE7FF4E
:104DF800E750D8B41200F0D7866F080E0001876F0D
:104E0800000E886FD89086358835886FD890863799
:104E18008551885DD8A002D08551885F872FF2D749
:104E28008851120095C089F096C08AF0000E8C6FE8
:104E3800000E8B6F95C085F096C086F07AEC25F051
:104E480085C08DF086C08EF0A3EC1AF012000150D8
:104E5800D8B41200270E0201296112000150D96E40
:104E6800DA6A010E2925E16EE26A020EE222DFCF3C
:104E7800E7FF292B120085518703F3CF89F0F4CF80
:104E88008AF085518803F3508A2786518703F350A7
:104E98008A2789C085F08AC086F0120085C0A9FFDC
:104EA80087C0A8FFA69EA69CA684F29E550EA76E54
:104EB800AA0EA76EA682F28EA1A8FED7A198A694E4
:104EC8001200855101014F1906E1000186510101C7
:104ED8005019D8B406D085C04FF186C050F1010EE4
:104EE8001200000E12008A6F0A0E0001856F8A51A7
:104EF80000EC27F0896F0A0E856F8A51DEEC25F0E9
:104F0800100DF35089251200CF0EC116C150F00BB9
:104F18000B09C16EC050C70B1009C06EC050F80B0A
:104F28000409C06EC08EC2801200760E766F776B51
:104F3800000E6C6F000E6D6F74C06EF075C06FF070
:104F4800760E706F716B28EC25F01200866F86C0A4
:104F580085F00F0E0001851786390F0B0A0DF350E7
:104F680085251200AC94948E949CAC98AC9C200E31
:104F7800AF6EAB8EAC8AAB889D8A1200D08EF28E53
:104F8800F28CF28AF28EFF0ED76EEC0ED66E870E7A
:104F9800D56E12009EAA07D0ABA203D0AB9800F042
:104FA800AB88AE501200000E1200C5CF85F01F0E60
:104FB80000018517D8A4F9D7C7A41200F6D785C071
:104FC800D9FF86C0DAFF000EDE6E000EDD6E12001D
:104FD8002EC185F02FC186F030C187F031C188F02D
:104FE8001200E10E0001896F010E8A6F6CEC19F056
:104FF8001200E70E0201D36F010ED46F7EEC04F0AD
:105008001200E90E00019F6F010EA06F1CEC0EF05C
:105018001200E30E896F010E8A6F08EC1AF0120075
:10502800E50E896F010E8A6F34EC16F01200020E3D
:10503800CF6F020ECD6F010E506E120085C0A9FF12
:10504800A69EA69CA680A8501200DF0EB26F010E85
:10505800B36F5BEC00F01200000E0101E26F000E6E
:10506800E16F1200866F000186513CEC28F01200B7
:10507800856F85C0ADFFACB21200FDD7010E0001EF
:10508800CF6F010E506E120001014F69506985C043
:10509800D1F01200866FD9EC27F086C0C9FF120044
:1050A800076E07C0ADFFACB21200FDD7000EE46F6B
:1050B800000EE36F1200000EE66F000EE56F12009F
:1050C800000EE86F000EE76F1200000EE06F000E92
:1050D800DF6F1200000EEA6F000EE96F1200086E13
:1050E800085054EC28F012009290898089901200A0
:1050F800D9EC27F0C5841200D9EC27F0C58012003E
:0F510800D9EC27F0C5821200286E756C6C290057
:0A5118009492948012009494120007
:107E780000000000000000000201000405060300E5
:107E88000102040506034E6F202D20202020496E94
:107E980069202020202D20202046696E20202020C7
:107EA8002D204F6E202D2044696173200A0D0A0D84
:107EB8000020352020202D2025643A25642020200C
:107EC8002D2025643A256420202D202573202D207F
:107ED80025730A0D0A0D0020312020202D2025644D
:107EE8003A25642020202D2025643A256420202D61
:107EF800202573202D2025730A0D002032202020F4
:107F08002D2025643A25642020202D2025643A253B
:107F18006420202D202573202D2025730A0D002094
:107F2800332020202D2025643A25642020202D2070
:107F380025643A256420202D202573202D202573C3
:107F48000A0D0020342020202D2025643A256420A5
:107F580020202D2025643A256420202D20257320FB
:107F68002D2025730A0D00494E4943494F20494E9B
:107F780054455252555043494F4E20494E54310DA5
:107F88000A000A0D42414C495A4120414C41524D88
:107F9800412056312E300A0D0A0D0046494E20491F
:107FA8004E54455252555043494F4E20494E543134
:107FB8000D0A0025642F25642F25642D25640A0DDC
:107FC8000A0D0A0D0025643A25643A25640A0D0055
:107FD8006C6C73004F464600446961005344004F7F
:107FE8004E004C5600BF002C003F004100430045A6
:087FF8000049004C005200009A
:020000040030CA
:0E000000000C181EFF8381FF0FC00FE00F40A1
:00000001FF
