:0400000062EF00F0BB
:06000800518274ED1FF0AF
:100018005180D8CF62F0E8CF63F0E0CF64F0E1CF51
:1000280065F0E2CF66F0D9CF67F0DACF68F0F6CFA7
:1000380069F0F7CF6AF0F8CF6BF0F5CF6CF0F0A667
:1000480028EF00F02AEF00F04AEF00F0F0A02FEFC1
:1000580000F031EF00F04AEF00F0730E296E7F0ECA
:100068002A6E95EC28F0660E0001616F760E606FBF
:10007800C10EE82EFED7602FFCD7612FFAD7A70E46
:10008800296E7F0E2A6E95EC28F0F0906CC0F5FF73
:100098006BC0F8FF6AC0F7FF69C0F6FF68C0DAFFF7
:1000A80067C0D9FF66C0E2FF65C0E1FF64C0E0FF3A
:1000B80063C0E8FF62C0D8FF5190100055EF27F0E9
:1000C8000AEF06F0010EEEEC28F000016D25426EF5
:1000D800000E6E21436E000E6F21446E000E7021DB
:1000E800456E9251D96EDA6A680EDE6E000EDD6ECC
:1000F800EEEC28F0425000016D5D43506E594450BB
:100108006F5945507059D8B08CEF00F08EEF00F061
:10011800E9EF05F029EF06F001015CA196EF00F088
:1001280098EF00F066EF00F0210E0001716F020EEB
:10013800726F000E746F000E736F000E766F280ECC
:10014800756F93EC27F0000E0201496F2091010EA4
:100158000001DD6F66EF00F0020120A1B6EF00F0AC
:10016800B8EF00F066EF00F00101D14BD22BD2516D
:1001780009E1050ED15DD8A0C4EF00F0C6EF00F08C
:1001880066EF00F002012091A80E0001716F010EC8
:10019800726F000E746F000E736F000E766F280E6C
:1001A800756F93EC27F0000E0001956F000E966FA7
:1001B800210E9625D96EDA6A020EDA22DF50D8B4FB
:1001C800E8EF00F0EAEF00F0F9EF00F0210E9625D5
:1001D800D96EDA6A020EDA22A80E9525E16EE26A75
:1001E800010EE222DFCFE7FF952B962B280E9665AE
:1001F80000EF01F002EF01F0DCEF00F0210E716F6B
:10020800020E726F000E746F000E736F000E766F21
:10021800280E756F93EC27F0000E0201496F020E4D
:100228000001DD6F66EF00F0A80E746F010E756FA8
:10023800ED0E766F7F0E776F94EC21F0000174510C
:100248007511D8B42AEF01F02CEF01F0ABEF00F0F4
:10025800030EDD6F66EF00F0A80E746F010E756F68
:10026800FB0E766F7F0E776F94EC21F000017451CE
:100278007511D8B442EF01F044EF01F048EF01F0F6
:1002880002014A81ABEF00F0A80E746F010E756F82
:10029800FD0E766F7F0E776F94EC21F0000174519C
:1002A8007511D8B45AEF01F05CEF01F0BCEF01F022
:1002B800A80E7C6F010E7D6FD50E7E6F010E7F6FCD
:1002C800FD0E806F7F0E816FEF0E826F7F0E836F42
:1002D800F5EC1FF0D50E00017A6F010E7B6FDF0E73
:1002E8007C6F010E7D6FE00E7E6F010E7F6F19EC43
:1002F80025F0A80E00017C6F010E7D6FD50E7E6F74
:10030800010E7F6FF50E806F7F0E816FF10E826F89
:100318007F0E836FF5EC1FF0D50E00017A6F010E8A
:100328007B6FE10E7C6F010E7D6FE20E7E6F010E1A
:100338007F6FE30E806F010E816FE40E826F010EF6
:10034800836FECEC1EF0E0C178F0000E0001796FCD
:10035800E1C17AF0E2C17BF0E3C17CF0E4C17DF059
:100368000101DF51CAEC24F002014A83ABEF00F02F
:10037800A80E746F010E756FF30E766F7F0E776F90
:1003880094EC21F0000174517511D8B4CEEF01F04E
:10039800D0EF01F0ABEF00F0A80E7A6F010E7B6F83
:1003A800F30E7C6F7F0E7D6FEF0E7E6F7F0E7F6F7B
:1003B80078EC24F00101D36FA80E0001746F010ED0
:1003C800756FF70E766F7F0E776F94EC21F0000152
:1003D80074517511D8B4F3EF01F0F5EF01F0ABEFFC
:1003E80000F0A80E7A6F010E7B6FF70E7C6F7F0E00
:1003F8007D6FEF0E7E6F7F0E7F6F78EC24F001012A
:10040800D46FD451D8A40BEF02F00DEF02F012EF25
:1004180002F0040E0001DD6F66EF00F0A80E000187
:100428007C6F010E7D6FD50E7E6F010E7F6FF90E0A
:10043800806F7F0E816FEF0E826F7F0E836FF5ECFA
:100448001FF0D50E00017A6F010E7B6FE50E7C6FF1
:10045800010E7D6FE60E7E6F010E7F6F19EC25F0A1
:10046800A80E00017C6F010E7D6FD50E7E6F010E08
:100478007F6FDE0E806F7F0E816FEF0E826F7F0EB3
:10048800836FF5EC1FF0D50E00017A6F010E7B6FBC
:10049800E70E7C6F010E7D6FE80E7E6F010E7F6F99
:1004A80019EC25F0A80E00017C6F010E7D6FD50EAA
:1004B8007E6F010E7F6FE50E806F7F0E816FEF0EEE
:1004C800826F7F0E836FF5EC1FF0D50E0001736FFE
:1004D800010E746FCBEC1DF0000173C0E9F174C01C
:1004E800EAF10101000EEABFFF0EEB6FEC6F0DEFB2
:1004F80002F00101D451D8A484EF02F086EF02F093
:10050800F0EF02F0D305D8A48CEF02F08EEF02F0E2
:100518009AEF02F02C90000E00016E6F010E6D6FC5
:10052800000E6F6F18EC28F0E5EF05F0020ED319F6
:10053800D8A4A1EF02F0A3EF02F0AFEF02F04E91C2
:10054800000E00016E6F080E6D6F000E6F6F18ECD5
:1005580028F0E5EF05F0030ED319D8A4B6EF02F0A2
:10056800B8EF02F0C4EF02F04091000E00016E6F88
:100578000F0E6D6F000E6F6F18EC28F0E5EF05F0A9
:10058800040ED319D8A4CBEF02F0CDEF02F0D9EFC7
:1005980002F03291000E00016E6F160E6D6F000EA4
:1005A8006F6F18EC28F0E5EF05F0050ED319D8A405
:1005B800E0EF02F0E2EF02F0EEEF02F02491000E1D
:1005C80000016E6F1D0E6D6F000E6F6F18EC28F036
:1005D800E5EF05F0E5EF05F0D305D8A4F6EF02F056
:1005E800F8EF02F087EF03F02C80E5C136F0E6C1A2
:1005F80037F0E7C138F0E8C139F0EC51EB11EA11F6
:1006080009E1080EE95DD8A00CEF03F00EEF03F046
:10061800E5EF05F0EC51EB11EA1107E10B0EE95D8E
:10062800D8B019EF03F01BEF03F0E5EF05F02C92BB
:10063800080EE919EA11EB11EC11D8A426EF03F022
:1006480028EF03F02AEF03F0080E2D6E090EE919C2
:10065800EA11EB11EC11D8A434EF03F036EF03F0F4
:1006680038EF03F0090E2D6E0A0EE919EA11EB11A5
:10067800EC11D8A442EF03F044EF03F046EF03F087
:100688000A0E2D6E000E00016E6F010E6D6F010EC9
:100698006F6F18EC28F0000E00016E6F020E6D6F80
:1006A800000E6F6F18EC28F0000E00016E6F030E3D
:1006B8006D6FE9C16FF018EC28F0000E00016E6F45
:1006C800040E6D6FE5C16FF018EC28F0000E000104
:1006D8006E6F050E6D6FE6C16FF018EC28F0000E16
:1006E80000016E6F060E6D6FE7C16FF018EC28F011
:1006F800000E00016E6F070E6D6FE8C16FF018EC09
:1007080028F0E5EF05F0020ED319D8A48EEF03F018
:1007180090EF03F01FEF04F04E81E5C158F1E6C1F8
:1007280059F1E7C15AF1E8C15BF1EC51EB11EA115B
:1007380009E1080EE95DD8A0A4EF03F0A6EF03F0E5
:10074800E5EF05F0EC51EB11EA1107E10B0EE95D5D
:10075800D8B0B1EF03F0B3EF03F0E5EF05F04E9337
:10076800080EE919EA11EB11EC11D8A4BEEF03F059
:10077800C0EF03F0C2EF03F0080E4F6F090EE9193E
:10078800EA11EB11EC11D8A4CCEF03F0CEEF03F093
:10079800D0EF03F0090E4F6F0A0EE919EA11EB11B9
:1007A800EC11D8A4DAEF03F0DCEF03F0DEEF03F08E
:1007B8000A0E4F6F000E00016E6F080E6D6F010E6E
:1007C8006F6F18EC28F0000E00016E6F090E6D6F48
:1007D800000E6F6F18EC28F0000E00016E6F0A0E05
:1007E8006D6FE9C16FF018EC28F0000E00016E6F14
:1007F8000B0E6D6FE5C16FF018EC28F0000E0001CC
:100808006E6F0C0E6D6FE6C16FF018EC28F0000EDD
:1008180000016E6F0D0E6D6FE7C16FF018EC28F0D8
:10082800000E00016E6F0E0E6D6FE8C16FF018ECD0
:1008380028F0E5EF05F0030ED319D8A426EF04F04D
:1008480028EF04F0B7EF04F04081E5C14AF1E6C1B2
:100858004BF1E7C14CF1E8C14DF1EC51EB11EA1154
:1008680009E1080EE95DD8A03CEF04F03EEF04F082
:10087800E5EF05F0EC51EB11EA1107E10B0EE95D2C
:10088800D8B049EF04F04BEF04F0E5EF05F04093E2
:10089800080EE919EA11EB11EC11D8A456EF04F08F
:1008A80058EF04F05AEF04F0080E416F090EE919E9
:1008B800EA11EB11EC11D8A464EF04F066EF04F030
:1008C80068EF04F0090E416F0A0EE919EA11EB11FD
:1008D800EC11D8A472EF04F074EF04F076EF04F092
:1008E8000A0E416F000E00016E6F0F0E6D6F010E44
:1008F8006F6F18EC28F0000E00016E6F100E6D6F10
:10090800000E6F6F18EC28F0000E00016E6F110ECC
:100918006D6FE9C16FF018EC28F0000E00016E6FE2
:10092800120E6D6FE5C16FF018EC28F0000E000193
:100938006E6F130E6D6FE6C16FF018EC28F0000EA5
:1009480000016E6F140E6D6FE7C16FF018EC28F0A0
:10095800000E00016E6F150E6D6FE8C16FF018EC98
:1009680028F0E5EF05F0040ED319D8A4BEEF04F083
:10097800C0EF04F04FEF05F03281E5C13CF1E6C16C
:100988003DF1E7C13EF1E8C13FF1EC51EB11EA114D
:1009980009E1080EE95DD8A0D4EF04F0D6EF04F021
:1009A800E5EF05F0EC51EB11EA1107E10B0EE95DFB
:1009B800D8B0E1EF04F0E3EF04F0E5EF05F032938F
:1009C800080EE919EA11EB11EC11D8A4EEEF04F0C6
:1009D800F0EF04F0F2EF04F0080E336F090EE91996
:1009E800EA11EB11EC11D8A4FCEF04F0FEEF04F0CF
:1009F80000EF05F0090E336F0A0EE919EA11EB1141
:100A0800EC11D8A40AEF05F00CEF05F00EEF05F095
:100A18000A0E336F000E00016E6F160E6D6F010E19
:100A28006F6F18EC28F0000E00016E6F170E6D6FD7
:100A3800000E6F6F18EC28F0000E00016E6F180E94
:100A48006D6FE9C16FF018EC28F0000E00016E6FB1
:100A5800190E6D6FE5C16FF018EC28F0000E00015B
:100A68006E6F1A0E6D6FE6C16FF018EC28F0000E6D
:100A780000016E6F1B0E6D6FE7C16FF018EC28F068
:100A8800000E00016E6F1C0E6D6FE8C16FF018EC60
:100A980028F0E5EF05F0050ED319D8A456EF05F0B8
:100AA80058EF05F0E5EF05F02481E5C12EF1E6C128
:100AB8002FF1E7C130F1E8C131F1EC51EB11EA1146
:100AC80009E1080EE95DD8A06CEF05F06EEF05F0BE
:100AD800E5EF05F0EC51EB11EA1107E10B0EE95DCA
:100AE800D8B079EF05F07BEF05F0E5EF05F024933A
:100AF800080EE919EA11EB11EC11D8A486EF05F0FC
:100B080088EF05F08AEF05F0080E256F090EE91940
:100B1800EA11EB11EC11D8A494EF05F096EF05F06B
:100B280098EF05F0090E256F0A0EE919EA11EB1185
:100B3800EC11D8A4A2EF05F0A4EF05F0A6EF05F09C
:100B48000A0E256F000E00016E6F1D0E6D6F010EEF
:100B58006F6F18EC28F0000E00016E6F1E0E6D6F9F
:100B6800000E6F6F18EC28F0000E00016E6F1F0E5C
:100B78006D6FE9C16FF018EC28F0000E00016E6F80
:100B8800200E6D6FE5C16FF018EC28F0000E000123
:100B98006E6F210E6D6FE6C16FF018EC28F0000E35
:100BA80000016E6F220E6D6FE7C16FF018EC28F030
:100BB800000E00016E6F230E6D6FE8C16FF018EC28
:100BC80028F002014A85ABEF00F0DD51936F946B7A
:100BD8009451000AD8B4F3EF05F066EF00F0935192
:100BE800000AD8B490EF00F0010AD8B4B0EF00F0D2
:100BF800030AD8B418EF01F0010AD8B430EF01F0B5
:100C0800070AD8B47DEF02F066EF00F000019251B8
:100C1800D96EDA6ADECF93F0DDCF94F09451000AF2
:100C2800D8B419EF06F024EF06F09351000AD8B4AF
:100C380066EF00F0680AD8B47CEF00F024EF06F005
:100C48009251D96EDA6ADE6ADD6A12005FEF0AF045
:100C58000A0EEEEC28F000016D25C26F000E6E2121
:100C6800C36F000E6F21C46F000E7021C56F8751CE
:100C7800D96EDA6A2F0EDE6E000EDD6EEEEC28F00D
:100C88000001C2516D5DC3516E59C4516F59C551B0
:100C98007059D8B052EF06F054EF06F012EF0AF090
:100CA8007EEF0AF001015CA15CEF06F05EEF06F052
:100CB8002CEF06F0E20E0001716FE10E726FE00E8C
:100CC800736FE30E746FE40E756FE50E766FE60EC4
:100CD800776FBCEC22F0020E0001DB6F2CEF06F000
:100CE800010101B102D02C9001D02C80010102B188
:100CF80002D02C9201D02C8203C12DF004C136F011
:100D080005C137F006C138F007C139F0010108B153
:100D180002D04E9102D001014E8109B102D04E930A
:100D280002D001014E830AC14FF10BC158F10CC129
:100D380059F10DC15AF10EC15BF10FB102D04091CA
:100D480002D00101408110B102D0409302D00101CC
:100D5800408311C141F112C14AF113C14BF114C1D1
:100D68004CF115C14DF116B102D0329102D00101FA
:100D7800328117B102D0329302D00101328318C1F7
:100D880033F119C13CF11AC13DF11BC13EF11CC13F
:100D98003FF11DB102D0249102D0010124811EB17E
:100DA80002D0249302D0010124831FC125F120C160
:100DB8002EF121C12FF122C130F123C131F16FEFA2
:100DC80006F0B84BB92BB95109E1320EB85DD8A07D
:100DD800F0EF06F0F2EF06F006EF07F0000EB96F3D
:100DE800000EB86FE051D8B4FCEF06F0FEEF06F045
:100DF80002EF07F0040EDB6F2CEF06F0050EDB6F39
:100E08002CEF06F0BA4BBB2BBB5109E1140EBA5DAF
:100E1800D8A011EF07F013EF07F01BEF07F0000E53
:100E2800BB6F000EBA6F030EDB6F2CEF06F0BDA18F
:100E380020EF07F022EF07F02CEF06F0BD91010E2E
:100E4800DB6F2CEF06F0BC2BBC05D8A42EEF07F007
:100E580030EF07F03BEF07F02CA035EF07F037EF46
:100E680007F06FEF06F0060EDB6F2CEF06F0020EB0
:100E7800BC19D8A442EF07F044EF07F051EF07F090
:100E880001014EA14AEF07F04CEF07F06FEF06F0B3
:100E9800070E0001DB6F2CEF06F0030EBC19D8A477
:100EA80058EF07F05AEF07F067EF07F0010140A18C
:100EB80060EF07F062EF07F06FEF06F0080E000131
:100EC800DB6F2CEF06F0040EBC19D8A46EEF07F008
:100ED80070EF07F07DEF07F0010132A176EF07F020
:100EE80078EF07F06FEF06F0090E0001DB6F2CEFCB
:100EF80006F0050EBC19D8A484EF07F086EF07F0BA
:100F08002CEF06F0000EBC6F010124A18EEF07F054
:100F180090EF07F06FEF06F00A0E0001DB6F2CEF81
:100F280006F0E00E716FCBEC27F06FEF06F02CB2F5
:100F3800A0EF07F0A2EF07F02CEF06F0080E2D182F
:100F4800D8A4A9EF07F0ABEF07F0AFEF07F00B0E4F
:100F5800DB6F2CEF06F0090E2D18D8A4B6EF07F0BA
:100F6800B8EF07F0CAEF07F0E651D8B4BEEF07F0C4
:100F7800C0EF07F06FEF06F0060EE661C6EF07F068
:100F8800C8EF07F06FEF06F0ABEF07F00A0E2D1869
:100F9800D8A4D1EF07F0D3EF07F06FEF06F0060EF5
:100FA800E619D8B4DAEF07F0DCEF07F0ABEF07F09B
:100FB800070EE619D8A4E3EF07F0E5EF07F06FEFA7
:100FC80006F0ABEF07F001014EB3EDEF07F0EFEFDE
:100FD80007F02CEF06F0080E4F19D8A4F6EF07F02B
:100FE800F8EF07F0FDEF07F00C0E0001DB6F2CEFB8
:100FF80006F0090E4F19D8A404EF08F006EF08F020
:1010080019EF08F00001E651D8B40DEF08F00FEF22
:1010180008F06FEF06F0060EE66115EF08F017EF1F
:1010280008F06FEF06F0F8EF07F00A0E4F19D8A492
:1010380020EF08F022EF08F06FEF06F0060E00012F
:10104800E619D8B42AEF08F02CEF08F0F8EF07F00B
:10105800070EE619D8A433EF08F035EF08F06FEF64
:1010680006F0F8EF07F0010140B33DEF08F03FEF5D
:1010780008F02CEF06F0080E4119D8A446EF08F046
:1010880048EF08F04DEF08F00D0E0001DB6F2CEF74
:1010980006F0090E4119D8A454EF08F056EF08F0ED
:1010A80069EF08F00001E651D8B45DEF08F05FEF92
:1010B80008F06FEF06F0060EE66165EF08F067EFDF
:1010C80008F06FEF06F048EF08F00A0E4119D8A4AF
:1010D80070EF08F072EF08F06FEF06F0060E0001EF
:1010E800E619D8B47AEF08F07CEF08F048EF08F07A
:1010F800070EE619D8A483EF08F085EF08F06FEF24
:1011080006F048EF08F0010132B38DEF08F08FEFD9
:1011180008F02CEF06F0080E3319D8A496EF08F063
:1011280098EF08F09DEF08F00E0E0001DB6F2CEF32
:1011380006F0090E3319D8A4A4EF08F0A6EF08F0BA
:10114800B9EF08F00001E651D8B4ADEF08F0AFEF01
:1011580008F06FEF06F0060EE661B5EF08F0B7EF9E
:1011680008F06FEF06F098EF08F00A0E3319D8A4CC
:10117800C0EF08F0C2EF08F06FEF06F0060E0001AE
:10118800E619D8B4CAEF08F0CCEF08F098EF08F0E9
:10119800070EE619D8A4D3EF08F0D5EF08F06FEFE3
:1011A80006F098EF08F0010124B3DDEF08F0DFEF57
:1011B80008F02CEF06F0080E2519D8A4E6EF08F081
:1011C800E8EF08F0EDEF08F00F0E0001DB6F2CEFF1
:1011D80006F0090E2519D8A4F4EF08F0F6EF08F088
:1011E80009EF09F00001E651D8B4FDEF08F0FFEF70
:1011F80008F06FEF06F0060EE66105EF09F007EF5D
:1012080009F06FEF06F0E8EF08F00A0E2519D8A4E8
:1012180010EF09F012EF09F06FEF06F0060E00016B
:10122800E619D8B41AEF09F01CEF09F0E8EF08F056
:10123800070EE619D8A423EF09F025EF09F06FEFA0
:1012480006F0E8EF08F03650E219D8A42EEF09F0BE
:1012580030EF09F03BEF09F03750E119D8A437EF28
:1012680009F039EF09F03BEF09F0010164813850CA
:101278000001E219D8A443EF09F045EF09F06FEF38
:1012880006F03950E119D8A44CEF09F04EEF09F0F7
:101298006FEF06F0010164916FEF06F001015851FC
:1012A8000001E219D8A45BEF09F05DEF09F06AEFDD
:1012B80009F0010159510001E119D8A466EF09F0BC
:1012C80068EF09F06AEF09F00101648101015A51E0
:1012D8000001E219D8A473EF09F075EF09F06FEF78
:1012E80006F001015B510001E119D8A47EEF09F075
:1012F80080EF09F06FEF06F04EEF09F001014A5157
:101308000001E219D8A48BEF09F08DEF09F09AEFEC
:1013180009F001014B510001E119D8A496EF09F039
:1013280098EF09F09AEF09F00101648101014C512D
:101338000001E219D8A4A3EF09F0A5EF09F06FEFB7
:1013480006F001014D510001E119D8A4AEEF09F0F2
:10135800B0EF09F06FEF06F04EEF09F001013C51D4
:101368000001E219D8A4BBEF09F0BDEF09F0CAEFFC
:1013780009F001013D510001E119D8A4C6EF09F0B7
:10138800C8EF09F0CAEF09F00101648101013E517B
:101398000001E219D8A4D3EF09F0D5EF09F06FEFF7
:1013A80006F001013F510001E119D8A4DEEF09F070
:1013B800E0EF09F06FEF06F04EEF09F001012E5152
:1013C8000001E219D8A4EBEF09F0EDEF09F0FAEF0C
:1013D80009F001012F510001E119D8A4F6EF09F035
:1013E800F8EF09F0FAEF09F00101648101013051C9
:1013F8000001E219D8A403EF0AF005EF0AF06FEF35
:1014080006F0010131510001E119D8A40EEF0AF0EC
:1014180010EF0AF06FEF06F04EEF09F0DB51886F1E
:10142800896B8951000AD8B41CEF0AF02CEF06F03A
:101438008851000AD8B456EF06F0010AD8B474EF00
:1014480006F0030AD8B4E5EF06F0010AD8B427EF8E
:1014580007F0070AD8B495EF07F0010AD8B45EEF91
:1014680006F0030AD8B49BEF07F0010AD8B4E7EFF7
:1014780007F00F0AD8B437EF08F0010AD8B487EF9D
:1014880008F0030AD8B4D7EF08F0010AD8B427EF58
:1014980009F0070AD8B452EF09F0010AD8B482EF6C
:1014A80009F0030AD8B4B2EF09F0010AD8B4E2EFA0
:1014B80009F02CEF06F000018751D96EDA6ADECF09
:1014C80088F0DDCF89F08951000AD8B46EEF0AF0B0
:1014D80079EF0AF08851000AD8B42CEF06F02F0AE9
:1014E800D8B442EF06F079EF0AF08751D96EDA6A7C
:1014F800DE6ADD6A1200E2EF0DF00A0EEEEC28F06B
:1015080000016D25C66F000E6E21C76F000E6F219A
:10151800C86F000E7021C96FB651D96EDA6A4A0ECB
:10152800DE6E000EDD6EEEEC28F00001C6516D5D3A
:10153800C7516E59C8516F59C9517059D8B0A7EFE2
:101548000AF0A9EF0AF0BCEF0DF003EF0EF05F4BC5
:10155800602BF40E5F5D010E6059D8A0B6EF0AF05B
:10156800B8EF0AF081EF0AF05C815F0E00016D6F41
:10157800010E6E6FFFEC28F0F7EC28F0000E00016A
:101588006E6F030E6D6F5DEC29F081EF0AF0000EAF
:1015980000016E6F030E6D6FFFEC27F00009D8B4E1
:1015A800D8EF0AF0DAEF0AF0E3EF0AF05F0E000175
:1015B8006D6F010E6E6FFFEC28F081EF0AF00101EC
:1015C8005F4B602B605109E1C80E5F5DD8A0EFEF5B
:1015D8000AF0F1EF0AF081EF0AF0000E00016E6FD9
:1015E800000E6D6F06EC29F00101006F060E001960
:1015F800D8B401EF0BF003EF0BF052EF0CF0000E34
:1016080000016E6F000E6D6F060E6F6F18EC28F0FC
:10161800F7EC28F0000E00016E6F010E6D6F000EE2
:101628006F6F18EC28F0000E00016E6F020E6D6FE0
:10163800000E6F6F18EC28F0000E00016E6F030E9D
:101648006D6F080E6F6F18EC28F0000E00016E6FBA
:10165800040E6D6F000E6F6F18EC28F0000E00017D
:101668006E6F050E6D6F000E6F6F18EC28F0000E90
:1016780000016E6F060E6D6F000E6F6F18EC28F08C
:10168800000E00016E6F070E6D6F000E6F6F18EC85
:1016980028F0000E00016E6F080E6D6F000E6F6F60
:1016A80018EC28F0000E00016E6F090E6D6F000E29
:1016B8006F6F18EC28F0000E00016E6F0A0E6D6F48
:1016C800080E6F6F18EC28F0000E00016E6F0B0EFD
:1016D8006D6F000E6F6F18EC28F0000E00016E6F32
:1016E8000C0E6D6F000E6F6F18EC28F0000E0001E5
:1016F8006E6F0D0E6D6F000E6F6F18EC28F0000EF8
:1017080000016E6F0E0E6D6F000E6F6F18EC28F0F3
:10171800000E00016E6F0F0E6D6F000E6F6F18ECEC
:1017280028F0000E00016E6F100E6D6F000E6F6FC7
:1017380018EC28F0000E00016E6F110E6D6F080E88
:101748006F6F18EC28F0000E00016E6F120E6D6FAF
:10175800000E6F6F18EC28F0000E00016E6F130E6C
:101768006D6F000E6F6F18EC28F0000E00016E6FA1
:10177800140E6D6F000E6F6F18EC28F0000E00014C
:101788006E6F150E6D6F000E6F6F18EC28F0000E5F
:1017980000016E6F160E6D6F000E6F6F18EC28F05B
:1017A800000E00016E6F170E6D6F000E6F6F18EC54
:1017B80028F0000E00016E6F180E6D6F080E6F6F27
:1017C80018EC28F0000E00016E6F190E6D6F000EF8
:1017D8006F6F18EC28F0000E00016E6F1A0E6D6F17
:1017E800000E6F6F18EC28F0000E00016E6F1B0ED4
:1017F8006D6F000E6F6F18EC28F0000E00016E6F11
:101808001C0E6D6F000E6F6F18EC28F0000E0001B3
:101818006E6F1D0E6D6F000E6F6F18EC28F0000EC6
:1018280000016E6F1E0E6D6F000E6F6F18EC28F0C2
:10183800000E00016E6F1F0E6D6F080E6F6F18ECB3
:1018480028F0000E00016E6F200E6D6F000E6F6F96
:1018580018EC28F0000E00016E6F210E6D6F000E5F
:101868006F6F18EC28F0000E00016E6F220E6D6F7E
:10187800000E6F6F18EC28F0000E00016E6F230E3B
:101888006D6F000E6F6F18EC28F0000E00016E6F80
:10189800030E6D6F5DEC29F081EF0AF02BEC19F067
:1018A8000001BD818E0E7C6F7F0E7D6F25EC24F0CC
:1018B800170E01019D6F700E9C6F110E9F6F940E95
:1018C8009E6F000E00016E6F010E6D6F5DEC29F0CA
:1018D80081EF0AF0000E00016E6F010E6D6FFFECD4
:1018E80027F00009D8B47BEF0CF07DEF0CF07FEF08
:1018F8000CF0DAEF0AF002014AA185EF0CF087EF4D
:101908000CF08EEF0CF04A9157EC29F064EC14F0CF
:1019180081EF0AF04AA393EF0CF095EF0CF09AEFE1
:101928000CF04A9357EC29F081EF0AF04AA59FEF93
:101938000CF0A1EF0CF0AAEF0CF04A952BEC19F083
:101948000001BD8157EC29F081EF0AF001019C4BA1
:101958009D2B700E9C5D170E9D59D8A0B6EF0CF00C
:10196800B8EF0CF0C5EF0CF0000E9D6F000E9C6FE9
:10197800000E00016E6F040E6D6F5DEC29F081EFB3
:101988000AF064A1CAEF0CF0CCEF0CF0D1EF0CF028
:10199800010E0001C06F81EF0AF0000E0001C06F58
:1019A80081EF0AF0000E00016E6F040E6D6FFFEC00
:1019B80027F00009D8B4E3EF0CF0E5EF0CF065EF81
:1019C8000CF0010E74EC27F000016DC072F06EC0CF
:1019D80073F0746B756B000E34EC1CF072C0A0F1E0
:1019E80073C0A1F174C0A2F175C0A3F1A0C180F0C9
:1019F800A1C181F0A2C182F0A3C183F0000E000151
:101A0800846F000E856FA00E866F3B0E876F80EC8B
:101A180010F080C0A0F181C0A1F182C0A2F183C002
:101A2800A3F1000E0001846F000E856FC00E866F53
:101A3800400E876FA0C180F0A1C181F0A2C182F0E1
:101A4800A3C183F080EC10F080C0EDF181C0EEF10D
:101A580082C0EFF183C0F0F19A0E0101F16F990E87
:101A6800F26F990EF36F3E0EF46F04EC0EF0EDC1B9
:101A7800A0F1EEC1A1F1EFC1A2F1F0C1A3F1A0C1A3
:101A880080F0A1C181F0A2C182F0A3C183F0000E51
:101A98000001846F000E856F200E866F410E876FE0
:101AA80080EC10F080C0A0F181C0A1F182C0A2F149
:101AB80083C0A3F181EF0AF0000E00016E6F050EDE
:101AC8006D6FFFEC27F00009D8B46DEF0DF06FEFE4
:101AD8000DF065EF0CF0030E74EC27F000016DC0FB
:101AE80072F06EC073F0746B756B000E34EC1CF002
:101AF80072C0A4F173C0A5F174C0A6F175C0A7F1B6
:101B0800A4C180F0A5C181F0A6C182F0A7C183F06D
:101B1800000E0001846F000E856FA00E866F3B0ECD
:101B2800876F80EC10F080C0A4F181C0A5F182C05D
:101B3800A6F183C0A7F1A4C180F0A5C181F0A6C118
:101B480082F0A7C183F0000E0001846F000E856F3C
:101B5800200E866F410E876F80EC10F080C0A4F1D4
:101B680081C0A5F182C0A6F183C0A7F181EF0AF078
:101B7800DC510101F96FFA6BFA51000AD8B4C7EFCA
:101B88000DF081EF0AF0F951000AD8B4ABEF0AF072
:101B9800010AD8B46EEF0CF0030AD8B481EF0AF04A
:101BA800010AD8B4CBEF0AF0070AD8B4D6EF0CF084
:101BB800010AD8B460EF0DF081EF0AF00001B651C8
:101BC800D96EDA6ADECFF9F1DDCFFAF10101FA5107
:101BD800000AD8B4F2EF0DF0FDEF0DF0F951000A4C
:101BE800D8B481EF0AF04A0AD8B497EF0AF0FDEFAB
:101BF8000DF00001B651D96EDA6ADE6ADD6A1200AC
:101C08000101F051800BF56FF051F025F76FEFAF40
:101C180010EF0EF012EF0EF013EF0EF0F781F75100
:101C2800D8B419EF0EF01BEF0EF030EF0EF0F729D5
:101C3800D8A421EF0EF023EF0EF02BEF0EF0000EDC
:101C4800ED6F000EEE6F000EEF6F000EF06FEF8F6E
:101C5800000EF06F38EF0EF0000EED6F000EEE6F15
:101C6800000EEF6F000EF06FF451800BF66FF55118
:101C7800F619D8B442EF0EF044EF0EF045EF0EF02F
:101C8800F58DF451F425F66FF3AF4DEF0EF04FEFED
:101C98000EF050EF0EF0F681F651D8B456EF0EF074
:101CA80058EF0EF06DEF0EF0F629D8A45EEF0EF0A7
:101CB80060EF0EF068EF0EF0000EF16F000EF26F9D
:101CC800000EF36F000EF46FF38F000EF46F75EFD4
:101CD8000EF0000EF16F000EF26F000EF36F000EA3
:101CE800F46FF751F65DD8B07CEF0EF07EEF0EF092
:101CF800A5EF0EF0F5AD83EF0EF085EF0EF087EF50
:101D08000EF0800EF51BF7C1F8F1F6C1F7F1F8C136
:101D1800F6F1EDC1F8F1F1C1EDF1F8C1F1F1EEC163
:101D2800F8F1F2C1EEF1F8C1F2F1EFC1F8F1F3C147
:101D3800EFF1F8C1F3F1F0C1F8F1F4C1F0F1F8C135
:101D4800F4F1000EF86FF751F6C1B2F00001B36B71
:101D5800B25F000EB35BB3BFBBEF0EF0B35109E146
:101D68001A0EB25DD8A0BBEF0EF0BDEF0EF0F5EF86
:101D78000EF00101ED51EE11EF11F011D8A4C7EFEB
:101D88000EF0CAEF0EF0010ECBEF0EF0000EF86F5A
:101D9800000EED6F000EEE6F000EEF6F000EF06F8D
:101DA800F6C1F7F1FFEF0EF0F8A1DDEF0EF0DFEF6F
:101DB8000EF0E5EF0EF0D890F8310109F86FE7EF73
:101DC8000EF0D890F833EDA1ECEF0EF0EEEF0EF038
:101DD800EFEF0EF0F88FF035F033EF33EE33ED33ED
:101DE800F72B0101F651F75DD8A0FDEF0EF0FFEFDC
:101DF8000EF0D8EF0EF0F5BD04EF0FF006EF0FF080
:101E080046EF0FF0F751D8A40CEF0FF00EEF0FF0DC
:101E180018EF0FF0000EED6F000EEE6F000EEF6F73
:101E2800000EF06F7FEF10F0F151ED27F251EE2325
:101E3800F351EF23F451F023F0A125EF0FF027EF32
:101E48000FF0E6EF0FF0F8A12CEF0FF02EEF0FF0E8
:101E580034EF0FF0D890F8310109F86F36EF0FF032
:101E6800D890F833EDA13BEF0FF03DEF0FF03EEFC8
:101E78000FF0F88FF035F033EF33EE33ED33F72B07
:101E8800E6EF0FF0F151ED5DF251EE59F351EF59D4
:101E9800F051800A0001B26F0101F451800A00017B
:101EA800B259D8B05AEF0FF05CEF0FF096EF0FF081
:101EB8000101ED51F15D0001B26F0101EE51F259DE
:101EC8000001B36F0101EF51F3590001B46F010133
:101ED800F051F4590001B56FFF0EB2250101ED6F05
:101EE800FF0E0001B3210101EE6FFF0E0001B421C6
:101EF8000101EF6FFF0E0001B5210101F06F800EA7
:101F0800F51BF86DF851D8A48CEF0FF08EEF0FF099
:101F18009FEF0FF0010EED27000EEE23EF23F023C5
:101F28009FEF0FF00101F151ED5FF251EE5BF351BC
:101F3800EF5BF451F05BED51EE11EF11F011D8A405
:101F4800A8EF0FF0AAEF0FF0DFEF0FF0F851D8A4C9
:101F5800B0EF0FF0B2EF0FF0DFEF0FF0000EED6F04
:101F6800000EEE6F000EEF6F000EF06F7FEF10F0B7
:101F7800D890ED37EE37EF37F037F8AFC6EF0FF000
:101F8800C8EF0FF0C9EF0FF0ED81F8A1CEEF0FF019
:101F9800D0EF0FF0D4EF0FF0D880F837D6EF0FF06E
:101FA800D890F837F751D8B4DCEF0FF0DEEF0FF028
:101FB800DFEF0FF0F707EFAFE4EF0FF0E6EF0FF00A
:101FC800BCEF0FF0000EF66FF8AFEDEF0FF0EFEF8C
:101FD8000FF00AEF10F0F8C1B2F07F0E0001B2174F
:101FE800D8B4F9EF0FF0FBEF0FF000EF10F0010E8F
:101FF8000101F66F0AEF10F00101EDA106EF10F0F4
:1020080008EF10F00AEF10F0FBEF0FF0F651D8B41C
:1020180010EF10F012EF10F03FEF10F0010EED2767
:10202800000EEE23EF23F023F0A11DEF10F01FEFB9
:1020380010F03FEF10F0EDC1B2F0EEC1B3F0EFC118
:10204800B4F0F0C1B5F00001B535B533B433B333EE
:10205800B233B2C0EDF1B3C0EEF1B4C0EFF1B5C028
:10206800F0F10101F729D8B43CEF10F03EEF10F081
:102078003FEF10F0F72BF729D8B445EF10F047EFF2
:1020880010F04FEF10F0F751D8A44DEF10F04FEFCC
:1020980010F061EF10F0000EED6F000EEE6F000E05
:1020A800EF6F000EF06FF751D8A45DEF10F05FEFFF
:1020B80010F061EF10F0000EF56FF7A166EF10F069
:1020C80068EF10F06BEF10F0EF8F6CEF10F0EF9FF0
:1020D800D890F731F06FF5AF74EF10F076EF10F09D
:1020E80077EF10F0F08FEDC1EDF1EEC1EEF1EFC139
:1020F800EFF1F0C1F0F1120000018351800B8C6FF9
:1021080083518325926F82AF8CEF10F08EEF10F021
:102118008FEF10F092819251D8B495EF10F097EFAD
:1021280010F0AAEF10F09229D8A49DEF10F09FEFBD
:1021380010F0A7EF10F0000E806F000E816F000EF8
:10214800826F000E836F828FB2EF10F0000E806FE7
:10215800000E816F000E826F000E836F8751800B17
:102168008C1B87518725916F86AFBDEF10F0BFEFAD
:1021780010F0C0EF10F091819151D8B4C6EF10F073
:10218800C8EF10F0DBEF10F09129D8A4CEEF10F0D3
:10219800D0EF10F0D8EF10F0000E846F000E856FAE
:1021A800000E866F000E876F868FE3EF10F0000E2B
:1021B800846F000E856F000E866F000E876F915139
:1021C800D8B4E9EF10F0EBEF10F0F3EF10F0925104
:1021D800D8A4F1EF10F0F3EF10F0FDEF10F0000EBF
:1021E800806F000E816F000E826F000E836F95EF77
:1021F80012F086518003F3CF97F0F4CF98F09751FF
:102208008D6F8E6B8F6B906B9851936F946B956BF2
:10221800966B85518103F3CF97F0F4CF98F09751DF
:102228008D27000E8E238F23902398519327000E1D
:1022380094239523962384518203F3CF97F0F4CF08
:1022480098F097518D27000E8E238F239023985155
:102258009327000E9423952396238FC090F08EC069
:102268008FF08DC08EF08D6B84518103F3CF97F082
:10227800F4CF98F097518D2798518E23000E8F2315
:10228800000E902385518003F3CF97F0F4CF98F098
:1022980097518D2798518E23000E8F23000E90237F
:1022A8008FC090F08EC08FF08DC08EF08D6B8451F2
:1022B8008003F3CF97F0F4CF98F097518D2798517A
:1022C8008E23000E8F23000E902386518103F3CFB7
:1022D80097F0F4CF98F09751932798519423000ED4
:1022E8009523000E962385518203F3CF97F0F4CF00
:1022F80098F09751932798519423000E9523000E38
:10230800962386518203F3CF97F0F4CF98F0975134
:10231800886F9851896F8A6B8B6B8AC08BF089C0E4
:102328008AF088C089F0886B885193278951942353
:102338008A5195238B5196238DC088F08EC089F0E1
:102348008FC08AF090C08BF0190EB0EF11F0D890C2
:102358008B338A3389338833E82EABEF11F08851F9
:102368009327895194238A5195238B5196238FC0A3
:1023780090F08EC08FF08DC08EF08D6B915192C011
:1023880088F0896B8827000E8923820E8825976F2D
:10239800FF0E8921986FE6EF11F0D89093379437A4
:1023A8009537963790AFDBEF11F0DDEF11F0DEEFE8
:1023B80011F09381D8908D378E378F3790379707E4
:1023C800D8A0980795AFEBEF11F0EDEF11F0D1EF32
:1023D80011F0000E916F90AFF4EF11F0F6EF11F0DD
:1023E8001AEF12F0FF0E8D15886FFF0E8E15896F8C
:1023F800FF0E8F158A6F7F0E90158B6F885189118C
:102408008A118B11D8B40BEF12F00DEF12F011EF07
:1024180012F0010E916F1AEF12F093A116EF12F05D
:1024280018EF12F01AEF12F00DEF12F09151D8B424
:1024380020EF12F022EF12F046EF12F0010E932770
:10244800000E94239523962396A12DEF12F02FEFDB
:1024580012F046EF12F093C088F094C089F095C04E
:102468008AF096C08BF08B358B338A338933883367
:1024780088C093F089C094F08AC095F08BC096F01C
:10248800974B982B98BF51EF12F0985108E1972974
:10249800D8A051EF12F053EF12F05DEF12F0000EDA
:1024A800936F000E946F800E956F7F0E966F8BEF73
:1024B80012F098BF6AEF12F0985106E19705D8B06C
:1024C80068EF12F06AEF12F076EF12F0000E936FD9
:1024D800000E946F000E956F000E966F000E8C6FB5
:1024E8008BEF12F097C092F0FF0E9317FF0E941720
:1024F8007F0E9517000E961792A185EF12F087EFC1
:1025080012F088EF12F0958FD8909231966F8C5117
:10251800961393C080F094C081F095C082F096C065
:1025280083F0120000019C51800BA96F9C519C25DF
:10253800B06F9BAFA2EF12F0A4EF12F0A5EF12F06C
:10254800B081B051D8B4ABEF12F0ADEF12F0C2EFDA
:1025580012F0B029D8A4B3EF12F0B5EF12F0BDEF26
:1025680012F0000E996F000E9A6F000E9B6F000E0E
:102578009C6F9B8F000E9C6FCAEF12F0000E996F34
:10258800000E9A6F000E9B6F000E9C6FA051800B7F
:10259800A91BA051A025B16F9FAFD5EF12F0D7EFBF
:1025A80012F0D8EF12F0B181B151D8B4DEEF12F0C9
:1025B800E0EF12F0F5EF12F0B129D8A4E6EF12F02F
:1025C800E8EF12F0F0EF12F0000E9D6F000E9E6F14
:1025D800000E9F6F000EA06F9F8F000EA06FFDEF83
:1025E80012F0000E9D6F000E9E6F000E9F6F000E82
:1025F800A06F9D519E119F11A011D8A406EF13F052
:1026080008EF13F020EF13F0000E996F000E9A6F89
:10261800000E9B6F000E9C6F800E9B137F0E9C1309
:10262800A9519C1399C099F09AC09AF09BC09BF04D
:102638009CC09CF063EF14F0B051D8A426EF13F0BF
:1026480028EF13F032EF13F0000E996F000E9A6F17
:10265800000E9B6F000E9C6F63EF14F0B151B0C079
:10266800A1F0A26BA15F000EA25B7F0EA125AA6F4D
:10267800000EA221AB6F99C0A5F09AC0A6F09BC02E
:10268800A7F09CC0A8F0000E996F000E9A6F000E7C
:102698009B6F000E9C6F000EAC6F000EAD6F000EAE
:1026A800AE6F000EAF6F000EB16F93EF13F0B15124
:1026B800D8B461EF13F063EF13F07AEF13F0D8900A
:1026C800A537A637A737A837D89099379A379B37B1
:1026D8009C37AFAF72EF13F074EF13F075EF13F090
:1026E8009981D890AC37AD37AE37AF379D51A55DDE
:1026F8009E51A6599F51A759A051A859D8A087EF14
:1027080013F089EF13F092EF13F0AF8D9D51A55F91
:102718009E51A65B9F51A75BA051A85BB12B190ED8
:10272800B16599EF13F09BEF13F05BEF13F0A55130
:10273800A611A711A811D8B4A4EF13F0A6EF13F0AF
:10274800BEEF13F0AC81BEEF13F0D89099379A37EB
:102758009B379C37AFAFB3EF13F0B5EF13F0B6EF7D
:1027680013F09981D890AC37AD37AE37AF37AA0799
:10277800D8A0AB079BAFC3EF13F0C5EF13F0A9EFD9
:1027880013F0000EB16FAFAFCCEF13F0CEEF13F034
:10279800F2EF13F0FF0EAC15A16FFF0EAD15A26F8F
:1027A800FF0EAE15A36F7F0EAF15A46FA151A21136
:1027B800A311A411D8B4E3EF13F0E5EF13F0E9EF98
:1027C80013F0010EB16FF2EF13F099A1EEEF13F0D1
:1027D800F0EF13F0F2EF13F0E5EF13F0B151D8B4C6
:1027E800F8EF13F0FAEF13F01EEF14F0010E99272B
:1027F800000E9A239B239C239CA105EF14F007EF5E
:1028080014F01EEF14F099C0A1F09AC0A2F09BC07A
:10281800A3F09CC0A4F0A435A433A333A233A133FE
:10282800A1C099F0A2C09AF0A3C09BF0A4C09CF0EC
:10283800AA4BAB2BABBF29EF14F0AB5108E1AA2987
:10284800D8A029EF14F02BEF14F036EF14F0000E97
:10285800AB6FAA69000E996F000E9A6F000E9B6FFE
:10286800000E9C6FABBF43EF14F0AB5106E1AA0515
:10287800D8B041EF14F043EF14F051EF14F0000E0C
:10288800AB6F000EAA6F000E996F000E9A6F000EC4
:102898009B6F000E9C6F000EA96FAAC0B0F0B0A18C
:1028A80058EF14F05AEF14F05DEF14F09B8F5EEFC1
:1028B80014F09B9FD890B0319C6F14EF13F0120066
:1028C800650E0001796F010E7A6F30EC28F0650E05
:1028D80000018F6F010E906FD10E916F7F0E926F76
:1028E800E2C093F0946BE1C095F0966BE0C097F06E
:1028F800986BCDEC26F0650E00017C6F010E7D6FA4
:1029080025EC24F0650E0001796F010E7A6F30EC2A
:1029180028F0650E00018F6F010E906FBF0E916F4A
:102928007F0E926FE3C093F0946BE4C095F0966BC2
:10293800E5C097F0986BE6C099F09A6BCDEC26F05D
:10294800650E00017C6F010E7D6F25EC24F0650E8D
:102958000001796F010E7A6F30EC28F0650E0001E6
:102968008F6F010E906F920E916F7E0E926FCDEC6D
:1029780026F0650E00017C6F010E7D6F25EC24F0BA
:10298800F20E0001AC6F010EAD6F01C1AEF0EEECBE
:1029980025F0ED0E0001AC6F010EAD6F03C1AEF076
:1029A80065EC25F0650E0001796F010E7A6F30EC49
:1029B80028F0650E00018F6F010E906FE30E916F86
:1029C8007E0E926F04C193F0946B05C195F0966BDF
:1029D80006C197F0986B07C199F09A6BF20E9B6F3E
:1029E800010E9C6FED0E9D6F010E9E6FCDEC26F0D3
:1029F800650E00017C6F010E7D6F25EC24F0F20E50
:102A08000001AC6F010EAD6F08C1AEF0EEEC25F021
:102A1800ED0E0001AC6F010EAD6F0AC1AEF065ECB2
:102A280025F0650E0001796F010E7A6F30EC28F001
:102A3800650E00018F6F010E906F070E916F7F0E6C
:102A4800926F0BC193F0946B0CC195F0966B0DC10E
:102A580097F0986B0EC199F09A6BF20E9B6F010E6E
:102A68009C6FED0E9D6F010E9E6FCDEC26F0650EEE
:102A780000017C6F010E7D6F25EC24F0F20E000141
:102A8800AC6F010EAD6F0FC1AEF0EEEC25F0ED0EA0
:102A98000001AC6F010EAD6F11C1AEF065EC25F011
:102AA800650E0001796F010E7A6F30EC28F0650E23
:102AB80000018F6F010E906F2B0E916F7F0E926F3A
:102AC80012C193F0946B13C195F0966B14C197F0F3
:102AD800986B15C199F09A6BF20E9B6F010E9C6F63
:102AE800ED0E9D6F010E9E6FCDEC26F0650E000178
:102AF8007C6F010E7D6F25EC24F0F20E0001AC6FA7
:102B0800010EAD6F16C1AEF0EEEC25F0ED0E000132
:102B1800AC6F010EAD6F18C1AEF065EC25F0650E17
:102B28000001796F010E7A6F30EC28F0650E000114
:102B38008F6F010E906F4F0E916F7F0E926F19C1BC
:102B480093F0946B1AC195F0966B1BC197F0986B34
:102B58001CC199F09A6BF20E9B6F010E9C6FED0EE3
:102B68009D6F010E9E6FCDEC26F0650E00017C6F07
:102B7800010E7D6F25EC24F0F20E0001AC6F010E02
:102B8800AD6F1DC1AEF0EEEC25F0ED0E0001AC6F9F
:102B9800010EAD6F1FC1AEF065EC25F0650E0001AA
:102BA800796F010E7A6F30EC28F0650E00018F6F97
:102BB800010E906FBD0E916F7E0E926F20C193F043
:102BC800946B21C195F0966B22C197F0986B23C145
:102BD80099F09A6BF20E9B6F010E9C6FED0E9D6F34
:102BE800010E9E6FCDEC26F0650E00017C6F010E84
:102BF8007D6F25EC24F0120000017A51D96EDA6A53
:102C0800DECFF6FFDDCFF7FF0800F550250AD8A480
:102C180010EF16F012EF16F084EF17F07A51D96E14
:102C2800DA6ADE2A000EDD22000ECF6F000ECE6FAC
:102C3800CEC0D4F0D069D1697A51D96EDA6ADECFC4
:102C480080F0DDCF81F080C0F6FF81C0F7FF08007B
:102C5800F550640AD8B433EF16F035EF16F043EFA9
:102C680016F080C0F6FF81C0F7FF0800F550690A2A
:102C7800D8A441EF16F043EF16F0DCEF16F07B51C5
:102C8800D96EDA6A020EDF26DF5CD96EDA6ADECF29
:102C980083F0DECF84F0010E80257C6F000E812149
:102CA8007D6F7A51D96EDA6A7CC0DEFF7DC0DDFFA8
:102CB800200E876F84BF63EF16F066EF16F0010EE3
:102CC80067EF16F0000E826F8707000E8725D96E12
:102CD800DA6A020EDA2283C06DF084C06EF0000E4C
:102CE800706F0A0E6F6F74EC23F06DC073F06EC0D6
:102CF80074F0B0EC27F000017351300FDF6E83C021
:102D08006DF084C06EF0000E706F0A0E6F6FF7ECF6
:102D180021F06DC083F06EC084F0000183518411EE
:102D2800D8B499EF16F09BEF16F0A3EF16F0875181
:102D3800D8A4A1EF16F0A3EF16F068EF16F08751AC
:102D4800D8B4A9EF16F0ABEF16F0D1EF16F0825118
:102D5800D8B4B1EF16F0B3EF16F0D1EF16F087073D
:102D6800000E8725D96EDA6A020EDA222D0EDF6E82
:102D7800D1EF16F0000E8725D96EDA6A020EDA2234
:102D8800DF507C6F7C516F6F706B78C071F079C0C9
:102D980072F065EC20F00001872B200E8719D8A46B
:102DA800D8EF16F0DAEF16F0BEEF16F097EF17F03F
:102DB800000E826F7A51D96EDA6ADECFF6FFDDCF68
:102DC800F7FF0800F550730AD8A4EDEF16F0EFEFFF
:102DD80016F0F9EF16F07A51D96EDA6ADE2A000E8B
:102DE800DD22010E826F45EF17F07A51D96EDA6A4B
:102DF800DECFF6FFDDCFF7FF0800F5506C0AD8A448
:102E080008EF17F00AEF17F045EF17F07A51D96E6F
:102E1800DA6ADECF7CF0DDCF7DF0010E7C27000E74
:102E28007D237CC0F6FF7DC0F7FF0800F5506C0AD3
:102E3800D8A421EF17F023EF17F045EF17F07A51D8
:102E4800D96EDA6ADECF7CF0DDCF7DF0020E7C270A
:102E5800000E7D237CC0F6FF7DC0F7FF0800F5500B
:102E6800730AD8A43AEF17F03CEF17F045EF17F0C4
:102E78007A51D96EDA6A030EDE26000EDD22F5EFEE
:102E880016F08251D8B44BEF17F04DEF17F07BEFE7
:102E980017F07B51D96EDA6A020EDF26DF5CD96E35
:102EA800DA6ADECF7EF0DECF7FF06DEF17F07EC0FE
:102EB800D9FF7FC0DAFFDF507C6F7C516F6F706B7A
:102EC80078C071F079C072F065EC20F000017E4B9B
:102ED8007F2B7EC0D9FF7FC0DAFFDF50D8A477EF01
:102EE80017F079EF17F05BEF17F097EF17F0000185
:102EF8007A51D96EDA6ADE2A000EDD2297EF17F0D2
:102F08007A51D96EDA6ADECFF6FFDDCFF7FF080017
:102F1800F5506F6F706B78C071F079C072F065EC26
:102F280020F07BEF17F012001450D96EDA6ADECF6A
:102F3800F6FFDDCFF7FF0800F550250AD8A4A7EF64
:102F480017F0A9EF17F017EF19F01450D96EDA6AD5
:102F5800DE2A000EDD22000E0001CF6F000ECE6FBC
:102F6800CEC0D4F0D069D1691450D96EDA6ADECFF8
:102F78001AF0DDCF1BF01AC0F6FF1BC0F7FF0800E0
:102F8800F550640AD8B4CBEF17F0CDEF17F0DBEFAC
:102F980017F01AC0F6FF1BC0F7FF0800F550690AC2
:102FA800D8A4D9EF17F0DBEF17F071EF18F0155030
:102FB800D96EDA6A020EDF26DF5CD96EDA6ADECFF6
:102FC8001DF0DECF1EF0010E1A24166E000E1B2017
:102FD800176E1450D96EDA6A16C0DEFF17C0DDFF0F
:102FE800200E216E1EBEFBEF17F0FEEF17F0010E4C
:102FF800FFEF17F0000E1C6E2106000E2124D96E7B
:10300800DA6A020EDA221DC007F01EC008F0000EB0
:103018000A6E0A0E096ECDEC23F007C00DF008C049
:103028000EF0E5EC27F00D50300FDF6E1DC007F0F5
:103038001EC008F0000E0A6E0A0E096E5AEC22F045
:1030480007C01DF008C01EF01D501E10D8B42FEF89
:1030580018F031EF18F039EF18F02150D8A437EFF5
:1030680018F039EF18F000EF18F02150D8B43FEFFE
:1030780018F041EF18F066EF18F01C50D8B447EF7D
:1030880018F049EF18F066EF18F02106000E212419
:10309800D96EDA6A020EDA222D0EDF6E66EF18F0AC
:1030A800000E2124D96EDA6A020EDA22DF50166E7B
:1030B8001650096E0A6A12C00BF013C00CF0CBEC64
:1030C80020F0212A200E2118D8A46DEF18F06FEFF8
:1030D80018F054EF18F02AEF19F0000E1C6E145077
:1030E800D96EDA6ADECFF6FFDDCFF7FF0800F550BC
:1030F800730AD8A482EF18F084EF18F08EEF18F056
:103108001450D96EDA6ADE2A000EDD22010E1C6E1A
:10311800DAEF18F01450D96EDA6ADECFF6FFDDCF99
:10312800F7FF0800F5506C0AD8A49DEF18F09FEF40
:1031380018F0DAEF18F01450D96EDA6ADECF16F00C
:10314800DDCF17F0010E1626000E172216C0F6FF67
:1031580017C0F7FF0800F5506C0AD8A4B6EF18F0AE
:10316800B8EF18F0DAEF18F01450D96EDA6ADECF3B
:1031780016F0DDCF17F0020E1626000E172216C025
:10318800F6FF17C0F7FF0800F550730AD8A4CFEF71
:1031980018F0D1EF18F0DAEF18F01450D96EDA6A97
:1031A800030EDE26000EDD228AEF18F01C50D8B47C
:1031B800E0EF18F0E2EF18F00FEF19F01550D96EA4
:1031C800DA6A020EDF26DF5CD96EDA6ADECF18F023
:1031D800DECF19F001EF19F018C0D9FF19C0DAFFD6
:1031E800DF50166E1650096E0A6A12C00BF013C033
:1031F8000CF0CBEC20F0184A192A18C0D9FF19C0D6
:10320800DAFFDF50D8A40BEF19F00DEF19F0F0EF4B
:1032180018F02AEF19F01450D96EDA6ADE2A000E77
:10322800DD222AEF19F01450D96EDA6ADECFF6FFE4
:10323800DDCFF7FF0800F550096E0A6A12C00BF0DF
:1032480013C00CF0CBEC20F00FEF19F01200000EB9
:1032580000016E6F010E6D6F06EC29F00101016F20
:10326800000E00016E6F020E6D6F06EC29F0010171
:10327800026F000E00016E6F030E6D6F06EC29F0F1
:103288000101036F000E00016E6F040E6D6F06ECF6
:1032980029F00101046F000E00016E6F050E6D6FBD
:1032A80006EC29F00101056F000E00016E6F060E95
:1032B8006D6F06EC29F00101066F000E00016E6FBC
:1032C800070E6D6F06EC29F00101076F000E000173
:1032D8006E6F080E6D6F06EC29F00101086F000E85
:1032E80000016E6F090E6D6F06EC29F00101096F80
:1032F800000E00016E6F0A0E6D6F06EC29F00101D9
:103308000A6F000E00016E6F0B0E6D6F06EC29F050
:1033180001010B6F000E00016E6F0C0E6D6F06EC55
:1033280029F001010C6F000E00016E6F0D0E6D6F1C
:1033380006EC29F001010D6F000E00016E6F0E0EF4
:103348006D6F06EC29F001010E6F000E00016E6F23
:103358000F0E6D6F06EC29F001010F6F000E0001D2
:103368006E6F100E6D6F06EC29F00101106F000EE4
:1033780000016E6F110E6D6F06EC29F00101116FDF
:10338800000E00016E6F120E6D6F06EC29F0010140
:10339800126F000E00016E6F130E6D6F06EC29F0B0
:1033A8000101136F000E00016E6F140E6D6F06ECB5
:1033B80029F00101146F000E00016E6F150E6D6F7C
:1033C80006EC29F00101156F000E00016E6F160E54
:1033D8006D6F06EC29F00101166F000E00016E6F8B
:1033E800170E6D6F06EC29F00101176F000E000132
:1033F8006E6F180E6D6F06EC29F00101186F000E44
:1034080000016E6F190E6D6F06EC29F00101196F3E
:10341800000E00016E6F1A0E6D6F06EC29F00101A7
:103428001A6F000E00016E6F1B0E6D6F06EC29F00F
:1034380001011B6F000E00016E6F1C0E6D6F06EC14
:1034480029F001011C6F000E00016E6F1D0E6D6FDB
:1034580006EC29F001011D6F000E00016E6F1E0EB3
:103468006D6F06EC29F001011E6F000E00016E6FF2
:103478001F0E6D6F06EC29F001011F6F000E000191
:103488006E6F200E6D6F06EC29F00101206F000EA3
:1034980000016E6F210E6D6F06EC29F00101216F9E
:1034A800000E00016E6F220E6D6F06EC29F001010F
:1034B800226F000E00016E6F230E6D6F06EC29F06F
:1034C8000101236F120037EF1BF00A0EEEEC28F013
:1034D80000016D25466E000E6E21476E000E6F21AD
:1034E800486E000E7021496E7151D96EDA6A190E54
:1034F800DE6E000EDD6EEEEC28F0465000016D5DCC
:1035080047506E5948506F5949507059D8B08FEF8D
:103518001AF091EF1AF016EF1BF056EF1BF0D905D1
:10352800D8A499EF1AF09BEF1AF0A0EF1AF08B804D
:10353800010EDA6F69EF1AF0020ED919D8A4A7EFB5
:103548001AF0A9EF1AF0AFEF1AF0D7078B80020E26
:10355800DA6F69EF1AF0030ED919D8A4B6EF1AF08A
:10356800B8EF1AF0BDEF1AF08B80030EDA6F69EF2F
:103578001AF0000ED96F000ED86F000ED66F8B9020
:1035880069EF1AF0D82B040ED865CDEF1AF0CFEFFB
:103598001AF069EF1AF0000ED86F8B90000ED96FF1
:1035A800000EDA6F69EF1AF0D82B040ED865DFEF3A
:1035B8001AF0E1EF1AF069EF1AF0000ED86FD75140
:1035C800D8A4E9EF1AF0EBEF1AF0F2EF1AF08B90AB
:1035D800000ED96F000EDA6F69EF1AF08B90040EA7
:1035E800DA6F69EF1AF0D82B040ED865FEEF1AF0DF
:1035F80000EF1BF069EF1AF0000ED86F8B90040EE5
:10360800DA6F69EF1AF0D82B040ED8650EEF1BF0AD
:1036180010EF1BF069EF1AF0000ED86F000EDA6F8A
:1036280069EF1AF0DA51726F736B7351000AD8B4EC
:1036380020EF1BF069EF1AF07251000AD8B493EF2B
:103648001AF0010AD8B4C6EF1AF0030AD8B4D8EFB2
:103658001AF0010AD8B4F7EF1AF0070AD8B407EF3E
:103668001BF069EF1AF000017151D96EDA6ADECFEA
:1036780072F0DDCF73F07351000AD8B446EF1BF037
:1036880051EF1BF07251000AD8B469EF1AF0190A09
:10369800D8B47FEF1AF051EF1BF07151D96EDA6A86
:1036A800DE6ADD6A120014EF1CF00A0EEEEC28F058
:1036B80000016D253E6E000E6E213F6E000E6F21DB
:1036C800406E000E7021416E7151D96EDA6A230E78
:1036D800DE6E000EDD6EEEEC28F03E5000016D5DF2
:1036E8003F506E5940506F5941507059D8B07FEFD4
:1036F8001BF081EF1BF0F3EF1BF033EF1CF001011F
:103708005CA189EF1BF08BEF1BF059EF1BF0010E4A
:103718000001D56F59EF1BF0C051D8B496EF1BF0DC
:1037280098EF1BF0A0EF1BF08B8457EC29F0020EEA
:103738000001D56F59EF1BF08B9459EF1BF0BE4B6E
:10374800BF2BBF5109E1050EBE5DD8A0AEEF1BF03F
:10375800B0EF1BF059EF1BF0000EBF6F000EBE6FED
:103768008B94030ED56F59EF1BF0BE4BBF2BBF5187
:1037780009E1050EBE5DD8A0C4EF1BF0C6EF1BF033
:1037880059EF1BF0000EBF6F000EBE6FC12B040E69
:10379800C165D1EF1BF0D3EF1BF0D9EF1BF0000E82
:1037A800C16F040ED56F59EF1BF08B849BEF1BF094
:1037B800BE4BBF2BBF5109E1320EBE5DD8A0E7EF6B
:1037C8001BF0E9EF1BF059EF1BF0000EBF6F000E66
:1037D800BE6F000EC06F010ED56F59EF1BF0D551AB
:1037E800726F736B7351000AD8B4FDEF1BF059EF79
:1037F8001BF07251000AD8B483EF1BF0010AD8B449
:1038080090EF1BF0030AD8B4A3EF1BF0010AD8B459
:10381800B9EF1BF0070AD8B4DCEF1BF059EF1BF027
:1038280000017151D96EDA6ADECF72F0DDCF73F024
:103838007351000AD8B423EF1CF02EEF1CF072511C
:10384800000AD8B459EF1BF0230AD8B46FEF1BF065
:103858002EEF1CF07151D96EDA6ADE6ADD6A120049
:1038680000017A6F00017A51D8B43DEF1CF03FEFA8
:103878001CF061EF1CF075BF46EF1CF044EF1CF024
:1038880061EF1CF072C076F073C077F074C078F006
:1038980075C079F0761F771F781F791F762B000E79
:1038A80077237823792376C07CF077C07DF078C0C1
:1038B8007EF079C07FF069EF1CF072C07CF073C0B5
:1038C8007DF074C07EF075C07FF072517311741171
:1038D8007511D8A472EF1CF074EF1CF07EEF1CF089
:1038E800000E726F000E736F000E746F000E756F0E
:1038F8000FEF1DF0960E7B6F88EF1CF07B2BD89096
:103908007F337E337D337C33000E7C15766F000E5B
:103918007D15776F000E7E15786FFE0E7F15796F17
:103928007651771178117911D8A49DEF1CF09FEF8B
:103938001CF082EF1CF0ADEF1CF07B2B010E7C27F6
:10394800000E7D237E237F23D8907F337E337D3303
:103958007C33000E7C15766F000E7D15776F000E98
:103968007E15786FFF0E7F15796F76517711781174
:103978007911D8A4C2EF1CF0C4EF1CF0A1EF1CF021
:10398800CCEF1CF07B07D8907C377D377E377F37AC
:103998007EBFD1EF1CF0D3EF1CF0DBEF1CF0020E62
:1039A8007B61D9EF1CF0DBEF1CF0C6EF1CF07BB19C
:1039B800E0EF1CF0E2EF1CF0E3EF1CF07E9FD890E4
:1039C8007B337BC076F0776B786B796B76C079F058
:1039D800786B776B766B76517C1377517D137851C2
:1039E8007E1379517F137A51D8B4FDEF1CF0FFEFA5
:1039F8001CF007EF1DF075BF06EF1DF004EF1DF07A
:103A080007EF1DF07F8F7CC072F07DC073F07EC021
:103A180074F07FC075F01200ABEF1DF00A0EEEECEB
:103A280028F000016D25CA6F000E6E21CB6F000EC5
:103A38006F21CC6F000E7021CD6F7151D96EDA6A8B
:103A4800290EDE6E000EDD6EEEEC28F00001CA5184
:103A58006D5DCB516E59CC516F59CD517059D8B05D
:103A680038EF1DF03AEF1DF092EF1DF0CAEF1DF090
:103A7800899001015CA143EF1DF045EF1DF012EFA5
:103A88001DF0010E0001DF6F12EF1DF0DE51D8A40A
:103A980050EF1DF052EF1DF057EF1DF0010EDE6FD5
:103AA800899012EF1DF0D24BD32BD35109E1050EAB
:103AB800D25DD8A062EF1DF064EF1DF012EF1DF08B
:103AC800000ED36F000ED26F000EDE6F020EDF6F96
:103AD80012EF1DF0DE51D8A474EF1DF076EF1DF043
:103AE8007BEF1DF0010EDE6F898012EF1DF0D24BC7
:103AF800D32BD35109E1C30ED25DD8A086EF1DF0B8
:103B080088EF1DF012EF1DF0000ED36F000ED26F7C
:103B1800000EDE6F010EDF6F12EF1DF0DF51726FC6
:103B2800736B7351000AD8B49CEF1DF012EF1DF0AF
:103B38007251000AD8B43CEF1DF0010AD8B44AEF1C
:103B48001DF0030AD8B46EEF1DF012EF1DF000014E
:103B58007151D96EDA6ADECF72F0DDCF73F073512E
:103B6800000AD8B4BAEF1DF0C5EF1DF07251000A73
:103B7800D8B412EF1DF0290AD8B428EF1DF0C5EF0C
:103B88001DF07151D96EDA6ADE6ADD6A1200000E24
:103B98000001796F000E786F000E776FD6EF1DF079
:103BA800734B742B73C0D9FF74C0DAFF200EDE1874
:103BB800D8B4E1EF1DF0E3EF1DF0D4EF1DF073C0B2
:103BC800D9FF74C0DAFFDF50756FF70E7527040E42
:103BD8007565F1EF1DF0F3EF1DF0D4EF1DF073C024
:103BE800D9FF74C0DAFF2D0EDE18D8A4FEEF1DF041
:103BF80000EF1EF006EF1EF0010E776F734B742B6B
:103C080032EF1EF073C0D9FF74C0DAFF2B0EDE1836
:103C1800D8A411EF1EF013EF1EF032EF1EF002EFE2
:103C28001EF078C06DF079C06EF0000E706F0A0E4D
:103C38006F6F5CEC28F073C0D9FF74C0DAFFDF50F7
:103C48000001756F75516D5F000E6E5B300E6D254E
:103C5800786F000E6E21796F02EF1EF073C0D9FFE6
:103C680074C0DAFFDF50756FD00E7527090E7565C1
:103C780040EF1EF042EF1EF015EF1EF07751D8A46A
:103C880048EF1EF04AEF1EF058EF1EF078C075F0AE
:103C980079C076F0751F761F754B762B75C073F05B
:103CA80076C074F05CEF1EF078C073F079C074F0E1
:103CB80012000101FB35FC350001B76FB751D8A4DC
:103CC80068EF1EF06AEF1EF075EF1EF0000E01019E
:103CD800F96F000EFA6F000EFB6F000EFC6FEBEF32
:103CE8001EF0F9C14BF2FAC14CF2FBC14DF2FCC116
:103CF8004EF2200E86EF1EF00201D8904E334D335F
:103D08004C334B33E82E80EF1EF04B510001B66F59
:103D18000101FB8FFF0EF917FF0EFA17FF0EFB17B5
:103D2800000EFC17960E0001B75FB7BFA0EF1EF09C
:103D38009EEF1EF0B8EF1EF0B751800A970FD8B06B
:103D4800A8EF1EF0AAEF1EF0ACEF1EF06AEF1EF00F
:103D58000101D890FC33FB33FA33F9330001B73F44
:103D6800ACEF1EF0D2EF1EF01F0EB765BEEF1EF0CF
:103D7800C0EF1EF0CAEF1EF06AEF1EF00101D890E6
:103D8800F937FA37FB37FC370001B707B751D8A422
:103D9800D0EF1EF0D2EF1EF0C2EF1EF0B651D8B42D
:103DA800D8EF1EF0DAEF1EF0E3EF1EF00101FC1F62
:103DB800FB1FFA1FF96D000EFA23FB23FC23F9C140
:103DC800F9F1FAC1FAF1FBC1FBF1FCC1FCF11200F7
:103DD800000E0001856F000E866F000E876F880E3B
:103DE800716F726B000E746F000E736F000E766F3A
:103DF800040E756F93EC27F07AC0D9FF7BC0DAFF09
:103E0800DF500001886F7A4B7B2B7AC0D9FF7BC0CB
:103E1800DAFFDF50896F7A4B7B2B880E736F746BD8
:103E2800CBEC1DF000017351846F7AC0D9FF7BC0C1
:103E3800DAFFDF50886F7A4B7B2B7AC0D9FF7BC0C3
:103E4800DAFFDF50896F7A4B7B2B880E736F746BA8
:103E5800CBEC1DF000017351856F7AC0D9FF7BC090
:103E6800DAFFDF50886F7A4B7B2B7AC0D9FF7BC093
:103E7800DAFFDF50896F7A4B7B2B880E736F746B78
:103E8800CBEC1DF000017351866F7A4B7B2B7AC007
:103E9800D9FF7BC0DAFFDF50886F000E896F880E6C
:103EA800736F746BCBEC1DF000017351876F7CC08E
:103EB800D9FF7DC0DAFF84C0DFFF7EC0D9FF7FC095
:103EC800DAFF85C0DFFF80C0D9FF81C0DAFF86C076
:103ED800DFFF82C0D9FF83C0DAFF87C0DFFF12008F
:103EE8000600E1CF02F0E2CF03F0D9CF04F0DACF39
:103EF80005F0F2A482EF1FF084EF1FF0D6EF1FF059
:103F0800FF0ED76EEC0ED66EF294010E3A26000E16
:103F18003B223C223D223D503C100BE1600E3A5CB6
:103F2800EA0E3B58D8A09BEF1FF09DEF1FF0D6EF8D
:103F38001FF0000E3A6E000E3B6E000E3C6E000E37
:103F48003D6E000E0001CA6F000ECB6F000ECC6FE5
:103F5800000ECD6F000EC66F000EC76F000EC86F43
:103F6800000EC96F000EC26F000EC36F000EC46F43
:103F7800000EC56F000E466E000E476E000E486EAE
:103F8800000E496E000E426E000E436E000E446E27
:103F9800000E456E000E3E6E000E3F6E000E406E27
:103FA800000E416E9EAADBEF1FF0DDEF1FF0EBEF76
:103FB8001FF046EC28F0066E060E016EA4EC28F001
:103FC80002012081000E0101D26F000ED16F05C0E1
:103FD800DAFF04C0D9FF03C0E2FF02C0E1FF51923B
:103FE8001100000E00018F6F7EC071F07FC072F06B
:103FF800000E746F000E736F7EC06DF07FC06EF0A0
:1040080058EC26F06DC075F06EC076F093EC27F092
:10401800850E0001716F726B000E746F000E736F66
:10402800000E766F0A0E756F93EC27F07CC074F063
:104038007DC075F080C076F081C077F094EC21F0F7
:1040480074C090F075C091F0010E00019025906F3A
:10405800000E9121916F3EEF20F090C0D9FF91C0E2
:10406800DAFF8F51850FE16EE26ADFCFE7FF8F2B12
:10407800904B912B90C0D9FF91C0DAFFDF50846F2D
:1040880082C0F6FF83C0F7FF0800F5508419D8A452
:1040980050EF20F052EF20F031EF20F07EC071F0A9
:1040A8007FC072F0850E736F746B850E6D6F6E6BCB
:1040B80058EC26F06DC075F06EC076F023EC26F053
:1040C8001200000171517211D8B46DEF20F06FEF3A
:1040D80020F078EF20F071517211D8A476EF20F01B
:1040E80078EF20F07DEF20F06F510DEC29F0CAEF4A
:1040F80020F020EE0AF07151D9267251DA22DE50F2
:10410800DE10D8B48AEF20F08CEF20F0A7EF20F073
:1041180020EE0AF07151D9267251DA2210EE03F01E
:104128007151E1267251E222DE50E65CE650800AC7
:10413800776FDE50800A7759D8B0A5EF20F0A7EF47
:1041480020F0CAEF20F020EE03F07151D926725109
:10415800DA22DECF73F0DDCF74F071C0D9FF72C000
:10416800DAFFDECF75F0DDCF76F073517525D96EA5
:1041780074517621DA6E6FC0DFFF20EE03F07151C3
:10418800D9267251DA22DE2A000EDD2212000B50E7
:104198000C10D8B4D2EF20F0D4EF20F0DDEF20F0EF
:1041A8000B500C10D8A4DBEF20F0DDEF20F0E2EF8D
:1041B80020F009506FEC29F02FEF21F020EE0AF0E3
:1041C8000B50D9260C50DA22DE50DE10D8B4EFEFAF
:1041D80020F0F1EF20F00CEF21F020EE0AF00B5068
:1041E800D9260C50DA2210EE03F00B50E1260C50C1
:1041F800E222DE50E65CE650800A116EDE50800A4C
:104208001158D8B00AEF21F00CEF21F02FEF21F070
:1042180020EE03F00B50D9260C50DA22DECF0DF039
:10422800DDCF0EF00BC0D9FF0CC0DAFFDECF0FF0E8
:10423800DDCF10F00D500F24D96E0E501020DA6E1D
:1042480009C0DFFF20EE03F00B50D9260C50DA220C
:10425800DE2A000EDD22120000017107D8A07207C5
:10426800712906E17229D8A43CEF21F03EEF21F034
:104278004BEF21F0000E6E6F000E6D6F93EF21F083
:104288006D4B6E2B6F4B702B7107D8A072076DC0EA
:10429800D9FF6EC0DAFFDF50D8B455EF21F057EFE1
:1042A80021F082EF21F06FC0F6FF70C0F7FF080021
:1042B800F5500009D8B463EF21F065EF21F082EFE3
:1042C80021F071517211D8B46CEF21F06EEF21F02A
:1042D80082EF21F06DC0D9FF6EC0DAFFDF50736F37
:1042E8006FC0F6FF70C0F7FF0800F5507319D8B417
:1042F80080EF21F082EF21F044EF21F06DC0D9FF6B
:104308006EC0DAFFDF50736F6FC0F6FF70C0F7FF43
:104318000800F550735D6D6F6E6BD8A06E071200C4
:10432800000176517711D8B49CEF21F09EEF21F06F
:10433800F2EF21F076C06DF077C06EF058EC26F001
:104348006DC078F06EC079F0DCEF21F074C06DF0CC
:1043580075C06EF076C06FF077C070F078C071F0FD
:1043680079C072F030EC21F000016D516E11D8A4C3
:10437800C0EF21F0C2EF21F0C8EF21F074C074F053
:1043880075C075F0F6EF21F0010E74256D6F000E03
:1043980075216E6F76C0F6FF77C0F7FF0800F550FD
:1043A8006F6F706B81EC26F06DC074F06EC075F0A5
:1043B800000174517511D8B4E4EF21F0E6EF21F053
:1043C800F2EF21F074C0D9FF75C0DAFFDF50D8A42E
:1043D800F0EF21F0F2EF21F0AAEF21F0000E746F58
:1043E800000E756F1200000E0001726F70BF01EFB2
:1043F80022F0FFEF21F007EF22F06F6D701FD8B0A9
:10440800702B010E726F6EBF0EEF22F00CEF22F0D0
:1044180014EF22F06D6D6E1FD8B06E2B010E721B5B
:10442800000E746F000E736F6F517011D8B41FEFC8
:1044380022F021EF22F049EF22F0010E716F29EFEF
:1044480022F0D8906F377037712B70AF2EEF22F0B3
:1044580030EF22F025EF22F0D890733774376F5180
:104468006D5D70516E59D8A03CEF22F03EEF22F0FE
:1044780043EF22F06F516D5F70516E5B7381D8907E
:1044880070336F33712F30EF22F07251D8B44FEF81
:1044980022F051EF22F055EF22F0736D741FD8B05F
:1044A800742B73C06DF074C06EF01200000E0C6EA9
:1044B8000ABE63EF22F061EF22F069EF22F0096C87
:1044C8000A1ED8B00A2A010E0C6E08BE70EF22F040
:1044D8006EEF22F076EF22F0076C081ED8B0082A9B
:1044E800010E0C1A000E0E6E000E0D6E09500A1009
:1044F800D8B481EF22F083EF22F0ABEF22F0010E67
:104508000B6E8BEF22F0D89009360A360B2A0AAECA
:1045180090EF22F092EF22F087EF22F0D8900D363C
:104528000E360950075C0A500858D8A09EEF22F0B2
:10453800A0EF22F0A5EF22F00950075E0A50085AB2
:104548000D80D8900A3209320B2E92EF22F00C50CF
:10455800D8B4B1EF22F0B3EF22F0B7EF22F00D6C30
:104568000E1ED8B00E2A0DC007F00EC008F01200BB
:104578008B0EF66E7E0EF76E20EE78F0060E0900B2
:10458800F5CFDEFFE806FBE2000E0001866F7CEC4B
:1045980029F0D00E14EC29F000018651780FD96E5D
:1045A800DA6ADF5014EC29F080EC29F0D10E14EC13
:1045B80029F0000186517F0FD96EDA6A000E13ECDC
:1045C80027F0B2EC28F0DF6E78EC29F00001862B9A
:1045D800060E8665F2EF22F0F4EF22F0CBEF22F020
:1045E8007151D96EDA6A81C0DFFF7251D96EDA6A09
:1045F80080C0DFFF7351D96EDA6A7FC0DFFF745164
:10460800D96EDA6A82C0DFFF7551D96EDA6A83C063
:10461800DFFF7651D96EDA6A84C0DFFF7751D96E31
:10462800DA6A85C0DFFF120093809382C78EC68A3C
:10463800C650F00B0809C66E000E0101F16F000E9E
:10464800F26F800EF36FBF0EF46F000E0001846FDF
:10465800000E856F800E866F400E876F4FC272F016
:1046680050C273F051C274F052C275F0000E34ECAF
:104678001CF072C080F073C081F074C082F075C005
:1046880083F080EC10F080C09DF081C09EF082C065
:104698009FF083C0A0F0800E0001996F960E9A6F6C
:1046A800980E9B6F4B0E9C6F96EC12F099C0EDF133
:1046B8009AC0EEF19BC0EFF19CC0F0F104EC0EF053
:1046C800EDC1F9F1EEC1FAF1EFC1FBF1F0C1FCF176
:1046D8005DEC1EF00101F951C86E000EC56E1200A6
:1046E800000E0001726F6EBF7EEF23F07CEF23F0A7
:1046F80084EF23F06D6D6E1FD8B06E2B010E726FB4
:1047080070BF8BEF23F089EF23F08FEF23F06F6DED
:10471800701FD8B0702B6F517011D8B496EF23F07A
:1047280098EF23F0BCEF23F0010E716FA0EF23F098
:10473800D8906F377037712B70AFA5EF23F0A7EFC4
:1047480023F09CEF23F06F516D5D70516E59D8A026
:10475800B0EF23F0B2EF23F0B6EF23F06F516D5FA7
:1047680070516E5BD89070336F33712FA7EF23F0C1
:104778007251D8B4C2EF23F0C4EF23F0C8EF23F08E
:104788006D6D6E1FD8B06E2B6DC06DF06EC06EF083
:104798001200000E0C6E08BED6EF23F0D4EF23F003
:1047A800DCEF23F0076C081ED8B0082A010E0C6E47
:1047B8000ABEE3EF23F0E1EF23F0E7EF23F0096C03
:1047C8000A1ED8B00A2A09500A10D8B4EEEF23F00E
:1047D800F0EF23F014EF24F0010E0B6EF8EF23F046
:1047E800D89009360A360B2A0AAEFDEF23F0FFEF00
:1047F80023F0F4EF23F00950075C0A500858D8A0BA
:1048080008EF24F00AEF24F00EEF24F00950075EB9
:104818000A50085AD8900A3209320B2EFFEF23F0BB
:104828000C50D8B41AEF24F01CEF24F020EF24F039
:10483800076C081ED8B0082A07C007F008C008F09F
:1048480012007F0E0001716F726B000E746F000E04
:10485800736F000E766F2D0E756F93EC27F07F0E39
:104868000001716F726B7CC073F07DC074F07CC006
:104878006DF07DC06EF058EC26F06DC075F06EC01E
:1048880076F023EC26F07F0E00016D6F6E6B58EC0E
:1048980026F06DC0ACF06EC0ADF0000E0001AF6F39
:1048A800000EAE6F68EF24F0AE517F0FD96EDA6A52
:1048B800DF50AD6EACA263EF24F065EF24F05EEF3D
:1048C80024F00001AE4BAF2BAE51AC5DAD51800A68
:1048D8007E6FAF51800A7E59D8B075EF24F077EF1C
:1048E80024F058EF24F01200000E0001866F810EAC
:1048F800716F726B000E746F000E736F000E766F1F
:10490800040E756F93EC27F07AC074F07BC075F0D5
:104918007CC076F07DC077F094EC21F074C087F00D
:1049280075C088F0010E00018725876F000E882169
:10493800886FACEF24F087C0D9FF88C0DAFF8651B2
:10494800810FE16EE26ADFCFE7FF862B874B882B6A
:1049580087C0D9FF88C0DAFFDF50806F7EC0F6FFBE
:104968007FC0F7FF0800F5508019D8A4BEEF24F0E7
:10497800C0EF24F09FEF24F0810E736F746BCBECC3
:104988001DF000017351856F855112000001856F7C
:10499800840EF66E7E0EF76E20EE7EF0060E09008F
:1049A800F5CFDEFFE806FBE27D0EF66E7E0EF76EB3
:1049B80020EE86F0060E0900F5CFDEFFE806FBE2E2
:1049C80085C086F078C087F079C088F07AC089F011
:1049D8007BC08AF07CC08BF07DC08CF0000E00019B
:1049E8008D6F7CEC29F0D00E14EC29F000018D516C
:1049F8007E0FD96EDA6ADF5014EC29F000018D5170
:104A0800860FD96EDA6ADF5035EC27F014EC29F0FE
:104A180078EC29F000018D2B060E8D6516EF25F038
:104A280018EF25F0F5EF24F01200000E0001816F59
:104A3800820E716F726B000E746F000E736F000E32
:104A4800766F040E756F93EC27F07AC0D9FF7BC0A0
:104A5800DAFFDF500001826F7A4B7B2B7AC0D9FFD7
:104A68007BC0DAFFDF50836F7A4B7B2B820E736F2C
:104A7800746BCBEC1DF000017351806F7AC0D9FFC5
:104A88007BC0DAFFDF50826F7A4B7B2B7AC0D9FF6D
:104A98007BC0DAFFDF50836F820E736F746BCBECD1
:104AA8001DF000017351816F7CC0D9FF7DC0DAFF12
:104AB80080C0DFFF7EC0D9FF7FC0DAFF81C0DFFF83
:104AC8001200ACC071F0ADC072F0000E0001746F3E
:104AD800000E736FACC06DF0ADC06EF058EC26F0F0
:104AE8006DC075F06EC076F093EC27F0080E0001EB
:104AF800AE19D8A482EF25F084EF25F090EF25F0C9
:104B0800ACC08FF0ADC090F0E00E916F7F0E926F49
:104B1800CDEC26F0AFEF25F0090EAE19D8A497EF2B
:104B280025F099EF25F0A5EF25F0ACC08FF0ADC0CA
:104B380090F0EA0E916F7F0E926FCDEC26F0AFEFFA
:104B480025F0ACC08FF0ADC090F0E40E916F7F0EF1
:104B5800926FCDEC26F012000F0EC16ED7EC28F044
:104B6800800E00016D6F250E6E6F000E6F6F000EC8
:104B7800706FCBEC28F084EC28F074EC29F0A00ED0
:104B880002014F6F860E506F010E516F000E526F6B
:104B980018EC23F086EC29F084EC29F01BEC29F0C2
:104BA80033EC29F02DEC29F039EC29F027EC29F029
:104BB80021EC29F03FEC29F063EC29F051EC29F0C5
:104BC80069EC29F04BEC29F045EC29F0DEEF25F0F3
:104BD80062EF00F0ACC071F0ADC072F0000E0001E1
:104BE800746F000E736FACC06DF0ADC06EF058EC12
:104BF80026F06DC075F06EC076F093EC27F00001DA
:104C0800AE51D8B40AEF26F00CEF26F018EF26F0D4
:104C1800ACC08FF0ADC090F0E70E916F7F0E926F31
:104C2800CDEC26F022EF26F0ACC08FF0ADC090F0AE
:104C3800DC0E916F7F0E926FCDEC26F0120073C0E0
:104C48007AF074C07BF071C078F072C079F049EFE7
:104C580026F07AC0F6FF7BC0F7FFF86A070EF76404
:104C680003D00800F55005D0F6CFE1FFF7CFE2FFFB
:104C7800E7500001776F7A4B7B2B78C0D9FF79C05A
:104C8800DAFF77C0DFFF784B792B00017507D8A0D2
:104C98007607752906E17629D8A455EF26F057EF4F
:104CA80026F02DEF26F012006DC06FF06EC070F088
:104CB80061EF26F000016D4B6E2B6DC0F6FF6EC0E4
:104CC800F7FFF86A070EF76403D00800F55005D01F
:104CD800F6CFE1FFF7CFE2FFE7500009D8A477EF5E
:104CE80026F079EF26F05EEF26F000016F516D5D3A
:104CF8006D6F70516E596E6F12006DC0D9FF6EC026
:104D0800DAFF00016F51DE18D8A48DEF26F08FEF7F
:104D180026F095EF26F06DC06DF06EC06EF0A7EF2F
:104D280026F06DC0D9FF6EC0DAFF6D4B6E2BDF50D9
:104D3800D8A4A1EF26F0A3EF26F081EF26F0000E0D
:104D48006D6F000E6E6F12008AC08DF08BC08EF0F2
:104D5800B9EF26F088C078F089C079F08D0E00018F
:104D68007A6F8CC07BF000EC16F08DC0F6FF8EC019
:104D7800F7FF0800F5500009D8A4C5EF26F0C7EFE3
:104D880026F0AEEF26F0000E0001896F000E886F46
:104D98001200930E00019F6F8FC0A0F090C0A1F089
:104DA800000EA46F000EA36F000EAB6F000EAA6F6B
:104DB800A00E886F896B91C08AF092C08BF09F0E0D
:104DC8008C6FA8EC26F00001A3518F25D96EA45151
:104DD8009021DA6EDF6A120024C027F025C028F07F
:104DE80000EF27F022C012F023C013F0270E146E34
:104DF80026C015F098EC17F027C0F6FF28C0F7FF7B
:104E08000800F5500009D8A40CEF27F00EEF27F0A2
:104E1800F6EF26F0000E236E000E226E120000013F
:104E28006F6F70EC28F0C58670EC28F0C9CF70F071
:104E380070EC28F000016F51D8B425EF27F029EF66
:104E480027F06E6B6E2B2BEF27F000016E6B6E3B1D
:104E58006E47C5506E19DF0B6E19C56EC588705147
:104E680012000001776F77C06DF000016E6B000EC5
:104E7800706F0A0E6F6F74EC23F06DC075F06EC022
:104E880076F077C06DF000016E6B000E706F0A0E41
:104E98006F6FF7EC21F000016D51100DF35075257F
:104EA800120002EE00F04B0EEE6AE806FDE101EE9C
:104EB80000F0ED0EEE6AE806FDE100EEB8F03B0EFC
:104EC800EE6AE806FDE100EE2CF0250EEE6AE80633
:104ED800FDE151905192000EF86E0001B0EF25F0FF
:104EE8000001716F71C06FF000016F476F47C250CA
:104EF8006F19C30B6F19C26EC282C2B286EF27F058
:104F080088EF27F081EF27F0C4500001706F6F6BB6
:104F1800C3506F256D6F000E70216E6F120071C047
:104F280077F072C078F0A1EF27F077C0D9FF78C08A
:104F3800DAFF73C0DFFF774B782B00017507D8A025
:104F48007607752906E17629D8A4ADEF27F0AFEFEB
:104F580027F099EF27F01200000174BFB6EF27F091
:104F6800B8EF27F0BEEF27F073C073F074C074F089
:104F7800CAEF27F073C075F074C076F0751F761FFE
:104F8800754B762B75C073F076C074F012007CEC0C
:104F980029F0D00E14EC29F0000E14EC29F080EC66
:104FA80029F0D10E14EC29F000017151D96EDA6A9A
:104FB800000E13EC27F0B2EC28F0DF6E78EC29F045
:104FC80012000EBEEAEF27F0ECEF27F0F2EF27F021
:104FD8000DC00DF00EC00EF0FEEF27F00DC00FF063
:104FE8000EC010F00F1E101E0F4A102A0FC00DF031
:104FF80010C00EF0120000016D5101015D190BE1A6
:1050080000016E5101015E19D8B40DEF28F00FEFC1
:1050180028F016EF28F06DC05DF16EC05EF1010E4C
:1050280017EF28F0000E12006DC0A9FF6FC0A8FF8F
:10503800A69EA69CA684F29E550EA76EAA0EA76EE3
:10504800A682F28EA1A82BEF28F02DEF28F026EFEC
:1050580028F0A198A694120079C071F07AC072F075
:10506800000E0001746F000E736F79C06DF07AC086
:105078006EF058EC26F06DC075F06EC076F093ECCB
:1050880027F012009EAA4BEF28F04DEF28F05AEFB8
:1050980028F0ABA252EF28F054EF28F057EF28F091
:1050A800AB980000AB88AE505BEF28F0000E120002
:1050B80000016D516F03F3CF71F0F4CF72F06D51B1
:1050C8007003F35072276E516F03F350722771C04B
:1050D8006DF072C06EF01200C5CF6DF01F0E0001AA
:1050E8006D17D8A47AEF28F07CEF28F070EF28F03D
:1050F800C7B481EF28F083EF28F070EF28F0120092
:10510800CF0EC116C150F00B0B09C16EC050C70BB2
:105118001009C06EC050F80B0409C06EC08EC28062
:1051280012002B0E2B6E000E226E000E236E29C06D
:1051380024F02AC025F02B0E266EF0EC26F0120083
:105148000150D96EDA6A210E02014925E16EE26A40
:10515800020EE222DFCFE7FF492B120000016E6F3B
:105168006EC06DF00F0E00016D176E390F0B0A0D32
:10517800F3506D25120000016D6F6DC0ADFFACA23C
:10518800C8EF28F0CAEF28F0C3EF28F01200AC945B
:10519800948E949CAC98AC9C200EAF6EAB8EAC8A6F
:1051A800AB889D8A1200D08EF28EF28CF28AF28E33
:1051B800FF0ED76EEC0ED66E870ED56E1200076EF8
:1051C80007C0ADFFACA2EBEF28F0EDEF28F0E6EF5B
:1051D80028F012003AC06DF03BC06EF03CC06FF092
:1051E8003DC070F01200020E0001D96F020ED76F99
:1051F800010ED66F12006DC0D9FF6EC0DAFFDE6AED
:10520800DD6A12006DC0A9FFA69EA69CA680A850C4
:10521800120000016E6F00016E51BFEC28F0120001
:1052280000016E6F70EC28F06EC0C9FF1200000E0E
:105238000001F26F000EF16F1200000E0001E86F1E
:10524800000EE76F1200000E0001EA6F000EE96F12
:105258001200000E0001EE6F000EED6F1200000E3E
:105268000001F06F000EEF6F1200000E0001EC6FEE
:10527800000EEB6F1200F10E0001716F10EC1DF0C3
:105288001200E70E0001716F57EC1BF01200E90ED7
:105298000001716F67EC1AF01200ED0E0001B66F95
:1052A8007FEC0AF01200010E0001D96F010ED66FD3
:1052B800120001015D695E696DC0DCF01200EF0E3D
:1052C8000001926F64EC00F01200EB0E0001876F92
:1052D8002AEC06F01200086E0850E3EC28F01200E1
:1052E800929089808990120070EC28F0C584120091
:1052F80070EC28F0C580120070EC28F0C58212000E
:0853080094941200949012002D
:107E7C0000000000000000000201000405060300E1
:107E8C000102040506034E6F202D20202020496E90
:107E9C0069202020202D20202046696E20202020C3
:107EAC002D204F6E202D2044696173200A0D0A0D80
:107EBC000020352020202D2025643A256420202008
:107ECC002D2025643A256420202D202573202D207B
:107EDC0025730A0D0A0D0020312020202D20256449
:107EEC003A25642020202D2025643A256420202D5D
:107EFC00202573202D2025730A0D002032202020F0
:107F0C002D2025643A25642020202D2025643A2537
:107F1C006420202D202573202D2025730A0D002090
:107F2C00332020202D2025643A25642020202D206C
:107F3C0025643A256420202D202573202D202573BF
:107F4C000A0D0020342020202D2025643A256420A1
:107F5C0020202D2025643A256420202D20257320F7
:107F6C002D2025730A0D00494E4943494F20494E97
:107F7C0054455252555043494F4E20494E54310DA1
:107F8C000A000A0D42414C495A4120414C41524D84
:107F9C00412056312E300A0D0A0D0046494E20491B
:107FAC004E54455252555043494F4E20494E543130
:107FBC000D0A0025642F25642F25642D25640A0DD8
:107FCC000A0D0A0D0025643A25643A25640A0D0051
:107FDC004F464600446961005344004F4E004C56D6
:107FEC0000BF002C003F0041004300450049004CFD
:047FFC00005200002F
:020000040020DA
:08000000FFFFFFFFFFFFFFFF00
:020000040030CA
:0E000000000C181EFF8381FF0FC00FE00F40A1
:00000001FF
